:020000040000FA
:10000000200A0020B5000000BF0000009900000099
:1000100000000000000000000000000000000000E0
:10002000000000000000000000000000C30000000D
:100030000000000000000000C500000055020000A4
:10004000C9000000C9000000C9000000C90000008C
:10005000B90B0000C9000000C9000000C900000081
:10006000C9000000C9000000C9000000C90000006C
:10007000C9000000C9000000C9000000C90000005C
:10008000C90000000348854600F07CF8004800479E
:10009000A1090000200A002004207146084202D075
:1000A000EFF3098001E0EFF308807146004A104742
:1000B00035080000054A064B136006480047FEE776
:1000C000FEE7FEE7FEE7FEE7FEE70000A0000640D1
:1000D0002D0100008500000030B50B4601460020D0
:1000E0002022012409E00D46D5409D4205D31D463E
:1000F0009540491B2546954040191546521E002D36
:10010000F1DC30BDF0B51FB40646002082B00546D4
:100110004024019100901BE0019922460F46304691
:1001200000F042F8049A059B801A994110D31046BA
:100130001946224600F016F8361A8F4101972246DA
:1001400001200021009F00F00DF838184D4100906B
:100150002046641E0028DFDC019B009829463246B9
:1001600007B0F0BD10B5202A04DB0146203A9140CB
:10017000002010BD914020239C1A0346E340194300
:10018000904010BD064C0125064E05E0E36807CC03
:100190002B430C3C98471034B442F7D3FFF776FF5B
:1001A000280C0000480C000010B5202A04DB08468B
:1001B000203AD040002110BD0B46D340D04020242F
:1001C000A21A91400843194610BD0000014A024B93
:1001D00013607047A00006402D01000070B5034673
:1001E000002000BF19E00C46C440E407E40F002CD7
:1001F00012D01479D5782C4395782C4355782C431C
:100200005D01074EAD198600AC5514785D01044EB2
:10021000AD198600AD196C70401C0828E3D370BD81
:100220000000044010B50446E1B2024800F0EEFCC4
:10023000204610BD00000140012101488167704740
:100240000000064001214902014881677047000013
:100250000000064002480068401C014908607047E1
:100260000C000020016070470FB410B503A9044BC7
:10027000044A029800F018F810BC08BC04B01847F3
:100280001D0800001800002002E008C8121F08C165
:10029000002AFAD170477047002001E001C1121F07
:1002A000002AFBD170470000FFB58FB00F4604460F
:1002B000002606E025280AD0129A11999047641C5E
:1002C000761C20780028F5D1304613B0F0BD00250B
:1002D0000121A14A009500E00543641C23780846EB
:1002E000203B98401042F7D120782E2815D10420C9
:1002F00005436078641C2A280AD101CF641C009051
:100300000BE000990A22514330394018641C0090D8
:100310002078014630390929F3D920786C280ED08D
:1003200004DC4C2813D06A2812D104E074280ED0C3
:100330007A280DD10BE001204005054307E001219B
:10034000090562780D43824201D16D18641C641C5A
:100350002078864669284AD008DC0028B4D058287E
:100360006DD0632810D0642808D140E070286BD08D
:10037000732812D0752860D0782860D0129A704601
:1003800011999047761CE5E038786946087200209C
:10039000487202A80190012003E038680190002013
:1003A000C0433F1D69070CD5002500E06D1C009976
:1003B0008D420FDA8542F9DB0199495D0029F5D1BB
:1003C00008E0002500E06D1C8542FCDB0199495DD9
:1003D0000029F8D1761907E0019801990078491CA5
:1003E0000191129A119990476D1EF5D2B2E00A2040
:1003F000029000216802400F039102280CD001CF27
:10040000C117844600290DDA62460846524200218F
:10041000814194462D2008E0FF1DFF08FF0003CF17
:100420008446EFE7280504D52B206A461074012086
:100430003CE0E8073AD02020F7E70A2000E010204F
:1004400000210391029007E0102002900021042077
:1004500005430820039100906802400F022810D045
:1004600001CF0021844600200D9028071FD570463B
:1004700070280CD0029A1020039B42401A430CD0E3
:1004800015E0FF1DFF08FF0003CF8446EBE7402087
:100490006A46107401200D900CE06046084306D0B7
:1004A00030206A4610747046507402200D907046D9
:1004B000582804D029A001900DA80E900DE02CA082
:1004C000F9E76046039B029AFFF71CFE019B8446F6
:1004D0009B5C0E9A521E0E92137060460843F0D138
:1004E0000E9805A9081A20300190680701D50098D8
:1004F00001E0012000900199884203DD0146019846
:10050000081A00E000200025009006E004A8129AD6
:10051000405D119990476D1C761C0D988542F5DB66
:1005200004E0129A302011999047761C0099481ED9
:1005300000900029F5DC08E00E980E990078491C1F
:100540000E91129A11999047761C0199481E0190BC
:100550000029F1DC641CB4E6092801003031323393
:1005600034353637383961626364656600000000EF
:1005700030313233343536373839414243444546D9
:100580000000000000BFFEE70146074A05E0C86919
:10059000C007C00F002800D170471046521E002827
:1005A000F5D1401EF8E700001027000070B50546A1
:1005B0000C460026F6432846FFF7E6FF0646002EC7
:1005C00002DA0020C04370BDE168A068884204D907
:1005D000A068E168A160E06000BFA169E0698142B4
:1005E00004D9A069E269A261E06100BF2079C0017D
:1005F000E17889010843A17849010843617809013C
:10060000084321780843686020890004E1680843B2
:10061000E860207DC001E17C89010843A17C49019B
:100620000843617C09010843217C0843A860208BB2
:100630000004E169084328612820005D002802D0F9
:10064000284600F015F8284600F008F8208C8005B0
:100650008009616A084368610020B4E701680122EB
:100660001143016070478169022211438161704723
:10067000816901221143816170470000F7B582B0A2
:1006800004460F46F8000499FFF726FD0546EE09DB
:10069000F0012D1A681C40080190666206488642E7
:1006A00002D10020A06202E0AD1B0198A062E06AC6
:1006B000E06205B0F0BD0000FFFF00000146886960
:1006C0000007C00F704701468869C006C00F704719
:1006D000014688698006C00F704770B504460D4614
:1006E000002020636064A06360606062A062E062DA
:1006F00020462A69E968FFF7C1FF68784007C00F04
:10070000C001297849010843A97809010843E9781B
:10071000C900084369788907490F0843E062287ACD
:10072000E979C9000843606300E026682046FFF7C6
:10073000CAFF0128F9D1761C0020A0632879400265
:10074000697909020843A9790843206370BD000054
:1007500070B588B004460D461646FFF773FDFFF7E7
:100760006BFD002E06D0012E0FD0022E18D0032EC6
:100770002CD120E0D021684601714121017201AAEB
:1007800030210020FFF72AFD2BE0D02168460171BF
:100790004121017201AAC0210120FFF71FFD20E0C5
:1007A000E021684601714121017201AA0321012063
:1007B000FFF714FD15E0E021684601714121017247
:1007C00001AA0C210320FFF709FD0AE0D0216846A9
:1007D00001714121017201AA30210020FFF7FEFCC6
:1007E00000BF00BF0321684601730021417301214E
:1007F00081730021C173012101744174817400214E
:10080000C174022101750694079503A90248FFF7F8
:1008100064FF08B070BD00000000014070B50446E0
:100820000D460A2C02D10D20FFF7FCFC2046FFF7F5
:10083000F9FC70BD70B504460D4619A0FFF714FD14
:1008400027A02168FFF710FD28A06168FFF70CFDC5
:1008500029A0A168FFF708FD2AA0E168FFF704FDC1
:100860002BA02169FFF700FD2DA06169FFF7FCFCBB
:100870002EA0A169FFF7F8FC2FA0E169FFF7F4FCB7
:10088000294631A0FFF7F0FC34A0FFF7EDFC002073
:100890004249086000BF414800680028FBD070BD95
:1008A0000A2A2A2A2A2A2A2A2A2A546865207361AF
:1008B0007665642072656769737465727320667209
:1008C0006F6D2074686520737461636B2A2A2A2A0D
:1008D0002A2A2A2A2A2A2A2A2A2A2A2A0A00000016
:1008E000723020697320307825780A0072312069CF
:1008F0007320307825780A007232206973203078AE
:1009000025780A00723320697320307825780A0030
:1009100072313220697320307825780A0000000097
:100920006C7220697320307825780A007063206922
:100930007320307825780A00707372206973203034
:100940007825780A0000000063757272656E745F26
:100950006C7220697320307825780A002A2A2A2AA6
:100960002A2A2A2A2A2A2A2A2A2A2A2A2A2A2A2AE7
:100970002A2A2A2A2A2A2A2A2A2A2A2A2A2A2A2AD7
:100980002A2A2A2A2A2A2A2A2A2A2A2A2A2A2A2AC7
:100990002A2A2A2A2A2A2A2A2A0A000010000020A3
:1009A00010B58CB00024E4430322E12149024248FF
:1009B000FFF7CEFE41A0FFF757FC40A0FFF754FC25
:1009C00040A0FFF751FC3DA0FFF74EFC3BA0FFF716
:1009D0004BFC00BF4148FFF771FE0128FAD040A050
:1009E000FFF742FC62B645A0FFF73EFC0420012160
:1009F00081404B4A116000BF4AA0FFF735FC04203C
:100A0000012181404E4A116000BFF0214D484170E4
:100A1000001D4170012108A80173102009904A4867
:100A20000A904A4804907D20C000039068460171F6
:100A30000172C17100218171012141714449089104
:100A4000491007910121017501A80175C1740021A8
:100A50008174012141743FA0FFF706FC01A94348BE
:100A6000FFF7A4FD0446002C03DA382140A0FFF76D
:100A7000FBFB00BF464800680428FBD3042001218B
:100A800081402F4A8032116000BF0CA0FFF7ECFBC1
:100A90000AA0FFF7E9FB3FA0FFF7E6FB07A0FFF77F
:100AA000E3FB06A0FFF7E0FB42A0FFF7DDFBFFF74B
:100AB00069FD12200CB010BD00366E013D3D3E2098
:100AC0000A0000003D3D3E20544553542050574DF0
:100AD00020426567696E200A0000000000000140A6
:100AE0002F2F204D616B652043505520456E61626C
:100AF0006C6520497271200A000000002F2F2043EE
:100B00006C6561722050574D302D33204E5649434D
:100B10002050656E64696E6720497271200A00007A
:100B200080E200E02F2F20456E61626C65205057F7
:100B30004D302D33204E56494320497271200A0012
:100B400000E100E04800044088130000B80B0000FA
:100B500098080000436F6E666967696E67204150B0
:100B6000425F50574D30200A0000000000800340D3
:100B70005B25645D20436865616B20434D442053D1
:100B800074617475732062757379200A0000000027
:100B9000140000203D3D3E20544553542050574DF5
:100BA000206F6E2050433220616E6420504333200A
:100BB0000A0000002300000010B506480068401C31
:100BC000044A0146106004A0FFF74EFB0E48FFF7F1
:100BD0004AFD10BD140000203E3E3E206E30345FC2
:100BE00050574D305F49525148616E646C657220B8
:100BF00048617070656E642025642074696D65734A
:100C0000203C3C3C200A00000080034070B50446B4
:100C10000D4600BF2046FFF75BFD0128FAD02946AC
:100C20002046FFF71FFB70BD480C000000000020AD
:100C30002000000088020000680C00002000002056
:100C4000000A000098020000000000000000000000
:100C50000000000000000000000000000000000094
:080C600000000000000000008C
:04000005000000B542
:00000001FF
