:020000040000FA
:10000000600D0020B5000000BD0000009900000058
:1000100000000000000000000000000000000000E0
:10002000000000000000000000000000C10000000F
:100030000000000000000000C3000000C10F00002D
:10004000C7000000C7000000C7000000C700000094
:10005000C7000000C7000000C7000000C700000084
:10006000C7000000C7000000C7000000C700000074
:10007000C7000000C7000000C7000000C700000064
:10008000C70000000348854600F07CF9004800479F
:10009000052A0000600D002004207146084202D0AD
:1000A000EFF3098001E0EFF308807146004A104742
:1000B0000525000000F05AFB03480047FEE7FEE775
:1000C000FEE7FEE7FEE7FEE78500000030B50B46E1
:1000D000014600202022012409E00D46D5409D4222
:1000E00005D31D469540491B2546954040191546A8
:1000F000521E002DF1DC30BD10B5202A04DB014674
:10010000203A9140002010BD914020239C1A0346C4
:10011000E3401943904010BD10B5202A04DB084687
:10012000203AD040002110BD0B46D340D0402024BF
:10013000A21A91400843194610BD03460B439B0782
:1001400003D009E008C9121F08C0042AFAD203E04C
:100150000B780370401C491C521EF9D27047D2B272
:1001600001E00270401C491EFBD270470022F6E7F6
:1001700010B513460A4604461946FFF7F0FF20461D
:1001800010BD00000FB400B589B00BA800906A46FE
:1001900003480A9900F0EAF809B008BC04B018470F
:1001A00068000020FFB50027FF4383B000205C6893
:1001B00001909E681D46A9697F1C0498884700909D
:1001C000296A88470028F6D10098401C0CD00320EB
:1001D00040028443002E19DD600614D500982B28B8
:1001E00009D02D280FD103E00020C04307B0F0BD97
:1001F000012080020443A9697F1C04988847761E69
:100200000090002E02DD0098302803D005980028C9
:1002100025D035E0012040020443A969761E7F1CE9
:10022000049888470090002E03DD782805D05828D0
:1002300003D00598002810D022E00598002801D0AE
:1002400010281DD1012040028443A969761E7F1C1D
:10025000049888470090102002E0082000E00A205F
:1002600005900DE0012149020C43059A0199761E83
:10027000514308180190A9697F1C04988847009091
:10028000002E05DD0599009800F061F80028E9DAF4
:10029000E96904988847A00502D40120C043A5E776
:1002A000E00722D1600611D56005019800D54042D3
:1002B00029680A1D2A600968220501D5087014E022
:1002C000220701D5088010E008600EE02868011DB3
:1002D00029600068210502D50199017005E0210718
:1002E000019901D5018000E0016038467EE7F0B554
:1002F0001FB40646002082B00546402401910090BC
:100300001BE0019922460F463046FFF705FF049A8D
:10031000059B801A994110D3104619462246FFF7D3
:10032000EBFE361A8F410197224601200021009FE3
:10033000FFF7E2FE38184D4100902046641E002869
:10034000DFDC019B00982946324607B0F0BD3A2811
:1003500000D23038202302469A43412A01D3104666
:100360003738884201D30020C043704710B5034B93
:100370009361034BD36100F033F810BDD11F00002F
:10038000C7030000064C0125064E05E0E36807CCD4
:100390002B430C3C98471034B442F7D3FFF776FE5A
:1003A000BC380000DC38000010B5094908784C1C46
:1003B000002803D0401E0870205C10BD00210720DB
:1003C000ABBE207010BD02490878421C0A7070470D
:1003D0006C000020026813785118016018467047BD
:1003E00010B5D160044951610449116200211161C5
:1003F000114600F00DF810BDD50300000104000007
:1004000010B50F21C0B2490200F09EF910BD0000E6
:10041000F3B58DB000200A9001200B90002608460D
:100420000C300C4609906269012109989047051E1D
:100430002ED0252D2DD0216A8847002818D062693A
:10044000012109989047216A88470028F7D1411E69
:1004500062690998904700E0761CA1690D98884769
:10046000216A88470028F7D1E1690D988847DAE7C3
:10047000A1690D9888470746A84201D1761CD2E7AA
:10048000E1690D9888477F1C02D10A98002877D02F
:1004900049E1002762693D463946099890472A2874
:1004A0000CD16269012109989047012506E00A21D3
:1004B0004F433F18303FEBD41020054362690121C0
:1004C00009989047014630390A2903D29B498F4247
:1004D000DEDCECE7E90600D4994F6C280AD04C2802
:1004E00010D0682824D06A282ED074280CD07A28FE
:1004F0000AD00DE062690121099890476C2823D049
:1005000004211CE0202005436269012109989047DD
:10051000A760656065284FD026DC582839D01ADCE2
:10052000452849D012DC252834D04128B0D143E0F9
:100530006269012109989047682802D008210D437B
:10054000E6E70120C002DEE70220DCE7462833D0E0
:1005500047282CD130E05B2870D061282CD063284C
:100560006CD0642823D161E06F284FD009DC662865
:1005700022D0672820D0692826D06E2817D12EE0F7
:10058000CDE070284DD073286FD075284ED07828D4
:100590000DD154E0A1690D9888470546252800D162
:1005A0006CE7E1690D9888476D1C00D16DE7BAE0F2
:1005B0000A224CE00A2252E0012023466A46C04348
:1005C0000D99C046C046A3E028464021084360601C
:1005D000A807234601D5002239E000223FE0E807C2
:1005E00000D020E72068011D21600068290501D5A1
:1005F000067018E7290701D5068014E7A90703D577
:10060000F117066041600EE706600CE728464021BE
:1006100008436060A807234601D5082217E0082296
:100620001DE0484928460840606016E02846402101
:1006300008436060A8072346BCD5B9E715E0284603
:10064000402108436060A80707D5234610220120F7
:10065000C0430D99C046C0465AE0234610220120EF
:10066000C0430D99FFF79EFD52E000210C910B460F
:100670000091632802D05B2807D043E0E80601D44C
:100680000120A060012000903CE0626901210998EE
:1006900090475E2805D101200C90014662690998B7
:1006A00090472169002906D10B4601AA8F00491CF9
:1006B000D3510829FADB002835D0216900290ED151
:1006C000C117C90E09184A11930001AA9A184909BD
:1006D0004901411A0120136888400343136062698D
:1006E0000121099890475D28E5D10C98002808D091
:1006F000002001AB81005A58401CD2435A500828B0
:10070000F8DB01AB01202246C0430D99C046C0462C
:1007100000280ADA401C06D10B98002803D00020DC
:10072000C0430FB0F0BD0A98FBE7E90702D10A9970
:10073000491C0A91361800200B9074E6CCCCCC0CE6
:10074000FFFFFF7FF1F7FFFF7F2801D9002207E0BD
:10075000054B42089A5CC00700D112091207120F1C
:100760000120904008407047CA370000014A024B00
:1007700013607047A00006402D0100000348006B85
:10078000400840000149086370470000000007402E
:100790000348006B012108430149086370470000CA
:1007A000000007400349496B012282401143014A7E
:1007B00051637047000007400148C069C0B27047EC
:1007C00000000740002806D10749096B0222914327
:1007D000054A116307E0012805D10349096B04228A
:1007E0009143014A116370470000074001460A78AF
:1007F00092048B781B041A43CB78DB031A430B79E2
:100800009B031A434B79DB021A438B799B011A43F2
:10081000CB795B001A430B7A1A43104670470146A6
:100820000A78D2074B781B071A438B78DB061A43EA
:10083000CB789B061A430B795B061A434B791B0650
:100840001A438B795B051A43CB799B041A430B7AC5
:10085000DB031A434B7A1B031A43CB681A43104637
:10086000704701460A6892000B791A431046704798
:10087000FFB505460E4617460A9C0F4861014650D3
:100880006101401845603846FFF7EBFF01460A4812
:100890006201801881600398FFF7C1FF0146064896
:1008A00062018018C1600998FFF7A0FF0249620148
:1008B00089180861FFBD0000000107400146FF31B3
:1008C000FF310878552806D1481C01460078AA282F
:1008D00001D1012070470020FCE7000070B50346FD
:1008E000002000BF19E00C46C440E407E40F002CD0
:1008F00012D01479D5782C4395782C4355782C4315
:100900005D01074EAD198600AC5514785D01044EAB
:10091000AD198600AD196C70401C0828E3D370BD7A
:1009200000000440F0B5B5B0054600240020349026
:10093000364932913390002691263146102001F03D
:1009400023FB0121FF20413001F014FB00F0A0FE49
:10095000202001F007FB01902D49202001F014FB1D
:1009600032A800F017FF00BF2FE0702001F0FAFA64
:100970001821614302AA5050802001F0F3FA182197
:10098000614302AA89184860902001F0EBFA18210F
:10099000614302AA89188860A02001F0E3FA1821B7
:1009A000614302AA8918C860B02001F0DBFA18215F
:1009B000614302AA89180861C02001F0D3FA182106
:1009C000614302AA89184861641C082CCDD3002415
:1009D00011E006212046FFF779FB801C18214843CF
:1009E00002A9471806212046FFF770FB88003858F7
:1009F00028602D1D641C182CEBD332A800F092FE49
:100A00002020019901F0C0FA35B0F0BD64644616AB
:100A100010301D2DF7B50C46154611A000F0DEFA7A
:100A20006402002614E021460EA000F0D7FA002749
:100A300006E029780DA000F0D1FA781CC7B26D1C31
:100A4000102FF6DB06A000F0C9FA1034701CC6B2F5
:100A500000980009B042E6D801A000F0BFFAFEBD40
:100A60000A000000252E387868200000252E3278F4
:100A700020000000F7B586B00F46002001900290DC
:100A800000210C460D46FF210131880581610A20B5
:100A900001F03CFA06988006800E403069460874E2
:100AA000390E684641743802010E68468174380474
:100AB000010E6846C1740775052104A801F026F8E7
:100AC000039003984000401CC1B26846417500265F
:100AD00005E004A8805D42498860701CC6B2062EFD
:100AE000F7DB3F4800F0B1FE00BF3D4800F0A3FE39
:100AF0000028FAD13A4800F0A3FE394800F0C3FEBE
:100B0000002600BF00F070F869460871701CC6B27C
:100B10006846017901740079802108408028F1D06D
:100B20000898030000F06AFA08050B0C17474747BE
:100B30002F4700F059F86846047900253CE03BE077
:100B400000F052F869464871684600790402497914
:100B50000C43E51730E0012605E000F045F801A957
:100B60008855701CC6B2052EF7DB002608E001A8E8
:100B7000805DF1008840C11704430D43701CC6B26C
:100B8000052EF4DB18E0012605E000F02DF801A9A0
:100B90008855701CC6B2052EF7DB002608E001A8B8
:100BA000805DF1008840C11704430D43701CC6B23C
:100BB000052EF4DB00E000BF00BFFF2101318805F6
:100BC000416100BF074800F093FE0128FAD000F011
:100BD0000BF800F009F82046294609B0F0BD0000E6
:100BE000008001400000014010B5FF2009498860E5
:100BF000084600F02AFE00BF064800F01CFE002850
:100C0000FAD1044800F01CFE024800F04DFEC0B2CC
:100C100010BD000000800140D7B585B00F46002010
:100C2000009001900024FF210131880581610A2094
:100C300001F06CF905988006800E40306946087313
:100C4000390E684641733802010E684681733804D4
:100C5000010E6846C1730774052103A800F056FF12
:100C6000029002984000401CC1B26846417400BF27
:100C70003E4800F03DFE0128FAD0002605E003A81A
:100C8000805D3B498860701CC6B2062EF7DB384891
:100C900000F0DBFD00BF364800F0CDFD0028FAD1A2
:100CA000334800F0CDFD324800F0EDFD002600BFD6
:100CB000FFF79AFF69460870701CC6B26846017853
:100CC00001730078802108408028F1D00798030044
:100CD00000F094F908050A0B154141412B41FFF73B
:100CE00083FF6846047837E036E0FFF77DFF69460A
:100CF000487068460078040249780C432CE00126CD
:100D000005E0FFF771FF69468855701CC6B2052ED5
:100D1000F7DB002606E06846805DF100884004436A
:100D2000701CC6B2052EF6DB16E0012605E0FFF7C3
:100D30005BFF69468855701CC6B2052EF7DB00269E
:100D400006E06846805DF10088400443701CC6B22E
:100D5000052EF6DB00E000BF00BF00BF034800F037
:100D6000C7FD0128FAD0204608B0D0BD00000140E0
:100D700000800140FEB50E461546FF210131880571
:100D80008161002231461120FFF746FF00BFFFF7C7
:100D90002BFF0446FF2CFAD0FE2C01D00020FEBD14
:100DA0002C4800F052FD2B4800F06DFD0121294830
:100DB00000F022FD0321274800F01EFDFFF7E8FCAC
:100DC000244800F015FD0290002023490968009195
:100DD0000190224803682248026828460299FFF7DA
:100DE00047FD1C4800F004FD029001201D490968E0
:100DF000009101901C4803681C4821460268029833
:100E0000FFF736FD00BFFFF7D7FC0028FBD11148E4
:100E100000F016FD02210F4800F0EEFC04210D4801
:100E200000F0EAFCFFF7AAFCFFF7DEFE0702FFF77F
:100E3000DBFE0743FF21013188054161FFF7D4FE46
:100E4000FFF7D2FE00BF0A4800F052FD0128FAD099
:100E50000220A4E700800140380000203400002078
:100E6000300000204C0000204800002044000020FA
:100E70000000014010B504460848846000F0E5FC1D
:100E800000BF064800F0D7FC0028FAD1034800F064
:100E9000D7FC024800F008FD10BD000000800140B2
:100EA000FEB50F461646FF2101318805816100BF5E
:100EB0002E4800F01DFD0128FAD0002239461820E6
:100EC000FFF7AAFEFE20FFF7D5FF294800F0BDFC82
:100ED000274800F0D8FC0121254800F08DFCFFF7E1
:100EE00057FC234800F084FC029001202149096846
:100EF000009101902048036820483146026802981A
:100F0000FFF7B6FC00BFFFF757FC0028FBD11848DD
:100F100000F096FC0221164800F06EFCFFF72EFC54
:100F20000020FFF7A7FF0020FFF7A4FFFF20FFF737
:100F3000A1FF00BFFFF758FE0446FF2CFAD0E406DD
:100F4000E40E00BF094800F0D3FC0128FAD000BF2E
:100F5000FFF74AFE0546FF2DFAD1411C8805416185
:100F6000FFF742FEFFF740FE2046FEBD00000140B5
:100F700000800140600000205C000020580000203C
:100F800010B5024800F024F810BD00000000014038
:100F900010B50446E1B2024802F09AFA204610BDAC
:100FA00000000140012101488167704700000640B0
:100FB0000121490201488167704700000000064096
:100FC00002480068401C0149086070470C0000207E
:100FD00001460868C0B27047016070470FB410B591
:100FE00003A9044B044A029800F026F810BC08BC80
:100FF00004B01847ED2400006400002030B47446AB
:10100000641E2578641CAB4204D3635D5B00E31867
:1010100030BC18471D46F8E702E008C8121F08C197
:10102000002AFAD170477047002001E001C1121F69
:10103000002AFBD170470000FFB58FB00F46044671
:10104000002606E025280AD0129A11999047641CC0
:10105000761C20780028F5D1304613B0F0BD00256D
:101060000121A14A009500E00543641C237808464D
:10107000203B98401042F7D120782E2815D104202B
:1010800005436078641C2A280AD101CF641C0090B3
:101090000BE000990A22514330394018641C00903B
:1010A0002078014630390929F3D920786C280ED0F0
:1010B00004DC4C2813D06A2812D104E074280ED026
:1010C0007A280DD10BE001204005054307E00121FE
:1010D000090562780D43824201D16D18641C641CBD
:1010E0002078864669284AD008DC0028B4D05828E1
:1010F0006DD0632810D0642808D140E070286BD0F0
:10110000732812D0752860D0782860D0129A704663
:1011100011999047761CE5E03878694608720020FE
:10112000487202A80190012003E038680190002075
:10113000C0433F1D69070CD5002500E06D1C0099D8
:101140008D420FDA8542F9DB0199495D0029F5D11D
:1011500008E0002500E06D1C8542FCDB0199495D3B
:101160000029F8D1761907E0019801990078491C07
:101170000191129A119990476D1EF5D2B2E00A20A2
:10118000029000216802400F039102280CD001CF89
:10119000C117844600290DDA6246084652420021F2
:1011A000814194462D2008E0FF1DFF08FF0003CF7A
:1011B0008446EFE7280504D52B206A4610740120E9
:1011C0003CE0E8073AD02020F7E70A2000E01020B2
:1011D00000210391029007E01020029000210420DA
:1011E00005430820039100906802400F022810D0A8
:1011F00001CF0021844600200D9028071FD570469E
:1012000070280CD0029A1020039B42401A430CD045
:1012100015E0FF1DFF08FF0003CF8446EBE74020E9
:101220006A46107401200D900CE06046084306D019
:1012300030206A4610747046507402200D9070463B
:10124000582804D029A001900DA80E900DE02CA0E4
:10125000F9E76046039B029AFFF749F8019B844631
:101260009B5C0E9A521E0E92137060460843F0D19A
:101270000E9805A9081A20300190680701D500983A
:1012800001E0012000900199884203DD01460198A8
:10129000081A00E000200025009006E004A8129A39
:1012A000405D119990476D1C761C0D988542F5DBC9
:1012B00004E0129A302011999047761C0099481E3C
:1012C00000900029F5DC08E00E980E990078491C82
:1012D0000E91129A11999047761C0199481E01901F
:1012E0000029F1DC641CB4E60928010030313233F6
:1012F0003435363738396162636465660000000052
:10130000303132333435363738394142434445463B
:1013100000000000FFB59DB00546269CEF691B97B5
:10132000A869400A1A9020991A98FEF7CFFE1A91E0
:101330001C9A1F98811883A0FFF750FE88A0296986
:10134000FFF74CFEA98A8DA0FFF748FE92A0E9693D
:10135000FFF744FE99A01A99FFF740FE9CA0209940
:10136000FFF73CFE1B9FF8091C901C9A1F988118E0
:10137000224601204002FFF7FDFC00BF1B971B9F88
:10138000B9001C984002081A80B218901898C01C26
:10139000205C01061898801C205C0004014318980A
:1013A000401C205C000201431898205C01430F465A
:1013B000FF21FD31189888420DD18C4887420AD010
:1013C0001C98401C1C901C9A1F98811822460120D2
:1013D0004002FFF7CFFC85488742CFD120991A9869
:1013E00088427DD21B98801E209948431E99401840
:1013F00019901A991998401819900121490220460C
:1014000000F00BFB6846FFF78DFA002607E0B000FE
:1014100069460A58314676A0FFF7E0FD761C182E83
:10142000F5D3002619E0F007C00F002806D0B00061
:101430006946085CB1006A46505006E0B000694653
:101440000858000EB1006A465050B00069460A586C
:10145000314667A0FFF7C2FD761C182EE3D350205B
:101460002070552060704620A0704B21402001550F
:10147000452141200155592142200155697A80209A
:101480000155A97A81200155E97A8220015500266B
:1014900006E0B0006946095C3046C0302154761C35
:1014A000182EF6D3FF21FF20FD3001555A21401C94
:1014B0000155F521401C0155AA21401C01551998E0
:1014C000401C01462246199001204002FFF7E8FC2B
:1014D0002246012040022969FFF74CFC502000E021
:1014E0002AE0A98A60545521A88A401C215446212B
:1014F000A88A801C2154A869FF30FF300230A861FF
:10150000297EA88A14302154288B0004010EA88A51
:1015100015302154A8690002010EA88A1630215402
:10152000A869010EA88A17302154224601204002E2
:101530002969FFF7B5FC02E031A0FFF74FFD21B0AC
:10154000F0BD00000A466972737420436C757374B1
:10155000657220536563746F723A2025780A000023
:1015600046696C65204E616D655F536563746F728B
:10157000203A20252E38780A0000000046696C6564
:1015800020457874656E5F696E646578203A202521
:101590002E38780A0000000046696C6520466972A2
:1015A00073745F436C75737465725F6E756D62659D
:1015B00072203A20252E38780A000000456E6420FB
:1015C000536563746F72203A2025640A000000009E
:1015D000736563746F72735F7065725F636C75734C
:1015E000746572203A2025640A000000FFFFFF0F97
:1015F0004B4559202564203A20252E38780A0000D2
:10160000656E645F736563746F72203E3D20736521
:1016100063746F72735F7065725F636C757374650A
:10162000720A000070B50446002520788001A17878
:10163000084361780901084305462946102000F057
:10164000A3FC6078012805D10121FF20413000F082
:1016500091FC1AE07020A16800F096FC8020E168FF
:1016600000F092FC207801280FD19020216900F031
:101670008BFCA020616900F087FCB020A16900F01C
:1016800083FCC020E16900F07FFC00F001F870BD30
:1016900010B50121002000F06DFC10BDF7B5054626
:1016A0000E460027FF43002400BF1AE0E10048195E
:1016B00000F070F80746002F05DA0CA0FFF78EFC4B
:1016C0000020C043FEBDE100881900F02BF807465A
:1016D000002F05DA0CA0FFF781FC0020C043F1E7E2
:1016E000641C02988442E1D30020EBE761704465FA
:1016F000735F57726974655F446174612054696DEA
:1017000065204F7574200A0061704465735F5265EF
:1017100061645F446174612054696D65204F757424
:10172000200A0000D1B581B00020C043009000BF66
:1017300000BF00F004FC00900098002806DA712138
:101740000AA0FFF74BFC0020C043DCBD502000F096
:1017500009FC06460027602000F004FC04462046F1
:101760003843019A166050600020EEE75B25645D07
:10177000206465735F636865636B5F6F7574707514
:10178000745F72656164792074696D65206F75742A
:10179000200A000070B504460025ED4300F0BCFBB4
:1017A0000546002D06DA592107A0FFF717FC002097
:1017B000C04370BD3020216800F0E6FB4020616826
:1017C00000F0E2FB0020F4E75B25645D20646573B4
:1017D0005F636865636B5F696E7075745F72656186
:1017E00064792074696D65206F7574200A000000AB
:1017F0000146084608307047012906D0022909D061
:1018000003290CD0042914D10EE0426A02231A43A2
:1018100042620EE0426A02239A43426209E0426A4F
:1018200001231A43426204E0426A520852004262B3
:1018300000BF00BF70470146C868C006C00F7047B0
:10184000416802229143416070474168022211437E
:10185000416070478A79CB799B001A430B7ADB0091
:101860001A4342604A790B791B011A43CB789B01DA
:101870001A438B78DB011A434B781B021A43026030
:101880000A780261704708B502E0816889B2009168
:10189000C1684907C90F0029F7D108BD00210161BE
:1018A000016041604161704701468A6890B27047AB
:1018B000F7B582B004460F46F8000499FEF706FC1F
:1018C0000546EE09F0012D1A681C40080190666279
:1018D0000648864202D10020A06202E0AD1B0198BA
:1018E000A062E06AE06205B0F0BD0000FFFF00000A
:1018F000014688690007C00F704701468869C00625
:10190000C00F7047014688698006C00F704770B5E8
:1019100004460D46002020636064A063606060623E
:10192000A062E06220462A69E968FFF7C1FF687893
:101930004007C00FC001297849010843A97809016F
:101940000843E978C900084369788907490F0843C3
:10195000E062287AE979C9000843606300E02668FC
:101960002046FFF7CAFF0128F9D1761C0020A063AA
:1019700028794002697909020843A979084320635C
:1019800070BD002100E0491C8142FCD37047FEB5C8
:1019900004460D460020009014E000260BE0F20003
:1019A0002F686868019038460199FEF7B5FB2070F2
:1019B000641C701CC6B2082EF1DB0098401CC0B23B
:1019C0000090083500984028E7DBFEBDFEB50646CE
:1019D0000C46002000901CE0002020606060002782
:1019E00010E03578761C0020FA0001902846019915
:1019F000FEF782FB22681043636819436160206030
:101A0000781CC7B2082FECDB0098401CC0B20090D5
:101A1000083400984028DFDBFEBD002203E00023ED
:101A20000370521C401C8A42F9D3704770B588B0CD
:101A300004460D461646FFF7BBFAFFF7B3FA002E31
:101A400006D0012E11D0022E1CD0032E34D126E058
:101A5000D02168460171412101724021417101AAE2
:101A600030210020FEF73AFF33E0D02168460171B3
:101A7000412101724021417101AAC0210120FEF7DC
:101A80002DFF26E0E02168460171412101724021CD
:101A9000417101AA03210120FEF720FF19E0E02196
:101AA00068460171412101724021417101AA0C2156
:101AB0000320FEF713FF0CE0D0216846017141219D
:101AC00001724021417101AA30210020FEF706FF7A
:101AD00000BF00BF0321684601730021417301214B
:101AE00081730021C173012101744174817400214B
:101AF000C174022101750694079503A90248FFF7F6
:101B000006FF08B070BD00000000014030B502467D
:101B10000C46002113E01078521C414000230CE0D9
:101B200080200840002804D0480012256840C1B237
:101B300001E04806010E581CC3B2082BF0DB20461A
:101B4000651EECB20028E6D1481030BD0FB4F0B5E8
:101B500085B005460E4614460027049403A802905B
:101B600000210298016000BF324629460120400250
:101B7000FFF700F902980094019008A8037F31460E
:101B800028460E9A00F02EFB04466D1C7F1C08A808
:101B9000007FB842E8D806A0FFF720FA646A002068
:101BA0002062049C05B0F0BC08BC04B018470000DB
:101BB0000A20416E616C797A65202E2E2E0A000073
:101BC000FFB59FB00546289CEF691D97A869400A9C
:101BD0001C9022991C98FEF779FA1C911E9A219864
:101BE00081188AA0FFF7FAF98FA02969FFF7F6F9A3
:101BF000A98A94A0FFF7F2F999A0E969FFF7EEF935
:101C0000A0A01C99FFF7EAF9A3A02299FFF7E6F933
:101C10001D9FF8091E901E9A2198811822460120C6
:101C20004002FFF7A7F800BF1D971D9FB9001E983F
:101C30004002081A80B21A901A98C01C205C010653
:101C40001A98801C205C000401431A98401C205CF8
:101C5000000201431A98205C01430F46FF21FD3129
:101C60001A9888420DD1934887420AD01E98401C8A
:101C70001E901E9A21988118224601204002FFF7EB
:101C800079F88C488742CFD122991C9888427DD818
:101C90001D98801E22994843209940181B901C993A
:101CA0001B9840181B902246012040021B99FFF709
:101CB00061F88020015D18A801718120015D18A8DC
:101CC00041718220015D18A881716846FEF72AFEE5
:101CD000002612E0F007C00F002806D0B0006946C9
:101CE000085CB1006A46505006E0B00069460858EA
:101CF000000EB1006A465050761C182EEAD300261A
:101D0000012018900DE03046C030205CB1006A46DA
:101D10005158884202D10120189001E0002018900B
:101D2000761C182E02D218980128ECD02078502862
:101D300062D1607855285FD1A07846285CD1FF2019
:101D4000FD30005DFF2857D1FF20FE30005D5A288E
:101D500052D1FF20FF30005DF5284DD15648005D7F
:101D6000AA2849D11898012840D141022046FFF7FE
:101D700054FE2246012040021B99FFF791F82246AB
:101D8000012040022969FEF7F5FF00E038E018A8BD
:101D90000079A98A605418A84179A88A401C215466
:101DA00018A88179A88A801C2154A869FF38FF38B7
:101DB0000238A861297EA88A14302154288B000497
:101DC000010EA88A15302154A8690002010EA88AC4
:101DD00016302154A869010EA88A173021542246D2
:101DE000012040022969FFF75BF80CE033A0FFF700
:101DF000F5F8002023B0F0BD35A0FFF7EFF802E0C2
:101E000039A0FFF7EBF80120F4E700000A466972F9
:101E1000737420436C757374657220536563746FBB
:101E2000723A2025780A000046696C65204E616D83
:101E3000655F536563746F72203A20252E38780AE7
:101E40000000000046696C6520457874656E5F6926
:101E50006E646578203A20252E38780A000000004C
:101E600046696C652046697273745F436C75737460
:101E700065725F6E756D626572203A20252E387826
:101E80000A000000456E6420536563746F72203A47
:101E90002025640A00000000736563746F72735F2D
:101EA0007065725F636C7573746572203A20256487
:101EB0000A000000FFFFFF0FFF0100004B45592003
:101EC0004E4F54204D4154434845440A0000000001
:101ED000436F727275707465642050554620466970
:101EE0006C65200A00000000656E645F73656374B2
:101EF0006F72203E3D20736563746F72735F70650F
:101F0000725F636C75737465720A0000002100E0F3
:101F1000491C8142FCD3704710B57D24E40008E0E1
:101F2000202000F01FF810210840002801D00020D8
:101F300010BD2046641E0028F2D1401EF8E710B5FF
:101F40007D24E40008E0202000F00CF8C007C00F5A
:101F5000002801D0002010BD2046641E0028F2D1C8
:101F6000401EF8E701460248081800687047000064
:101F700000000940034A821812680A43014BC31843
:101F80001A60704700000940014A821811607047CA
:101F90000000094010B5014608460A4600BF4C7AC9
:101FA000502C0FD18C7A552C0CD1CC7A462C09D1DF
:101FB000884202D1086A0A4605E00C6A14620B6A7C
:101FC0005A6200E00A46096A0029E8D110BD000003
:101FD00070B5054600BF0648FFF78FFC0128FAD010
:101FE000FEF7CEFFC4B22046FEF7D2FF204670BDFA
:101FF00000000140F7B584B005460C460020039070
:1020000002902746E27A217B2AA0FEF7E7FF0D34F3
:1020100020782872641C002608E02078641CF100F7
:102020008840039908430390701CC6B2022EF4DB6B
:102030002078641C01903C462434002608E0207877
:10204000641CF1008840029908430290701CC6B2DB
:10205000042EF4DB3C462C342078641CE8600399A1
:102060000698401828602A68029901984843101879
:10207000686002982861297A18A0FEF7AFFF1FA0B8
:102080000399FEF7ABFF27A00199FEF7A7FF2CA04D
:102090002969FEF7A3FF31A0E968FEF79FFF39A089
:1020A0002968FEF79BFF3EA06968FEF797FF07B01F
:1020B000F0BD00004279746573205065722053654D
:1020C00063746F72090909090909093D252E3278DF
:1020D000252E3278090909090A0000005365637446
:1020E0006F72732050657220436C7573746572094A
:1020F000093D2564090909090A0000004E756D6251
:102100006572206F66205265736572766564205330
:102110006563746F727309093D2564090909090A29
:10212000000000004E756D626572206F66204641AA
:10213000547309093D2564090909090A00000000D2
:10214000536563746F727320506572204641540961
:10215000093D2564090909090A000000526F6F74DE
:10216000204469726563746F727920466972737472
:1021700020436C757374657209093D25640909096A
:10218000090A000046415420424547494E204C422E
:102190004109093D252E3878090909090A0000007E
:1021A000436C757374657220424547494E204C421A
:1021B0004109093D252E3878090909090A0000005E
:1021C00003461878002802D01878E52801D10020AD
:1021D00070470B331878202801D10120F8E7002040
:1021E000F6E70000FFB593B00D4617461C9E1D9CF8
:1021F0000020129034E039462846169AFFF7E0FF97
:10220000002828D0129916983B462A460191009042
:1022100002A8139900F036F8202202A90AA8FDF7B7
:102220008CFF20220AA93046FDF787FF2068401C5A
:10223000282148430F4940183062366A2821206817
:1022400048430C49401870620BA02168FEF7C6FE97
:102250002068401C206020351298401CC0B21290AB
:102260001298102802DA20688028C4D3304617B0AC
:10227000F0BD0000700000206E756D203D202564CB
:102280000A000000FFB58BB0154600270020029021
:10229000019000902E460B353546002405E0287845
:1022A00003A90855601CC4B26D1C082CF7DB002084
:1022B00069460875002406E0297805A80130015513
:1022C000601CC4B26D1C032CF6DB002103A8017353
:1022D00035461435002409E028786D1CE10088405B
:1022E0000199084380B20190601CC4B2022CF3DB58
:1022F00035461A35002409E028786D1CE100884035
:102300000099084380B20090601CC4B2022CF3DB39
:10231000019800040099084302900C9807901598C2
:10232000400108306946088435461C35002406E023
:1023300028786D1CE10088400743601CC4B2042C5F
:10234000F6DB099702980A90202203A90B98FDF763
:10235000F4FE0FB0F0BD000070B504460D46FF3529
:10236000BF35287820706D1C002608E028786D1C89
:10237000F1008840616808436060701CC6B2032E9B
:10238000F4DB287820726D1C002608E028786D1C8C
:10239000F1008840E1680843E060701CC6B2032E7B
:1023A000F4DB002608E028786D1CF10088402169E4
:1023B00008432061701CC6B2042EF4DB002608E03E
:1023C00028786D1CF1008840616908436061701CC9
:1023D000C6B2042EF4DB21780EA0FEF7FFFD15A097
:1023E0006168FEF7FBFD217A1AA0FEF7F7FD21A038
:1023F000E168FEF7F3FD26A02169FEF7EFFD2CA0B2
:102400006169FEF7EBFD6069410D31A0FEF7E6FD65
:1024100070BD0000506172746974696F6E20312064
:10242000426F6F74466C6167203D20252E32780A1A
:1024300000000000506172746974696F6E20312071
:102440004348535F426567696E203D20252E3878EA
:102450000A000000506172746974696F6E20312047
:1024600054797065436F6465203D20252E32780ACB
:1024700000000000506172746974696F6E20312031
:102480004348535F456E64203D20252E38780A006E
:10249000506172746974696F6E2031204C42415FE3
:1024A000426567696E203D20252E38780A000000BD
:1024B000506172746974696F6E2031204E756D4F72
:1024C00066536563746F72203D2025780A00000012
:1024D000506172746974696F6E20312053697A6536
:1024E000203D2025642047420A00000070B50446C4
:1024F0000D460A2C02D10D20FEF74AFD2046FEF7BC
:1025000047FD70BD70B504460D4619A0FEF766FD87
:1025100027A02168FEF762FD28A06168FEF75EFD36
:1025200029A0A168FEF75AFD2AA0E168FEF756FD32
:102530002BA02169FEF752FD2DA06169FEF74EFD2B
:102540002EA0A169FEF74AFD2FA0E169FEF746FD26
:10255000294631A0FEF742FD34A0FEF73FFD0020E2
:102560004249086000BF414800680028FBD070BDA8
:102570000A2A2A2A2A2A2A2A2A2A546865207361C2
:10258000766564207265676973746572732066721C
:102590006F6D2074686520737461636B2A2A2A2A20
:1025A0002A2A2A2A2A2A2A2A2A2A2A2A0A00000029
:1025B000723020697320307825780A0072312069E2
:1025C0007320307825780A007232206973203078C1
:1025D00025780A00723320697320307825780A0044
:1025E00072313220697320307825780A00000000AB
:1025F0006C7220697320307825780A007063206936
:102600007320307825780A00707372206973203047
:102610007825780A0000000063757272656E745F39
:102620006C7220697320307825780A002A2A2A2AB9
:102630002A2A2A2A2A2A2A2A2A2A2A2A2A2A2A2AFA
:102640002A2A2A2A2A2A2A2A2A2A2A2A2A2A2A2AEA
:102650002A2A2A2A2A2A2A2A2A2A2A2A2A2A2A2ADA
:102660002A2A2A2A2A2A2A2A2A0A000010000020B6
:1026700070B5FF2101318805416241610013FFF708
:1026800045FC002404E0FF20FEF7F4FB601CC4B20C
:10269000282CF8DB002211461046FEF7EBF9072242
:1026A000FF21AB310820FEF7E5F90322FF21AB3112
:1026B0003A20FEF7DFF9002400BF00221146372040
:1026C000FEF7D8F90022012189072920FEF7D2F967
:1026D000C5B2601CC4B2002DEFD10322FF21AB3183
:1026E0003A20FEF7C7F970BD10B50020FEF76AF872
:1026F000002404E02046FEF755F8601CC4B2102CFC
:10270000F8DB00206B49096808606A4909680871AC
:102710006949096808706849096848700120664974
:1027200009688870002064490968C87062490968AE
:1027300008716149096848715F49096888715E4993
:102740000968C87101205C49096808725A4909681A
:102750004872400258490968C86000205749096812
:102760000870564909688870012054490968C87082
:1027700052490968087102205049096848710020CF
:102780004E49096888714D490968C87101204B4953
:102790000968087200204A490968086048490968C0
:1027A00008714849096808704649096848704549F0
:1027B0000968887043490968C87042490968087106
:1027C0004049096848713F49096888713D4909686D
:1027D000C87101203B49096808723A490968487282
:1027E000400238490968C860002037490968087004
:1027F000354909688870012033490968C870324931
:10280000096808713049096848712F490968887159
:1028100000202D490968C87101202B4909680872F8
:1028200000202A4909680860284909680871284970
:102830000968087026490968487025490968887040
:10284000012023490968C8700020214909680871DE
:102850001F49096848711E49096888711C4909683F
:10286000C87101201A490968087219490968487233
:10287000400217490968C8600020164909680870B5
:10288000144909688870012012490968C870114903
:10289000096808710F49096848710E49096888710B
:1028A00000200C490968C87101200A4909680872AA
:1028B00010BD00003000002034000020380000204F
:1028C00044000020480000204C0000205800002058
:1028D0005C000020600000201CB50446D021684642
:1028E00001704121017150214170402181704421CA
:1028F000C1706A460E210120FDF7F0FF204600F06E
:1029000009FF1CBD10B50121C904C8024161811332
:1029100041614113416101134161C112416281135F
:102920004162411381620113416200F084FD02A003
:10293000FEF754FB10BD0000696E697420565331D8
:1029400030787820446F6E650A00000010B50020D2
:10295000FDF738FF002404E02046FDF723FF601C4C
:10296000C4B2102CF8DB0020234909680860224912
:102970000968087121490968087020490968487088
:102980001E490968887001201C490968C870002028
:102990001A4909680871194909684871174909688D
:1029A000887116490968C8710220144909680872BB
:1029B000124909684872202010490968C86000203F
:1029C0000F49096808700E490968887001200C4990
:1029D0000968C8700A490968087109490968487195
:1029E000074909688871002005490968C8710120F4
:1029F00003490968087210BD1C0000202000002057
:102A000024000020FFB0FFB094B00121490292A839
:102A1000FDF7ACFB0121490212A8FDF7A7FB002539
:102A2000BD4C2746002020626062F021BB48417007
:102A3000001D4170BA48FFF769FA0022E1214902FE
:102A4000B848FEF7F3FFB8A0FEF7C8FAB6A0FEF745
:102A5000C5FAB7A0FEF7C2FAB3A0FEF7BFFAB2A05C
:102A6000FEF7BCFA00BFB748FEF742FF0128FAD0D4
:102A700000BFB548FEF73CFF0128FAD02820FFF739
:102A80002BFFFFF73FFFFFF7F3FD0220FFF724FFC7
:102A900000BFAC48FEF72CFF0128FAD0FFF724FE58
:102AA00092AA002101204002FEF764F992AA0021B7
:102AB00001204002FDF7AEFF92A8FDF7FFFE0028BF
:102AC00078D0A2A0FEF78AFA92A90BA8FFF744FCDF
:102AD00092AA012040020F99FEF74CF992AA012018
:102AE00040020F99FDF796FF92A906A80F9AFFF7EB
:102AF00081FA00BF9AA0FEF771FAA2A0FEF76EFA63
:102B0000002607A90EC90A98009102930192059127
:102B10000390224692A9069B0598FFF717F8FFF746
:102B200015FF00F05DFAE7E000BF8648FEF7E5FE1E
:102B30000128FAD0FEF724FAC0B2119011981B2890
:102B40006FD0612804D064286CD065286BD147E031
:102B50003C46FFF7FBFE8DA0FEF740FA07A90EC921
:102B60000A9800910293019205910390224692A93E
:102B7000069B0598FEF7EAFF204600F041F904465F
:102B8000204600F079FC0546FF2D03D182A0FEF718
:102B900025FA0AE0681EC5B2002604E0002C00D029
:102BA000246A701C86B2AE42F8DB002C01D0FF2DE7
:102BB00005D100E0A1E07CA0FEF710FA0DE01422A0
:102BC00006A96846FDF7B9FA12AB92AA3946204623
:102BD00000F041F978A0FEF701FA00F001FA8AE06E
:102BE0003C4607A90EC90A980091029301920591EB
:102BF0000390224692A9069B0598FEF7A7FF204660
:102C0000FFF7C8F90446204600F036FC0546FF2DC4
:102C100003D161A0FEF7E2F90DE0681EC5B20026FF
:102C200007E064E021E065E0002C00D0246A701C1D
:102C300086B2AE42F8DB002C01D0FF2D03D15AA0A2
:102C4000FEF7CCF90EE0012208A8017806986B4641
:102C500007C312AA92A92046079B00F081FA5BA045
:102C6000FEF7BCF900F0BCF945E03C4607A90EC9E7
:102C70000A9800910293019205910390224692A92D
:102C8000069B0598FEF762FF204600F08DFB044688
:102C9000204600F0F1FB0546FF2D03D13EA0FEF7D4
:102CA0009DF90AE0681EC5B2002604E0002C00D0A1
:102CB000246A701C86B2AE42F8DB002C01D0FF2DD6
:102CC00003D139A0FEF78AF90EE0002208A80178A6
:102CD00006986B4607C312AA92A92046079B00F0EC
:102CE0003FFA3EA0FEF77AF900F07AF903E000F02F
:102CF00077F900E000BF00BF16E73CA0FEF76EF9D1
:102D000000BF1048FEF7F4FD0128FAD03BA0FEF703
:102D100065F900BFFEE7000070000020600004407D
:102D20001027000000366E013D3D3E200A000000E5
:102D30003D3D3E20544553542053445F5350492059
:102D40000A00000000000140001001405365637458
:102D50006F7220436F727265637421210A00000054
:102D6000536561726368696E6720666F7220526F87
:102D70006F74206469726563746F72792E2E2E0AE7
:102D8000000000005C726F6F740A0000506C617983
:102D9000204C6F6F700A0000496E7661696C642088
:102DA0004E756D6265720A0046696C65204E6F74DF
:102DB0002045786973740A00506C6179204D7573F1
:102DC000696320446F6E650A00000000456E6372FF
:102DD00079707420446F6E650A0000004465637268
:102DE00079707420446F6E650A0000005365637447
:102DF0006F722057726F6E6721210A002300000056
:102E000010B5014608460A4600BF4C7A4D2C05D144
:102E10008C7A502C02D1CC7A332C08D04C7A572C97
:102E200007D18C7A412C04D1CC7A562C01D10124C3
:102E300000E00024002C09D1884202D1086A0A4629
:102E400005E00C6A14620B6A5A6200E00A46096ADD
:102E50000029DAD110BDF0B585B004460D461646FE
:102E60001F4612E0002C0FD00BA80FC803936B462F
:102E700007C33A46314620460A9B00F00BF81B2850
:102E800000D103E0246A00E02C46EBE700BF0120FC
:102E900005B0F0BD0FB4F0B587B00546164600206A
:102EA00000F03AFBE8690390039CA869400A01908E
:102EB00010A801790198FDF709F90191039CE00937
:102EC000029000270F9A0298111832460120400202
:102ED000FDF750FF0121C902002000F051FC36A08F
:102EE000FEF77CF82A460932294638A0FEF776F824
:102EF00000BF0394039CA01E10A9097948431099B0
:102F000040180490039CA100029840020F1AF81C7C
:102F1000305C0006B91C715C09040843791C715CC3
:102F200009020843F15D084304460020069018E0BA
:102F30002948844205D184420FD1019906988842DC
:102F40000BD80498421C01460492012040020D9ABD
:102F5000FDF710FF0D9800F0F7FB0698401C80B2BB
:102F6000069010A8017906988142E1DCFEF708F886
:102F7000C0B2059005981B2804D107B0F0BC08BC6E
:102F800004B01847FF20FD3087420CD1124884421C
:102F900009D00298401C02900F9A029811183246EC
:102FA000381DFDF7E7FE0C488442A2D10B490020F2
:102FB00000F0E6FB0120E0E7506C6179696E672064
:102FC0004D757369632046696C65200046696C65C0
:102FD0002025732E25730A00FFFFFF0F080800004D
:102FE00010B50948FDF7FAFF08A0FDF7F7FF1348F1
:102FF000FDF7F4FF12A0FDF7F1FF1BA0FDF7EEFFB8
:1030000022A0FDF7EBFF10BD0C380000232323099D
:103010000909090909090909090909090909090920
:103020000909090909090909090909090909090910
:103030000909090909090909090A00006438000099
:10304000095072657373206120746F20706C617910
:10305000206D75736963206F722045736320746FF0
:1030600020657869740A00000950726573732065E1
:1030700020746F20656E63727970742066696C6568
:103080002873292028505546290A000009507265E6
:103090007373206420746F20646563727970742088
:1030A00066696C652873292028505546290A000056
:1030B00010B588B0044602216846017001214170B4
:1030C000002181700AA003C8039102900BA006C8DA
:1030D0000592049106A006C8079206916846FEF77D
:1030E000A1FA402221462046FEF7D8FA08B010BDCA
:1030F00030313233343536380000000066656463A1
:10310000626139380000000010B588B00446022121
:10311000684601700121417081700BA003C80391C2
:1031200002900CA006C80592049107A006C8079259
:1031300006916846FEF776FA402221462046FEF7C1
:10314000ADFA08B010BD00003031323334353638B6
:1031500000000000666564636261393800000000A9
:10316000FFB5FFB08CB01546012149020AA8FCF753
:10317000FDFF969800280ED10095959B949A8E9904
:103180008B98FEF71DFD002805D15FA0FDF726FFF7
:103190007FB010B0F0BD8B98C46905948B9880699E
:1031A000400A04900498039095990498FCF78EFFC8
:1031B0000491059CE7099498C1192A460120400210
:1031C000FDF7D8FD00268B9A093253A08B99FDF7A5
:1031D00005FF00200790089002909698002803D1E0
:1031E00051A0FDF7FBFE02E055A0FDF7F7FE5AA047
:1031F000FDF7F4FE00BF0594059CA01E9599484379
:103200008E9940180690059CA0007902461AF01C81
:10321000285C0006B11C695C09040843711C695CE8
:1032200009020843A95D08430446002009902FE0E5
:103230004F48844205D1844227D104990998884295
:1032400023D8012040028C9A0699FDF793FD0AA924
:103250008C98FEF7BBFB9698002803D10AA8FFF7CD
:1032600027FF02E00AA8FFF74FFF0AA98C98FEF794
:103270008EFB0698421C01460692012040028C9A61
:10328000FDF70EFE0898401C08900998401C099014
:10329000959909988842CBD3FF20FD30864209D109
:1032A0003348844206D07F1C9498C1192A46301DA9
:1032B000FDF760FD0798401C079007980F2811D173
:1032C000642108984843029003990298FCF7FEFE97
:1032D00002900020079027A0FDF780FE26A002990B
:1032E000FDF77CFE2248844285D19698012806D1BC
:1032F0000095959B949A8E998B98FEF70BF824A0D5
:10330000FDF76CFE00BF43E744656372797074207B
:10331000457869740A00000046696C653A20257397
:103320002E25730A00000000446563727970746989
:103330006E672E2E2E2E2E2E2E2E2E2E2E2E0A0086
:10334000456E6372797074696E672E2E2E2E2E2E46
:103350002E2E2E2E2E2E0A0050726F636573736907
:103360006E672E2E2E2E2E2E2E30252500000000CC
:10337000FFFFFF0F0D00000050726F6365737369EC
:103380006E672E2E2E2E2E2E2E2564252500000053
:103390000D50726F63657373696E672E2E2E2E2E1D
:1033A0002E2E446F6E650A0010B5014608460A4687
:1033B00000BF4C7A502C07D18C7A552C04D1CC7A92
:1033C000462C01D1012400E00024002C09D18842C0
:1033D00002D1086A0A4605E00C6A14620B6A5A6256
:1033E00000E00A46096A0029E3D110BD70B5054620
:1033F00000240121C904C802416100BF01208007E7
:1034000000680121490408400028F7D08900C8025B
:103410008161032000F068F9284600F065F900F0AA
:1034200005F9040200F002F904430121C904C802AD
:103430004161204670BD10B50121090488038161F6
:103440008012FEF79EFAFF2000F04EF90121C90418
:10345000C8024161011341618113416100BF012034
:10346000800700680121490408400028F7D00120A6
:1034700000F052F810BD000038B50446204600F0B8
:1034800035F807A0FDF7AAFD69460FA0FCF77AFE04
:103490000EA0FDF7A3FD0098C5B2284638BD000078
:1034A000456E7465722061206E756D626572207460
:1034B0006F2073656C656374207468652066696C41
:1034C00065203A2000000000256400000A0000008A
:1034D00070B504460D4600BF2046FEF713FA0128DA
:1034E000FAD029462046FDF777FD70BD70B5044639
:1034F000002500BF234609332246691C03A0FDF7BF
:103500006DFD246A6D1C002CF4D170BD25642E2045
:1035100025732E25730A000070B504462A49002041
:1035200000F02EF901208004FEF72BFA00BF0120E5
:10353000800700680121490408400028F7D0012CC9
:1035400026D12249082000F01BF92149092000F06A
:1035500017F90820FFF74AFF1C49884205D10920C6
:10356000FFF744FF1A49884212D01AA0FDF736FD32
:103570000820FFF73BFF0546294620A0FDF72EFD5A
:103580000920FFF733FF0546294621A0FDF726FD58
:1035900003218903032000F0F3F82249052000F0FD
:1035A000EFF85521022000F0EBF81F490B2000F046
:1035B000E7F800BF012080070068012149040840A6
:1035C0000028F7D070BD000004080000ADAB00007B
:1035D000EA1D0000546865726520697320736F6D81
:1035E000657468696E672077726F6E67207769749B
:1035F00068205653313078780A0000005350495FF4
:103600004844415430203A20252E38780A000000E2
:103610005350495F4844415431203A20252E387890
:103620000A00000081BB00006060000010B5FF20B0
:10363000094988600846FEF708F900BF0648FEF70A
:10364000FAF80028FAD10448FEF7FAF80248FEF723
:103650002BF9C0B210BD0000008001407CB50446CB
:103660000B48FEF7C5F8054600200A490968009195
:103670000190094803680948214602682846FDF779
:10368000F7F800BFFDF798F80028FBD17CBD0000DB
:103690000080014024000020200000201C000020A9
:1036A00070B5054601210F48FEF7A6F8FDF770F842
:1036B00000240EE000BF01208007006801214904BA
:1036C00008400028F7D02846FFF7C8FF2035601CC7
:1036D000C4B2102CEEDB02210248FEF78DF8FDF794
:1036E0004DF870BD0080014010B504460848846064
:1036F000FEF7ABF800BF0648FEF79DF80028FAD1A8
:103700000348FEF79DF80248FEF7CEF810BD000012
:10371000008001403EB505466C460A48FEF7BEF8FB
:10372000002060702570A070E0702071072060712B
:103730000020A071E0710120207221460148FEF7AF
:1037400089F83EBD0080014010B504460121C9043E
:10375000C8024161011341610848FEF776F8012172
:103760008904080381612046FFF79AFF012189043B
:10377000080341610148FEF763F810BD0080014075
:1037800070B505460C460121C904C802416100BF5D
:103790000120800700680121490408400028F7D073
:1037A0008900C80281610220FFF79EFF2846FFF7CB
:1037B0009BFF2104080EFFF797FFE0B2FFF794FF8D
:1037C0000121C904C802416170BDDDDDDDDDDCBB66
:1037D000BBDDDDDDDDDDDDDDDDDD98888888888829
:1037E000888877777777778888888555555666668D
:1037F0006666666666666668888883333332222228
:103800002222222222222228888D00000A2323231A
:103810002323232323232323232323232323232378
:103820002323232323232323232323232323232368
:103830002323232323232323232323232323232358
:103840002323232323232323232323232323232348
:103850002323232323232323232323232323232338
:1038600023230A0023232323232323232323232364
:103870002323232323232323232323232323232318
:103880002323232323232323232323232323232308
:1038900023232323232323232323232323232323F8
:1038A00023232323232323232323232323232323E8
:1038B0002323232323232323230A0000DC380000AF
:1038C0000000002070000000181000004C390000BB
:1038D00070000020F00C0000281000000000000024
:1038E00000000000000000000000000000000000D8
:1038F000000000000000000014000020F002002082
:10390000000300200000000000000000280000204C
:103910000C0300201C030020000000000000000039
:103920003C00002028030020380300200000000095
:103930000000000050000020440300205403002039
:0C3940000000000000000000000000007B
:04000005000000B542
:00000001FF
