:020000040000FA
:10000000680D0020B5000000BF000000990000004E
:1000100000000000000000000000000000000000E0
:10002000000000000000000000000000C30000000D
:100030000000000000000000C50000006D0F00007F
:10004000C9000000C9000000C9000000C90000008C
:10005000C9000000C9000000C9000000C90000007C
:10006000C9000000C9000000212D00003D2D000046
:10007000C9000000C9000000C9000000C90000005C
:10008000C90000000348854600F082F90048004797
:10009000092A0000680D002004207146084202D0A1
:1000A000EFF3098001E0EFF308807146004A104742
:1000B00051250000054A064B136006480047FEE73D
:1000C000FEE7FEE7FEE7FEE7FEE70000A0000640D1
:1000D0002D0100008500000030B50B4601460020D0
:1000E0002022012409E00D46D5409D4205D31D463E
:1000F0009540491B2546954040191546521E002D36
:10010000F1DC30BD10B5202A04DB0146203A9140D5
:10011000002010BD914020239C1A0346E340194360
:10012000904010BD10B5202A04DB0846203AD0408C
:10013000002110BD0B46D340D0402024A21A91408C
:100140000843194610BD03460B439B0703D009E043
:1001500008C9121F08C0042AFAD203E00B78037002
:10016000401C491C521EF9D27047D2B201E0027005
:10017000401C491EFBD270470022F6E710B513461B
:100180000A4604461946FFF7F0FF204610BD00005E
:100190000FB400B589B00BA800906A4603480A99CD
:1001A00000F0EAF809B008BC04B01847700000205D
:1001B000FFB50027FF4383B000205C6801909E6874
:1001C0001D46A9697F1C049888470090296A8847C2
:1001D0000028F6D10098401C0CD003204002844334
:1001E000002E19DD600614D500982B2809D02D2883
:1001F0000FD103E00020C04307B0F0BD0120800212
:100200000443A9697F1C04988847761E0090002E3D
:1002100002DD0098302803D00598002825D035E06D
:10022000012040020443A969761E7F1C0498884778
:100230000090002E03DD782805D0582803D00598BB
:10024000002810D022E00598002801D010281DD1E8
:10025000012040028443A969761E7F1C04988847C8
:100260000090102002E0082000E00A2005900DE038
:10027000012149020C43059A0199761E5143081841
:100280000190A9697F1C049888470090002E05DD25
:100290000599009800F061F80028E9DAE969049806
:1002A0008847A00502D40120C043A5E7E00722D17A
:1002B000600611D56005019800D5404229680A1DE5
:1002C0002A600968220501D5087014E0220701D5CB
:1002D000088010E008600EE02868011D29600068B1
:1002E000210502D50199017005E02107019901D589
:1002F000018000E0016038467EE7F0B51FB4064695
:10030000002082B005464024019100901BE0019935
:1003100022460F463046FFF705FF049A059B801AD8
:10032000994110D3104619462246FFF7EBFE361AC4
:100330008F410197224601200021009FFFF7E2FE36
:1003400038184D4100902046641E0028DFDC019BD8
:1003500000982946324607B0F0BD3A2800D230381E
:10036000202302469A43412A01D310463738884257
:1003700001D30020C043704710B5034B9361034B7A
:10038000D36100F033F810BD3D200000D30300001E
:10039000064C0125064E05E0E36807CC2B430C3CD8
:1003A00098471034B442F7D3FFF770FEA43400002E
:1003B000C434000010B5094908784C1C002803D04B
:1003C000401E0870205C10BD00210720ABBE2070CD
:1003D00010BD02490878421C0A7070477400002062
:1003E00002681378511801601846704710B5D16043
:1003F000044951610449116200211161114600F064
:100400000DF810BDE10300000D04000010B50F2130
:10041000C0B2490200F09EF910BD0000F3B58DB0E6
:1004200000200A9001200B90002608460C300C4654
:1004300009906269012109989047051E2ED0252D4B
:100440002DD0216A8847002818D0626901210998B7
:100450009047216A88470028F7D1411E62690998B0
:10046000904700E0761CA1690D988847216A88476B
:100470000028F7D1E1690D988847DAE7A1690D985E
:1004800088470746A84201D1761CD2E7E1690D985A
:1004900088477F1C02D10A98002877D049E10027BD
:1004A00062693D463946099890472A280CD162690D
:1004B000012109989047012506E00A214F433F1882
:1004C000303FEBD410200543626901210998904721
:1004D000014630390A2903D29B498F42DEDCECE722
:1004E000E90600D4994F6C280AD04C2810D068280F
:1004F00024D06A282ED074280CD07A280AD00DE097
:1005000062690121099890476C2823D004211CE0DE
:10051000202005436269012109989047A760656022
:1005200065284FD026DC582839D01ADC452849D018
:1005300012DC252834D04128B0D143E06269012182
:1005400009989047682802D008210D43E6E701206A
:10055000C002DEE70220DCE7462833D047282CD152
:1005600030E05B2870D061282CD063286CD06428E0
:1005700023D161E06F284FD009DC662822D067289C
:1005800020D0692826D06E2817D12EE0CDE0702823
:100590004DD073286FD075284ED078280DD154E0F7
:1005A000A1690D9888470546252800D16CE7E169C7
:1005B0000D9888476D1C00D16DE7BAE00A224CE027
:1005C0000A2252E0012023466A46C0430D99C046E4
:1005D000C046A3E02846402108436060A8072346A0
:1005E00001D5002239E000223FE0E80700D020E7F3
:1005F0002068011D21600068290501D5067018E7F3
:10060000290701D5068014E7A90703D5F11706606D
:1006100041600EE706600CE7284640210843606011
:10062000A807234601D5082217E008221DE0484903
:1006300028460840606016E0284640210843606074
:10064000A8072346BCD5B9E715E028464021084352
:100650006060A80707D5234610220120C0430D99EA
:10066000C046C0465AE0234610220120C0430D99DF
:10067000FFF79EFD52E000210C910B46009163288C
:1006800002D05B2807D043E0E80601D40120A06037
:10069000012000903CE062690121099890475E28A2
:1006A00005D101200C9001466269099890472169A3
:1006B000002906D10B4601AA8F00491CD3510829F5
:1006C000FADB002835D0216900290ED1C117C90EE7
:1006D00009184A11930001AA9A1849094901411AB7
:1006E000012013688840034313606269012109985F
:1006F00090475D28E5D10C98002808D0002001AB78
:1007000081005A58401CD2435A500828F8DB01ABEC
:1007100001202246C0430D99C046C04600280ADA8F
:10072000401C06D10B98002803D00020C0430FB016
:10073000F0BD0A98FBE7E90702D10A99491C0A9122
:10074000361800200B9074E6CCCCCC0CFFFFFF7F5A
:10075000F1F7FFFF7F2801D9002207E0054B42088F
:100760009A5CC00700D112091207120F01209040B5
:1007700008407047B4330000014A024B13607047D1
:10078000A00006402D0100000348006B4008400017
:100790000149086370470000000007400348006BF0
:1007A0000121084301490863704700000000074029
:1007B0000349496B012282401143014A516370474A
:1007C000000007400148C069C0B270470000074000
:1007D000002806D10749096B02229143054A11639B
:1007E00007E0012805D10349096B04229143014A1E
:1007F000116370470000074001460A7892048B7825
:100800001B041A43CB78DB031A430B799B031A436F
:100810004B79DB021A438B799B011A43CB795B003E
:100820001A430B7A1A431046704701460A78D207DA
:100830004B781B071A438B78DB061A43CB789B0651
:100840001A430B795B061A434B791B061A438B79C3
:100850005B051A43CB799B041A430B7ADB031A43DB
:100860004B7A1B031A43CB681A4310467047014664
:100870000A6892000B791A4310467047FFB5054687
:100880000E4617460A9C0F48610146506101401808
:1008900045603846FFF7EBFF01460A4862018018C1
:1008A00081600398FFF7C1FF014606486201801886
:1008B000C1600998FFF7A0FF024962018918086129
:1008C000FFBD0000000107400146FF31FF310878FD
:1008D000552806D1481C01460078AA2801D10120DC
:1008E00070470020FCE7000070B50346002000BF01
:1008F00019E00C46C440E407E40F002C12D0147930
:10090000D5782C4395782C4355782C435D01074EC0
:10091000AD198600AC5514785D01044EAD19860002
:10092000AD196C70401C0828E3D370BD0000044072
:10093000F0B5B5B005460024374900203291339018
:10094000002691263146102001F054FB0121FF20A2
:10095000413001F045FB00F0CBFE202001F038FBD8
:1009600001902E49202001F045FB32A800F042FF03
:1009700000BF2FE0702001F02BFB1821614302AA79
:100980005050802001F024FB1821614302AA8918ED
:100990004860902001F01CFB1821614302AA8918CD
:1009A0008860A02001F014FB1821614302AA891875
:1009B000C860B02001F00CFB1821614302AA89181D
:1009C0000861C02001F004FB1821614302AA8918C4
:1009D0004861641C082CCDD3002411E00621204678
:1009E000FFF77AFB801C1821484302A9471806210B
:1009F0002046FFF771FB8800385828602D1D641CC5
:100A0000182CEBD332A800F0BDFE2020019901F094
:100A1000F1FA35B0F0BD00006464461610301D2DAB
:100A2000F7B586B00F4600200190029000210C46D9
:100A30000D46FF210131880581610A2001F09CFAF1
:100A400006988006800E403069460874390E684664
:100A500041743802010E684681743804010E6846FC
:100A6000C1740775052104A801F070F8039003987C
:100A70004000401CC1B268464175002605E004A84C
:100A8000805D42498860701CC6B2062EF7DB3F4885
:100A900000F00BFF00BF3D4800F0FDFE0028FAD13A
:100AA0003A4800F0FDFE394800F01DFF002600BF67
:100AB00000F070F869460871701CC6B2684601798A
:100AC00001740079802108408028F1D00898030043
:100AD00000F098FA08050B0C174747472F4700F01E
:100AE00059F86846047900253CE03BE000F052F8F4
:100AF0006946487168460079040249790C43E51754
:100B000030E0012605E000F045F801A98855701C89
:100B1000C6B2052EF7DB002608E001A8805DF100D3
:100B20008840C11704430D43701CC6B2052EF4DB88
:100B300018E0012605E000F02DF801A98855701C89
:100B4000C6B2052EF7DB002608E001A8805DF100A3
:100B50008840C11704430D43701CC6B2052EF4DB58
:100B600000E000BF00BFFF2101318805416100BFE7
:100B7000074800F0EDFE0128FAD000F00BF800F075
:100B800009F82046294609B0F0BD00000080014068
:100B90000000014010B5FF2009498860084600F0B8
:100BA00084FE00BF064800F076FE0028FAD1044813
:100BB00000F076FE024800F0A7FEC0B210BD0000B3
:100BC00000800140D7B585B00F460020009001900D
:100BD0000024FF210131880581610A2001F0CCF950
:100BE00005988006800E403069460873390E6846C5
:100BF00041733802010E684681733804010E68465D
:100C0000C1730774052103A800F0A0FF02900298A9
:100C10004000401CC1B26846417400BF3E4800F02D
:100C200097FE0128FAD0002605E003A8805D3B4925
:100C30008860701CC6B2062EF7DB384800F035FE1F
:100C400000BF364800F027FE0028FAD1334800F0F4
:100C500027FE324800F047FE002600BFFFF79AFF4C
:100C600069460870701CC6B2684601780173007846
:100C7000802108408028F1D00798030000F0C2F9D5
:100C800008050A0B154141412B41FFF783FF6846D8
:100C9000047837E036E0FFF77DFF69464870684624
:100CA0000078040249780C432CE0012605E0FFF7A8
:100CB00071FF69468855701CC6B2052EF7DB002609
:100CC00006E06846805DF10088400443701CC6B2AF
:100CD000052EF6DB16E0012605E0FFF75BFF69460F
:100CE0008855701CC6B2052EF7DB002606E0684664
:100CF000805DF10088400443701CC6B2052EF6DB0F
:100D000000E000BF00BF00BF034800F021FE012843
:100D1000FAD0204608B0D0BD00000140008001405C
:100D2000FEB50E461546FF2101318805816100227E
:100D300031461120FFF746FF00BFFFF72BFF0446A7
:100D4000FF2CFAD0FE2C01D00020FEBD2C4800F074
:100D5000ACFD2B4800F0C7FD0121294800F07CFDC7
:100D60000321274800F078FDFFF718FD244800F024
:100D70006FFD0290002023490968009101902248EC
:100D800003682248026828460299FFF777FD1C484D
:100D900000F05EFD029001201D490968009101905C
:100DA0001C4803681C48214602680298FFF766FD4C
:100DB00000BFFFF707FD0028FBD1114800F070FDD0
:100DC00002210F4800F048FD04210D4800F044FDC9
:100DD000FFF7DAFCFFF7DEFE0702FFF7DBFE074353
:100DE000FF21013188054161FFF7D4FEFFF7D2FEF4
:100DF00000BF0A4800F0ACFD0128FAD00220A4E7A9
:100E000000800140400000203C000020380000200D
:100E100054000020500000204C0000200000014041
:100E200010B504460848846000F03FFD00BF064846
:100E300000F031FD0028FAD1034800F031FD0248EE
:100E400000F062FD10BD000000800140FEB50F46BD
:100E50001646FF2101318805816100BF2E4800F050
:100E600077FD0128FAD0002239461820FFF7AAFEA4
:100E7000FE20FFF7D5FF294800F017FD274800F0B6
:100E800032FD0121254800F0E7FCFFF787FC2348ED
:100E900000F0DEFC029001202149096800910190D8
:100EA000204803682048314602680298FFF7E6FCB4
:100EB00000BFFFF787FC0028FBD1184800F0F0FCCA
:100EC0000221164800F0C8FCFFF75EFC0020FFF787
:100ED000A7FF0020FFF7A4FFFF20FFF7A1FF00BF3F
:100EE000FFF758FE0446FF2CFAD0E406E40E00BFDC
:100EF000094800F02DFD0128FAD000BFFFF74AFE97
:100F00000546FF2DFAD1411C88054161FFF742FEDD
:100F1000FFF740FE2046FEBD00000140008001407A
:100F200068000020640000206000002010B5024826
:100F300000F052F810BD00000000014010B504465A
:100F4000E1B2024802F0ACF9204610BD00000140B9
:100F500001210148816770470000064001214902D4
:100F600001488167704700000000064002480068A1
:100F7000401C0149086070470C0000208168022273
:100F8000114381607047816849084900816070475A
:100F900081680122114381607047014608687047EB
:100FA000816840221143816070478168102291431B
:100FB00081607047816810221143816070474160F1
:100FC000704710B50A4681680C240B46A3431946A6
:100FD00093001943816010BD01460868C0B2704794
:100FE000016070470FB410B503A9044B044A02987E
:100FF00000F05EF810BC08BC04B0184739250000AA
:101000006C00002030B47446641E2578641CAB422A
:1010100004D3635D5B00E31830BC18471D46F8E756
:10102000002805DBC206D20E01219140014A116061
:101030007047000080E200E0002815DBC206D20EF7
:1010400001219140094A116000BF00BF00BFBFF3FA
:101050004F8F00BF00BF00BF00BF00BF00BFBFF386
:101060006F8F00BF00BF00BF7047000080E100E04D
:10107000002809DB00BF00BFC206D20E012191404B
:10108000024A116000BF00BF7047000000E100E0AD
:1010900002E008C8121F08C1002AFAD17047704741
:1010A000002001E001C1121F002AFBD1704700009F
:1010B000FFB58FB00F460446002606E025280AD06B
:1010C000129A11999047641C761C20780028F5D15B
:1010D000304613B0F0BD00250121A14A009500E083
:1010E0000543641C23780846203B98401042F7D102
:1010F00020782E2815D1042005436078641C2A2806
:101100000AD101CF641C00900BE000990A225143E0
:1011100030394018641C0090207801463039092984
:10112000F3D920786C280ED004DC4C2813D06A2820
:1011300012D104E074280ED07A280DD10BE00120E2
:101140004005054307E00121090562780D4382420D
:1011500001D16D18641C641C2078864669284AD029
:1011600008DC0028B4D058286DD0632810D064283B
:1011700008D140E070286BD0732812D0752860D059
:10118000782860D0129A704611999047761CE5E055
:101190003878694608720020487202A80190012040
:1011A00003E0386801900020C0433F1D69070CD55B
:1011B000002500E06D1C00998D420FDA8542F9DBB5
:1011C0000199495D0029F5D108E0002500E06D1C7A
:1011D0008542FCDB0199495D0029F8D1761907E0C9
:1011E000019801990078491C0191129A1199904730
:1011F0006D1EF5D2B2E00A20029000216802400F75
:10120000039102280CD001CFC117844600290DDAC2
:101210006246084652420021814194462D2008E052
:10122000FF1DFF08FF0003CF8446EFE7280504D524
:101230002B206A46107401203CE0E8073AD02020B9
:10124000F7E70A2000E0102000210391029007E058
:1012500010200290002104200543082003910090F3
:101260006802400F022810D001CF002184460020E0
:101270000D9028071FD5704670280CD0029A1020B8
:10128000039B42401A430CD015E0FF1DFF08FF00EE
:1012900003CF8446EBE740206A46107401200D908E
:1012A0000CE06046084306D030206A461074704651
:1012B000507402200D907046582804D029A0019047
:1012C0000DA80E900DE02CA0F9E76046039B029A52
:1012D000FFF713F8019B84469B5C0E9A521E0E92F8
:1012E000137060460843F0D10E9805A9081A203003
:1012F0000190680701D5009801E001200090019954
:10130000884203DD01460198081A00E0002000250C
:10131000009006E004A8129A405D119990476D1C58
:10132000761C0D988542F5DB04E0129A3020119965
:101330009047761C0099481E00900029F5DC08E0D3
:101340000E980E990078491C0E91129A11999047A7
:10135000761C0199481E01900029F1DC641CB4E65A
:10136000092801003031323334353637383961627B
:10137000636465660000000030313233343536373F
:10138000383941424344454600000000FFB59FB054
:101390000546289C00201990EF691D97A869400A0E
:1013A0001C9022991C98FEF797FE1C911E9A21987A
:1013B000811880A0FFF716FE85A02969FFF712FEAD
:1013C000A98A8AA0FFF70EFE8FA0E969FFF70AFE3F
:1013D00096A01C99FFF706FE99A02299FFF702FE3E
:1013E0001D9FF8091E901E9A2198811822460120FF
:1013F0004002FFF795FC00BF1D971D9FB9001E9886
:101400004002081A80B21A901A98C01C205C01068B
:101410001A98801C205C000401431A98401C205C30
:10142000000201431A98205C01430F46FF21FD3161
:101430001A9888420DD1894887420AD01E98401CCC
:101440001E901E9A21988118224601204002FFF723
:1014500067FC82488742CFD122991C9888427DD26E
:101460001D98801E22994843209940181B901C9972
:101470001B9840181B9001214902204600F0F7FA02
:1014800001A8FFF755FA002612E0F007C00F002868
:1014900006D0B00001A9085CB10001AA505006E0D6
:1014A000B00001A90858000EB10001AA5050761CE6
:1014B000182EEAD3288BC005C00D01214902081A55
:1014C000199050202070552060704620A070199807
:1014D000E0701998001220714B21402001554521E0
:1014E00041200155592142200155697A802001553A
:1014F000A97A81200155E97A82200155002606E06B
:10150000B00001A9095C3046C0302154761C182E69
:10151000F6D3FF21FF20FD3001555A21401C015513
:10152000F521401C0155AA21401C01551B98401C67
:10153000014622461B9001204002FFF787FC22460D
:10154000012040022969FFF7EBFB5020A98A605473
:101550005521A88A401C2154462100E025E0A88A94
:10156000801C2154A9691998FF30FF3002300818F7
:10157000A861297EA88A14302154288B0004010E0A
:10158000A88A15302154A8690002010EA88A1630D5
:101590002154A869010EA88A17302154224601203F
:1015A00040022969FFF752FC02E02DA0FFF71AFD67
:1015B00023B0F0BD0A466972737420436C7573746E
:1015C000657220536563746F723A2025780A0000B3
:1015D00046696C65204E616D655F536563746F721B
:1015E000203A20252E38780A0000000046696C65F4
:1015F00020457874656E5F696E646578203A2025B1
:101600002E38780A0000000046696C652046697231
:1016100073745F436C75737465725F6E756D62652C
:1016200072203A20252E38780A000000456E64208A
:10163000536563746F72203A2025640A000000002D
:10164000736563746F72735F7065725F636C7573DB
:10165000746572203A2025640A000000FFFFFF0F26
:10166000656E645F736563746F72203E3D207365C1
:1016700063746F72735F7065725F636C75737465AA
:10168000720A000070B50446002520788001A17818
:10169000084361780901084305462946102000F0F7
:1016A000A9FC6078012805D10121FF20413000F01C
:1016B00097FC1AE07020A16800F09CFC8020E16893
:1016C00000F098FC207801280FD19020216900F0CB
:1016D00091FCA020616900F08DFCB020A16900F0B0
:1016E00089FCC020E16900F085FC00F001F870BDC4
:1016F00010B50121002000F073FC10BDF7B50546C0
:101700000E460027FF43002400BF1AE0E1004819FD
:1017100000F070F80746002F05DA0CA0FFF762FC16
:101720000020C043FEBDE100881900F02BF80746F9
:10173000002F05DA0CA0FFF755FC0020C043F1E7AD
:10174000641C02988442E1D30020EBE76170446599
:10175000735F57726974655F446174612054696D89
:1017600065204F7574200A0061704465735F52658F
:1017700061645F446174612054696D65204F7574C4
:10178000200A0000D1B581B00020C043009000BF06
:1017900000BF00F00AFC00900098002806DA7121D2
:1017A0000AA0FFF71FFC0020C043DCBD502000F062
:1017B0000FFC06460027602000F00AFC0446204685
:1017C0003843019A166050600020EEE75B25645DA7
:1017D000206465735F636865636B5F6F75747075B4
:1017E000745F72656164792074696D65206F7574CA
:1017F000200A000070B504460025ED4300F0C2FB4E
:101800000546002D06DA592107A0FFF7EBFB002063
:10181000C04370BD3020216800F0ECFB40206168BF
:1018200000F0E8FB0020F4E75B25645D206465734D
:101830005F636865636B5F696E7075745F72656125
:1018400064792074696D65206F7574200A0000004A
:101850000146084608307047012906D0022909D000
:1018600003290CD0042914D10EE0426A02231A4342
:1018700042620EE0426A02239A43426209E0426AEF
:1018800001231A43426204E0426A52085200426253
:1018900000BF00BF70470146C868C006C00F704750
:1018A000416802229143416070474168022211431E
:1018B000416070478A79CB799B001A430B7ADB0031
:1018C0001A4342604A790B791B011A43CB789B017A
:1018D0001A438B78DB011A434B781B021A430260D0
:1018E0000A780261704708B502E0816889B2009108
:1018F000C1684907C90F0029F7D108BD002101615E
:10190000016041604161704701468A6890B270474A
:10191000F7B582B004460F46F8000499FEF7DCFBE9
:101920000546EE09F0012D1A681C40080190666218
:101930000648864202D10020A06202E0AD1B019859
:10194000A062E06AE06205B0F0BD0000FFFF0000A9
:10195000014688690007C00F704701468869C006C4
:10196000C00F7047014688698006C00F704770B588
:1019700004460D46002020636064A06360606062DE
:10198000A062E06220462A69E968FFF7C1FF687833
:101990004007C00FC001297849010843A97809010F
:1019A0000843E978C900084369788907490F084363
:1019B000E062287AE979C9000843606300E026689C
:1019C0002046FFF7CAFF0128F9D1761C0020A0634A
:1019D00028794002697909020843A97908432063FC
:1019E00070BDFEB504460D460020009014E00026B0
:1019F0000BE0F2002F686868019038460199FEF705
:101A000091FB2070641C701CC6B2082EF1DB00989C
:101A1000401CC0B20090083500984028E7DBFEBDAE
:101A2000FEB506460C46002000901CE00020206019
:101A30006060002710E03578761C0020FA000190E5
:101A400028460199FEF75EFB22681043636819433C
:101A500061602060781CC7B2082FECDB0098401C46
:101A6000C0B20090083400984028DFDBFEBD0022A1
:101A700003E000230370521C401C8A42F9D37047D4
:101A800070B588B004460D461646FFF767FAFFF7B3
:101A90005FFA002E06D0012E0FD0022E18D0032E92
:101AA0002CD120E0D021684601714121017201AAA8
:101AB00030210020FEF718FF2BE0D021684601718D
:101AC0004121017201AAC0210120FEF70DFF20E093
:101AD000E021684601714121017201AA0321012020
:101AE000FEF702FF15E0E021684601714121017215
:101AF00001AA0C210320FEF7F7FE0AE0D021684678
:101B000001714121017201AA30210020FEF7ECFE93
:101B100000BF00BF0321684601730021417301210A
:101B200081730021C173012101744174817400210A
:101B3000C174022101750694079503A90248FFF7B5
:101B400016FF08B070BD00000000014030B502462D
:101B50000C46002113E01078521C414000230CE099
:101B600080200840002804D0480012256840C1B2F7
:101B700001E04806010E581CC3B2082BF0DB2046DA
:101B8000651EECB20028E6D1481030BD0FB4F0B5A8
:101B900085B005460C4600200390049402AF3860DF
:101BA0000D9E00BF2A46314601204002FFF7B8F8DB
:101BB00008A801970094037E294630460D9A00F04C
:101BC00047FB0446761C0398401C039008A8017E3E
:101BD00003988142E6D808A03968FFF703FA0AA003
:101BE000FFF700FA646A00202062049C05B0F0BC94
:101BF00008BC04B0184700000A2025642046696C20
:101C0000652873290A000000416E616C797A6520AD
:101C10002E2E2E0A00000000FFB5A1B005462A9C1A
:101C2000EF691F97A869400A1E9024991E98FEF735
:101C300053FA491E1E91209A239881188EA0FFF70F
:101C4000D1F994A02969FFF7CDF9A98A98A0FFF7E7
:101C5000C9F99EA0E969FFF7C5F9A5A01E99FFF78C
:101C6000C1F9A8A02499FFF7BDF91F9FF80920909A
:101C7000209A23988118224601204002FFF750F84D
:101C800000BF1F971F9FB90020984002081A80B21A
:101C90001C901C98C01C205C01061C98801C205CB9
:101CA000000401431C98401C205C000201431C9866
:101CB000205C01430F46FF21FD311C9888420DD165
:101CC000974887420AD02098401C2090209A239859
:101CD0008118224601204002FFF722F890488742EF
:101CE000CFD124991E9888427ED81F98801E2499AF
:101CF0004843229940181D901E991D9840181D9028
:101D00002246012040021D99FFF70AF88020015D5C
:101D100018A801728120015D18A841728220015D1E
:101D200018A8817220790002E17808431B9001A86D
:101D3000FEF7FEFD002612E0F007C00F002806D0D7
:101D4000B00001A9085CB10001AA505006E0B00043
:101D500001A90858000EB10001AA5050761C182E97
:101D6000EAD30026012019900DE03046C030205CF7
:101D7000B10001AA5158884202D10120199001E016
:101D800000201990761C182E02D219980128ECD048
:101D90002078502864D16078552861D1A0784628F1
:101DA0005ED1FF20FD30005DFF2859D1FF20FE30BD
:101DB000005D5A2854D1FF20FF30005DF5284FD137
:101DC0005848005DAA284BD11998012842D14102F8
:101DD0002046FFF74CFE2246012040021D99FFF7E6
:101DE00035F82246012000E03FE040022969FEF775
:101DF00097FF18A8007AA98A605418A8417AA88A7F
:101E0000401C215418A8817AA88A801C2154A969F1
:101E10001B98FF30FF300230081AA861297EA88A7B
:101E200014302154288B0004010EA88A1530215447
:101E3000A8690002010EA88A16302154A869010E73
:101E4000A88A173021542246012040022969FEF752
:101E5000FDFF0FE034A0FFF7C5F8002025B0F0BD6E
:101E600036A0FFF7BFF80020F8E73AA0FFF7BAF86E
:101E70000020F3E70120F1E70A46697273742043FA
:101E80006C757374657220536563746F723A2025A4
:101E9000780A000046696C65204E616D655F536588
:101EA00063746F72203A20252E38780A00000000F3
:101EB00046696C6520457874656E5F696E64657807
:101EC000203A20252E38780A0000000046696C650B
:101ED0002046697273745F436C75737465725F6ECC
:101EE000756D626572203A20252E38780A00000050
:101EF000456E6420536563746F72203A2025640A2E
:101F000000000000736563746F72735F7065725FC9
:101F1000636C7573746572203A2025640A000000B2
:101F2000FFFFFF0FFF0100004B4559204E4F54208B
:101F30004D4154434845440A00000000436F72720B
:101F40007570746564205055462046696C65200A9A
:101F500000000000656E645F736563746F72203EFD
:101F60003D20736563746F72735F7065725F636C3D
:101F700075737465720A0000002100E0491C8142FB
:101F8000FCD3704710B57D24E40008E0202000F069
:101F90001FF810210840002801D0002010BD204665
:101FA000641E0028F2D1401EF8E710B57D24E4003D
:101FB00008E0202000F00CF8C007C00F002801D076
:101FC000002010BD2046641E0028F2D1401EF8E714
:101FD00001460248081800687047000000000940E8
:101FE000034A821812680A43014BC3181A607047EB
:101FF00000000940014A8218116070470000094042
:1020000010B5014608460A4600BF4C7A502C0FD145
:102010008C7A552C0CD1CC7A462C09D1884202D12D
:10202000086A0A4605E00C6A14620B6A5A6200E00C
:102030000A46096A0029E8D110BD000070B50546BE
:1020400000BF0648FFF789FC0128FAD0FEF76EFFB3
:10205000C4B22046FEF772FF204670BD000001406A
:10206000F7B584B005460C46002003900290274641
:10207000E27A217B2AA0FEF7B5FF0D342078287282
:10208000641C002608E02078641CF1008840039955
:1020900008430390701CC6B2022EF4DB2078641C47
:1020A00001903C462434002608E02078641CF100AE
:1020B0008840029908430290701CC6B2042EF4DBDB
:1020C0003C462C342078641CE8600399069840183C
:1020D00028602A680299019848431018686002989D
:1020E0002861297A18A0FEF77DFF1FA00399FEF74B
:1020F00079FF27A00199FEF775FF2CA02969FEF74B
:1021000071FF31A0E968FEF76DFF39A02968FEF77D
:1021100069FF3EA06968FEF765FF07B0F0BD0000EB
:1021200042797465732050657220536563746F72D1
:10213000090909090909093D252E3278252E327829
:10214000090909090A000000536563746F7273205E
:1021500050657220436C757374657209093D25647E
:10216000090909090A0000004E756D626572206F49
:102170006620526573657276656420536563746F7B
:10218000727309093D2564090909090A0000000064
:102190004E756D626572206F662046415473090961
:1021A0003D2564090909090A0000000053656374AC
:1021B0006F7273205065722046415409093D2564B1
:1021C000090909090A000000526F6F7420446972FE
:1021D0006563746F727920466972737420436C75FD
:1021E0007374657209093D2564090909090A00002B
:1021F00046415420424547494E204C424109093D41
:10220000252E3878090909090A000000436C757306
:1022100074657220424547494E204C424109093DB0
:10222000252E3878090909090A00000003461878A4
:10223000002802D01878E52801D1002070470B3320
:102240001878202801D10120F8E70020F6E70000E7
:10225000FFB58BB00D461746149E159C00200A90C2
:102260002BE0394628460E9AFFF7E0FF00281FD0E2
:102270000A990E983B462A460191009002A80B99B4
:1022800000F026F8202202A93046FDF75CFF206806
:10229000401C282148430D4940183062366A2821E5
:1022A000206848430949401870622068401C20603B
:1022B00020350A98401CC0B20A900A98102802DA09
:1022C00020688028CDD330460FB0F0BD94000020A8
:1022D000FFB58BB0154600270020029001900090BA
:1022E0002E460B353546002405E0287803A908550D
:1022F000601CC4B26D1C082CF7DB00206946087511
:10230000002406E0297805A801300155601CC4B2FC
:102310006D1C032CF6DB002103A801733546143530
:10232000002409E028786D1CE100884001990843E9
:1023300080B20190601CC4B2022CF3DB35461A3522
:10234000002409E028786D1CE100884000990843CA
:1023500080B20090601CC4B2022CF3DB0198000430
:102360000099084302900C98079015984001083096
:102370006946088435461C35002406E028786D1C23
:10238000E10088400743601CC4B2042CF6DB0997C7
:1023900002980A90202203A90B98FDF7D4FE0FB0F3
:1023A000F0BD000070B504460D46FF35BF352878F6
:1023B00020706D1C002608E028786D1CF100884014
:1023C000616808436060701CC6B2032EF4DB287895
:1023D00020726D1C002608E028786D1CF1008840F2
:1023E000E1680843E060701CC6B2032EF4DB0026EF
:1023F00008E028786D1CF1008840216908432061BD
:10240000701CC6B2042EF4DB002608E028786D1C90
:10241000F1008840616908436061701CC6B2042EF7
:10242000F4DB21780EA0FEF7DDFD15A06168FEF754
:10243000D9FD217A1AA0FEF7D5FD21A0E168FEF7AB
:10244000D1FD26A02169FEF7CDFD2CA06169FEF724
:10245000C9FD6069410D31A0FEF7C4FD70BD0000EB
:10246000506172746974696F6E203120426F6F74AD
:10247000466C6167203D20252E32780A000000005E
:10248000506172746974696F6E2031204348535FE4
:10249000426567696E203D20252E38780A000000CD
:1024A000506172746974696F6E203120547970655F
:1024B000436F6465203D20252E32780A000000001D
:1024C000506172746974696F6E2031204348535FA4
:1024D000456E64203D20252E38780A0050617274C4
:1024E0006974696F6E2031204C42415F42656769B3
:1024F0006E203D20252E38780A000000506172744D
:102500006974696F6E2031204E756D4F6653656337
:10251000746F72203D2025780A00000050617274AB
:102520006974696F6E20312053697A65203D2025DA
:10253000642047420A00000070B504460D460A2C8C
:1025400002D10D20FEF7FAFC2046FEF7F7FC70BD25
:1025500070B504460D4619A0FEF744FD27A021687A
:10256000FEF740FD28A06168FEF73CFD29A0A168A8
:10257000FEF738FD2AA0E168FEF734FD2BA02169A3
:10258000FEF730FD2DA06169FEF72CFD2EA0A1699C
:10259000FEF728FD2FA0E169FEF724FD294631A0B2
:1025A000FEF720FD34A0FEF71DFD00204249086023
:1025B00000BF414800680028FBD070BD0A2A2A2AC3
:1025C0002A2A2A2A2A2A546865207361766564209B
:1025D0007265676973746572732066726F6D2074BB
:1025E000686520737461636B2A2A2A2A2A2A2A2A98
:1025F0002A2A2A2A2A2A2A2A0A0000007230206956
:102600007320307825780A00723120697320307881
:1026100025780A00723220697320307825780A0004
:10262000723320697320307825780A0072313220A5
:10263000697320307825780A000000006C722069E8
:102640007320307825780A00706320697320307811
:1026500025780A0070737220697320307825780A13
:102660000000000063757272656E745F6C722069A1
:102670007320307825780A002A2A2A2A2A2A2A2A28
:102680002A2A2A2A2A2A2A2A2A2A2A2A2A2A2A2AAA
:102690002A2A2A2A2A2A2A2A2A2A2A2A2A2A2A2A9A
:1026A0002A2A2A2A2A2A2A2A2A2A2A2A2A2A2A2A8A
:1026B0002A2A2A2A2A0A00001000002070B5FF21C9
:1026C00001318805416241610013FFF755FC002488
:1026D00004E0FF20FEF7A4FB601CC4B2282CF8DB4A
:1026E000002211461046FEF79BF90722FF21AB316D
:1026F0000820FEF795F90322FF21AB313A20FEF7BF
:102700008FF9002400BF002211463720FEF788F918
:102710000022012189072920FEF782F9C5B2601C39
:10272000C4B2002DEFD10322FF21AB313A20FEF7D6
:1027300077F970BD10B50020FEF74AF8002404E0D8
:102740002046FEF735F8601CC4B2102CF8DB0020E0
:102750006B49096808606A4909680871694909682C
:1027600008706849096848700120664909688870DE
:10277000002064490968C8706249096808716149A4
:10278000096848715F49096888715E490968C871BC
:1027900001205C49096808725A4909684872400278
:1027A00058490968C86000205749096808705649A7
:1027B00009688870012054490968C870524909683D
:1027C0000871022050490968487100204E49096883
:1027D00088714D490968C87101204B490968087220
:1027E00000204A4909680860484909680871484951
:1027F0000968087046490968487045490968887041
:1028000043490968C8704249096808714049096824
:1028100048713F49096888713D490968C8710120BC
:102820003B49096808723A490968487240023849C8
:102830000968C86000203749096808703549096887
:102840008870012033490968C870324909680871E5
:102850003049096848712F490968887100202D495D
:102860000968C87101202B490968087200202A49AB
:1028700009680860284909680871284909680870CA
:10288000264909684870254909688870012023494C
:102890000968C87000202149096808711F49096842
:1028A00048711E49096888711C490968C87101206E
:1028B0001A4909680872194909684872400217499B
:1028C0000968C86000201649096808701449096839
:1028D0008870012012490968C87011490968087197
:1028E0000F49096848710E490968887100200C4930
:1028F0000968C87101200A490968087210BD000002
:10290000380000203C000020400000204C00002047
:1029100050000020540000206000002064000020CF
:10292000680000201CB50446D02168460170412192
:10293000017150214170402181704421C1706A466B
:102940000E210120FDF7D0FF204600F019FD1CBD2F
:1029500010B50020FDF73CFF002404E02046FDF701
:1029600027FF601CC4B2102CF8DB00202349096843
:1029700008602249096808712149096808702049DE
:10298000096848701E490968887001201C49096857
:10299000C87000201A490968087119490968487106
:1029A00017490968887116490968C87102201449D5
:1029B000096808721249096848722020104909689C
:1029C000C86000200F49096808700E4909688870BE
:1029D00001200C490968C8700A4909680871094949
:1029E0000968487107490968887100200549096824
:1029F000C871012003490968087210BD1C0000203D
:102A00002000002024000020FFB0FFB092B0012180
:102A1000490290A8FDF7B0FB0121490210A8FDF77B
:102A2000ABFB0027914D2C46002020626062032200
:102A3000E12149028E48FFF723F88EA0FEF7D2FA73
:102A40008CA0FEF7CFFA8DA0FEF7CCFA89A0FEF796
:102A5000C9FA88A0FEF7C6FA00BF8E48FEF778FFD5
:102A60000128FAD03C20FFF75DFFFFF727FE032087
:102A7000FFF758FFFFF75EFE90AA002101204002F9
:102A8000FEF74EF990A8FDF71FFF00287DD082A029
:102A9000FEF7A8FA90A909A8FFF784FC90AA0120E4
:102AA00040020D99FEF73CF990A904A80D9AFFF792
:102AB000D7FA7EA0FEF796FA85A0FEF793FAFFF705
:102AC00047FF00F049F9C2E000BF7248FEF745FF3A
:102AD0000128FAD0FEF72AFAC0B20F900F986528A5
:102AE0001DD004DC1B287AD0642879D151E06C28F1
:102AF00002D07328F9D1A0E02C46079A06990898CD
:102B0000019200910290214690A8059B049AFFF73C
:102B10003DF8204600F0D2FB00F01EF996E02C466E
:102B2000079A06990898019200910290214690A870
:102B3000059B049AFFF72AF82046FFF761FA04463E
:102B4000204600F081FB0746781EC7B2002604E04D
:102B5000002C00D0246A701C86B2BE42F8DB002C28
:102B600003D15DA0FEF73EFA0EE001226846017E29
:102B700004986B4607C310AA90A92046059B00F055
:102B8000B7F959A0FEF72EFA00E061E000F0E4F892
:102B90005CE02C46079A06990898019200910290F1
:102BA000214690A8059B049AFEF7F0FF204600F00E
:102BB00029FB0446204600F047FB0746781EC7B2B3
:102BC000002604E0002C00D0246A701C86B2BE42AD
:102BD000F8DB002C05D140A0FEF704FA2AE031E032
:102BE00033E000226846017E04986B4607C310AAB2
:102BF00090A92046059B00F07BF90A20002815DBF0
:102C0000C206D20E012191403B4A116000BF00BFB5
:102C100000BFBFF34F8F00BF00BF00BF00BF00BFAA
:102C200000BFBFF36F8F00BF00BF00BF00BF33A066
:102C3000FEF7D8F900F090F808E000F055FB00F03E
:102C40008BF803E000F088F800E000BF00BF3BE72E
:102C50002EA0FEF7C7F900BF0E48FEF779FE012847
:102C6000FAD02EA0FEF7BEF900BFFEE794000020C8
:102C700000366E013D3D3E200A0000003D3D3E20F5
:102C80005055462044454D4F2050524F4752414DDC
:102C90000A00000000000140536563746F72204316
:102CA0006F727265637421210A00000053656172BE
:102CB0006368696E6720666F7220526F6F7420645C
:102CC00069726563746F72792E2E2E0A00000000FF
:102CD0005C726F6F740A000046696C65204E6F74F9
:102CE0002045786973740A00456E637279707420A8
:102CF000446F6E650A00000080E100E04465637285
:102D000079707420446F6E650A0000005365637427
:102D10006F722057726F6E6721210A002300000036
:102D200010B50448FEF73CF903480068401C02490E
:102D3000086010BD009000402800002010B5044835
:102D4000FEF72EF903480068401C0249086010BDD8
:102D500000A000402C00002010B50B48FEF742F9FF
:102D60000AA0FEF73FF91548FEF73CF914A0FEF75C
:102D700039F91AA0FEF736F921A0FEF733F929A098
:102D8000FEF730F910BD0000F433000023232309BF
:102D900009090909090909090909090909090909A3
:102DA0000909090909090909090909090909090993
:102DB0000909090909090909090A00004C34000038
:102DC000095072657373206C20746F206C69737482
:102DD0002066696C65287329200A00000950726515
:102DE0007373206520746F20656E63727970742030
:102DF00066696C652873292028505546290A000009
:102E0000095072657373206420746F206465637267
:102E10007970742066696C6528732920285055469E
:102E2000290A0000095072657373207320746F20A3
:102E300073686F7720707566206B6579200A0000D3
:102E400010B588B004460221684601700121417026
:102E5000002181700AA003C8039102900BA006C84C
:102E60000592049106A006C8079206916846FEF7EF
:102E700009FC402221462046FEF740FC08B010BD68
:102E80003031323334353638000000006665646313
:102E9000626139380000000010B588B00446022194
:102EA000684601700121417081700BA003C8039135
:102EB00002900CA006C80592049107A006C80792CC
:102EC00006916846FEF7DEFB402221462046FEF7CB
:102ED00015FC08B010BD00003031323334353638BF
:102EE000000000006665646362613938000000001C
:102EF000FFB5FFB08CB01546012149020AA8FDF7C5
:102F00003BF90A20FEF78CF80B20FEF789F80A201F
:102F1000FEF7AEF80B20FEF7ABF862B600208D4945
:102F200008608D4908608D48FEF728F80021C943E4
:102F30008A48FEF744F800218848FEF742F888489E
:102F4000FEF71CF80021C9438548FEF738F8002138
:102F50008348FEF736F88148FEF71AF87F48FEF7F7
:102F600029F87F48FEF726F8969800280ED100959C
:102F7000959B949A8E998B98FEF74EFE002805D16A
:102F800078A0FEF72FF87FB010B0F0BD8B98C46921
:102F900005948B988069400A049004980390959951
:102FA0000498FDF799F80491059CE7099498C119D4
:102FB0002A4601204002FDF7B3FE00268B9A093213
:102FC0006CA08B99FEF70EF800200790089000BFC8
:102FD0009698002803D16BA0FEF704F802E06FA0DA
:102FE000FEF700F873A0FDF7FDFF00BF0594059CF8
:102FF000A01E959948438E9940180690059CA00004
:103000007902461AF01C285C0006B11C695C0904B0
:103010000843711C695C09020843A95D0843044622
:103020000020099038E072B66848844205D1844295
:103030002FD10499099888422BD8012040028C9AFC
:103040000699FDF76DFE62B64548FDF7A1FF0AA996
:103050008C98FEF7E5FC9698002803D10AA8FFF7A4
:10306000EFFE02E00AA8FFF717FF0AA98C98FEF707
:10307000B8FC72B63A48FDF786FF0698421C014636
:103080000692012040028C9AFDF7E0FE0898401C51
:1030900008900998401C0990959909988842C2D3D4
:1030A000FF20FD30864209D14848844206D07F1C6B
:1030B0009498C1192A46301DFDF732FE0798401C2E
:1030C000079062B607980F2811D1642108984843E9
:1030D000029003990298FCF7FFFF029000200790EE
:1030E0003BA0FDF77FFF3BA00299FDF77BFF374830
:1030F000844200D07AE79698012806D10095959BE6
:10310000949A8E998B98FEF741F91448FDF73BFF8E
:103110001348FDF738FF1148FDF747FF1048FDF74A
:1031200044FF72B60A20FDF787FF0B20FDF784FFEE
:103130000A48FDF732FF0A48FDF72FFF0748FDF761
:103140002CFF0748FDF729FF28A0FDF74BFF00BF24
:1031500019E70000280000202C000020009000400B
:1031600000A00040446563727970742045786974EA
:103170000A00000046696C653A2025732E25730A03
:103180000000000044656372797074696E672E2ECA
:103190002E2E2E2E2E2E2E2E2E2E0A00456E6372D1
:1031A000797074696E672E2E2E2E2E2E2E2E2E2EB8
:1031B0002E2E0A0050726F63657373696E672E2E30
:1031C0002E2E2E2E2E30252500000000FFFFFF0F93
:1031D0000D00000050726F63657373696E672E2E69
:1031E0002E2E2E2E2E256425250000000D50726FE8
:1031F00063657373696E672E2E2E2E2E2E2E446FEE
:103200006E650A0010B5014608460A4600BF4C7AB2
:10321000502C07D18C7A552C04D1CC7A462C01D174
:10322000012400E00024002C09D1884202D1086A60
:103230000A4605E00C6A14620B6A5A6200E00A460C
:10324000096A0029E3D110BD38B50446204600F0D4
:1032500035F807A0FDF7C6FE69460FA0FCF798FFFA
:103260000EA0FDF7BFFE0098C5B2284638BD00008D
:10327000456E7465722061206E756D626572207492
:103280006F2073656C656374207468652066696C73
:1032900065203A2000000000256400000A000000BC
:1032A00070B504460D4600BF2046FEF75BFB0128C3
:1032B000FAD029462046FDF793FE70BD70B504464E
:1032C000002500BF234609332246691C03A0FDF7F1
:1032D00089FE246A6D1C002CF4D170BD25642E205B
:1032E00025732E25730A000010B598B06846FDF7C7
:1032F0001FFB14A0FDF776FE16A0FDF773FE002459
:1033000008E01720001B80006A46115812A0FDF744
:1033100069FE641C182CF4D311A0FDF763FE11A004
:10332000FDF760FE002408E01720001B80006A46BD
:10333000115812A0FDF756FE641C182CF4D318B0D7
:1033400010BD00000A20505546204B6579203A20D8
:103350000000000030780000252E387800000000C2
:103360000A0000000A505546206B657920696E20DE
:10337000646563696D616C3A20000000256400009B
:103380003EB505466C460A48FEF7B8FA0020607064
:103390002570A070E0702071072060710020A0717E
:1033A000E0710120207221460148FEF783FA3EBDFC
:1033B00000800140DDDDDDDDDCBBBBDDDDDDDDDD35
:1033C000DDDDDDDD9888888888888888777777775D
:1033D0007788888885555556666666666666666629
:1033E00066688888833333322222222222222222D4
:1033F0002228888D0A2323232323232323232323E3
:10340000232323232323232323232323232323238C
:10341000232323232323232323232323232323237C
:10342000232323232323232323232323232323236C
:10343000232323232323232323232323232323235C
:10344000232323232323232323230A002323232388
:10345000232323232323232323232323232323233C
:10346000232323232323232323232323232323232C
:10347000232323232323232323232323232323231C
:10348000232323232323232323232323232323230C
:1034900023232323232323232323232323232323FC
:1034A000230A0000C434000000000020780000005F
:1034B000901000003C35000078000020F00C000067
:1034C000A01000000000000000000000000000004C
:1034D00000000000000000000000000000000000EC
:1034E0001400002078000020880000200000000068
:1034F000000000000000000000000000300000207C
:10350000140300202403002000000000000000003D
:103510004400002030030020400300200000000091
:1035200000000000580000204C0300205C03002035
:0C3530000000000000000000000000008F
:04000005000000B542
:00000001FF
