:020000040000FA
:1000000028080020B5000000BD0000009900000095
:1000100000000000000000000000000000000000E0
:10002000000000000000000000000000C10000000F
:100030000000000000000000C3000000690A00008A
:10004000C7000000C7000000C7000000C700000094
:10005000C7000000C7000000C7000000C700000084
:10006000C7000000C7000000C7000000C700000074
:10007000C7000000C7000000C7000000C700000064
:10008000C70000000348854600F0BCF9004800475F
:10009000FD1200002808002004207146084202D00A
:1000A000EFF3098001E0EFF308807146004A104742
:1000B0009111000000F0E0FC03480047FEE7FEE776
:1000C000FEE7FEE7FEE7FEE78500000030B50B46E1
:1000D000014600202022012409E00D46D5409D4222
:1000E00005D31D469540491B2546954040191546A8
:1000F000521E002DF1DC30BDF0B51FB488B00B9955
:100100000998002448400999C00F490049080991FD
:10011000C0070B990090490049080B91099908986C
:10012000A64608431CD00B990A98084318D0099892
:1001300001244000420D4800410D099824050003A8
:10014000000B204309900B980003000B20430B90F9
:1001500050181C494018002201901446104605E032
:10016000002001460DB0F0BD032801DA034600E08F
:1001700003239C46C11A0AAE0AE05F0008ADED5B9E
:100180004F00F75B7D430027AA187C41491C5B1E8A
:100190006145F2DD410004AB5A522104120C0A43BE
:1001A000240C401C0828DFDB01980290009970465F
:1001B00001910090059B049A0799069800F0D0F8E9
:1001C000D0E700000DFCFFFF0EB5054902910021AC
:1001D00000910A460B46019100F0C2F803B000BD41
:1001E00033040000410040020122400AD205090EFA
:1001F00080187F2901DA00207047962903DC9622B7
:10020000511AC8407047963988407047CB0FDB07BA
:10021000490010B5490802460A4307D00A0D0724D1
:100220000903E401090B121B002A01DC002010BDA8
:10023000C900440F0C43C100E018D205801800F03B
:1002400041F810BDF0B51FB40646002082B0054647
:100250004024019100901BE0019922460F46304650
:1002600000F0E2F8049A059B801A994110D31046D9
:100270001946224600F016F8361A8F410197224699
:1002800001200021009F00F00DF838184D4100902A
:100290002046641E0028DFDC019B00982946324678
:1002A00007B0F0BD10B5202A04DB0146203A91408A
:1002B000002010BD914020239C1A0346E3401943BF
:1002C000904010BD002904DA401C490001D14008CB
:1002D0004000704770B40024050C05D110240004C0
:1002E00002D1002921D01124050E01D100020834C9
:1002F000050F01D10001241D850F01D18000A41C30
:10030000002801DB4000641C002908D020252E1B9A
:100310000D46F540A14000D00121294308430106C4
:100320001B1B000ADB1D02D5002070BC7047DB05DB
:10033000181880180029F8DA401C4900F5D170BC63
:1003400040084000704710B5002B08DA0024401C1C
:10035000614192185B411A4301D14008400010BD31
:10036000F0B51FB482B005460C0003D0084600F07B
:10037000B7FB02E000F0B4FB2030024600902146BB
:100380002846FFF78FFF049B059A04460F46184343
:100390001143084314D0184610431BD00098402145
:1003A0000A1A1846059900F03FF805460E46009ACD
:1003B00005990498FFF776FF084305D0012004E073
:1003C0002046394607B0F0BD0020C11705430E4353
:1003D0002C43374300990E986305401A7905E40AC7
:1003E00000220C43FD0A0A3002D500200146E9E74D
:1003F0000105101969410C9C0D9D00196941FFF719
:10040000A2FFDFE7064C0125064E05E0E36807CCB6
:100410002B430C3C98471034B442F7D3FFF736FE19
:10042000201400004014000010B5202A04DB084608
:10043000203AD040002110BD0B46D340D0402024AC
:10044000A21A91400843194610BDC26E01238B4089
:100450009A43C2667047C26E01238B401A43C2663C
:1004600070470000F8B504460F4616461D460021A9
:100470002046FFF7EAFF2068000C00042060B0016E
:100480006900084306990843FF2121310843206091
:1004900000200E4908633946204600F021F929461C
:1004A0002046099A00F0AAF829462046099A00F049
:1004B00031F82046079900F015F92046079900F019
:1004C00007F800212046FFF7C6FFF8BD00000240F4
:1004D00070B505460C46092C01DAAC6303E008212F
:1004E00001A000F0D9FA70BD4552524F523A5468FB
:1004F000652049435F54585F544C206D75737420D8
:100500006265206C657373207468616E20257820A5
:100510000A200000F7B584B004460D460027012DDF
:1005200016D17D277F01182179430846FFF74CFE3D
:10053000274A284B01910090FFF7DEFD03910290BE
:10054000FFF764FE06463046FFF74CFE60613DE073
:10055000022D1CD10698012802D1FF27053701E0A2
:100560004B27FF00182179430846FFF72DFE184A54
:10057000184B01910090FFF7BFFD03910290FFF728
:1005800045FE06463046FFF72DFEE0611EE0032DD6
:1005900019D17827182179430846FFF715FE0C4A30
:1005A0000C4B01910090FFF7A7FD03910290FFF71C
:1005B0002DFE06460020E06160620221A420015168
:1005C000A020015102E004A000F066FA07B0F0BDDF
:1005D000FCA9F1D24D62503F4552524F523A493236
:1005E000435F53434C5F48434E54206973206E6F02
:1005F000742065786973742021000000F7B584B019
:1006000004460D460027012D15D1284F18217943A6
:100610000846FFF7D9FD264A264B01910090FFF7C7
:100620006BFD03910290FFF7F1FD06463046FFF7A0
:10063000D9FDA06138E0022D1BD10698012802D116
:10064000FF27F53700E01C4F182179430846FFF7D4
:10065000BBFD174A174B01910090FFF74DFD039129
:100660000290FFF7D3FD06463046FFF7BBFD206240
:100670001AE0032D15D1FF27413718217943084689
:10068000FFF7A2FD0A4A0B4B01910090FFF734FDE2
:1006900003910290FFF7BAFD064600202062A06297
:1006A00002E006A000F0F8F907B0F0BD5C1200000F
:1006B000FCA9F1D24D62503F140500004552524F43
:1006C000523A4932435F53434C5F4C434E54206986
:1006D00073206E6F742065786973742021000000A8
:1006E0004160704770B505460C46092C01DAEC6391
:1006F00003E0082101A000F0CFF970BD4552524F30
:10070000523A5468652049435F54585F544C206DF9
:10071000757374206265206C657373207468616EF4
:10072000202578200A20000070B586B004460D46CA
:100730001646002E06D0012E0FD0022E18D0032E02
:100740002CD120E0D021684601744121017504AA12
:100750003021012000F04CF920E0F02168460174BE
:100760004121017504AA0321022000F041F915E09E
:10077000D021684601744121017504AAC0210220DC
:1007800000F036F90AE0F021684601744121017554
:1007900004AA0C21032000F02BF900BF00BF0020A9
:1007A0000821012301910093029103902B4601221D
:1007B00021460248FFF756FE06B070BD0000024019
:1007C00010B50820084908700846007807490861F4
:1007D00000BF06484030006B042108400028F8D0D4
:1007E000322000F0BAFC10BD1800002000000240CA
:1007F00010B504460021204600F095F810BD000019
:1008000010B505490978082211430846FFF7F0FFA3
:10081000322000F0A2FC10BD1900002010B501200C
:10082000FFF7E6FF7D20000100F097FC10BD0000FF
:1008300010B5044800780421884302490870FFF786
:10084000DFFF10BD1900002010B504480078042116
:10085000084302490870FFF7D3FF10BD19000020BC
:1008600010B5084800780221084306490870097845
:10087000042211430846FFF7BBFF322000F06DFC55
:1008800010BD00001A00002070B504460D4600207F
:100890001949086100BF18484030006B0421084026
:1008A0000028F8D0012000F058FC302000F068F853
:1008B000052000F052FC302000F062F8012000F02A
:1008C0004CFC302000F05CF80C4800F04FFC20207D
:1008D00000F056F821462022114329430846FFF72D
:1008E00087FFFFF7A5FFFFF799FFFFF7B9FFFFF7B6
:1008F000ABFF00F013F870BD00000240DC05000003
:1009000070B504460D46002605E0207800F030F86A
:10091000641C701CC6B2AE42F7DB70BD10B502207D
:10092000FFF766FF10BD70B504460D46F02020406D
:10093000064631462943084600F022F82001F021FE
:100940000840064631462943084600F019F870BDB4
:1009500070B506460C46002E01D1254602E0204621
:100960004030C5B2802129430846FFF741FF70BDE2
:1009700010B5044601212046FFF7D5FF10BD000049
:1009800010B504461748007820431749086100BF96
:1009900015484030006B042108400028F8D020465C
:1009A00008431049097808430F49086100BF0E4801
:1009B0004030006B042108400028F8D0012000F0EE
:1009C000CCFB0848007820430749086100BF06486F
:1009D0004030006B042108400028F8D0034800F0A4
:1009E000C5FB10BD1800002000000240740E00007E
:1009F00070B50346002000BF19E00C46C440E40770
:100A0000E40F002C12D01479D5782C4395782C4320
:100A100055782C435D01074EAD198600AC5514780E
:100A20005D01044EAD198600AD196C70401C08289C
:100A3000E3D370BD0000044010B50446E1B20248A3
:100A400000F0E0FC204610BD0000014001210148FB
:100A50008167704700000640012149020148816713
:100A6000704700000000064002480068401C014931
:100A70000860704710000020FF202E3002490862F5
:100A800002480349086070478000064000366E0146
:100A900000000020016070470FB410B503A9044B9B
:100AA000044A029800F042F810BC08BC04B0184791
:100AB000791100001C0000200FB410B504A9074BE9
:100AC00002AA039800F032F8044602A9002000F0C0
:100AD00067FA204610BC08BC04B01847A10F0000FC
:100AE0002021020C01D010211046020A01D010462C
:100AF0000839020901D01046091F820801D01046AA
:100B0000891E420801D0881E7047081A704702E00B
:100B100008C8121F08C1002AFAD170477047002088
:100B200001E001C1121F002AFBD17047FFB591B04F
:100B30000F460546002606E025280AD0149A139988
:100B400090476D1C761C28780028F5D1304615B0EA
:100B5000F0BD002400940121F34A029400E0044314
:100B60006D1C2B780846203B98401042F7D128781E
:100B70002A280ED0022128780246303A092A15D8B0
:100B8000009A0A235A43303A80180C436D1C009097
:100B9000F1E701CF0090002805DA0120400304436B
:100BA000009840420090022004436D1C28782E28B3
:100BB00015D10420044368786D1C2A280AD101CF7E
:100BC0006D1C02900BE002990A2251433039401803
:100BD0006D1C02902878014630390929F3D928780C
:100BE0006C2810D006DC4C281AD068280ED06A2851
:100BF00017D104E0742813D07A2812D110E0012014
:100C0000400504430CE00121090501E00321090529
:100C10000C436978814203D10120000524186D1C22
:100C20006D1C287803906E281ED00CDC632831D010
:100C300004DC00288AD0582811D1B2E064287BD087
:100C400069280CD178E073282DD004DC6F2870D08F
:100C5000702804D1A7E075286CD078286BD0149A3E
:100C600013999047761C62E06002400F022807D07B
:100C700003280AD0042838680AD006603F1D56E0D1
:100C80003868F11706604160F8E738680680F5E7D4
:100C90000670F3E73878694608740020487404A8A1
:100CA0000390012003E0386803900020C0433F1DFB
:100CB00061070FD5002101E00199491C029A0191B9
:100CC000914213DA8142F7DB019A0399895C00298A
:100CD000F2D10BE0002101E00199491C0191814210
:100CE000FADB019A0399895C0029F5D101990098F2
:100CF000139A401A00902146149B00F03BF9019989
:100D00008019461807E0039803990078491C03915D
:100D1000149A139990470198401E0190401CF2D1FB
:100D20002146149B139A009800F014F986196D1C43
:100D300009E741E033E034E00A2000210490059106
:100D40006002410F022905D001CFC2179446032942
:100D500005D007E0FF1DFF08FF0003CF06E000B24B
:100D6000C2179446042902D140B2C1178C46002212
:100D70006146944506DA0A460021404291418C467C
:100D80002D2102E0210504D52B216A46117601218F
:100D900003E0E10701D02021F7E7019154E00A20A8
:100DA0000BE0102009E010200490002104200443EF
:100DB00008200591029003E008200021059104908D
:100DC0006002410F022905D001CF00229446032979
:100DD00006D006E0FF1DFF08FF0003CF8C4603E0AE
:100DE00080B2042900D1C0B20021019121072BD586
:100DF0000399702906D0049A1021059B4A401A4392
:100E000005D00EE040216A461176012108E06146D6
:100E1000014306D030216A461176039951760221AA
:100E20000191049A0821059B4A401A430CD161465E
:100E3000014301D1610707D530216A4611760121AE
:100E400001910299491E02910399582904D037A1B2
:100E500003910FA90F910DE039A1F9E76146059BB8
:100E6000049AFFF7EFF9039B8C469B5C0F9A521E86
:100E70000F92137061460143F0D10F9807A9081A29
:100E800020300390600704D50120000484430298B9
:100E900001E0012002900399884201DD401A00E040
:100EA000002041180290019809180098401A0090FB
:100EB000E00306D42146149B139A009800F05AF8D8
:100EC00086190020049008E006A9085C149A13997A
:100ED00090470498401C761C049001998842F3DBEB
:100EE000E0030CD52146149B139A009800F042F8B9
:100EF000861904E0149A302013999047761C0299C1
:100F0000481E02900029F5DC08E00F980F99007840
:100F1000491C0F91149A13999047761C0399481E07
:100F200003900029F1DCFBE609280100303132335F
:100F30003435363738396162636465660000000015
:100F400030313233343536373839414243444546FF
:100F500000000000F8B5044600251E461746880428
:100F600004D405E039462020B0476D1C641EF9D535
:100F70002846F8BDFFB50446002581B01E46C803CB
:100F800001D5302700E02027880404D505E0384645
:100F90000399B0476D1C641EF9D5284605B0F0BD15
:100FA0000A68531C0B601070704700BFFEE700001A
:100FB000F7B582B004460F46F8000499FFF786F8AB
:100FC0000546EE09F0012D1A681C40080190666282
:100FD0000648864202D10020A06202E0AD1B0198C3
:100FE000A062E06AE06205B0F0BD0000FFFF000013
:100FF000014688690007C00F704701468869C0062E
:10100000C00F7047014688698006C00F704770B5F1
:1010100004460D46002020636064A0636060606247
:10102000A062E06220462A69E968FFF7C1FF68789C
:101030004007C00FC001297849010843A978090178
:101040000843E978C900084369788907490F0843CC
:10105000E062287AE979C9000843606300E0266805
:101060002046FFF7CAFF0128F9D1761C0020A063B3
:1010700028794002697909020843A9790843206365
:1010800070BD000070B588B004460D461646FFF7E7
:10109000E3FCFFF7DBFC002E06D0012E0FD0022E62
:1010A00018D0032E2CD120E0D021684601714121B7
:1010B000017201AA30210020FFF79AFC2BE0D02119
:1010C000684601714121017201AAC0210120FFF788
:1010D0008FFC20E0E021684601714121017201AAE4
:1010E00003210120FFF784FC15E0E021684601712F
:1010F0004121017201AA0C210320FFF779FC0AE0CB
:10110000D021684601714121017201AA30210020DD
:10111000FFF76EFC00BF00BF03216846017300218A
:101120004173012181730021C17301210174417454
:1011300081740021C174022101750694079503A9E9
:101140000248FFF764FF08B070BD000000000140D6
:1011500000E0401E0028FCD1704700B502467D210A
:10116000490151430846FFF7F3FF00BD00B50246B1
:101170009000FFF7EDFF00BD70B504460D460A2C48
:1011800002D10D20FFF758FC2046FFF755FC70BD3B
:1011900070B504460D4619A0FFF77EFC27A0216814
:1011A000FFF77AFC28A06168FFF776FC29A0A16808
:1011B000FFF772FC2AA0E168FFF76EFC2BA0216903
:1011C000FFF76AFC2DA06169FFF766FC2EA0A169FC
:1011D000FFF762FC2FA0E169FFF75EFC294631A012
:1011E000FFF75AFC34A0FFF757FC00204249086083
:1011F00000BF414800680028FBD070BD0A2A2A2A97
:101200002A2A2A2A2A2A546865207361766564206E
:101210007265676973746572732066726F6D20748E
:10122000686520737461636B2A2A2A2A2A2A2A2A6B
:101230002A2A2A2A2A2A2A2A0A0000007230206929
:101240007320307825780A00723120697320307855
:1012500025780A00723220697320307825780A00D8
:10126000723320697320307825780A007231322079
:10127000697320307825780A000000006C722069BC
:101280007320307825780A007063206973203078E5
:1012900025780A0070737220697320307825780AE7
:1012A0000000000063757272656E745F6C72206975
:1012B0007320307825780A002A2A2A2A2A2A2A2AFC
:1012C0002A2A2A2A2A2A2A2A2A2A2A2A2A2A2A2A7E
:1012D0002A2A2A2A2A2A2A2A2A2A2A2A2A2A2A2A6E
:1012E0002A2A2A2A2A2A2A2A2A2A2A2A2A2A2A2A5E
:1012F0002A2A2A2A2A0A0000140000201FB50322E5
:10130000E12149022948FFF7BDFE29A0FFF7C4FBF0
:1013100027A0FFF7C1FB28A0FFF7BEFB24A0FFF723
:10132000BBFB23A0FFF7B8FB00BF2848FFF760FE18
:101330000128FAD0002201212720FFF7F5F900212A
:101340000820FFF7A1FAFFF73BFA00210846FFF754
:10135000FFFA1FA16846FFF7AFFBC4B221466846FB
:10136000FFF7CEFA04210120FFF7F2FA1CA168462C
:10137000FFF7A2FBC4B221466846FFF7C1FA0DA0F1
:10138000FFF78AFB0BA0FFF787FB17A0FFF784FB93
:1013900008A0FFF781FB07A0FFF77EFB18A0FFF76F
:1013A0007BFBFFF702FE122004B010BD00366E0179
:1013B0003D3D3E200A0000003D3D3E205445535433
:1013C000204C43442063686172200A000000014001
:1013D00048656C6C6F20576F726C642100000000D0
:1013E0004C696E65203200003D3D3E20544553540B
:1013F000204C4344206368617220454E44200A001B
:101400002300000070B504460D4600BF2046FFF7DC
:10141000F9FD0128FAD029462046FFF73BFB70BDB5
:101420004014000000000020240000000E0B00000B
:101430006414000024000020040800001E0B0000BB
:1014400000366E01000000000000000000000000F7
:101450000000000000000000080002000000000082
:041460000000000088
:04000005000000B542
:00000001FF
