:020000040000FA
:10000000A80B0020B5000000BD0000009900000012
:1000100000000000000000000000000000000000E0
:10002000000000000000000000000000C10000000F
:100030000000000000000000C30000005D0200009E
:10004000C7000000C7000000C7000000C700000094
:10005000C7000000C7000000C7000000C700000084
:10006000C7000000C7000000C7000000C700000074
:10007000C7000000C7000000C7000000C700000064
:10008000C70000000348854600F088F80048004794
:10009000B90C0000A80B002004207146084202D0D1
:1000A000EFF3098001E0EFF308807146004A104742
:1000B0004D0B000000F0DAF803480047FEE7FEE7CA
:1000C000FEE7FEE7FEE7FEE78500000030B50B46E1
:1000D000014600202022012409E00D46D5409D4222
:1000E00005D31D469540491B2546954040191546A8
:1000F000521E002DF1DC30BDD2B201E00270401C76
:10010000491EFBD270470022F6E710B513460A4697
:1001100004461946FFF7F0FF204610BDF0B51FB4A6
:100120000646002082B005464024019100901BE065
:10013000019922460F46304600F042F8049A059B8A
:10014000801A994110D310461946224600F016F83D
:10015000361A8F410197224601200021009F00F0AE
:100160000DF838184D4100902046641E0028DFDC51
:10017000019B00982946324607B0F0BD10B5202AF1
:1001800004DB0146203A9140002010BD914020231D
:100190009C1A0346E3401943904010BD064C0125CC
:1001A000064E05E0E36807CC2B430C3C984710341F
:1001B000B442F7D3FFF76AFFD00E0000F00E000044
:1001C00010B5202A04DB0846203AD040002110BD9B
:1001D0000B46D340D0402024A21A91400843194630
:1001E00010BD000070B50346002000BF19E00C46AA
:1001F000C440E407E40F002C12D01479D5782C43C6
:1002000095782C4355782C435D01074EAD19860037
:10021000AC5514785D01044EAD198600AD196C70B3
:10022000401C0828E3D370BD0000044010B504460C
:10023000E1B2024800F03EFE204610BD0000014041
:1002400001210148816770470000064001214902F1
:1002500001488167704700000000064002480068BE
:10026000401C01490860704710000020FF202E301C
:10027000024908620248034908607047800006404E
:1002800000366E0100000020016070470FB410B509
:1002900003A9044B044A029800F018F810BC08BCEB
:1002A00004B01847350B0000A000002002E008C889
:1002B000121F08C1002AFAD170477047002001E0E0
:1002C00001C1121F002AFBD170470000FFB58FB09B
:1002D0000F460446002606E025280AD0129A1199F6
:1002E0009047641C761C20780028F5D1304613B066
:1002F000F0BD00250121A14A009500E00543641CE2
:1003000023780846203B98401042F7D120782E28C9
:1003100015D1042005436078641C2A280AD101CF36
:10032000641C00900BE000990A22514330394018B8
:10033000641C00902078014630390929F3D92078CF
:100340006C280ED004DC4C2813D06A2812D104E0AB
:1003500074280ED07A280DD10BE00120400505430A
:1003600007E00121090562780D43824201D16D1831
:10037000641C641C2078864669284AD008DC002862
:10038000B4D058286DD0632810D0642808D140E03C
:1003900070286BD0732812D0752860D0782860D070
:1003A000129A704611999047761CE5E038786946B4
:1003B00008720020487202A80190012003E038680A
:1003C00001900020C0433F1D69070CD5002500E0C7
:1003D0006D1C00998D420FDA8542F9DB0199495D68
:1003E0000029F5D108E0002500E06D1C8542FCDB0A
:1003F0000199495D0029F8D1761907E00198019922
:100400000078491C0191129A119990476D1EF5D2FE
:10041000B2E00A20029000216802400F03910228F6
:100420000CD001CFC117844600290DDA6246084678
:1004300052420021814194462D2008E0FF1DFF0813
:10044000FF0003CF8446EFE7280504D52B206A463A
:10045000107401203CE0E8073AD02020F7E70A209A
:1004600000E0102000210391029007E0102002908C
:100470000021042005430820039100906802400FEA
:10048000022810D001CF0021844600200D902807BB
:100490001FD5704670280CD0029A1020039B424052
:1004A0001A430CD015E0FF1DFF08FF0003CF844660
:1004B000EBE740206A46107401200D900CE0604686
:1004C000084306D030206A461074704650740220EB
:1004D0000D907046582804D029A001900DA80E90C8
:1004E0000DE02CA0F9E76046039B029AFFF716FE89
:1004F000019B84469B5C0E9A521E0E9213706046BE
:100500000843F0D10E9805A9081A20300190680719
:1005100001D5009801E0012000900199884203DD97
:1005200001460198081A00E000200025009006E02E
:1005300004A8129A405D119990476D1C761C0D9885
:100540008542F5DB04E0129A302011999047761C21
:100550000099481E00900029F5DC08E00E980E99DD
:100560000078491C0E91129A11999047761C0199B6
:10057000481E01900029F1DC641CB4E60928010042
:100580003031323334353637383961626364656609
:1005900000000000303132333435363738394142CB
:1005A000434445460000000000BFFEE770B5044626
:1005B000002520788001A17808436178090108436B
:1005C00005462946102000F0AFFA6078012805D1D1
:1005D0000121FF20413000F09DFA1AE07020A1684F
:1005E00000F0A2FA8020E16800F09EFA207801284D
:1005F0000FD19020216900F097FAA020616900F0E6
:1006000093FAB020A16900F08FFAC020E16900F0F0
:100610008BFA00F001F870BD10B50121002000F048
:1006200079FA10BDF7B505460E460027FF430024B2
:1006300000BF1AE0E100481900F070F80746002FEB
:1006400005DA0CA0FFF722FE0020C043FEBDE1004A
:10065000881900F02BF80746002F05DA0CA0FFF7E9
:1006600015FE0020C043F1E7641C02988442E1D3E8
:100670000020EBE761704465735F57726974655FD2
:10068000446174612054696D65204F7574200A00BF
:1006900061704465735F526561645F446174612099
:1006A00054696D65204F7574200A0000D1B581B082
:1006B0000020C043009000BF00BF00F04AF9009046
:1006C0000098002806DA70210AA0FFF7DFFD00205D
:1006D000C043DCBD502000F015FA0646002760201C
:1006E00000F010FA044620463843019A1660506024
:1006F0000020EEE75B25645D206465735F636865D9
:10070000636B5F6F75747075745F72656164792077
:1007100074696D65206F7574200A000070B5044619
:100720000025ED4300F002F90546002D06DA5821B8
:1007300007A0FFF7ABFD0020C04370BD302021684B
:1007400000F0F2F94020616800F0EEF90020F4E7D3
:100750005B25645D206465735F636865636B5F69D7
:100760006E7075745F72656164792074696D65205F
:100770006F7574200A000000F7B582B004460F467A
:10078000F8000499FFF7A2FC0546EE09F0012D1AC6
:10079000681C4008019066620648864202D100202B
:1007A000A06202E0AD1B0198A062E06AE06205B0C1
:1007B000F0BD0000FFFF0000014688690007C00F80
:1007C000704701468869C006C00F704701468869B6
:1007D0008006C00F704770B504460D4600202063A8
:1007E0006064A06360606062A062E06220462A6983
:1007F000E968FFF7C1FF68784007C00FC00129789A
:1008000049010843A97809010843E978C900084368
:1008100069788907490F0843E062287AE979C900B5
:100820000843606300E026682046FFF7CAFF0128FE
:10083000F9D1761C0020A063287940026979090269
:100840000843A9790843206370BD000070B588B0E3
:1008500004460D461646FFF7F9FCFFF7F1FC002EA3
:1008600006D0012E11D0022E1CD0032E34D126E04A
:10087000D02168460171412101724021417101AAD4
:1008800030210020FFF7AEFC33E0D0216846017133
:10089000412101724021417101AAC0210120FFF7CD
:1008A000A1FC26E0E021684601714121017240214E
:1008B000417101AA03210120FFF794FC19E0E02116
:1008C00068460171412101724021417101AA0C2148
:1008D0000320FFF787FC0CE0D0216846017141211D
:1008E00001724021417101AA30210020FFF77AFCFA
:1008F00000BF00BF0321684601730021417301213D
:1009000081730021C173012101744174817400213C
:10091000C174022101750694079503A90248FFF7E7
:100920005AFF08B070BD00000000014010B57D24E2
:10093000E40008E0202000F0E5F81021084000283D
:1009400001D0002010BD2046641E0028F2D1401EB8
:10095000F8E710B57D24E40008E0202000F0D2F88C
:10096000C007C00F002801D0002010BD2046641E23
:100970000028F2D1401EF8E7F0B585B0002700242A
:1009800000206946087300BF54E0F8002D4908189C
:1009900060C833463A465C212BA00095FFF776FCF1
:1009A000F8003049081860C833463A465E212EA048
:1009B0000095FFF76BFCF8003349081860C8334610
:1009C0003A46602131A00095FFF760FC002406E064
:1009D000F8001C494018005D01A90855641C082C4A
:1009E000F6D301AB3A46652130A0FFF74FFC002457
:1009F00006E0F8001B494018005D01A90855641C79
:100A0000082CF6D301AB3A4669212EA0FFF73EFC35
:100A1000002406E0F8001C494018005D01A90855B3
:100A2000641C082CF6D301AB3A466D212CA0FFF7CD
:100A30002DFC7F1C324800688742A6D3002005B0F9
:100A4000F0BD0000180000205B25645D2073726318
:100A50005F646174615B25645D203A20307825789D
:100A600025780A00280100205B25645D20656E63FF
:100A7000727970745F646174615B25645D203A20F3
:100A80003078257825780A00A80000205B25645D71
:100A900020646563727970745F646174615B25645E
:100AA0005D203A203078257825780A005B25645D42
:100AB000207372635F646174615B25645D203A201A
:100AC00025730A005B25645D20656E63727970741E
:100AD0005F646174615B25645D203A2025730A00C0
:100AE0005B25645D20646563727970745F64617412
:100AF000615B25645D203A2025730A0A000000002E
:100B0000980000200146024808180068704700005D
:100B100000000940034A821812680A43014BC318B7
:100B20001A60704700000940014A8218116070473E
:100B30000000094070B504460D460A2C02D10D2074
:100B4000FFF774FB2046FFF771FB70BD70B50446DC
:100B50000D4619A0FFF79AFB27A02168FFF796FB27
:100B600028A06168FFF792FB29A0A168FFF78EFB20
:100B70002AA0E168FFF78AFB2BA02169FFF786FB1B
:100B80002DA06169FFF782FB2EA0A169FFF77EFB14
:100B90002FA0E169FFF77AFB294631A0FFF776FB2A
:100BA00034A0FFF773FB00204249086000BF4148B2
:100BB00000680028FBD070BD0A2A2A2A2A2A2A2A7D
:100BC0002A2A5468652073617665642072656769B6
:100BD00073746572732066726F6D2074686520731C
:100BE0007461636B2A2A2A2A2A2A2A2A2A2A2A2A6A
:100BF0002A2A2A2A0A0000007230206973203078DD
:100C000025780A00723120697320307825780A002F
:100C1000723220697320307825780A007233206997
:100C20007320307825780A007231322069732030C1
:100C30007825780A000000006C72206973203078F3
:100C400025780A00706320697320307825780A00BF
:100C500070737220697320307825780A00000000D4
:100C600063757272656E745F6C7220697320307880
:100C700025780A002A2A2A2A2A2A2A2A2A2A2A2AD5
:100C80002A2A2A2A2A2A2A2A2A2A2A2A2A2A2A2AC4
:100C90002A2A2A2A2A2A2A2A2A2A2A2A2A2A2A2AB4
:100CA0002A2A2A2A2A2A2A2A2A2A2A2A2A2A2A2AA4
:100CB0002A0A00001400002030B589B00025ED4359
:100CC0000322E12149024448FFF7C0FD43A0FFF79A
:100CD000DDFA42A0FFF7DAFA42A0FFF7D7FA3FA009
:100CE000FFF7D4FA3DA0FFF7D1FA00BF4348FFF762
:100CF00063FD0128FAD000240DE0E0004049085CC3
:100D0000002802D13F48046007E0641C102C02D187
:100D10003C48046001E0102CEFD300BF3948016863
:100D200039A0FFF7B3FA3DA0FFF7B0FA80214048A1
:100D3000FFF7E9F980213F48FFF7E5F90021684610
:100D400001704170012181703BA003C803910290A2
:100D50003CA006C80592049137A006C807920691E8
:100D60006846FFF723FC2748314902682448FFF70B
:100D700059FC002168468170FFF718FC21482D4975
:100D800002682B48FFF74EFC0546002D03DA3F2191
:100D90002FA0FFF77BFAFFF7EFFD0546002D03DAE2
:100DA000442136A0FFF772FA0CA0FFF76FFA0BA0F0
:100DB000FFF76CFA39A0FFF769FA08A0FFF766FAA7
:100DC00006A0FFF763FA3AA0FFF760FAFFF7ECFB23
:100DD000122009B030BD000000366E013D3D3E20BE
:100DE0000A0000003D3D3E205445535420444553E5
:100DF00020426567696E200A000000000000014083
:100E00001800002098000020646174615F636F75B2
:100E10006E74203A202564200A0000004465732087
:100E2000666F726D205265672074657374200A00C6
:100E300028010020A8000020303132333435363804
:100E400000000000666564636261393800000000DC
:100E50005B25645D2061704465735F456E637279E4
:100E600070745F446563727970745F44617461206B
:100E70004661696C6564200A000000005B25645DC2
:100E8000206465735F636865636B5F726573756C1F
:100E900074204661696C6564200A00003D3D3E2077
:100EA000544553542044455320456E64200A0000A5
:100EB0002300000070B504460D4600BF2046FFF732
:100EC00085FC0128FAD029462046FFF7DDF970BDE0
:100ED000F00E000000000020A8000000AC0200009E
:100EE000980F0000A8000020000B0000BC020000CA
:100EF00000366E010000000000000000000000004D
:100F00000000000000000000656566663063303058
:100F10003336393837343132715765527254795516
:100F200071776572747975697A786376626E6D6DC2
:100F30006565666630633030333639383734313280
:100F40007157655272547955717765727479756904
:100F50007A786376626E6D6D656566663063303093
:100F60003336393837343132656566663063303050
:100F700071776572747975697157655272547955D4
:100F80007A786376626E6D6D0000000000000000EC
:080F9000000000000000000059
:04000005000000B542
:00000001FF
