:020000040000FA
:10000000C8090020B5000000BD00000099000000F4
:1000100000000000000000000000000000000000E0
:10002000000000000000000000000000C10000000F
:100030000000000000000000C300000021040000D8
:10004000C7000000C7000000C7000000C700000094
:10005000C7000000C7000000C7000000C700000084
:10006000C7000000C700000041120000C7000000E8
:10007000C7000000C7000000C7000000C700000064
:10008000C70000000348854600F0DAF80048004742
:1000900039110000C809002004207146084202D02E
:1000A000EFF3098001E0EFF308807146004A104742
:1000B000510F000000F0BCF903480047FEE7FEE7DF
:1000C000FEE7FEE7FEE7FEE78500000030B50B46E1
:1000D000014600202022012409E00D46D5409D4222
:1000E00005D31D469540491B2546954040191546A8
:1000F000521E002DF1DC30BDD2B201E00270401C76
:10010000491EFBD270470022F6E710B513460A4697
:1001100004461946FFF7F0FF204610BD024670B5B1
:100120004A40D30FDB0740002DD04A002AD0010EF1
:10013000140E000212020919400A520A8418E5013D
:1001400004465443000A120A2E045043A4194219CB
:10015000200CC543AA18120C0125AD03521C5219DC
:1001600012047F39240400D0521C104301D44000F3
:10017000491EC2B20C06C0092018401C4008802A43
:1001800002D003E0002070BD40084000002900DAE2
:100190000020184370BD410040020122400AD205F0
:1001A000090E80187F2901DA00207047962903DCA8
:1001B0009622511AC8407047963988407047F0B56A
:1001C0001FB40646002082B00546402401910090ED
:1001D0001BE0019922460F46304600F043F8049A8E
:1001E000059B801A994110D310461946224600F00B
:1001F00016F8361A8F410197224601200021009FF0
:1002000000F00DF838184D4100902046641E00287B
:10021000DFDC019B00982946324607B0F0BD10B5DF
:10022000202A04DB0146203A9140002010BD914075
:1002300020239C1A0346E3401943904010BD000060
:10024000064C0125064E05E0E36807CC2B430C3C29
:1002500098471034B442F7D3FFF718FFC0150000D9
:10026000E015000010B5202A04DB0846203AD040F3
:10027000002110BD0B46D340D0402024A21A91404B
:100280000843194610BD000070B50346002000BFAA
:1002900019E00C46C440E407E40F002C12D0147996
:1002A000D5782C4395782C4355782C435D01074E27
:1002B000AD198600AC5514785D01044EAD19860069
:1002C000AD196C70401C0828E3D370BD00000440D9
:1002D000F0B5B5B005460024434900203291339073
:1002E00000260021702000F021FE0021802000F077
:1002F0001DFE0021902000F019FE0021A02000F03A
:1003000015FE0021B02000F011FE0021C02000F0F9
:100310000DFE91263146102000F008FE0121FF203D
:10032000413000F0F9FD00F079FA202000F05CFD8A
:1003300001902E49202000F0F9FD32A800F0F0FADB
:1003400000BF2FE0702000F04FFD1821614302AA8A
:100350005050802000F048FD1821614302AA8918FE
:100360004860902000F040FD1821614302AA8918DE
:100370008860A02000F038FD1821614302AA891886
:10038000C860B02000F030FD1821614302AA89182E
:100390000861C02000F028FD1821614302AA8918D5
:1003A0004861641C082CCDD3002411E006212046AE
:1003B000FFF78CFE801C1821484302A9471806212C
:1003C0002046FFF783FE8800385828602D1D641CE6
:1003D000182CEBD332A800F06BFA2020019900F022
:1003E000A5FD35B0F0BD00006464461610301D2D2B
:1003F00010B50446E1B2024800F09EFF204610BD51
:10040000000001400121014881677047000006405B
:100410000121490201488167704700000000064041
:1004200002480068401C0149086070471000002025
:10043000FF202E30024908620248034908607047D5
:100440008000064000366E01000000208168022214
:1004500011438160704781680122114381607047B8
:1004600081684022114381607047816810221143E6
:10047000816070474160704710B50A4681680C245E
:100480000B46A343194693001943816010BD0160D8
:10049000704700000FB410B503A9044B044A02983A
:1004A00000F018F810BC08BC04B01847390F000061
:1004B000A000002002E008C8121F08C1002AFAD1DB
:1004C00070477047002001E001C1121F002AFBD1D4
:1004D00070470000FFB58FB00F460446002606E0C7
:1004E00025280AD0129A11999047641C761C20780E
:1004F0000028F5D1304613B0F0BD00250121A14AF6
:10050000009500E00543641C23780846203B984092
:100510001042F7D120782E2815D1042005436078A9
:10052000641C2A280AD101CF641C00900BE00099BA
:100530000A22514330394018641C0090207801464B
:1005400030390929F3D920786C280ED004DC4C28E6
:1005500013D06A2812D104E074280ED07A280DD165
:100560000BE001204005054307E001210905627801
:100570000D43824201D16D18641C641C20788646AC
:1005800069284AD008DC0028B4D058286DD06328E8
:1005900010D0642808D140E070286BD0732812D0A6
:1005A000752860D0782860D0129A704611999047CB
:1005B000761CE5E03878694608720020487202A887
:1005C0000190012003E0386801900020C0433F1DE6
:1005D00069070CD5002500E06D1C00998D420FDAEB
:1005E0008542F9DB0199495D0029F5D108E0002534
:1005F00000E06D1C8542FCDB0199495D0029F8D1C2
:10060000761907E0019801990078491C0191129A26
:10061000119990476D1EF5D2B2E00A200290002198
:100620006802400F039102280CD001CFC117844605
:1006300000290DDA62460846524200218141944663
:100640002D2008E0FF1DFF08FF0003CF8446EFE7E1
:10065000280504D52B206A46107401203CE0E807E9
:100660003AD02020F7E70A2000E010200021039173
:10067000029007E01020029000210420054308208A
:10068000039100906802400F022810D001CF002192
:10069000844600200D9028071FD5704670280CD086
:1006A000029A1020039B42401A430CD015E0FF1D14
:1006B000FF08FF0003CF8446EBE740206A46107432
:1006C00001200D900CE06046084306D030206A46B9
:1006D00010747046507402200D907046582804D053
:1006E00029A001900DA80E900DE02CA0F9E760461E
:1006F000039B029AFFF763FD019B84469B5C0E9A65
:10070000521E0E92137060460843F0D10E9805A950
:10071000081A20300190680701D5009801E00120F7
:1007200000900199884203DD01460198081A00E013
:1007300000200025009006E004A8129A405D11995F
:1007400090476D1C761C0D988542F5DB04E0129AEB
:10075000302011999047761C0099481E009000297E
:10076000F5DC08E00E980E990078491C0E91129A5B
:1007700011999047761C0199481E01900029F1DCDF
:10078000641CB4E609280100303132333435363781
:1007900038396162636465660000000030313233CD
:1007A000343536373839414243444546000000006D
:1007B00070B50446002520788001A178084361784F
:1007C0000901084305462946102000F0AFFB607878
:1007D000012805D10121FF20413000F09DFB1AE0E6
:1007E0007020A16800F0A2FB8020E16800F09EFB71
:1007F000207801280FD19020216900F097FBA020DC
:10080000616900F093FBB020A16900F08FFBC0206C
:10081000E16900F08BFB00F001F870BD10B501211B
:10082000002000F079FB10BDF7B505460E46002705
:10083000FF43002400BF1AE0E100481900F070F8FF
:100840000746002F05DA0CA0FFF724FE0020C04366
:10085000FEBDE100881900F02BF80746002F05DAED
:100860000CA0FFF717FE0020C043F1E7641C0298BC
:100870008442E1D30020EBE761704465735F5772F7
:100880006974655F446174612054696D65204F75BA
:1008900074200A0061704465735F526561645F444F
:1008A0006174612054696D65204F7574200A0000E1
:1008B000D1B581B00020C043009000BF00BF00F060
:1008C00040F900900098002806DA71210AA0FFF78D
:1008D000E1FD0020C043DCBD502000F085FA064653
:1008E0000027602000F080FA044620463843019A31
:1008F000166050600020EEE75B25645D2064657340
:100900005F636865636B5F6F75747075745F726544
:100910006164792074696D65206F7574200A000028
:1009200070B504460025ED4300F0F8F80546002DAB
:1009300006DA592107A0FFF7ADFD0020C04370BDC6
:100940003020216800F0F2FA4020616800F0EEFAF1
:100950000020F4E75B25645D206465735F63686570
:10096000636B5F696E7075745F7265616479207422
:10097000696D65206F7574200A000000F7B582B0BC
:1009800004460F46F8000499FFF7A0FB0546EE0960
:10099000F0012D1A681C40080190666206488642E4
:1009A00002D10020A06202E0AD1B0198A062E06AC3
:1009B000E06205B0F0BD0000FFFF0000014688695D
:1009C0000007C00F704701468869C006C00F704716
:1009D000014688698006C00F704770B504460D4611
:1009E000002020636064A06360606062A062E062D7
:1009F00020462A69E968FFF7C1FF68784007C00F01
:100A0000C001297849010843A97809010843E97818
:100A1000C900084369788907490F0843E062287ACA
:100A2000E979C9000843606300E026682046FFF7C3
:100A3000CAFF0128F9D1761C0020A0632879400262
:100A4000697909020843A9790843206370BD000051
:100A500070B588B004460D461646FFF7D9FCFFF77F
:100A6000D1FC002E06D0012E0FD0022E18D0032E5E
:100A70002CD120E0D021684601714121017201AAE8
:100A800030210020FFF700FC2BE0D02168460171E7
:100A90004121017201AAC0210120FFF7F5FB20E0EE
:100AA000E021684601714121017201AA0321012060
:100AB000FFF7EAFB15E0E021684601714121017270
:100AC00001AA0C210320FFF7DFFB0AE0D0216846D2
:100AD00001714121017201AA30210020FFF7D4FBEE
:100AE00000BF00BF0321684601730021417301214B
:100AF00081730021C173012101744174817400214B
:100B0000C174022101750694079503A90248FFF7F5
:100B100064FF08B070BD00000000014010B57D24E6
:100B2000E40008E0202000F05FF9102108400028D0
:100B300001D0002010BD2046641E0028F2D1401EC6
:100B4000F8E710B57D24E40008E0202000F04CF91F
:100B5000C007C00F002801D0002010BD2046641E31
:100B60000028F2D1401EF8E7F0B585B00027002438
:100B700000206946087300BF5AE0F80030490818A1
:100B800060C833463A46FF211E312EA00095FFF77C
:100B900081FCF8003249081860C833463A46FF2104
:100BA000203130A00095FFF775FCF8003549081892
:100BB00060C833463A46FF21223133A00095FFF743
:100BC00069FC002406E0F8001D494018005D01A9F9
:100BD0000855641C082CF6D301AB3A46FF21273197
:100BE00031A0FFF757FC002406E0F8001C4940182C
:100BF000005D01A90855641C082CF6D301AB3A46E8
:100C0000FF212B312EA0FFF745FC002406E0F80061
:100C10001C494018005D01A90855641C082CF6D336
:100C200001AB3A46FF212F312CA0FFF733FC7F1C8C
:100C3000324800688742A0D3002005B0F0BD000014
:100C4000180000205B25645D207372635F6461742B
:100C5000615B25645D203A203078257825780A008C
:100C6000480100205B25645D20656E6372797074B5
:100C70005F646174615B25645D203A20307825787B
:100C800025780A00C80000205B25645D2064656348
:100C9000727970745F646174615B25645D203A20D1
:100CA0003078257825780A005B25645D20737263AF
:100CB0005F646174615B25645D203A2025730A00DE
:100CC0005B25645D20656E63727970745F64617426
:100CD000615B25645D203A2025730A005B25645D15
:100CE00020646563727970745F646174615B25640C
:100CF0005D203A2025730A0A0000000098000020B9
:100D000010B50024E4431BA0FFF7C4FB80211E485C
:100D1000FFF7F9F980211D48FFF7F5F900201C497C
:100D200008700120487088700846FFF741FD194897
:100D3000154902681848FFF777FD002014498870AC
:100D40000846FFF735FD1348104902680E48FFF7C3
:100D50006BFD0446002C03DA5F2110A0FFF79AFB1D
:100D6000FFF702FF0446002C03DA672116A0FFF705
:100D700091FB10BD44657320666F726D205055461F
:100D80002074657374200A0048010020C800002008
:100D9000A800002098000020180000205B25645D5A
:100DA0002061704465735F456E63727970745F444F
:100DB0006563727970745F44617461204661696C27
:100DC0006564200A000000005B25645D2064657393
:100DD0005F636865636B5F726573756C74204661F1
:100DE000696C6564200A0000014602480818006822
:100DF000704700000000094010B50024E44323A020
:100E0000FFF748FB80212648FFF77DF98021254820
:100E1000FFF779F900202449087048700120887094
:100E200022A103C9204AD160906023A006C81E48B1
:100E3000426101611DA105C91B49CA61886108465B
:100E4000FFF7B6FC1F48164902681F48FFF7ECFC85
:100E50000020154988700846FFF7AAFC1948114977
:100E600002680F48FFF7E0FC0446002C03DA3E213D
:100E700016A0FFF70FFBFFF777FE0446002C03DAFE
:100E800043211DA0FFF706FB10BD00004465732041
:100E900066726F6D205265672074657374200A0056
:100EA00048010020C8000020A80000203031323363
:100EB0003435363800000000666564636261393895
:100EC0000000000098000020180000205B25645DF1
:100ED0002061704465735F456E63727970745F441E
:100EE0006563727970745F44617461204661696CF6
:100EF0006564200A000000005B25645D2064657362
:100F00005F636865636B5F726573756C74204661BF
:100F1000696C6564200A0000034A821812680A435B
:100F2000014BC3181A60704700000940014A82183B
:100F3000116070470000094070B504460D460A2C48
:100F400002D10D20FFF754FA2046FFF751FA70BD89
:100F500070B504460D4619A0FFF79CFA27A021683A
:100F6000FFF798FA28A06168FFF794FA29A0A16812
:100F7000FFF790FA2AA0E168FFF78CFA2BA021690D
:100F8000FFF788FA2DA06169FFF784FA2EA0A16906
:100F9000FFF780FA2FA0E169FFF77CFA294631A01C
:100FA000FFF778FA34A0FFF775FA0020424908608D
:100FB00000BF414800680028FBD070BD0A2A2A2AD9
:100FC0002A2A2A2A2A2A54686520736176656420B1
:100FD0007265676973746572732066726F6D2074D1
:100FE000686520737461636B2A2A2A2A2A2A2A2AAE
:100FF0002A2A2A2A2A2A2A2A0A000000723020696C
:101000007320307825780A00723120697320307897
:1010100025780A00723220697320307825780A001A
:10102000723320697320307825780A0072313220BB
:10103000697320307825780A000000006C722069FE
:101040007320307825780A00706320697320307827
:1010500025780A0070737220697320307825780A29
:101060000000000063757272656E745F6C722069B7
:101070007320307825780A002A2A2A2A2A2A2A2A3E
:101080002A2A2A2A2A2A2A2A2A2A2A2A2A2A2A2AC0
:101090002A2A2A2A2A2A2A2A2A2A2A2A2A2A2A2AB0
:1010A0002A2A2A2A2A2A2A2A2A2A2A2A2A2A2A2AA0
:1010B0002A2A2A2A2A0A00001400002070B50446B1
:1010C0000A20002805DBC206D20E01219140164AF3
:1010D000116000BF0A20002809DB00BF00BFC20664
:1010E000D20E01219140114A116000BF00BF00BF24
:1010F00062B60F48FFF7AAF90E492046FFF70EF82F
:101100000646FFF748F8054629460948FFF7B2F9B1
:1011100000210748FFF7B0F90548FFF7A6F9044892
:10112000FFF799F970BD000080E200E000E100E007
:1011300000900040001BB74B00BFC0202D494870F5
:10114000012188074162816141610322E121490255
:101150002948FFF77DFC29A0FFF79CF927A0FFF79E
:1011600099F928A0FFF796F924A0FFF793F923A097
:10117000FFF790F900BF2948FFF720FC0128FAD0BB
:1011800000240DE0E0002649085C002802D1254833
:10119000046007E0641C102C02D12248046001E0C6
:1011A000102CEFD300BFFFF727FEFFF7A9FD00F0DB
:1011B00075F900F0FDF800F04DF800F0CBF80FA045
:1011C000FFF768F90DA0FFF765F917A0FFF762F9BF
:1011D0000AA0FFF75FF909A0FFF75CF90121880772
:1011E000816116A0FFF756F93F200006FFF766FF62
:1011F00000BFFEE70000044000366E013D3D3E208A
:101200000A0000003D3D3E205445535420444553C0
:1012100020426567696E200A00000000000001405E
:1012200018000020980000203D3D3E2054455354B6
:101230002044455320456E64200A0000230000002E
:1012400010B50348FFF70CF901218807C16110BDF3
:101250000090004010B50024E4431BA0FFF71AF9EA
:1012600080211D48FEF74FFF80211C48FEF74BFFF1
:1012700002201B4908700120487088700846FFF75B
:1012800097FA1848144902681748FFF7CDFA00206A
:10129000134988700846FFF78BFA12480F49026815
:1012A0000D48FFF7C1FA0446002C03DAC7210FA04E
:1012B000FFF7F0F8FFF758FC0446002C03DACF21C3
:1012C00015A0FFF7E7F810BD505546204D6F646537
:1012D0002074657374200A0048010020C8000020B3
:1012E000A800002098000020180000205B25645D05
:1012F0002061704465735F456E63727970745F44FA
:101300006563727970745F44617461204661696CD1
:101310006564200A000000005B25645D206465733D
:101320005F636865636B5F726573756C742046619B
:10133000696C6564200A000070B504460D4600BF64
:101340002046FFF745FB0128FAD029462046FFF743
:101350009EF870BD10B598B06846FEF7B9FF0CA0B6
:10136000FFF798F80EA0FFF795F8002408E0172083
:10137000001B80006A4611580AA0FFF78BF8641C16
:10138000182CF4D309A0FFF785F818B010BD0000A1
:101390000A20505546204B6579203A200000000075
:1013A00030780000252E3878000000000A00000088
:1013B00010B50024E4431BA0FFF76CF880211F4800
:1013C000FEF7A1FE80211E48FEF79DFE01201D496B
:1013D0000870487088700846FFF7EAF91A481749FC
:1013E00002681A48FFF720FA00201649887008465C
:1013F000FFF7DEF91448124902681048FFF714FAA3
:101400000446002C03DAA32111A0FFF743F8FFF7ED
:10141000ABFB0446002C03DAAB2118A0FFF73AF827
:1014200010BD00005444657320666F726D205055E6
:10143000462074657374200A0000000048010020F3
:10144000C8000020A80000209800002018000020FC
:101450005B25645D2061704465735F456E637279DE
:1014600070745F446563727970745F446174612065
:101470004661696C6564200A000000005B25645DBC
:10148000206465735F636865636B5F726573756C19
:1014900074204661696C6564200A000010B5002460
:1014A000E44323A0FEF7F6FF80212748FEF72BFE3A
:1014B00080212648FEF727FE0120254908700020DC
:1014C00048700120887023A103C9214AD16090602F
:1014D00023A006C81E48426101611EA105C91C491E
:1014E000CA6188610846FFF763F920481649026817
:1014F0001F48FFF799F90020154988700846FFF743
:1015000057F91A48114902680F48FFF78DF9044648
:10151000002C03DA832117A0FEF7BCFFFFF724FBA2
:101520000446002C03DA88211DA0FEF7B3FF10BD8E
:10153000544465732066726F6D2052656720746530
:101540007374200A0000000048010020C800002039
:10155000A800002030313233343536380000000026
:1015600066656463626139380000000098000020FD
:10157000180000205B25645D2061704465735F4541
:101580006E63727970745F446563727970745F44DE
:10159000617461204661696C6564200A0000000086
:1015A0005B25645D206465735F636865636B5F7270
:1015B0006573756C74204661696C6564200A00006F
:1015C000E015000000000020A8000000B4040000A6
:1015D00088160000A800002020090000C4040000B4
:1015E00000366E0100000000000000000000000056
:1015F0000000000000000000656566663063303062
:10160000333639383734313271576552725479551F
:1016100071776572747975697A786376626E6D6DCB
:101620006565666630633030333639383734313289
:10163000715765527254795571776572747975690D
:101640007A786376626E6D6D65656666306330309C
:101650003336393837343132656566663063303059
:1016600071776572747975697157655272547955DD
:101670007A786376626E6D6D0000000000000000F5
:08168000000000000000000062
:04000005000000B542
:00000001FF
