:020000040000FA
:10000000480A0020B5000000BD0000009900000073
:1000100000000000000000000000000000000000E0
:10002000000000000000000000000000C10000000F
:100030000000000000000000C3000000991500004F
:10004000C7000000C7000000C7000000C700000094
:10005000C7000000C7000000C7000000C700000084
:10006000C7000000C7000000C7000000C700000074
:10007000C7000000C7000000C7000000C700000064
:10008000C70000000348854600F06AFC00480047AE
:10009000AD270000480A002004207146084202D023
:1000A000EFF3098001E0EFF308807146004A104742
:1000B0002524000001F078FA03480047FEE7FEE738
:1000C000FEE7FEE7FEE7FEE78500000030B50B46E1
:1000D000014600202022012409E00D46D5409D4222
:1000E00005D31D469540491B2546954040191546A8
:1000F000521E002DF1DC30BDF8B502464A40D40F47
:1001000042004B0052085B089A4202D2024608465F
:1001100011464A0023D0C30D4A00DDB2120EAD1ABB
:10012000202D35DA49020126490AF6058A19002CE4
:1001300000D0524220214F1B1146B9402A411018CD
:10014000C20D9A4221D0002C17D0012D08DCDA050F
:10015000801AD20F8019D207DBB200F00BFBF8BD7A
:10016000DA05801A012340001B06C01880185A4285
:100170008018CA0F1043490007E04908C20711431D
:10018000DA05801A80194008801800F0EBFAF8BDF3
:1001900061000122511A001BF7E70122D2075140EA
:1001A000AAE70122D2075040A6E7024670B54A40AE
:1001B000D30FDB0740002DD04A002AD0010E140EC9
:1001C000000212020919400A520A8418E501044685
:1001D0005443000A120A2E045043A4194219200C59
:1001E000C543AA18120C0125AD03521C5219120462
:1001F0007F39240400D0521C104301D44000491E12
:10020000C2B20C06C0092018401C4008802A02D047
:1002100003E0002070BD40084000002900DA002003
:10022000184370BD70B502464A40D50F40004A00E1
:10023000ED0740085208002814D0002A12D0C40D3F
:10024000D30D41020120C0055202490A520AE41AA4
:10025000091812187D34914201D3641C00E0490052
:10026000002C01DA002070BD0023914201D3891ACD
:100270000343400849000028F7D100290AD09142E1
:1002800002D10121C90705E0914201D2012101E01B
:100290000121C943E005C018401900F063FA70BDA0
:1002A000F0B507460846584087B0C00F0490480094
:1002B0000E46590040084908BC1A884105D2384604
:1002C00031461E4617460B4602465800400810436A
:1002D0004CD0300D039040055900400D490D05905C
:1002E000401A0290402872DA18030121000B090518
:1002F0000843019004980092002805D001995242C9
:100300000020884100920190029840210A1A019928
:10031000009800F004FA05460C466B4607CB00F047
:100320000EFAC0197141039A0E0D0023D7175640DB
:100330001A467A40164344D0049A002A2DD0029AD5
:10034000012A039A15DC1205C01A914101263605CF
:10035000001C7141D20F059ED207009301920296B4
:100360002A46234600F04CFA07B0F0BD3846314625
:10037000FAE71605224A0F46B218C01AB741012102
:100380000905001C4F4100187F411146181879419A
:10039000E20F10436D19644113E0E2076D08154345
:1003A0006408C2071443039A01261205C01A91413A
:1003B0003605001C7141CE07400830434908C0187B
:1003C00051412A46234600F00EFACDE7FFE7049894
:1003D00001224000C117121A00238B4104983146B4
:1003E000C417381AA141EEE730B40124E407634092
:1003F00030BC55E730B40124E407614030BC4FE71E
:100400000000E0FFF0B51FB488B00B9909980024F4
:1004100048400999C00F490049080991C0070B9944
:100420000090490049080B9109990898A64608438D
:100430001CD00B990A98084318D009980124400051
:10044000420D4800410D099824050003000B20438C
:1004500009900B980003000B20430B9050181C4987
:100460004018002201901446104605E00020014685
:100470000DB0F0BD032801DA034600E003239C46DB
:10048000C11A0AAE0AE05F0008ADED5B4F00F75BF2
:100490007D430027AA187C41491C5B1E6145F2DDA3
:1004A000410004AB5A522104120C0A43240C401C94
:1004B0000828DFDB019802900099704601910090B6
:1004C000059B049A0799069800F09AF9D0E7000076
:1004D0000DFCFFFFF0B50C465C4085B0E40FE4076F
:1004E00003944C00002664085900944649080246CB
:1004F0000296224321D062460A431ED06200570D65
:100500004A000E032303550D012402462C492405FD
:10051000781B1B0B360B4018234326436146009083
:100520001C46501AB44103D30098401C009002E0CE
:10053000921800985B41002803DA0020014605B0BC
:10054000F0BD0020012109050746864611E06446FA
:100550001D46141BB54106D36546521BB341744674
:1005600007430C43A646CD07400849082843921884
:100570005B4105460D43EAD11046184313D060464F
:10058000194650407140084306D06046101AB341E6
:1005900006D20122002306E000220123DB0702E04D
:1005A0000122D2435310009874460105381C614162
:1005B000029C039D0019694100F015F9BFE7000096
:1005C000FD030000C217C10F504010B54018CA0704
:1005D0009623002100F0CEF810BD10B5002296231E
:1005E000114600F0C7F810BD0EB505490291002173
:1005F00000910A460B46019100F002F903B000BDDC
:1006000033040000C20F410040020123400ADB0511
:10061000D207090EC0187F2901DA002070479629F9
:1006200003DC9623591AC84001E096398840002A15
:10063000F4D040427047410040020122400AD205F6
:10064000090E80187F2901DA00207047962903DC03
:100650009622511AC8407047963988407047C20F99
:10066000D207400040080BD0C10D0723DB01C91899
:1006700040020905400A1143C20840071143704770
:10068000002001467047CB0FDB07490010B5490831
:1006900002460A4307D00A0D07240903E401090BA7
:1006A000121B002A01DC002010BDC900440F0C43BE
:1006B000C100E018D205801800F054F810BDF0B564
:1006C0001FB40646002082B00546402401910090E8
:1006D0001BE0019922460F46304600F053F9049A78
:1006E000059B801A994110D310461946224600F006
:1006F00016F8361A8F410197224601200021009FEB
:1007000000F00DF838184D4100902046641E002876
:10071000DFDC019B00982946324607B0F0BD10B5DA
:10072000202A04DB0146203A9140002010BD914070
:1007300020239C1A0346E3401943904010BD10B596
:10074000202A06DBCB170846203A1041C1170B437D
:1007500006E00B461341D0402024A21A91400843E2
:10076000194610BD002904DA401C490001D1400897
:100770004000704770B40024050C05D1102400041B
:1007800002D1002921D01124050E01D10002083424
:10079000050F01D10001241D850F01D18000A41C8B
:1007A000002801DB4000641C002908D020252E1BF6
:1007B0000D46F540A14000D0012129430843010620
:1007C0001B1B000ADB1D02D5002070BC7047DB0537
:1007D000181880180029F8DA401C4900F5D170BCBF
:1007E00040084000704710B5002B08DA0024401C78
:1007F000614192185B411A4301D14008400010BD8D
:10080000F0B51FB482B005460C0003D0084600F0D6
:1008100003FF02E000F000FF203002460090214676
:100820002846FFF77CFF049B059A04460F461843B1
:100830001143084314D0184610431BD000984021A0
:100840000A1A1846059900F09DF805460E46009ACA
:1008500005990498FFF763FF084305D0012004E0E1
:100860002046394607B0F0BD0020C11705430E43AE
:100870002C43374300990E986305401A7905E40A22
:1008800000220C43FD0A0A3002D500200146E9E7A8
:100890000105101969410C9C0D9D00196941FFF774
:1008A000A2FFDFE770B54B005B0803430BD04B00A2
:1008B0005C0D002633466542B341D417AD1AA341FF
:1008C00002DB0020014670BD12053018514170BD99
:1008D0000EB5C217C10F5040CA0740180021054B82
:1008E0000293019200910A460B46FFF789FF03B07D
:1008F00000BD0000330400004A0009030123090B76
:100900001B0519430A4B10B5520D9A4202DA00201A
:10091000014610BD064B34339A4203DC9A1A00F0AC
:1009200031F810BD034BD218FFF7F9FE10BD0000DF
:10093000FF030000CDFBFFFF10B5002904DB0124FD
:10094000E40740428C412146002B04DB1C46012376
:10095000DB075242A341994200D1904210BD0000F2
:10096000064C0125064E05E0E36807CC2B430C3C02
:1009700098471034B442F7D3FFF788FB083E0000D5
:10098000283E000010B5202A04DB0846203AD0405B
:10099000002110BD0B46D340D0402024A21A914024
:1009A0000843194610BDFEB500231A461B1A8A419A
:1009B00003DB0020014603B0F0BD4A000D03012116
:1009C0002D0B0905520D0D43D10702D100186D41C1
:1009D000521E5110FF31FF310131002704463E46BF
:1009E0003846009701910246012100200905FFF7D2
:1009F000C9FFC3197141F818324684468E464A41F0
:100A000061462846611A904104D36046241A9541F4
:100A100076461F46241900986D41401C00903428EA
:100A2000E1DDF91930467041091BA84103D20022CB
:100A3000D243134601E00022134601980105381CF9
:100A40007141FFF7D0FEB6E7F3B587B00899079874
:100A5000FFF7E8FB0190FFF702FE04460A4A0B4B42
:100A600002F03AF806460022094BFFF7C3FC0022C9
:100A7000084B03910290FFF7C5FC05910490FFF726
:100A800002FE09B0F0BD00006C45D9CC955BC83FB3
:100A90000000F03F40A5E540F0B58BB007460C469E
:100AA0002046FFF7DCFD05460022104BFFF712FD44
:100AB00000220F4B01910090FFF79CFC0D4A0E4B5A
:100AC0000391029002F008F8079106903846FFF76C
:100AD000C6FD05910490079B069AFFF7FBFC099160
:100AE0000890FFF7D0FD0BB0F0BD000040A5E54039
:100AF0000000F03F85EB51B81E051540F8B50446DF
:100B0000204600F0DDF9994999480068FFF745FB58
:100B10000646FFF777FD974908600968494308468C
:100B2000FFF750FD944908608B21C9059248006881
:100B3000FFF778FB9049086090490020085EFFF7B6
:100B400041FD06468C4801683046FFF72EFB8A4976
:100B500008604521090688480068FFF763FB86495D
:100B60000860874A0021515E824A12685143084654
:100B7000FFF728FD83490860452109068148006880
:100B8000FFF750FB7F490860084601687A48006813
:100B9000FFF7B2FA7C4908607C4900228A5E900027
:100BA000FFF710FD0746784801683846FFF7A4FABA
:100BB0000646FFF727FD7649086008460068A04012
:100BC000801C08600868C117890F09188910704ACD
:100BD0001160704A0021515E664A1268514308460E
:100BE000FFF7F0FC64490860232149066248006869
:100BF000FFF718FB604908605E49096849430846E9
:100C0000FFF7E0FC5F4908608B21C9055D4800687B
:100C1000FFF708FB5B4908605F490020085EFFF7AB
:100C2000D1FC0646574801683046FFF7BEFA5549E1
:100C300008608F21C90553480068FFF7F3FA51494E
:100C40000860084601684C480068FFF755FA0646F8
:100C500001218907FFF750FA4B4908608121C90536
:100C600049480068FFF7DEFA47490860472109064E
:100C700045480068FFF740FA0646FFF7DCFC4749A5
:100C800008600846006846490988484343490860A7
:100C900008460068C00B0860424800683C49096883
:100CA000401A4149086041482041096848433E498B
:100CB0000860084600680121C90788420BD23A49FA
:100CC0000968480035490968FFF700FA0646FFF74A
:100CD00084FC05460FE03148016833480068FFF79F
:100CE000F5F90646FFF779FC0546012189072846F4
:100CF000FFF75BFA05468721C9052846FFF792FAF8
:100D00001D490860084601680068FFF74EFA1A4955
:100D10000860274918480068FFF747FA06468F2100
:100D2000C905FFF77FFA1449086029462148FFF7F3
:100D30003CFA06468F21C905FFF774FA114908608D
:100D4000084601680C480068FFF7D6F91A49009078
:100D5000FFF7D2F907468321C905FFF763FA064674
:100D60002946FFF7C9F905462846F8BD00007A452F
:100D70005400002030000020480000202600002001
:100D80001A0000204C000020500000201800002015
:100D9000280000201C000020240000202C0000203F
:100DA0001E000020440000203400002050C300003A
:100DB00000E03D4500E8E5C500F06C45F8B500F001
:100DC000CDF835480068FFF7FDFB3449086034482A
:100DD0000088FFF702FC0446304801682046FFF710
:100DE000E0F92E4908602F480088FFF7F6FB04461B
:100DF0002A4801682046FFF7D8F9284908604721AA
:100E0000090626480068FFF70DFA244908602649BC
:100E10000020085EFFF7D6FB24490860452109063B
:100E200022480068FFF7C1F92049086020490020E6
:100E3000085EFFF7C7FB0546184801682846FFF71C
:100E40005BF90446214619480068FFF7EBF917499A
:100E500008600846016811480068FFF74DF9154918
:100E600008604121090613480068FFF745F9044668
:100E70008321C905FFF7D6F900900098FFF7EFFB33
:100E800004460D4A0D4BFFF7BDFA0646FFF7FBFB84
:100E900000900098F8BD00004000002048000020AD
:100EA00022000020200000203A0000204C000020FA
:100EB0003C000020540000209A9999999999B93FD3
:100EC00038B50446A407A40FF42069460870002C26
:100ED00006D0012C08D0022C0AD0032C10D10BE034
:100EE0003420694648700FE07420694648700BE072
:100EF000B4206946487007E0F4206946487003E072
:100F000034206946487000BF00BF0222694610487D
:100F100000F05EF90F4801F061FA03236A46F621FA
:100F20000B4800F033F968460078010468464078C1
:100F30000002084369468978084307490860082089
:100F4000011B0548006808410349086038BD0000DE
:100F50000000024020A107004400002008B5F42151
:100F6000684601702E21417002226946054800F052
:100F70002FF9054801F032FAF62000F07DF8034918
:100F8000086008BD0000024020A1070040000020CA
:100F9000014600BF0F4A126BD207D20F002AF9D1C7
:100FA0000C4A403A116192150A4B403B1A611A6192
:100FB00000BF084A126BD207D20F002AF9D1054AA6
:100FC000403A12691206100C024A403A1269024372
:100FD00090B270474000024000B5AA2000F04CF8E3
:100FE0001A490880AC2000F047F819490880AE2063
:100FF00000F042F817490880B020FFF7C9FF1649F2
:101000000880B220FFF7C4FF14490880B420FFF71E
:10101000BFFF13490880B62000F02EF81149088060
:10102000B82000F029F810490880BA2000F024F810
:101030000E490880BC2000F01FF80D490880BE2032
:1010400000F01AF80B49088000BD000018000020CD
:101050001A0000201C0000201E000020200000209C
:10106000220000202400002026000020380000205C
:101070003A0000203C000020014600BF0F4A126BDE
:10108000D207D20F002AF9D10C4A403A11619215C9
:101090000A4B403B1A611A6100BF084A126BD20723
:1010A000D20F002AF9D1054A403A1269120210B251
:1010B000024A403A1269024310B2704740000240AF
:1010C00000B54A79130000F0BEFA0604101C28345B
:1010D000404C0A68824001239B075A650A68824097
:1010E0005A660A6882409A673BE00A688240012398
:1010F0009B075A650A6882409A660A6882405A6766
:101100002FE00A68824001239B079A650A688240A3
:101110005A660A6882409A6723E00A68824001237F
:101120009B079A650A6882409A660A6882405A67F5
:1011300017E00A68824001239B079A650A6882408B
:101140005A660A6882405A670BE00A6882400123A7
:101150009B079A650A6882409A660A6882409A6785
:1011600000BF00BF0A79002A02D0012A0CD105E095
:101170000A68824001239B079A6205E00A68824060
:1011800001239B075A6200BF00BF00BD30B50C466B
:1011900000BF056FED07ED0F002DFAD104610021AE
:1011A00004E0FF25013505614D1CE9B29942F8DBE9
:1011B00000BF056FED07ED0F002DFAD1002104E00F
:1011C000056915704D1CE9B2521C9942F8DB30BD1F
:1011D00030B5134600BF046FE407E40F002CFAD1CA
:1011E000002204E00C780461541CE2B2491C9A42CB
:1011F000F8DB00BF046F04252C40002CFAD030BD72
:10120000C26E01238B409A43C2667047C26E0123AF
:101210008B401A43C2667047F8B504460F4616461F
:101220001D4600212046FFF7EBFF2068000C00045C
:101230002060B0016900084306990843FF2121316D
:101240000843206000200E4908633946204600F01C
:1012500021F929462046099A00F0AAF82946204695
:10126000099A00F031F82046079900F015F9204658
:10127000079900F007F800212046FFF7C7FFF8BDE7
:101280000000024070B505460C46092C01DAAC633B
:1012900003E0082101A000F09BF970BD4552524FB8
:1012A000523A5468652049435F54585F544C206D4E
:1012B000757374206265206C657373207468616E49
:1012C000202578200A200000F7B584B004460D469A
:1012D0000027012D16D17D277F011821794308466B
:1012E000FFF782F9274A284B01910090FFF78AF80F
:1012F00003910290FFF7C7F906463046FFF79BF9C6
:1013000060613DE0022D1CD10698012802D1FF2723
:10131000053701E04B27FF00182179430846FFF706
:1013200063F9184A184B01910090FFF76BF803918D
:101330000290FFF7A8F906463046FFF77CF9E06116
:101340001EE0032D19D17827182179430846FFF7AD
:101350004BF90C4A0C4B01910090FFF753F80391A5
:101360000290FFF790F906460020E06160620221DA
:10137000A4200151A020015102E004A000F028F9AE
:1013800007B0F0BDFCA9F1D24D62503F4552524F1B
:10139000523A4932435F53434C5F48434E542069AD
:1013A00073206E6F742065786973742021000000CB
:1013B000F7B584B004460D460027012D15D1284FFE
:1013C000182179430846FFF70FF9264A264B019169
:1013D0000090FFF717F803910290FFF754F90646C3
:1013E0003046FFF728F9A06138E0022D1BD106989E
:1013F000012802D1FF27F53700E01C4F182179435F
:101400000846FFF7F1F8174A174B01910090FEF7D5
:10141000F9FF03910290FFF736F906463046FFF7D1
:101420000AF920621AE0032D15D1FF274137182150
:1014300079430846FFF7D8F80A4A0B4B0191009010
:10144000FEF7E0FF03910290FFF71DF9064600202A
:101450002062A06202E006A000F0BAF807B0F0BD7A
:101460005C120000FCA9F1D24D62503F140500004F
:101470004552524F523A4932435F53434C5F4C43BB
:101480004E54206973206E6F7420657869737420E0
:10149000210000004160704770B505460C46092CDC
:1014A00001DAEC6303E0082101A000F091F870BDBF
:1014B0004552524F523A5468652049435F54585F31
:1014C000544C206D757374206265206C65737320B5
:1014D0007468616E202578200A20000070B50346EC
:1014E000002000BF19E00C46C440E407E40F002CC4
:1014F00012D01479D5782C4395782C4355782C4309
:101500005D01074EAD198600AC5514785D01044E9F
:10151000AD198600AD196C70401C0828E3D370BD6E
:101520000000044010B5024800F04CF810BD000067
:101530000000014010B50446E1B2024802F047F94C
:10154000204610BD0000014001210148816770471D
:1015500000000640012149020148816770470000F0
:10156000000006401CB5D021684601704121017180
:1015700050214170402181704421C170FF2101310F
:101580008805416141626A460E210120FFF7A6FFEE
:10159000062002F003FA1CBD02480068401C014905
:1015A0000860704710000020FF202E3002490862BA
:1015B00002480349086070478000064000366E010B
:1015C0000000002001460868C0B270470160704703
:1015D0000FB410B503A9044B044A029800F0A8F90F
:1015E00010BC08BC04B018470D240000680000209F
:1015F0000FB410B504A9074B02AA039800F098F99C
:10160000044602A9002000F02FFD204610BC08BCB3
:1016100004B01847692000002021020C01D01021DD
:101620001046020A01D010460839020901D01046BE
:10163000091F820801D01046891E420801D0881E69
:101640007047081A704730B47446641E2578641CCD
:10165000AB4204D3635D5B00E31830BC18471D4602
:10166000F8E700004900CA020243100000D004203D
:101670004A0D01D001221043044A490D914201D183
:1016800002210843012800D105207047FF07000010
:10169000F8B504464F1EC8000838211815461E46E6
:1016A000086849683A4606239A4310D02A463346CA
:1016B000FEF7A8FE3A46D200083AA3181A687F1E21
:1016C0005B68FEF7EDFD06223B469343EED1022F09
:1016D00023D0042F11D0062F2FD12A463346FEF7F0
:1016E00091FEE36AA26AFEF7DBFD2A463346FEF767
:1016F00089FE636A226AFEF7D3FD2A463346FEF767
:1017000081FEE369A269FEF7CBFD2A463346FEF768
:1017100079FE63692269FEF7C3FD2A463346FEF768
:1017200071FEE368A268FEF7BBFD2A463346FEF76A
:1017300069FE63682268FEF7B3FDF8BD002210B5AC
:10174000134610460149FEF7C5FE10BD0000F03FEC
:1017500010B5FEF7A5FD10BD002210B513461046CA
:101760001146FEF7B7FE10BD10B50721024A002052
:101770000907FFF797F810BD01030000034A10B5F1
:1017800000201107FFF78EF810BD000001FDFFFFDC
:1017900002E008C8121F08C1002AFAD1704770473A
:1017A000002001E001C1121F002AFBD17047000098
:1017B000014908607047000070000020F0B51FB4B8
:1017C00086B00998089A030D0021024314D05148AD
:1017D000514A1818504305141198012810981AD02E
:1017E000281A401C00264D4F4D4900960191049047
:1017F000002812DA444211E01198012449A301287B
:1018000001D11098C1430698119A84600360C260A8
:1018100041600BB0F0BD4042E4E7044621050020E2
:101820003F4A001C51410391029012E0E00707D0AB
:1018300032463B4601990098FEF7E4FD0191009085
:1018400032463B4610461946FEF7DCFD06460F467B
:101850006410002CEAD10498039B0028029A09998D
:10186000089806DAFEF7CEFD019B009AFEF7CAFD46
:1018700005E0FEF72FFE019B009AFEF72BFE0446C3
:101880000E460022284BFFF757F803D80020C0432C
:10189000014607E00022254B20463146FEF700FDB9
:1018A000FFF72AF8102409E0002C0ADB0A220023A3
:1018B000FEF705FF079B30321A55641E02460A43A5
:1018C000F2D11122641C079B121B1C19119B012BC6
:1018D00003D0012308430ED10AE0084304D01120AD
:1018E00010900020119077E71098151A6D1E0BE0EC
:1018F0001098824202DD00236D1C03E0824201DA6F
:1019000000236D1E002BEED0069811998260C160F5
:1019100030C07EE701FCFFFF104D000000001440C6
:101920000000F03F300000000000F0430000E03F06
:10193000FFB597B00646002518E2252877D1002488
:101940002746FD49049400E00443761C32780120C8
:10195000203A90400842F7D130782A280ED002224F
:10196000307801463039092916D804990A23594399
:10197000303940181443761C0490F1E7189802C8D7
:1019800004911890002904DA0120400304434842DE
:10199000049002200443761C30782E2814D10420B1
:1019A00004437078761C2A2809D11898761C80C8C0
:1019B000189009E00A214F43303FC719761C307850
:1019C000014630390929F5D930786C2810D006DC69
:1019D0004C281AD068280ED06A2817D104E0742841
:1019E00013D07A2812D110E00120400504430CE006
:1019F0000121090501E0032109050C4371788142A9
:101A000003D1012000052418761C761C3078119033
:101A100066280BD013DC58287DD009DC00287BD049
:101A20004528F6D04628F4D047281AD1A5E118E079
:101A3000632835D0642870D0652812D19DE17028C4
:101A40006CD008DC6728F1D069287BD06E280DD0D7
:101A50006F2806D1BAE073282ED0752871D0782867
:101A600059D01A9A199990476D1C7EE16002400F77
:101A7000022809D003280DD00428189801680DD039
:101A80000D60001D189070E11898EA1701680D604C
:101A90004A60F6E7189801680D80F2E70D70F0E7EC
:101AA00018986A4601781172001D18900020507233
:101AB00002A80090012005E0189802C818900020A4
:101AC0000091C04361070DD5002101E00199491C37
:101AD0000191B94212DA8142F8DB009A515C002987
:101AE000F4D10BE0002101E00199491C01918142F0
:101AF000FADB019A0099895C0029F5D101990498D3
:101B00001A9B471A21463846199A00F097FA01990C
:101B1000401945180BE04FE02CE113E04EE000982F
:101B200000990078491C00911A9A199990470198D8
:101B3000401E0190401CF2D1214638461A9B199A4A
:101B400010E137E00A200021009001916002410F6E
:101B5000022907D0189A01CA1892C217944603297D
:101B600008D00AE01898C01DC108C90005C918911D
:101B7000944607E000B2C2179446042902D140B24D
:101B8000C1178C4600226146944506DA0A460021B8
:101B9000404291418C462D2102E0210504D52B21A4
:101BA0006A461173012103E0E10701D02021F7E724
:101BB000029155E00A200AE0102008E01020009071
:101BC0000021042004430191082703E0082000219C
:101BD000019100906002410F022907D0189A01CAB2
:101BE000189200229446032908D008E01898C01DD6
:101BF000C108C90005C91891944603E080B20429C0
:101C000000D1C0B200210291210729D51199702974
:101C100006D0009A1021019B4A401A4305D00EE0DD
:101C200040216A461173012108E06146014306D054
:101C300030216A4611731199517302210291009A61
:101C40000821019B4A401A430AD16146014301D150
:101C5000610705D530216A46117301217F1E02916B
:101C60001199582904D035A10E910DA90D910DE0BF
:101C700037A1F9E76146019B009AFEF720FD0E9B14
:101C80008C469B5C0D9A521E0D9213706146014367
:101C9000F0D10D9805A9081A20300190600703D5EE
:101CA00001200004844300E001270198874201DD00
:101CB000381A00E000200199009041180298091894
:101CC0000498401A0490E00306D421461A9B199AFE
:101CD000049800F0B3F94519002706E003A81A9A02
:101CE000C05D199990476D1C7F1C02988742F5DBF7
:101CF000E0030CD521461A9B199A049800F09EF92E
:101D0000451904E01A9A3020199990476D1C0099E2
:101D1000481E00900029F5DC08E00D980D99007828
:101D2000491C0D911A9A199990476D1C0199481EEA
:101D300001900029F1DC63E10928010030313233E0
:101D400034353637383961626364656600000000F7
:101D500030313233343536373839414243444546E1
:101D60000000000000F05AF94519761C3078002870
:101D700000D0E2E528461BB0F0BD600700D406277E
:101D80001898C01DC108C90048680A680831C30F07
:101D9000DB071891190001D09CA108E0210501D5AD
:101DA0009BA104E0E10701D09AA100E09AA14300C1
:101DB00011985B08109165280CD006DC452809D0E5
:101DC00046281DD0472841D141E0662818D0672811
:101DD0003CD13CE00021112F01DB112000E0781CF8
:101DE0000191009008A911A8FFF7E8FC139905914B
:101DF0000021119A15927F1C12980197009150E0D2
:101E00000120C00703900120019008A9009711A8A4
:101E1000FFF7D4FC139A149905920022119B0092AB
:101E200012981593059A0192002901D0104602E0FC
:101E3000791C40180190381A01D5019804E04042FD
:101E4000401E0090781C0190C01B029043E0012FBF
:101E500000DA01270021112F01DD112000E03846B2
:101E60000191009008A911A8FFF7A8FC139905910A
:101E7000119A0021129815920091019721070CD414
:101E80000599B94201DB019900E00191012904DDC6
:101E9000159A491E515C302906D0B84201DA011D5D
:101EA00005DA0121029115E00199491EEDE70028AC
:101EB00005DC0099411800910199091A03E0019A83
:101EC000411C914200DD01910099401A401C029092
:101ED0000120C0070390200706D40299019881428F
:101EE00002DB0020C043029000206946C87707AF9C
:101EF000012103980337C907884224D0022011909A
:101F00002B201290039800280CDA404203902D20D9
:101F1000129007E00A210398FEF7D8F830317F1EAF
:101F2000039039701199481E11900029F2DC039832
:101F30000028EFD1791E12980870307820210840CF
:101F40004530BF1E387006A8C01BC01D03901098F6
:101F50000078002800D00120019941180298C0178C
:101F60000918039809180498401A401E0490E003C9
:101F700006D421461A9B199A049800F05FF8451977
:101F800010980078002803D01A9A199990476D1C70
:101F9000E00324D521461A9B199A049800F04EF8C4
:101FA00045191CE00098002807DB00990598884235
:101FB00003DD1598405C199901E0199930201A9AAF
:101FC000904700986D1C401C00900298401E0290A3
:101FD000002804D11A9A2E20199990476D1C019956
:101FE000481E01900029DDDC05E038781A9A7F1C34
:101FF000199990476D1C0399481E03900029F4DC41
:1020000021461A9B199A0498ACE600002D000000A6
:102010002B0000002000000000000000F8B504467E
:1020200000251E461746880404D405E039462020C2
:10203000B0476D1C641EF9D52846F8BDFFB50446AF
:10204000002581B01E46C80301D5302700E02027B7
:10205000880404D505E038460399B0476D1C641E1A
:10206000F9D5284605B0F0BD0A68531C0B60107006
:10207000704700000146074A05E0C869C007C00F65
:10208000002800D170471046521E0028F5D1401E8E
:10209000F8E700001027000070B505460C46002642
:1020A000F6432846FFF7E6FF0646002E02DA002038
:1020B000C04370BDE168A068884204D9A068E168A7
:1020C000A160E06000BFA169E069814204D9A06914
:1020D000E269A261E06100BF2079C001E178890175
:1020E0000843A17849010843617809010843217830
:1020F0000843686020890004E1680843E860207DA7
:10210000C001E17C89010843A17C49010843617C4D
:1021100009010843217C0843A860208B0004E16981
:10212000084328612820005D002802D0284600F0DE
:1021300010F8284600F008F8208C80058009616AB4
:10214000084368610020B4E701680122114301607F
:102150007047816901221143816170470146C86857
:10216000C006C00F7047416802229143416070472A
:10217000416802221143416070478A79CB799B0004
:102180001A430B7ADB001A4342604A790B791B0130
:102190001A43CB789B011A438B78DB011A434B78A7
:1021A0001B021A4302600A78026170470021016134
:1021B000016041604161704701468A6890B2704792
:1021C000F7B582B004460F46F8000499FDF77EFF8C
:1021D0000546EE09F0012D1A681C40080190666260
:1021E0000648864202D10020A06202E0AD1B0198A1
:1021F000A062E06AE06205B0F0BD0000FFFF0000F1
:10220000014688690007C00F704701468869C0060B
:10221000C00F7047014688698006C00F704770B5CF
:1022200004460D46002020636064A0636060606225
:10223000A062E06220462A69E968FFF7C1FF68787A
:102240004007C00FC001297849010843A978090156
:102250000843E978C900084369788907490F0843AA
:10226000E062287AE979C9000843606300E02668E3
:102270002046FFF7CAFF0128F9D1761C0020A06391
:1022800028794002697909020843A9790843206343
:1022900070BD0000F8B50446002C03DB0C48007844
:1022A000844200DBF8BDE006060E00250CE00020AD
:1022B0007119084A505473191746FA5C6B1CD9B24D
:1022C000E0B201F003FB6D1C082DF0DB00BFE9E775
:1022D000640000200402002010B500240AE020461B
:1022E000FFF7D8FF01218807416100BF00BF00BF91
:1022F00000BF641C112CF2DB002004E000218200EE
:10230000024B9950401C2328F8DB10BD74000020BC
:1023100070B588B004460D461646FFF71BF9FFF767
:1023200013F9002E06D0012E0FD0022E18D0032E46
:102330002CD120E0D021684601714121017201AA0F
:1023400030210020FFF7CAF82BE0D0216846017148
:102350004121017201AAC0210120FFF7BFF820E04E
:10236000E021684601714121017201AA0321012087
:10237000FFF7B4F815E0E0216846017141210172D0
:1023800001AA0C210320FFF7A9F80AE0D021684632
:1023900001714121017201AA30210020FFF79EF84E
:1023A00000BF00BF03216846017300214173012172
:1023B00081730021C1730121017441748174002172
:1023C000C174022101750694079503A90248FFF71D
:1023D00026FF08B070BD00000000014000E0401E74
:1023E0000028FCD1704700B502467D2149015143C8
:1023F0000846FFF7F3FF00BD00B50246024951430E
:102400000846FFF7EBFF00BD00093D0070B504462C
:102410000D460A2C02D10D20FFF78CF82046FFF75D
:1024200089F870BD70B504460D4619A0FFF7D0F8C5
:1024300027A02168FFF7CCF828A06168FFF7C8F84B
:1024400029A0A168FFF7C4F82AA0E168FFF7C0F847
:102450002BA02169FFF7BCF82DA06169FFF7B8F840
:102460002EA0A169FFF7B4F82FA0E169FFF7B0F83B
:10247000294631A0FFF7ACF834A0FFF7A9F80020F7
:102480004249086000BF414800680028FBD070BD89
:102490000A2A2A2A2A2A2A2A2A2A546865207361A3
:1024A00076656420726567697374657273206672FD
:1024B0006F6D2074686520737461636B2A2A2A2A01
:1024C0002A2A2A2A2A2A2A2A2A2A2A2A0A0000000A
:1024D000723020697320307825780A0072312069C3
:1024E0007320307825780A007232206973203078A2
:1024F00025780A00723320697320307825780A0025
:1025000072313220697320307825780A000000008B
:102510006C7220697320307825780A007063206916
:102520007320307825780A00707372206973203028
:102530007825780A0000000063757272656E745F1A
:102540006C7220697320307825780A002A2A2A2A9A
:102550002A2A2A2A2A2A2A2A2A2A2A2A2A2A2A2ADB
:102560002A2A2A2A2A2A2A2A2A2A2A2A2A2A2A2ACB
:102570002A2A2A2A2A2A2A2A2A2A2A2A2A2A2A2ABB
:102580002A2A2A2A2A2A2A2A2A0A00001400002093
:1025900070B586B004460D461646002E06D0012EB4
:1025A0000FD0022E18D0032E2CD120E0D021684667
:1025B00001744121017504AA30210120FEF78EFF2C
:1025C00020E0F021684601744121017504AA03212D
:1025D0000220FEF783FF15E0D021684601744121F7
:1025E000017504AAC0210220FEF778FF0AE0F0215D
:1025F000684601744121017504AA0C210320FEF7ED
:102600006DFF00BF00BF002008210123019100934E
:10261000029103902B46012221460248FEF7FCFD61
:1026200006B070BD0000024010B58CB0002108A8B3
:102630000173022009900D480A907D21090108913B
:102640000021079101216846017501A80175C17437
:1026500081740021417401A90548FFF71DFD04465E
:10266000F0210448417020460CB010BDB80B0000AA
:1026700000B0034038000440FFB581B006460F4665
:102680001D461D4806601D4807601D4903980860E7
:10269000002D01DD102D00DD10251A4805701848A9
:1026A000016801208007416113480660002003E0B3
:1026B0000021154A1154401C4028F9DB002415E084
:1026C000E0B200220F2101F001F90721204601F0BC
:1026D000C9F8E0B20022092101F0F8F82046FFF71E
:1026E000D9FD0021204601F0D5F8641C054800788A
:1026F0008442E5DB05B0F0BD580000205C000020FE
:1027000060000020640000200402002010B50024B6
:102710000BE00021204601F0BDF80221204601F027
:1027200065F82046FFF7B6FD641C112CF1DB10BDE7
:10273000F8B504460D46202C33DB7F2C31DC00201D
:1027400012E02346203BDB00164FDB191A5C8300A6
:10275000C3189B00144FF9580B46134319468300C6
:10276000C3189B00F950401C0728EADB204620389C
:10277000C0000C494018C67900270FE0002D02D197
:1027800000F036FF03E0012D01D100F095FF00F0CD
:10279000A1FE0220FFF727FE781CC7B2B742EDDB8F
:1027A00000BFF8BD693A00007400002090B001201D
:1027B00008A908760D900DA90020FEF781FC0121E3
:1027C000880741610322E12149028C48FFF7A0FDFF
:1027D0008BA0FEF7FDFE8AA0FEF7FAFE8AA0FEF7A8
:1027E000F7FE87A0FEF7F4FE85A0FEF7F1FE00BF1E
:1027F0009148FFF705FD0128FAD0FFF715FFFEF716
:10280000B1FE10231A0151008800FFF735FFFFF7D2
:102810007DFFFFF761FDFF202D30FFF7E4FD002273
:1028200001217720FFF7B4FEFEF7D6FB0021372009
:10283000FFF77EFF0120FFF7DFFD00F04BFEDCE03D
:1028400000BF7D48FFF7E1FC0128FAD0FEF76AFEE1
:1028500087B2352F20D008DC312F0FD0322F12D085
:10286000332F26D0342F72D112E0372F26D0382FB5
:1028700028D0392F29D0612FF5D169E000F0B8FEBA
:1028800000F028FEB8E000213720FFF751FFB3E049
:102890006A4800F08BFFAFE000214120FFF748FFBE
:1028A00000214220FFF744FF00214320FFF740FFB3
:1028B000A2E000F001FF00F00DFE9DE0604800F096
:1028C00075FF99E000F006FE96E03FE0FFF704FD9B
:1028D0000120FFF791FD594800F068FF0220FFF743
:1028E0008BFD002405E000F0E7FE00F0F3FD601C26
:1028F00084B2962CF7DB0220FFF77EFD504800F0F3
:1029000055FF0220FFF778FD002405E000F0D4FE1B
:1029100000F0E0FD601C84B2962CF7DB7D20000106
:10292000FFF761FD474800F041FF0220FFF764FD1B
:10293000002405E000F05CFE00F0CCFD601C84B2D9
:10294000962CF7DB7D200001FFF74DFDBEE752E03E
:102950003DA0FEF73DFEFEF731FA0C900C98FDF716
:102960007EFE05462A460B4640A0FEF731FE0020BB
:10297000FEF7C4F80B9041490B98FDF753FC0B9000
:102980000B98FDF76CFE05462A460B463CA0FEF769
:102990001FFE3F490B98FEF757F80A900A990B98CB
:1029A000FEF77AF809900A98FDF759FE05462A467F
:1029B0000B4638A0FEF70CFE0998FDF750FE0546C1
:1029C0002A460B4638A0FEF703FE0B98FDF747FE9C
:1029D00005460E460C98FDF742FE02460B46019650
:1029E00000950391029035A104A8FEF701FE04A80A
:1029F00000F0DCFE00E000BF00BF21E700366E0102
:102A00003D3D3E200A0000003D3D3E20424D5030FD
:102A100038352F313830202B204D4158373231395D
:102A200020636F6E74726F6C204C4544204D61744E
:102A3000726978200A00000000000140F5390000AA
:102A40000F3A0000443A0000424D503138302074B3
:102A5000656D7065726174757265207072657373EF
:102A60007572652073656E736F720A000A540909E6
:102A70003A09252E316620430A0000000000C842B2
:102A80007009093A09252E3166206850610A000054
:102A9000CD0C7C44416C746974756465093A0925F0
:102AA00066206D0A000000005365616C6576656CF8
:102AB000093A092566206D0A0A0000002020252E0B
:102AC000316620432020202020202020252E316622
:102AD0002050612020000000F0B51FB496B084465D
:102AE0000C460246199D189803904900680063003F
:102AF000490840080193002A01D0012600E0002681
:102B00009E19FE4BF6185B109E422BD36E00039F5E
:102B10000296002F00D00127F719F84EF84BBE1986
:102B20009E421FD3039E0346F64F334309D03B46D4
:102B30009C4201D1002A04D0019B002A05D0012625
:102B400004E0002039461BB0F0BD00269E19EE4B74
:102B50009E4207D8039F029E002F00D00127F6193E
:102B60009E4207D92B4660462146189AFEF7F0FD93
:102B70001BB0F0BD0023002C29DAE44EB04226DA67
:102B8000E34EB04201DB022321E0DE4EB0421EDB09
:102B9000E04E070DBE19142E09DD3427BF1B039E1E
:102BA000FE400196BE40039FBE420BD00FE0039F44
:102BB000002F0CD11427BF1B0646FE400196BE40D5
:102BC000864204D1019BDE07F60F02239B1B0E46B3
:102BD000164318D1002D16DA002C03D0022B01D099
:102BE000012B06D00220FEF7E3FDFEF7A7FD1BB088
:102BF000F0BD0220FEF7DCFDFEF7A0FD0122D207AA
:102C000051401BB0F0BD039E002E61D1BF4EB042BB
:102C100020D1C148844201D1002A08D0B94881425C
:102C200009DB002D10DB189829461BB0F0BD0020F1
:102C3000B4491BB0F0BD002D06DA01222946D207A7
:102C4000189851401BB0F0BDB449794408684968F0
:102C50001BB0F0BDAB4FB84225D1002D1FDA0029C3
:102C600004D0B14212D1002A09D018E0002A72D152
:102C7000A649E20F0020D20711431BB0F0BD00208F
:102C8000E20F0146D20711431BB0F0BDB14206DA94
:102C9000234600203946FDF71DFC1BB0F0BD104651
:102CA00021461BB0F0BDB14212DA0126B607B5428B
:102CB00003D1234610461946FEE3994EB54207D18B
:102CC000261E05DB1046314600F044FE1BB0F0BD69
:102CD00067007F081646002A40D100290AD08B4A97
:102CE000914229D1002C0EDD002D1CDB0020114665
:102CF0001BB0F0BD022B16D0002C14D0012B12D12A
:102D0000002C14DB0FE0002C28DA002D09DB012B4E
:102D100003D000207D491BB0F0BD002081491BB0CD
:102D2000F0BD012B03D0002001461BB0F0BD0020F8
:102D30000121C9071BB0F0BD724A91420ED1002C8F
:102D400001DA002B17D0022B06D00020C043FDF77C
:102D5000BFFD1BB0F0BD90E20120F8E7E217521C66
:102D600094461A4307D000220892664C62465B1EC6
:102D70001A4307D009E00120FEF71AFDFEF7ECFC2C
:102D80001BB0F0BD0022644C0892674A90427DDD82
:102D9000664B674A98421FDD914202DC002D05DB3D
:102DA0004DE05848814217DB002D48DD0220FEF738
:102DB000FFFCFEF7D9FC05460E460022534B214688
:102DC0000898FDF71FFB084671004908C00FC007AF
:102DD000014328461BB0F0BD914215DA002D2EDAD2
:102DE0000220FEF7E5FCFEF7BFFC05460E4600227A
:102DF000464B21460898FDF705FB72005208C80FA4
:102E0000C0070243114617E03E4B994223DD002DD7
:102E100015DD0220FEF7CCFCFEF7A6FC05460E46AB
:102E200000223A4B21460898FDF7ECFA084671005B
:102E30004908C00FC007014328461BB0F0BD02205F
:102E4000FEF7B6FCFEF79AFC49004908E20FD207EC
:102E500011431BB0F0BD002230463946FDF7C4FADD
:102E6000012205460E46D243FDF71CFD314A324B86
:102E7000FDF7C0FA2A463346FDF7C4FA0022284B74
:102E8000FDF7B8FA07462A46334600E064E00391AE
:102E900010461946FDF7B6FA3A46039BFDF7B2FA1B
:102EA0000746032209915207244B28463146FDF775
:102EB000A9FA07910C90224A204B38460999FDF750
:102EC000A1FA074601911F4A1F4B28463146FDF7DC
:102ED00099FA3A46019BFDF787FA07460B460246E8
:102EE000099107990C98FDF7DBF900250E46284655
:102EF000079B0C9AFDF778FA3A4627E0FFFF1F0080
:102F0000FFFF0F000000F03F0000E0FF0000F07F37
:102F10000000404301FCFFFF0000F0BFB2110000C1
:102F20000000E03F0000F0FF0000E0410000F0433F
:102F3000FFFFEF3F555555555555D53F4715F73FC1
:102F4000FE822B6544DF5DF80BAE543E099BFDF716
:102F500051FA02460B4652E1012500202D05A942F7
:102F600007DA352230463946FDF79CFC0646342008
:102F7000C0430A151218FE48101803900803FD49B3
:102F8000000B01430F46FC49884201DC002003E0AE
:102F9000FA49884202DA0120119005E000201190E0
:102FA0000398401C7F1B039011980597C200F448BA
:102FB0000F927844801843680268394630460D9372
:102FC0000292FDF711FA07910C9030460D9B029A80
:102FD0000599FDF765F902460B460020E549FDF726
:102FE00079FA09910490079B0C9AFDF70BFA12905D
:102FF00000201090E3480D46784400680E900121AF
:1030000078104907084311990D9B89044018012144
:10301000C90447183946029A0E98FDF7E5F9324679
:10302000059BFDF7E7F902460B4629461098FDF788
:10303000E9F9064602913B4629460E9A1098FDF79B
:10304000E1F9079B0C9AFDF7D5F93246029BFDF793
:10305000CBF9099B049AFDF7D5F90591129A0A90CC
:103060002B4610461946FDF7CDF906460246C648DE
:103070000F460B4606217844FEF70AFB32463B46D4
:103080000091049010461946FDF7BCF9009B049A84
:10309000FDF7B8F906460F462B461946129A1098C6
:1030A000FDF7FEF8059B0A9AFDF7ACF932463B4660
:1030B000FDF7F6F8109A079104902B461046194632
:1030C000FDF7A0F9B14E0022334609910290FDF7B9
:1030D000E7F8079B049AFDF7E3F80020074602464D
:1030E00033460091FDF780F9099B029AFDF77CF9C0
:1030F000079B049AFDF77EF906460D913A4629464C
:10310000009B1098FDF77EF907910C902B463046F6
:10311000129A0D99FDF776F905460E463A46009B40
:1031200005990A98FDF76EF933462A46FDF7B8F877
:1031300002460B460746099107990C98FDF7B0F82F
:1031400000250E462846079B0C9AFDF74DF93A4696
:10315000099BFDF74FF907460722099152078C4B4F
:1031600031462846FDF74EF907910090894A884B71
:1031700038460999FDF746F907460191864A874B7B
:1031800031462846FDF73EF93A46019BFDF788F89F
:10319000834B7B440F9A9B181A685B68FDF780F895
:1031A000029009910398FDF793FB05910490099B08
:1031B000029A07990098FDF773F87A4B7B440F9AAF
:1031C0009B181A685B6817460393FDF769F8059B1F
:1031D000049AFDF765F80E462846059B049AFDF70C
:1031E00003F93A46039BFDF7FFF8079B009AFDF7AA
:1031F000FBF8099B029AFDF7FDF802460B46199968
:1032000000200C900F461898FDF7FCF802910490EE
:103210003B460C9A19991898FDF7E6F82A4633466A
:10322000FDF7F0F8029B049AFDF73AF809910E9029
:103230002A46334639460C98FDF7E4F806460F4611
:10324000099B0E9AFDF72CF8574A0D46914220DB58
:103250005242AA18024310D132463B46FDF7C4F849
:1032600004900391514A524B09990E98FDF718F8B2
:10327000039B049AFDF760FB1ED20220FEF798FA2A
:10328000FEF772FA49004908E20FD20711431BB05A
:10329000F0BD6A00474B52089A420DD3464AAA181D
:1032A000024300D0CBE532463B46FDF79DF8099B33
:1032B0000E9AFDF741FBF5D96800002340082C4920
:1032C0000393020D3D4B5218984223DD0120000567
:1032D000521CD04042195000400D401838497944E2
:1032E000096813468C463749C1408B4312030121BC
:1032F000120B090551181422101AC1400391002D18
:1033000001DA48420390624630463946FDF76CF8D0
:1033100006460F4632463B4609990E98FCF7C0FF19
:1033200000252A46284B28460591FDF76BF80791A2
:103330000C90264A264B28460599FDF763F8009124
:10334000029032463B4628460599FDF74DF8099B09
:103350000E9AFDF74FF81F4A1F4BFDF753F8009BDD
:10336000029AFCF79DFF07460B460246099135E09D
:1033700001FCFFFF0000F03F8E9803007AB60B00BF
:10338000C20D0000040E00002E0D000000000840D9
:1033900009C7EE3FFD033ADCF5015B14E02F3EBEAA
:1033A000020C0000C80B000000009040FE822B655C
:1033B0004715973C00CC904000346F3F0000E03F41
:1033C0001E0B0000FFFF0F00432EE63F396CA80CD8
:1033D000615C20BEEF39FAFE422EE63F07990C9859
:1033E000FCF75EFF05460E46079B0C9AFCF7FCFFB8
:1033F0003A46099BFCF7FEFF09912A4633460E9098
:1034000010461946FCF7FEFF074602462F480B46BA
:10341000059105217844FEF73BF93A46059BFCF7F8
:10342000F1FF2A463346FCF7E5FF0746019128469F
:103430003146099B0E9AFCF7E5FF099B0E9AFCF7B3
:103440002FFF012304910C9000229B07384601991D
:10345000FCF7CAFF05910E903A4628463146019B7B
:10346000FCF7D0FF059B0E9AFDF734F8049B0C9AED
:10347000FCF7BAFF2A463346FCF7B6FF0022144B8E
:10348000FCF7B8FF064603980D46000541190915DB
:10349000002912DC30462946039AFDF703FAFEF7AD
:1034A000E1F8042801D1FEF769F930462946039A6C
:1034B000FDF7F8F9064601E004E029180B4632460C
:1034C00021460898FCF79EFF1BB0F0BDC009000024
:1034D0000000F03F70B5002584E0A8002818001D0A
:1034E000800042490E5C324629460F2000F096F9D2
:1034F000A8002818C01C80003C490C58260E3246F3
:1035000029460E2000F08AF92002060E324629468E
:103510000D2000F083F92004060E324629460C20C7
:1035200000F07CF9E6B2324629460B2000F076F92D
:10353000A8002818801C80002C490C58260E324602
:1035400029460A2000F06AF92002060E3246294672
:10355000092000F063F92004060E324629460820AF
:1035600000F05CF9E6B232462946072000F056F931
:10357000A8002818401C80001C490C58260E324612
:103580002946062000F04AF92002060E3246294656
:10359000052000F043F92004060E32462946042097
:1035A00000F03CF9E6B232462946032000F036F935
:1035B000A800281880000D490C58260E32462946CE
:1035C000022000F02BF92002060E32462946012087
:1035D00000F024F92004060E32462946002000F0AF
:1035E0001DF96D1C072D00DA77E770BD740000200F
:1035F00010B500215AE08B00CB189B002D4CE058F1
:10360000C20F40008B00CB189B00E0508B00CB1802
:103610005B1C9B00E0584000002A02D001231843A5
:1036200001E0400840008B00CB185B1C9B00214C44
:10363000E050C20F8B00CB189B1C9B00E058400051
:10364000002A02D00123184301E0400840008B000B
:10365000CB189B1C9B00174CE050C20F8B00CB1863
:10366000DB1C9B00E0584000002A02D001231843D5
:1036700001E0400840008B00CB18DB1C9B000D4C88
:10368000E050C20F8B00CB181B1D9B00E058400080
:10369000002A02D00123184301E0400840008B00BB
:1036A000CB181B1D9B00034CE050491C0729A2DBD3
:1036B00010BD00007400002010B5002171E08B00E7
:1036C000CB181B1D9B00384CE058C207D20F400896
:1036D0008B00CB181B1D9B00E0508B00CB18DB1C14
:1036E0009B00E0584008002A03D00123DB07184361
:1036F00001E0400040088B00CB18DB1C9B002A4CEB
:10370000E0508B00CB18DB1C9B00E058C207D20FA7
:103710008B00CB189B1C9B00E0584008002A03D06C
:103720000123DB07184301E0400040088B00CB1861
:103730009B1C9B001C4CE0508B00CB189B1C9B00DF
:10374000E05CC207D20F8B00CB185B1C9B00E058DB
:103750004008002A03D00123DB07184301E04000A2
:1037600040088B00CB185B1C9B000F4CE0508B007B
:10377000CB185B1C9B00E05CC207D20F8B00CB1800
:103780009B00E0584008002A03D00123DB071843C0
:1037900001E0400040088B00CB189B00024CE05039
:1037A000491C07298BDB10BD7400002070B505464D
:1037B0000026002400BFAC5D002C03D00021204671
:1037C000FEF7B6FF701CC6B2002CF4D170BD70B508
:1037D00004460D4600BF2046FEF71CFD0128FAD026
:1037E00029462046FDF7F2FE70BD000070B5044684
:1037F0000D46002C03DB08480078844200DB70BDD6
:10380000002D06DB102D04DAEAB2E0B20A2100F046
:103810005DF800BFF3E7000064000020F8B505463E
:103820000C461746002D03DB0C480078854200DB70
:10383000F8BD002C01DB072C00DDF9E7EE003019A4
:1038400007490F5430190B461A5C601CC1B2E8B22C
:10385000009000F03BF800BFEAE7000064000020A1
:103860000402002070B504460D46002C03DB084816
:103870000078844200DB70BD002D06DB082D04DAE1
:10388000EAB2E0B20B2100F021F800BFF3E700003C
:103890006400002070B504460D46002C03DB0A4886
:1038A0000078844200DB70BD002D05D0E0B200221C
:1038B0000C2100F00BF804E0E0B201220C2100F032
:1038C00005F800BFEFE7000064000020F7B50546EB
:1038D0006E001C4800784700002003E000211A4ACF
:1038E0001154401CB842F9DB68460179164A701C35
:1038F00011546846007A1146885514480168012021
:10390000800781613C4614E0601E0F49085C104945
:1039100088600846FEF72CFC00BF0D48FEF71EFC31
:103920000028FAD10A48FEF71EFC0948FEF744FCBD
:10393000641E002CE8DC0548016801208007416115
:10394000FEBD000064000020F401002060000020A3
:1039500000800140F8B506460C46FDF724F8051E28
:103960000F4600D00120014349000B484908411A85
:10397000C90F0DD0002E01D0012100E000210C4321
:1039800061004908401AC00F02D10120FDF710FF65
:1039900028463946F8BD00000000F07F3EB50546D8
:1039A0006C460A48FEF702FC002060702570A0708B
:1039B000E0702071072060710020A071E07101208B
:1039C000207221460148FEF7D8FB3EBD0080014031
:1039D00010000000020000003020202020202020C5
:1039E00020202020202020202020202020202020D7
:1039F0002020202000412D4368696E612020202076
:103A000020202053656D69636F6E202020200020E8
:103A1000505546204D435520202020204D43553001
:103A20003037206E3820202000414243444546472D
:103A300048494A4B4C4D4E4F50515253545556578E
:103A400058595A00202020202020202020202020EB
:103A500020202020202020202020202020436F72A2
:103A60007465782D4D30202000000000000000001B
:103A7000034040404040004002A0A0A000000000E1
:103A8000045050F850F85050062078A07028F020CC
:103A900006C0C81020409818066090A040A8906802
:103AA00006C040800000000003204080808040402D
:103AB0000480402020204080040020A870A820001E
:103AC00006002020F82020000600000000C04080F2
:103AD00003000000F8000000060000000000C0C065
:103AE000030008102040800006708898A8C88870DD
:103AF0000640C040404040E004708808102040F874
:103B000006F81020100888700610305090F8101039
:103B100006F880F00808887006304080F0888870C9
:103B200006F8880810202020067088887088887021
:103B300006708888780810600600C0C000C0C00009
:103B40000300C0C000C0408003102040804020100F
:103B5000050000F800F8000006804020102040809A
:103B600005708808102000200670880868A8A870D2
:103B70000670888888F8888806F08888F08888F039
:103B8000067088808080887006E09090909090E029
:103B900006F88080F08080F806F88080F0808080D1
:103BA00006708880B88888F006888888F8888888B1
:103BB00006E04040404040E0043810101010906093
:103BC000068890A0C0A0908806808080808080F8C1
:103BD0000688D8A8A8888888068888C8A898888869
:103BE000067088888888887006F08888F0808080D1
:103BF0000670888888A8906806F08888F0A0908869
:103C000006788080700808F006F820202020202008
:103C100006888888888888700688888888885020E0
:103C200006888888A8A8A8500688885020508888C8
:103C3000068888885020202006F80810204080F848
:103C400006E08080808080E0040080402010080032
:103C500006E02020202020E0042050880000000002
:103C600006000000000000F8068040200000000070
:103C70000400007008788878068080B0C88888F0D2
:103C80000600007080808070060808689888887830
:103C90000600007088F8807006304840E0404040E0
:103CA0000600788888780870068080B0C888888880
:103CB000064000C04040407004100030101090607A
:103CC00005808090A0C0A09005C04040404040E0EA
:103CD000040000D0A8A88888060000B0C88888889A
:103CE0000600007088888870060000F088F08080E8
:103CF0000600006898780808060000B0C880808038
:103D000006000070807008F0064040E040404830F7
:103D100006000088888898680600008888889020B7
:103D200006000088A8A8A8500600008850205088E7
:103D30000600008888780870060000F8102040F817
:103D40000620404080404020048080808080808029
:103D50000280404020404080040000006890000045
:103D600006609090600000000500606600816618A3
:103D70000500000000000000000000000000F03F0F
:103D8000000000000000F83F0000000000000000FC
:103D90000000004003B8E23F000000000000000007
:103DA00006D0CF43EBFD4C3E033333333333E33F95
:103DB000FFAB6FDBB66DDB3F4D268F515555D53FC1
:103DC00001411DA96074D13F65DBC9934A86CD3F8F
:103DD000EF4E454A287ECA3F3E5555555555C53F7D
:103DE00093BDBE166CC166BF2CDE25AF6A56113F6F
:103DF000F16BD2C541BDBBBED0A4BE726937663E71
:103E00000000000000000000283E0000000000202C
:103E100074000000901700009C3E00007400002019
:103E2000D4090000A017000000366E010000000059
:103E30000000000000000000000000000000000082
:103E40000000000000000000000000000000000072
:103E50000000000000000000000000000000000062
:103E60000000000000000000000000000000000052
:103E70000000000000000000000000000000000042
:103E80000000000000000000000000000000000032
:0C3E900000000000000000000000000026
:04000005000000B542
:00000001FF
