:020000040000FA
:10000000000A0020B5000000BD00000099000000BB
:1000100000000000000000000000000000000000E0
:10002000000000000000000000000000C10000000F
:100030000000000000000000C300000049030000B1
:10004000C7000000C7000000C7000000C700000094
:10005000C7000000C7000000C7000000C700000084
:10006000C7000000C7000000C7000000C700000074
:10007000C7000000C7000000C7000000C700000064
:10008000C70000000348854600F076F800480047A6
:10009000F10E0000000A002004207146084202D040
:1000A000EFF3098001E0EFF308807146004A104742
:1000B000010C000000F050F903480047FEE7FEE79E
:1000C000FEE7FEE7FEE7FEE78500000030B50B46E1
:1000D000014600202022012409E00D46D5409D4222
:1000E00005D31D469540491B2546954040191546A8
:1000F000521E002DF1DC30BDF0B51FB406460020C5
:1001000082B005464024019100901BE001992246EF
:100110000F46304600F042F8049A059B801A994138
:1001200010D310461946224600F016F8361A8F41B1
:100130000197224601200021009F00F00DF8381899
:100140004D4100902046641E0028DFDC019B009892
:100150002946324607B0F0BD10B5202A04DB01461F
:10016000203A9140002010BD914020239C1A034664
:10017000E3401943904010BD064C0125064E05E0B2
:10018000E36807CC2B430C3C98471034B442F7D3B8
:10019000FFF77CFF0C1900002C19000010B5202A75
:1001A00004DB0846203AD040002110BD0B46D34066
:1001B000D0402024A21A91400843194610BD00B532
:1001C0004A79130000F0ECF80604101C2834404C67
:1001D0000A68824001239B075A650A6882405A6672
:1001E0000A6882409A673BE00A68824001239B07C5
:1001F0005A650A6882409A660A6882405A672FE008
:100200000A68824001239B079A650A6882405A6601
:100210000A6882409A6723E00A68824001239B07AC
:100220009A650A6882409A660A6882405A6717E0AF
:100230000A68824001239B079A650A6882405A66D1
:100240000A6882405A670BE00A68824001239B07D4
:100250009A650A6882409A660A6882409A6700BF77
:1002600000BF0A79002A02D0012A0CD105E00A68F1
:10027000824001239B079A6205E00A6882400123BD
:100280009B075A6200BF00BF00BD000070B5034667
:10029000002000BF19E00C46C440E407E40F002C26
:1002A00012D01479D5782C4395782C4355782C436B
:1002B0005D01074EAD198600AC5514785D01044E02
:1002C000AD198600AD196C70401C0828E3D370BDD1
:1002D0000000044010B5024800F04CF810BD0000CA
:1002E0000000014010B50446E1B2024801F05FF899
:1002F000204610BD00000140012101488167704780
:100300000000064001214902014881677047000052
:10031000000006401CB5D0216846017041210171E2
:1003200050214170402181704421C170FF21013171
:100330008805416141626A460E210120FFF7A6FF50
:10034000062001F0F7F81CBD02480068401C014976
:100350000860704710000020FF202E30024908621C
:1003600002480349086070478000064000366E016D
:100370000000002001460868C0B270470160704765
:100380000FB410B503A9044B044A029800F026F8F4
:1003900010BC08BC04B01847E90B0000280000207E
:1003A00030B47446641E2578641CAB4204D3635D8C
:1003B0005B00E31830BC18471D46F8E702E008C8A8
:1003C000121F08C1002AFAD170477047002001E0CF
:1003D00001C1121F002AFBD170470000FFB591B088
:1003E0000F460546002606E025280AD0149A1399E0
:1003F00090476D1C761C28780028F5D1304615B042
:10040000F0BD002400940121F34A029400E004436B
:100410006D1C2B780846203B98401042F7D1287875
:100420002A280ED0022128780246303A092A15D807
:10043000009A0A235A43303A80180C436D1C0090EE
:10044000F1E701CF0090002805DA012040030443C2
:10045000009840420090022004436D1C28782E280A
:1004600015D10420044368786D1C2A280AD101CFD5
:100470006D1C02900BE002990A225143303940185A
:100480006D1C02902878014630390929F3D9287863
:100490006C2810D006DC4C281AD068280ED06A28A8
:1004A00017D104E0742813D07A2812D110E001206B
:1004B000400504430CE00121090501E00321090581
:1004C0000C436978814203D10120000524186D1C7A
:1004D0006D1C287803906E281ED00CDC632831D068
:1004E00004DC00288AD0582811D1B2E064287BD0DF
:1004F00069280CD178E073282DD004DC6F2870D0E7
:10050000702804D1A7E075286CD078286BD0149A95
:1005100013999047761C62E06002400F022807D0D2
:1005200003280AD0042838680AD006603F1D56E028
:100530003868F11706604160F8E738680680F5E72B
:100540000670F3E73878694608740020487404A8F8
:100550000390012003E0386803900020C0433F1D52
:1005600061070FD5002101E00199491C029A019110
:10057000914213DA8142F7DB019A0399895C0029E1
:10058000F2D10BE0002101E00199491C0191814267
:10059000FADB019A0399895C0029F5D10199009849
:1005A000139A401A00902146149B00F03BF90199E0
:1005B0008019461807E0039803990078491C0391B5
:1005C000149A139990470198401E0190401CF2D153
:1005D0002146149B139A009800F014F986196D1C9B
:1005E00009E741E033E034E00A200021049005915E
:1005F0006002410F022905D001CFC217944603299A
:1006000005D007E0FF1DFF08FF0003CF06E000B2A2
:10061000C2179446042902D140B2C1178C46002269
:100620006146944506DA0A460021404291418C46D3
:100630002D2102E0210504D52B216A4611760121E6
:1006400003E0E10701D02021F7E7019154E00A20FF
:100650000BE0102009E01020049000210420044346
:1006600008200591029003E00820002105910490E4
:100670006002410F022905D001CF002294460329D0
:1006800006D006E0FF1DFF08FF0003CF8C4603E005
:1006900080B2042900D1C0B20021019121072BD5DD
:1006A0000399702906D0049A1021059B4A401A43E9
:1006B00005D00EE040216A461176012108E061462E
:1006C000014306D030216A46117603995176022102
:1006D0000191049A0821059B4A401A430CD16146B6
:1006E000014301D1610707D530216A461176012106
:1006F00001910299491E02910399582904D037A10A
:1007000003910FA90F910DE039A1F9E76146059B0F
:10071000049AFFF7F1FC039B8C469B5C0F9A521ED8
:100720000F92137061460143F0D10F9807A9081A80
:1007300020300390600704D5012000048443029810
:1007400001E0012002900399884201DD401A00E097
:10075000002041180290019809180098401A009052
:10076000E00306D42146149B139A009800F05AF82F
:1007700086190020049008E006A9085C149A1399D1
:1007800090470498401C761C049001998842F3DB42
:10079000E0030CD52146149B139A009800F042F810
:1007A000861904E0149A302013999047761C029918
:1007B000481E02900029F5DC08E00F980F99007898
:1007C000491C0F91149A13999047761C0399481E5F
:1007D00003900029F1DCFBE60928010030313233B7
:1007E000343536373839616263646566000000006D
:1007F0003031323334353637383941424344454657
:1008000000000000F8B5044600251E46174688047F
:1008100004D405E039462020B0476D1C641EF9D58C
:100820002846F8BDFFB50446002581B01E46C80322
:1008300001D5302700E02027880404D505E038469C
:100840000399B0476D1C641EF9D5284605B0F0BD6C
:100850000146074A05E0C869C007C00F002800D15B
:1008600070471046521E0028F5D1401EF8E70000E0
:100870001027000070B505460C460026F6432846B2
:10088000FFF7E6FF0646002E02DA0020C04370BDE7
:10089000E168A068884204D9A068E168A160E060CE
:1008A00000BFA169E069814204D9A069E269A2613F
:1008B000E06100BF2079C001E17889010843A17897
:1008C00049010843617809010843217808436860B9
:1008D00020890004E1680843E860207DC001E17CD4
:1008E00089010843A17C49010843617C090108434F
:1008F000217C0843A860208B0004E169084328613B
:100900002820005D002802D0284600F010F8284674
:1009100000F008F8208C80058009616A084368614E
:100920000020B4E70168012211430160704781692A
:1009300001221143816170470146C868C006C00F9B
:10094000704741680222914341607047416802222A
:100950001143416070478A79CB799B001A430B7A27
:10096000DB001A4342604A790B791B011A43CB78AA
:100970009B011A438B78DB011A434B781B021A4305
:1009800002600A78026170470021016101604160E4
:100990004161704701468A6890B27047F7B582B0EE
:1009A00004460F46F8000499FFF790FB0546EE0950
:1009B000F0012D1A681C40080190666206488642C4
:1009C00002D10020A06202E0AD1B0198A062E06AA3
:1009D000E06205B0F0BD0000FFFF0000014688693D
:1009E0000007C00F704701468869C006C00F7047F6
:1009F000014688698006C00F704770B504460D46F1
:100A0000002020636064A06360606062A062E062B6
:100A100020462A69E968FFF7C1FF68784007C00FE0
:100A2000C001297849010843A97809010843E978F8
:100A3000C900084369788907490F0843E062287AAA
:100A4000E979C9000843606300E026682046FFF7A3
:100A5000CAFF0128F9D1761C0020A0632879400242
:100A6000697909020843A9790843206370BD000031
:100A7000F8B50446002C03DB0C480078844200DB08
:100A8000F8BDE006060E00250CE000207119084AAA
:100A9000505473191746FA5C6B1CD9B2E0B200F0DF
:100AA00005FD6D1C082DF0DB00BFE9E724000020E8
:100AB000C001002010B500240AE02046FFF7D8FF4F
:100AC00001218807416100BF00BF00BF00BF641C57
:100AD000112CF2DB002004E000218200024B99502F
:100AE000401C2328F8DB10BD3000002070B588B012
:100AF00004460D461646FFF705FCFFF7FDFB002EEA
:100B000006D0012E0FD0022E18D0032E2CD120E0BB
:100B1000D021684601714121017201AA30210020D3
:100B2000FFF7B4FB2BE0D02168460171412101722F
:100B300001AAC0210120FFF7A9FB20E0E0216846BF
:100B400001714121017201AA03210120FFF79EFBDF
:100B500015E0E021684601714121017201AA0C21D2
:100B60000320FFF793FB0AE0D02168460171412181
:100B7000017201AA30210020FFF788FB00BF00BFEF
:100B80000321684601730021417301218173002113
:100B9000C17301210174417481740021C174022167
:100BA00001750694079503A90248FFF726FF08B0D0
:100BB00070BD00000000014000E0401E0028FCD194
:100BC000704700B502467D21490151430846FFF7B1
:100BD000F3FF00BD00B50246024951430846FFF746
:100BE000EBFF00BD00093D0070B504460D460A2C20
:100BF00002D10D20FFF776FB2046FFF773FB70BD97
:100C000070B504460D4619A0FFF7BAFB27A021686E
:100C1000FFF7B6FB28A06168FFF7B2FB29A0A16827
:100C2000FFF7AEFB2AA0E168FFF7AAFB2BA0216922
:100C3000FFF7A6FB2DA06169FFF7A2FB2EA0A1691B
:100C4000FFF79EFB2FA0E169FFF79AFB294631A031
:100C5000FFF796FB34A0FFF793FB002042490860A2
:100C600000BF414800680028FBD070BD0A2A2A2A2C
:100C70002A2A2A2A2A2A5468652073617665642004
:100C80007265676973746572732066726F6D207424
:100C9000686520737461636B2A2A2A2A2A2A2A2A01
:100CA0002A2A2A2A2A2A2A2A0A00000072302069BF
:100CB0007320307825780A007231206973203078EB
:100CC00025780A00723220697320307825780A006E
:100CD000723320697320307825780A00723132200F
:100CE000697320307825780A000000006C72206952
:100CF0007320307825780A0070632069732030787B
:100D000025780A0070737220697320307825780A7C
:100D10000000000063757272656E745F6C7220690A
:100D20007320307825780A002A2A2A2A2A2A2A2A91
:100D30002A2A2A2A2A2A2A2A2A2A2A2A2A2A2A2A13
:100D40002A2A2A2A2A2A2A2A2A2A2A2A2A2A2A2A03
:100D50002A2A2A2A2A2A2A2A2A2A2A2A2A2A2A2AF3
:100D60002A2A2A2A2A0A00001400002010B58CB072
:100D7000002108A80173022009900D480A907D21E6
:100D8000090108910021079101216846017501A818
:100D90000175C17481740021417401A90548FFF7F0
:100DA00069FD0446F0210448417020460CB010BD96
:100DB000B80B000000B0034038000440FFB581B01C
:100DC00006460F461D461D4806601D4807601D4922
:100DD00003980860002D01DD102D00DD10251A4854
:100DE00005701848016801208007416113480660BA
:100DF000002003E00021154A1154401C4028F9DB73
:100E0000002415E0E0B200220F2100F04FFB072183
:100E1000204600F017FBE0B20022092100F046FB5B
:100E20002046FFF725FE0021204600F023FB641C2E
:100E3000054800788442E5DB05B0F0BD18000020CD
:100E40001C0000202000002024000020C001002001
:100E500010B500240BE00021204600F00BFB02211E
:100E6000204600F0B3FA2046FFF702FE641C112C66
:100E7000F1DB10BDF8B504460D46202C33DB7F2C8A
:100E800031DC002012E02346203BDB00164FDB194B
:100E90001A5C8300C3189B00144FF9580B46134388
:100EA00019468300C3189B00F950401C0728EADB51
:100EB00020462038C0000C494018C67900270FE0B2
:100EC000002D02D100F084F903E0012D01D100F0E2
:100ED000E3F900F0EFF80220FFF773FE781CC7B2C9
:100EE000B742EDDB00BFF8BD011600003000002066
:100EF0001CB501206946087100900020FFF75FF9DA
:100F00000121880741610322E12149025948FFF785
:100F1000EDFD59A0FFF734FA57A0FFF731FA58A0BA
:100F2000FFF72EFA54A0FFF72BFA53A0FFF728FA89
:100F300000BF5C48FFF752FD0128FAD0FFF716FF0B
:100F4000FFF7E8F910231A0151008800FFF736FF78
:100F5000FFF77EFFFFF7AEFDFF202D30FFF731FEDC
:100F600000213720FFF786FF0120FFF733FE00F056
:100F7000A1F87EE000BF4B48FFF735FD0128FAD00D
:100F8000FFF7A8F985B2284631380300FFF708FAC1
:100F900009060B2110146F262A2D6F0000F018F996
:100FA00000F088F864E000213720FFF763FF5FE07E
:100FB0003D4800F0EBF95BE000214120FFF75AFFCC
:100FC00000214220FFF756FF00214320FFF752FF88
:100FD0004EE000F061F900F06DF849E0334800F0B0
:100FE000D5F945E000F066F842E03FE0FFF762FD2A
:100FF0000220FFF7EFFD2C4800F0C8F90220FFF7B0
:10100000E9FD002405E000F047F900F053F8601C0A
:1010100084B2962CF7DB0220FFF7DCFD234800F0BA
:10102000B5F90220FFF7D6FD002405E000F034F901
:1010300000F040F8601C84B2962CF7DB7D200001A4
:10104000FFF7BFFD1A4800F0A1F90220FFF7C2FD2B
:10105000002405E000F0BCF800F02CF8601C84B21D
:10106000962CF7DB7D200001FFF7ABFDBEE700BF4C
:1010700000BF7FE700366E013D3D3E200A000000C4
:101080003D3D3E204D41583732313920636F6E74FB
:10109000726F6C204C4544204D6174726978200A4F
:1010A00000000000000001408D150000A7150000A1
:1010B000DC15000070B5002584E0A8002818001D8C
:1010C000800042490E5C324629460F2000F096F916
:1010D000A8002818C01C80003C490C58260E324637
:1010E00029460E2000F08AF92002060E32462946D3
:1010F0000D2000F083F92004060E324629460C200C
:1011000000F07CF9E6B2324629460B2000F076F971
:10111000A8002818801C80002C490C58260E324646
:1011200029460A2000F06AF92002060E32462946B6
:10113000092000F063F92004060E324629460820F3
:1011400000F05CF9E6B232462946072000F056F975
:10115000A8002818401C80001C490C58260E324656
:101160002946062000F04AF92002060E324629469A
:10117000052000F043F92004060E324629460420DB
:1011800000F03CF9E6B232462946032000F036F979
:10119000A800281880000D490C58260E3246294612
:1011A000022000F02BF92002060E324629460120CB
:1011B00000F024F92004060E32462946002000F0F3
:1011C0001DF96D1C072D00DA77E770BD3000002097
:1011D00010B500215AE08B00CB189B002D4CE05835
:1011E000C20F40008B00CB189B00E0508B00CB1847
:1011F0005B1C9B00E0584000002A02D001231843EA
:1012000001E0400840008B00CB185B1C9B00214C88
:10121000E050C20F8B00CB189B1C9B00E058400095
:10122000002A02D00123184301E0400840008B004F
:10123000CB189B1C9B00174CE050C20F8B00CB18A7
:10124000DB1C9B00E0584000002A02D00123184319
:1012500001E0400840008B00CB18DB1C9B000D4CCC
:10126000E050C20F8B00CB181B1D9B00E0584000C4
:10127000002A02D00123184301E0400840008B00FF
:10128000CB181B1D9B00034CE050491C0729A2DB17
:1012900010BD00003000002010B5002171E08B006F
:1012A000CB181B1D9B00384CE058C207D20F4008DA
:1012B0008B00CB181B1D9B00E0508B00CB18DB1C58
:1012C0009B00E0584008002A03D00123DB071843A5
:1012D00001E0400040088B00CB18DB1C9B002A4C2F
:1012E000E0508B00CB18DB1C9B00E058C207D20FEC
:1012F0008B00CB189B1C9B00E0584008002A03D0B1
:101300000123DB07184301E0400040088B00CB18A5
:101310009B1C9B001C4CE0508B00CB189B1C9B0023
:10132000E05CC207D20F8B00CB185B1C9B00E0581F
:101330004008002A03D00123DB07184301E04000E6
:1013400040088B00CB185B1C9B000F4CE0508B00BF
:10135000CB185B1C9B00E05CC207D20F8B00CB1844
:101360009B00E0584008002A03D00123DB07184304
:1013700001E0400040088B00CB189B00024CE0507D
:10138000491C07298BDB10BD3000002070B50546D5
:101390000026002400BFAC5D002C03D000212046B5
:1013A000FFF768FD701CC6B2002CF4D170BD70B59B
:1013B00004460D4600BF2046FFF71AFB0128FAD06D
:1013C00029462046FEF7DAFF70BD000070B50446DE
:1013D0000D46002C03DB08480078844200DB70BD1A
:1013E000002D06DB102D04DAEAB2E0B20A2100F08B
:1013F0005DF800BFF3E7000024000020F8B50546C3
:101400000C461746002D03DB0C480078854200DBB4
:10141000F8BD002C01DB072C00DDF9E7EE003019E8
:1014200007490F5430190B461A5C601CC1B2E8B270
:10143000009000F03BF800BFEAE700002400002025
:10144000C001002070B504460D46002C03DB08489F
:101450000078844200DB70BD002D06DB082D04DA25
:10146000EAB2E0B20B2100F021F800BFF3E7000080
:101470002400002070B504460D46002C03DB0A480A
:101480000078844200DB70BD002D05D0E0B2002260
:101490000C2100F00BF804E0E0B201220C2100F076
:1014A00005F800BFEFE7000024000020F7B505466F
:1014B0006E001C4800784700002003E000211A4A13
:1014C0001154401CB842F9DB68460179164A701C79
:1014D00011546846007A1146885514480168012065
:1014E000800781613C4614E0601E0F49085C10498A
:1014F00088600846FFF72AFA00BF0D48FFF71CFA7C
:101500000028FAD10A48FFF71CFA0948FFF742FA07
:10151000641E002CE8DC0548016801208007416159
:10152000FEBD000024000020B001002020000020AB
:10153000008001403EB505466C460A48FFF724FA94
:10154000002060702570A070E0702071072060712D
:101550000020A071E0710120207221460148FFF7B0
:10156000FAF93EBD008001401000000002000000BA
:10157000302020202020202020202020202020205B
:1015800020202020202020202020202000412D432A
:1015900068696E612020202020202053656D6963DA
:1015A0006F6E202020200020505546204D435520AE
:1015B000202020204D4355303037206E3820202009
:1015C000004142434445464748494A4B4C4D4E4FE3
:1015D000505152535455565758595A0020202020E4
:1015E00020202020202020202020202020202020FB
:1015F0002020202020436F727465782D4D302020EC
:101600000000000000000000034040404040004057
:1016100002A0A0A000000000045050F850F8505064
:10162000062078A07028F02006C0C8102040981826
:10163000066090A040A8906806C0408000000000AE
:101640000320408080804040048040202020408053
:10165000040020A870A8200006002020F820200008
:101660000600000000C0408003000000F8000000F9
:10167000060000000000C0C00300081020408000E9
:1016800006708898A8C888700640C040404040E076
:1016900004708808102040F806F8102010088870A0
:1016A0000610305090F8101006F880F00808887086
:1016B00006304080F088887006F8880810202020C6
:1016C000067088887088887006708888780810602E
:1016D0000600C0C000C0C0000300C0C000C0408001
:1016E0000310204080402010050000F800F80000A2
:1016F00006804020102040800570880810200020BF
:101700000670880868A8A8700670888888F8888895
:1017100006F08888F08888F006708880808088705D
:1017200006E09090909090E006F88080F08080F83D
:1017300006F88080F080808006708880B88888F005
:1017400006888888F888888806E04040404040E065
:101750000438101010109060068890A0C0A09088E7
:1017600006808080808080F80688D8A8A88888882D
:10177000068888C8A89888880670888888888870AD
:1017800006F08888F08080800670888888A8906835
:1017900006F08888F0A0908806788080700808F0AD
:1017A00006F82020202020200688888888888870D5
:1017B000068888888888502006888888A8A8A85025
:1017C00006888850205088880688888850202020E5
:1017D00006F80810204080F806E08080808080E0D5
:1017E000040080402010080006E02020202020E097
:1017F000042050880000000006000000000000F8EF
:1018000006804020000000000400007008788878FE
:10181000068080B0C88888F00600007080808070E4
:1018200006080868988888780600007088F8807034
:1018300006304840E04040400600788888780870CC
:10184000068080B0C8888888064000C0404040704C
:10185000041000301010906005808090A0C0A0900F
:1018600005C04040404040E0040000D0A8A888885F
:10187000060000B0C88888880600007088888870D4
:10188000060000F088F0808006000068987808085C
:10189000060000B0C880808006000070807008F0EC
:1018A000064040E04040483006000088888898683C
:1018B000060000888888902006000088A8A8A85004
:1018C000060000885020508806000088887808703C
:1018D000060000F8102040F80620404080404020DC
:1018E0000480808080808080028040402040408052
:1018F0000400000068900000066090906000000006
:101900000500606600816618050000002C190000C3
:101910000000002030000000BC0300005C19000043
:1019200030000020D0090000CC03000000366E011A
:1019300000000000000000000000000000000000A7
:101940000000000000000000000000000000000097
:0C1950000000000000000000000000008B
:04000005000000B542
:00000001FF
