:020000040000FA
:10000000280E0020B5000000BD000000990000008F
:1000100000000000000000000000000000000000E0
:10002000000000000000000000000000C10000000F
:100030000000000000000000C3000000A511000047
:10004000C7000000C7000000C7000000C700000094
:10005000C7000000C7000000C7000000C700000084
:10006000C7000000C7000000C7000000C700000074
:10007000C7000000C7000000C7000000C700000064
:10008000C70000000348854600F0BCF9004800475F
:10009000D5190000280E002004207146084202D025
:1000A000EFF3098001E0EFF308807146004A104742
:1000B000ED17000001F07EF803480047FEE7FEE779
:1000C000FEE7FEE7FEE7FEE78500000030B50B46E1
:1000D000014600202022012409E00D46D5409D4222
:1000E00005D31D469540491B2546954040191546A8
:1000F000521E002DF1DC30BDF0B51FB488B00B9955
:100100000998002448400999C00F490049080991FD
:10011000C0070B990090490049080B91099908986C
:10012000A64608431CD00B990A98084318D0099892
:1001300001244000420D4800410D099824050003A8
:10014000000B204309900B980003000B20430B90F9
:1001500050181C494018002201901446104605E032
:10016000002001460DB0F0BD032801DA034600E08F
:1001700003239C46C11A0AAE0AE05F0008ADED5B9E
:100180004F00F75B7D430027AA187C41491C5B1E8A
:100190006145F2DD410004AB5A522104120C0A43BE
:1001A000240C401C0828DFDB01980290009970465F
:1001B00001910090059B049A0799069800F0D0F8E9
:1001C000D0E700000DFCFFFF0EB5054902910021AC
:1001D00000910A460B46019100F0C2F803B000BD41
:1001E00033040000410040020122400AD205090EFA
:1001F00080187F2901DA00207047962903DC9622B7
:10020000511AC8407047963988407047CB0FDB07BA
:10021000490010B5490802460A4307D00A0D0724D1
:100220000903E401090B121B002A01DC002010BDA8
:10023000C900440F0C43C100E018D205801800F03B
:1002400041F810BDF0B51FB40646002082B0054647
:100250004024019100901BE0019922460F46304650
:1002600000F0E2F8049A059B801A994110D31046D9
:100270001946224600F016F8361A8F410197224699
:1002800001200021009F00F00DF838184D4100902A
:100290002046641E0028DFDC019B00982946324678
:1002A00007B0F0BD10B5202A04DB0146203A91408A
:1002B000002010BD914020239C1A0346E3401943BF
:1002C000904010BD002904DA401C490001D14008CB
:1002D0004000704770B40024050C05D110240004C0
:1002E00002D1002921D01124050E01D100020834C9
:1002F000050F01D10001241D850F01D18000A41C30
:10030000002801DB4000641C002908D020252E1B9A
:100310000D46F540A14000D00121294308430106C4
:100320001B1B000ADB1D02D5002070BC7047DB05DB
:10033000181880180029F8DA401C4900F5D170BC63
:1003400040084000704710B5002B08DA0024401C1C
:10035000614192185B411A4301D14008400010BD31
:10036000F0B51FB482B005460C0003D0084600F07B
:1003700041FF02E000F03EFF20300246009021469F
:100380002846FFF78FFF049B059A04460F46184343
:100390001143084314D0184610431BD00098402145
:1003A0000A1A1846059900F03FF805460E46009ACD
:1003B00005990498FFF776FF084305D0012004E073
:1003C0002046394607B0F0BD0020C11705430E4353
:1003D0002C43374300990E986305401A7905E40AC7
:1003E00000220C43FD0A0A3002D500200146E9E74D
:1003F0000105101969410C9C0D9D00196941FFF719
:10040000A2FFDFE7064C0125064E05E0E36807CCB6
:100410002B430C3C98471034B442F7D3FFF736FE19
:10042000502200007022000010B5202A04DB08468C
:10043000203AD040002110BD0B46D340D0402024AC
:10044000A21A91400843194610BD70B58C18057862
:10045000401C6B075B0F01D10378401C2A1106D1A9
:100460000278401C03E006780E70401C491C5B1E9D
:10047000F9D12B0705D40023521E0DD40B70491C53
:10048000FAE70378401CCB1A921C03E01D780D702C
:10049000491C5B1C521EF9D5A142D8D3002070BD67
:1004A00030B5134600BF046FE407E40F002CFAD107
:1004B000002204E00C780461541CE2B2491C9A4208
:1004C000F8DB00BF046F04252C40002CFAD030BDAF
:1004D000C26E01238B409A43C2667047C26E0123ED
:1004E0008B401A43C2667047F8B504460F4616465D
:1004F0001D4600212046FFF7EBFF2068000C00049A
:100500002060B0016900084306990843FF212131AA
:100510000843206000200E4908633946204600F059
:1005200021F929462046099A00F0AAF829462046D2
:10053000099A00F031F82046079900F015F9204695
:10054000079900F007F800212046FFF7C7FFF8BD24
:100550000000024070B505460C46092C01DAAC6378
:1005600003E0082101A000F035FE70BD4552524F56
:10057000523A5468652049435F54585F544C206D8B
:10058000757374206265206C657373207468616E86
:10059000202578200A200000F7B584B004460D46D7
:1005A0000027012D16D17D277F01182179430846A8
:1005B000FFF70AFE274A284B01910090FFF79CFDA8
:1005C00003910290FFF722FE06463046FFF70AFE2F
:1005D00060613DE0022D1CD10698012802D1FF2761
:1005E000053701E04B27FF00182179430846FFF744
:1005F000EBFD184A184B01910090FFF77DFD039128
:100600000290FFF703FE06463046FFF7EBFDE06180
:100610001EE0032D19D17827182179430846FFF7EA
:10062000D3FD0C4A0C4B01910090FFF765FD03913F
:100630000290FFF7EBFD06460020E06160620221B8
:10064000A4200151A020015102E004A000F0C2FD4D
:1006500007B0F0BDFCA9F1D24D62503F4552524F58
:10066000523A4932435F53434C5F48434E542069EA
:1006700073206E6F74206578697374202100000008
:10068000F7B584B004460D460027012D15D1284F3B
:10069000182179430846FFF797FD264A264B01911A
:1006A0000090FFF729FD03910290FFF7AFFD06468A
:1006B0003046FFF797FDA06138E0022D1BD1069868
:1006C000012802D1FF27F53700E01C4F182179439C
:1006D0000846FFF779FD174A174B01910090FFF785
:1006E0000BFD03910290FFF791FD06463046FFF7A0
:1006F00079FD20621AE0032D15D1FF27413718211B
:1007000079430846FFF760FD0A4A0B4B01910090C0
:10071000FFF7F2FC03910290FFF778FD06460020F8
:100720002062A06202E006A000F054FD07B0F0BD18
:100730005C120000FCA9F1D24D62503F140500008C
:100740004552524F523A4932435F53434C5F4C43F8
:100750004E54206973206E6F74206578697374201D
:10076000210000004160704770B505460C46092C19
:1007700001DAEC6303E0082101A000F02BFD70BD5D
:100780004552524F523A5468652049435F54585F6E
:10079000544C206D757374206265206C65737320F2
:1007A0007468616E202578200A20000070B586B03C
:1007B00004460D461646002E06D0012E0FD0022EFE
:1007C00018D0032E2CD120E0D0216846017441219D
:1007D000017504AA3021012000F034F820E0F02156
:1007E000684601744121017504AA0321022000F02A
:1007F00029F815E0D021684601744121017504AA49
:10080000C021022000F01EF80AE0F02168460174C1
:100810004121017504AA0C21032000F013F800BF48
:1008200000BF002008210123019100930291039051
:100830002B46012221460248FFF756FE06B070BD46
:100840000000024070B50346002000BF19E00C46CE
:10085000C440E407E40F002C12D01479D5782C435F
:1008600095782C4355782C435D01074EAD198600D1
:10087000AC5514785D01044EAD198600AD196C704D
:10088000401C0828E3D370BD0000044010B50446A6
:10089000E1B2024801F0C4F9204610BD0000014059
:1008A00070B50546002D01D03F2406E006480078CB
:1008B000012801D19F2400E0DF24812001F0BEF94E
:1008C000204601F0BBF970BD1900002070B5212051
:1008D00001F0B4F9002001F0B1F97F2001F0AEF988
:1008E000222001F0ABF9002001F0A8F9072001F067
:1008F000A5F900240FE0002507E00949085D01F093
:10090000ABF9601C84B2681CC5B2102DF5DB601E0B
:1009100084B2601C84B2012080028442EBDB70BD93
:100920001E00002010B50446002C03D0AF2001F0BB
:1009300085F902E0AE2001F081F910BD10B5044642
:10094000002C06D1A02001F079F9C02001F076F941
:1009500005E0A12001F072F9C82001F06FF910BD87
:10096000F0B506460F4614461D463946304600F09F
:1009700029FA284600F000FC204600F081FAF0BD7C
:10098000F7B583B005460E4601210598081A00B256
:1009900002900120019005984000404200B2009072
:1009A0000027059C059C3219D1B2E8B2012200F063
:1009B000F3F8059C321BD1B2E8B2012200F0ECF84A
:1009C000F1B2059C2A19D0B2012200F0E5F8F1B28B
:1009D000059C2A1BD0B2012200F0DEF850E00298FC
:1009E00000280ADB601E04B20098801C00B2009050
:1009F00000990298401800B20290781C07B2019842
:100A0000801C00B2019001990298401800B2029037
:100A10003219D1B2EA19D0B2012200F0BDF8321970
:100A2000D1B2EA1BD0B2012200F0B6F8321BD1B22B
:100A3000EA19D0B2012200F0AFF8321BD1B2EA1BA2
:100A4000D0B2012200F0A8F8F219D1B22A19D0B21E
:100A5000012200F0A1F8F219D1B22A1BD0B2012272
:100A600000F09AF8F21BD1B22A19D0B2012200F09C
:100A700093F8F21BD1B22A1BD0B2012200F08CF8FD
:100A8000A742ACDB06B0F0BDF8B504460D461646ED
:100A90001F46A019421E2B4629462046009700F00B
:100AA0000FF8F8BDF8B504460D4616461F46A819BE
:100AB000431E224629462046009700F001F8F8BD63
:100AC000F0B585B004460D4616461F46781B311B0F
:100AD000884201DD012000E00020049004980028F5
:100AE00006D020462C46054630463E46074600BF07
:100AF000B44206DD20463446064628463D460746B3
:100B000000BF301BC0B20290781BC0B201900298A7
:100B1000C10F091849100091BD4202DA012003906B
:100B200002E00020C043039031E0049800280ED07A
:100B30000A98002805D0E1B2E8B2012200F02CF8B2
:100B400013E0E1B2E8B2002200F026F80DE00A98C6
:100B5000002805D0E9B2E0B2012200F01DF804E05F
:100B6000E9B2E0B2002200F017F801990098401AAB
:100B700000B200900098002807DA0398281805B200
:100B800002990098401800B20090601C04B2B44270
:100B9000CBDD05B0F0BD000070B51346802801DA4A
:100BA000402900DB70BD002B18D00A46CC17640F1B
:100BB000A4186403240CE4012418154D2C5D4E0781
:100BC000760F0125B5402C43CD176D0FAD186D0381
:100BD0002D0CED012D180E4E745517E00A46CC175A
:100BE000640FA4186403240CE4012418084D2C5D40
:100BF0004E07760F0125B540AC43CD176D0FAD18EC
:100C00006D032D0CED012D18014E745500BFC9E781
:100C10001E000020F0B505460E4617461C4601236F
:100C20003A4631462846FFF72FFF3019401EC1B221
:100C300001233A462846FFF727FF01232246314683
:100C40002846FFF72FFFE919491EC8B201232246A3
:100C50003146FFF727FFF0BDF0B506460F461446B4
:100C60001D463946304600F0ADF8284600F084FABB
:100C700003E02078641C00F003F920780028F8D104
:100C8000F0BDFCB505460E4614461F4663005B1CCE
:100C9000DAB2331BD9B2E8B23B46FFF703FF0020BC
:100CA00003232246314601970090284600F001F8C0
:100CB000FCBDFFB585B006460F4601210798081A0E
:100CC00000B204900120039007984000404200B217
:100CD00002900024079D5EE0049800280ADB681E4D
:100CE00005B20298801C00B2029002990498401844
:100CF00000B20490601C04B20398801C00B2039000
:100D000003990498401800B204900898C007C00FD7
:100D100000281DD06800401C0E994018C2B2781BF4
:100D2000C0B201903019C0B200900F9B0199FFF73B
:100D3000B9FE6000401C0E994018C2B2381BC0B208
:100D400001907019C0B200900F9B0199FFF7AAFEA5
:100D500002210898084000281DD06800401C0E9908
:100D60004018C2B2781BC0B20190301BC0B20090D4
:100D70000F9B0199FFF796FE6000401C0E994018EA
:100D8000C2B2381BC0B20190701BC0B200900F9B62
:100D90000199FFF787FEAC429EDB09B0F0BDFFB5BD
:100DA000044616461F46254607E0E8B23A46099B28
:100DB0000199FFF777FE681C05B2A019A842F4DC80
:100DC000FFBD0000802801DA402900DB7047034A9C
:100DD0001070034A117000BFF8E700001A000020ED
:100DE0001B00002010B5022211463C20FFF7DEFC5C
:100DF00010BD10B50446002C03D0A72000F01EFF44
:100E000002E0A62000F01AFF10BD000010B5AE20D1
:100E100000F014FF8D2000F011FFD92000F00EFF2C
:100E2000222000F00BFF812000F008FF8F2000F04F
:100E300005FFA12000F002FFC82000F0FFFE2020E7
:100E400000F0FCFE002000F0F9FEA42000F0F6FE09
:100E5000A62000F0F3FE2E2000F0F0FEAF2000F000
:100E6000EDFE002003490870034908700120034982
:100E7000087010BD1A0000201B0000201C0000207C
:100E8000FEB50446202C08D173480078002804D110
:100E900072480078002800D0FEBD072C05D1002044
:100EA0006F4908706C490870F6E7082C11D16D483D
:100EB00000780621484368490978884209DC694876
:100EC00000780621484364490978081A6249087085
:100ED000E2E70D2C03D100205F490870DCE70A2C03
:100EE00014D160480078C0005D49097840185C4919
:100EF00008705C480078C100081A59490978401800
:100F0000402802DD002056490870C5E7202C01DB8F
:100F10007E2C00DD3F24002549E0532C07DA2046D3
:100F200020388100401840194F490F5C06E02046E8
:100F300053388100401840194C490F5C002632E0BC
:100F4000F807C00F002802D00120029001E0002025
:100F500002904448007801280BD1414A1278921936
:100F6000D1B23D4A12785219D0B2029AFFF714FE5C
:100F700016E0029800903B4800787043384A127897
:100F80008018C1B2374800786843334A1278801815
:100F9000C0B201903348037802780198FFF7FFFE52
:100FA000701CC6B27F10072ECADB681CC5B2052DA7
:100FB000B3DB002000902B480078C100081AC3B2B0
:100FC0002848007881004018234909784018C0B2A9
:100FD000019024480278224801780198FFF7DFFE4B
:100FE00020480078062148431B49097840181A49CF
:100FF00008701C480078062148438030164909785B
:10100000884202DA802014490870144800780028C9
:101010001FD014480078810040180F490978401803
:10102000802816DD00200C4908700E480078C000AA
:101030000B49097840180A4908700A480078C1002D
:10104000081A074909784018402802DD00200449A1
:10105000087000BF20E700001A0000201D000020DB
:101060001B0000201C0000207420000073210000E1
:1010700070B505460C46A32000F0E0FD002000F00E
:10108000DDFD402000F0DAFD2A2000F0D7FD002031
:1010900000F0D4FD284600F0D1FD002000F0CEFD88
:1010A000204600F0CBFD012000F0C8FD2F2000F00D
:1010B000C5FD70BD70B505460C46A32000F0BEFD11
:1010C000002000F0BBFD402000F0B8FD292000F01A
:1010D000B5FD002000F0B2FD284600F0AFFD002075
:1010E00000F0ACFD204600F0A9FD012000F0A6FDB7
:1010F0002F2000F0A3FD70BD70B505460C462720DB
:1011000000F09CFD002000F099FD284600F096FDBF
:10111000002000F093FD204600F090FD002000F03C
:101120008DFDFF2000F08AFD2F2000F087FD70BDAF
:1011300070B504460D46262000F080FD002000F02A
:101140007DFD6007400F00F079FD002000F076FD86
:101150006807400F00F072FD002000F06FFDFF20D7
:1011600000F06CFD2F2000F069FD70BD10B52E2041
:1011700000F064FD10BD0000012800DA01200149E3
:10118000087070471C0000200121014881677047EA
:1011900000000640012149020148816770470000B4
:1011A0000000064002480068401C01490860704782
:1011B00010000020FF202E30024908620248034937
:1011C000086070478000064000366E010000002075
:1011D000016070470FB410B503A9044B044A02988C
:1011E00000F02EF810BC08BC04B01847D51700005A
:1011F000200400202021020C01D010211046020AF8
:1012000001D010460839020901D01046091F820892
:1012100001D01046891E420801D0881E7047081A66
:10122000704702E008C8121F08C1002AFAD17047AF
:101230007047002001E001C1121F002AFBD1704756
:10124000FFB58FB00F460446002606E025280AD0D9
:10125000129A11999047641C761C20780028F5D1C9
:10126000304613B0F0BD00250121A14A009500E0F1
:101270000543641C23780846203B98401042F7D170
:1012800020782E2815D1042005436078641C2A2874
:101290000AD101CF641C00900BE000990A2251434F
:1012A00030394018641C00902078014630390929F3
:1012B000F3D920786C280ED004DC4C2813D06A288F
:1012C00012D104E074280ED07A280DD10BE0012051
:1012D0004005054307E00121090562780D4382427C
:1012E00001D16D18641C641C2078864669284AD098
:1012F00008DC0028B4D058286DD0632810D06428AA
:1013000008D140E070286BD0732812D0752860D0C7
:10131000782860D0129A704611999047761CE5E0C3
:101320003878694608720020487202A801900120AE
:1013300003E0386801900020C0433F1D69070CD5C9
:10134000002500E06D1C00998D420FDA8542F9DB23
:101350000199495D0029F5D108E0002500E06D1CE8
:101360008542FCDB0199495D0029F8D1761907E037
:10137000019801990078491C0191129A119990479E
:101380006D1EF5D2B2E00A20029000216802400FE3
:10139000039102280CD001CFC117844600290DDA31
:1013A0006246084652420021814194462D2008E0C1
:1013B000FF1DFF08FF0003CF8446EFE7280504D593
:1013C0002B206A46107401203CE0E8073AD0202028
:1013D000F7E70A2000E0102000210391029007E0C7
:1013E0001020029000210420054308200391009062
:1013F0006802400F022810D001CF0021844600204F
:101400000D9028071FD5704670280CD0029A102026
:10141000039B42401A430CD015E0FF1DFF08FF005C
:1014200003CF8446EBE740206A46107401200D90FC
:101430000CE06046084306D030206A4610747046BF
:10144000507402200D907046582804D029A00190B5
:101450000DA80E900DE02CA0F9E76046039B029AC0
:10146000FEF7F0FE019B84469B5C0E9A521E0E9284
:10147000137060460843F0D10E9805A9081A203071
:101480000190680701D5009801E0012000900199C2
:10149000884203DD01460198081A00E0002000257B
:1014A000009006E004A8129A405D119990476D1CC7
:1014B000761C0D988542F5DB04E0129A30201199D4
:1014C0009047761C0099481E00900029F5DC08E042
:1014D0000E980E990078491C0E91129A1199904716
:1014E000761C0199481E01900029F1DC641CB4E6C9
:1014F00009280100303132333435363738396162EA
:1015000063646566000000003031323334353637AD
:101510003839414243444546000000000146074A2D
:1015200005E0C869C007C00F002800D17047104609
:10153000521E0028F5D1401EF8E7000010270000D9
:1015400070B505460C460026F6432846FFF7E6FF31
:101550000646002E02DA0020C04370BDE168A06894
:10156000884204D9A068E168A160E06000BFA16979
:10157000E069814204D9A069E269A261E06100BF2B
:101580002079C001E17889010843A1784901084325
:1015900061780901084321780843686020890004C4
:1015A000E1680843E860207DC001E17C89010843CF
:1015B000A17C49010843617C09010843217C08435F
:1015C000A860208B0004E169084328612820005DA1
:1015D000002802D0284600F010F8284600F008F84D
:1015E000208C80058009616A084368610020B4E7A7
:1015F0000168012211430160704781690122114392
:1016000081617047F7B582B004460F46F80004992F
:10161000FEF75CFD0546EE09F0012D1A681C400836
:10162000019066620648864202D10020A06202E074
:10163000AD1B0198A062E06AE06205B0F0BD000059
:10164000FFFF0000014688690007C00F7047014690
:101650008869C006C00F7047014688698006C00FC0
:10166000704770B504460D46002020636064A06397
:1016700060606062A062E06220462A69E968FFF764
:10168000C1FF68784007C00FC001297849010843AD
:10169000A97809010843E978C900084369788907EE
:1016A000490F0843E062287AE979C900084360637A
:1016B00000E026682046FFF7CAFF0128F9D1761C12
:1016C0000020A06328794002697909020843A979BA
:1016D0000843206370BD000070B588B004460D4615
:1016E0001646FFF757FDFFF74FFD002E06D0012EDF
:1016F0000FD0022E18D0032E2CD120E0D021684626
:1017000001714121017201AA30210020FFF79AF8EE
:101710002BE0D021684601714121017201AAC0214C
:101720000120FFF78FF820E0E02168460171412198
:10173000017201AA03210120FFF784F815E0E021DE
:10174000684601714121017201AA0C210320FFF7B3
:1017500079F80AE0D021684601714121017201AA9D
:1017600030210020FFF76EF800BF00BF032168465C
:10177000017300214173012181730021C173012193
:101780000174417481740021C174022101750694B1
:10179000079503A90248FFF764FF08B070BD000079
:1017A0000000014000E0401E0028FCD1704700B559
:1017B00002467D21490151430846FFF7F3FF00BD72
:1017C00000B50246024951430846FFF7EBFF00BD52
:1017D00000093D0070B504460D460A2C02D10D20CB
:1017E000FFF754F82046FFF751F870BD70B5044676
:1017F0000D4619A0FFF7EEFC27A02168FFF7EAFCD1
:1018000028A06168FFF7E6FC29A0A168FFF7E2FCC9
:101810002AA0E168FFF7DEFC2BA02169FFF7DAFCC4
:101820002DA06169FFF7D6FC2EA0A169FFF7D2FCBD
:101830002FA0E169FFF7CEFC294631A0FFF7CAFCD3
:1018400034A0FFF7C7FC00204249086000BF4148B0
:1018500000680028FBD070BD0A2A2A2A2A2A2A2AD0
:101860002A2A546865207361766564207265676909
:1018700073746572732066726F6D2074686520736F
:101880007461636B2A2A2A2A2A2A2A2A2A2A2A2ABD
:101890002A2A2A2A0A000000723020697320307830
:1018A00025780A00723120697320307825780A0083
:1018B000723220697320307825780A0072332069EB
:1018C0007320307825780A00723132206973203015
:1018D0007825780A000000006C7220697320307847
:1018E00025780A00706320697320307825780A0013
:1018F00070737220697320307825780A0000000028
:1019000063757272656E745F6C72206973203078D3
:1019100025780A002A2A2A2A2A2A2A2A2A2A2A2A28
:101920002A2A2A2A2A2A2A2A2A2A2A2A2A2A2A2A17
:101930002A2A2A2A2A2A2A2A2A2A2A2A2A2A2A2A07
:101940002A2A2A2A2A2A2A2A2A2A2A2A2A2A2A2AF7
:101950002A0A00001400002010B58CB0002108A84D
:1019600001730220099010480A907D210901089115
:101970000021079101216846017501A80175C17414
:1019800081740021417401A90848FFF7D9FD04467C
:10199000002C03DA682106A0FFF71CFCF0210C489C
:1019A000417020460CB010BDB80B000000B00340E1
:1019B0005B25645D20436865636B20434D44205381
:1019C00074617475732062757379200A00000000D9
:1019D000380004401CB50322E12149028148FFF789
:1019E0007BFE81A0FFF7F6FB7FA0FFF7F3FB80A053
:1019F000FFF7F0FB7CA0FFF7EDFB7BA0FFF7EAFB16
:101A000000BF8048FFF71EFE0128FAD0FFF7A4FFB1
:101A10007DA000680190FFF7E5F9FFF7F7F90020D6
:101A2000FEF73EFFFEF752FF0520FFF7C9FE01203B
:101A3000FEF784FF7548FFF7BAFE0020FEF772FF3D
:101A40007248FFF7B4FE07210020FFF755FB012085
:101A5000FEF768FF6E48FFF7AAFEFFF787FB01203D
:101A6000FEF71EFF0020FEF71BFF6848FFF79FFEF2
:101A700007210020FFF75CFB6548FFF798FEFFF7A2
:101A800075FBFF20F530FFF792FE00200FE00021EC
:101A900007E0604A125C604B1A54421C90B24A1C28
:101AA000D1B21029F5DB411E88B2411C88B2012158
:101AB00089028842EBDB5648FFF779FEFEF706FF06
:101AC0000120FFF759FB00210846FFF77BF9412071
:101AD000FFF7D6F92D20FFF7D3F94320FFF7D0F910
:101AE0006820FFF7CDF96920FFF7CAF96E20FFF7EC
:101AF000C7F96120FFF7C4F92020FFF7C1F9FEF70D
:101B0000E5FE0120142364220A2100900846FEF716
:101B1000D7FF0123782214210020FEF7B5FF01230F
:101B20003C2200213220FEF7BDFF0A221E21322076
:101B3000FEF726FF0123142219215020FFF7A1F8F8
:101B40000823502237210020FFF764F801200823E2
:101B50003C22282100901846FFF721F902235A223F
:101B600032211046FEF7FCFE012301AA3221642037
:101B7000FFF772F8FEF7AAFE33E0FFF7F7FA7D20D1
:101B8000C000FFF714FE0120FEF78AFE0120FFF7D8
:101B900030F907210020FFF7AFFA2048FFF707FED2
:101BA000FFF7E4FA7D20C000FFF701FE07210020C7
:101BB000FFF7BEFA1948FFF7FAFD0020FEF770FEA6
:101BC0000020FFF716F907210020FFF751FA13480C
:101BD000FFF7EDFD07210020FFF76CFA0F48FFF734
:101BE000E6FDCAE700366E013D3D3E200A000000DA
:101BF0003D3D3E20544553542053534431333036F9
:101C0000200A00000000014042420000DC05000004
:101C100088130000741C00001E000020581B0000E8
:101C200070B504460D4600BF2046FFF715FD01289C
:101C3000FAD029462046FFF7CBFA70BD38B50446E6
:101C40000021684601704470022269460148FEF78F
:101C500027FC38BD0000024038B5044640216846E4
:101C600001704470022269460148FEF719FC38BD34
:101C70000000024000000000000000000000000022
:101C80000000000000000000000000000000000054
:101C90000000000000000000000000000000000044
:101CA0000000000000000000000000000000000034
:101CB0000000000000000000000000000000000024
:101CC0000000000000000000000000000000000014
:101CD0000000000000000000000000000000000004
:101CE00000000000000000000000000000000000F4
:101CF00000000000000000000000000000000000E4
:101D000000000000000000000000000000000000D3
:101D10000000000000000000000000000000006063
:101D2000FCFCFC1CFCFEFEFEFF7F3F7F7F7F7FFFF5
:101D3000FEFEFCFCF00000000000008080C0C0C07F
:101D40004040602000000000000000000000000093
:101D50000000000000000000000000000000000083
:101D60000000000000000000000000000000000073
:101D70000000000000000000000000000000000063
:101D80000000000000000000000000000000000053
:101D90000000000000000000000000000000000043
:101DA00000000103073F7F7FFFFFFFFCF8E000001A
:101DB000000000000000000020FEFFFFFFFFFF8189
:101DC0000000000000000000000000000000000013
:101DD0000000000000000000000000000000000003
:101DE00000000000000000000000000000000000F3
:101DF00000000000000000000000000000000000E3
:101E000000000000000000000000000000000000D2
:101E100000000000000000000000000000000000C2
:101E20000000000000C0C0C07F7F7F3F1F0F00E0A8
:101E3000F0F0F0E0E0C0C0C0C0C1DFFFFFFFFFFF77
:101E4000FEFC70E0C0000000000000000000000088
:101E50000000000000000000000000000000000082
:101E60000000000000000000000000000000000072
:101E70000000000000000000000000000000000062
:101E80000000000000000000000000000000000052
:101E90000000000000000000000000000000000042
:101EA0000000000000000000000000000000000032
:101EB00001030F0F0F0F0F0F0F0F0F0F0F0F0F0F4C
:101EC0000F0D0303010000000000000000000000EF
:101ED0000000000000000000000000000000000002
:101EE00000000000000000000000000000000000F2
:101EF00000000000000000000000000000000000E2
:101F000000000000000000000000000000000000D1
:101F100000000000000000000000000000000020A1
:101F200020207820A0002020782020200000909001
:101F300020C0C0F0C0C0C0F0C0C000000040E050F1
:101F40006040704060C07040C04000000000000071
:101F50000000000000000000000000000000000081
:101F60000000000000000000000000000000000071
:101F70000000000000000000000000000000000061
:101F80000000000000000000000000000000000051
:101F90000000000000000000000000000000004001
:101FA000300C00FC01020204E00830C0000001C156
:101FB0002211FD2F29292B3D09D10000100CFF0013
:101FC000827A02FA42218C70DF00000000000000DB
:101FD0000000000000000000000000000000000001
:101FE00000000000000000000000000000000000F1
:101FF00000000000000000000000000000000000E1
:1020000000000000000000000000000000000000D0
:1020100000000000000000000000000000000000C0
:1020200000000001010101010000000000000100AA
:102030000000010101010101010000000000010197
:10204000000000000001000000010000000000008E
:102050000000000000000000000000000000000080
:102060000000000000000000000000000000000070
:1020700000000000000000000000005F00000007FA
:10208000000700147F147F14242A7F2A12231308C8
:10209000646236495620500008070300001C2241A4
:1020A000000041221C002A1C7F1C2A08083E080848
:1020B00000807030000808080808000060600020F8
:1020C000100804023E5149453E00427F40007249DB
:1020D0004949462141494D331814127F102745457F
:1020E00045393C4A49493141211109073649494995
:1020F00036464949291E0000140000004034000003
:10210000000814224114141414140041221408026B
:10211000015909063E415D594E7C1211127C7F49DE
:102120004949363E414141227F4141413E7F494933
:1021300049417F090909013E414151737F0808085F
:102140007F00417F41002040413F017F0814224130
:102150007F404040407F021C027F7F0408107F3E8A
:102160004141413E7F090909063E4151215E7F09F7
:10217000192946264949493203017F01033F40405E
:10218000403F1F2040201F3F4038403F6314081449
:102190006303047804036159494D43007F41414181
:1021A0000204081020004141417F04020102044062
:1021B00040404040000307080020545478407F28E6
:1021C0004444383844444428384444287F385454DC
:1021D000541800087E090218A4A49C787F080404FF
:1021E0007800447D40002040403D007F102844009E
:1021F00000417F40007C047804787C08040478382F
:1022000044444438FC1824241818242418FC7C085E
:10221000040408485454542404043F44243C4040DB
:10222000207C1C2040201C3C4030403C442810288E
:10223000444C9090907C4464544C440008364100D7
:10224000000077000000413608000201020402008D
:102250007022000000000020280400004A04000052
:102260000024000028040020000A000032120000B0
:10227000110419366E0109181A0126FC808080129B
:102280000B3EC0C055080812C0E0F0F8FCF8E06E44
:1022900019704973490C6CFFFFFF0D290619044B97
:1022A000FFFF23992B39071C8C8E8409CCF8F8F892
:1022B000B19AF00115E0E0C0801CE0FCFE551A7FE9
:1022C00004495BA11DFEFFC701012A83186B7CFE38
:1022D0000C12FF2D38FEC7830C2AC7191E01FFFF01
:1022E0000101971A0712212B7FFF6E194F2905490B
:1022F0001E1AFF17B14D030F3F7F6D380FFFFFE729
:10230000C7C78F8F9FBFFFFFC3C0F0115AFC011BCF
:10231000F8F89D12C02B010301190641390D2C015B
:1023200001034F690C291989057926592429064981
:102330000CE13E80C0E0F0F970180C3F1F0F87C71A
:10234000F7FFFF1F1F3D745DF8F87C7D9A16FF7F35
:102350003F0F07031630300416FEFEFC19B4A10926
:10236000153E6BC0FE641CFF7F7F813808071F7F0E
:10237000FFFFF8F8112CFEF8E0BA896831200AFC5A
:10238000FEFC0C06060EFCF81809F0F81C0E0606FA
:10239000060C2A591D291E112008183C7E66E6CE1F
:1023A000844E06FFFF0606304A0621001314C0F8CB
:1023B000FC4E4646464E7C7840183C76E6CECC80B5
:1023C0001F01070F1F1F3F01C41F0F033B0F0F0506
:1023D0002906390C380903070E0C18180C06131BB4
:1023E000010F0D150C0F07014A04095925593059E1
:1023F0003E1F07070C0C181C91992601870000004E
:04000005000000B542
:00000001FF
