:020000040000FA
:1000000020080020B5000000BD000000990000009D
:1000100000000000000000000000000000000000E0
:10002000000000000000000000000000C10000000F
:100030000000000000000000C3000000F503000005
:10004000C7000000C7000000C7000000C700000094
:10005000C7000000C7000000C7000000C700000084
:10006000C7000000C7000000C7000000C700000074
:10007000C7000000C7000000C7000000C700000064
:10008000C70000000348854600F076F800480047A6
:10009000C50C00002008002004207146084202D050
:1000A000EFF3098001E0EFF308807146004A104742
:1000B000210B000000F0A6F903480047FEE7FEE729
:1000C000FEE7FEE7FEE7FEE78500000030B50B46E1
:1000D000014600202022012409E00D46D5409D4222
:1000E00005D31D469540491B2546954040191546A8
:1000F000521E002DF1DC30BDF0B51FB406460020C5
:1001000082B005464024019100901BE001992246EF
:100110000F46304600F042F8049A059B801A994138
:1001200010D310461946224600F016F8361A8F41B1
:100130000197224601200021009F00F00DF8381899
:100140004D4100902046641E0028DFDC019B009892
:100150002946324607B0F0BD10B5202A04DB01461F
:10016000203A9140002010BD914020239C1A034664
:10017000E3401943904010BD064C0125064E05E0B2
:10018000E36807CC2B430C3C98471034B442F7D3B8
:10019000FFF77CFF181200003812000010B5202A6B
:1001A00004DB0846203AD040002110BD0B46D34066
:1001B000D0402024A21A91400843194610BD0146A0
:1001C000202904DB7E2902DC0B46203BDAB2704793
:1001D00010B5002406E0611CC8B2002100F0A4F8AC
:1001E000601C84B2082CF6DB002405E000210846E0
:1001F00000F09AF8601C84B2382CF7DB10BD70B5A3
:100200000446FF21013188054161002504E00021F9
:10021000084600F025F86D1CA542F8D370BD10B556
:100220000021092000F080F803210A2000F07CF86A
:1002300007210B2000F078F801210C2000F074F861
:1002400000210F2000F070F8002405E0002108468E
:1002500000F06AF8601C84B20D2CF7DB10BD0000C2
:1002600070B504460D460A488460856000F042FB84
:1002700000BF074800F034FB0028FAD1044800F022
:1002800034FB034800F05AFB014800F057FB70BDF7
:1002900000800140F8B506460D4600240AE0285DBE
:1002A000FFF78DFF07463946304600F00AF8601C1C
:1002B00084B2761E285D002801D0202CEFDB20467A
:1002C000F8BDF8B505460E46082D2BDA002D29DBC2
:1002D000002425E0002D17DDFF2101318805416153
:1002E000315D621CD0B2FFF7BBFF012705E00021A2
:1002F0000846FFF7B5FF781CC7B2AF42F7DB002115
:10030000084600F011F804E0315D621CD0B200F044
:100310000BF80821491B481EFFF771FF601CC4B28F
:10032000082CD7DBF8BD000070B504460D46FF2150
:100330000131880581610C488460856000F0DAFA3B
:1003400000BF094800F0CCFA0028FAD1064800F0B6
:10035000CCFA054800F0F2FA034800F0EFFAFF216A
:1003600001318805416170BD0080014070B50346D0
:10037000002000BF19E00C46C440E407E40F002C45
:1003800012D01479D5782C4395782C4355782C438A
:100390005D01074EAD198600AC5514785D01044E21
:1003A000AD198600AD196C70401C0828E3D370BDF0
:1003B0000000044010B5024800F032F810BD000003
:1003C0000000014010B50446E1B2024800F080FD93
:1003D000204610BD0000014001210148816770479F
:1003E0000000064001214902014881677047000072
:1003F0000000064002480068401C01490860704740
:1004000010000020FF202E300249086202480349F4
:10041000086070478000064000366E010000002032
:1004200001460868C0B27047016070470FB410B54C
:1004300003A9044B044A029800F018F810BC08BC49
:1004400004B01847090B00001800002002E008C89B
:10045000121F08C1002AFAD170477047002001E03E
:1004600001C1121F002AFBD170470000FFB591B0F7
:100470000F460546002606E025280AD0149A13994F
:1004800090476D1C761C28780028F5D1304615B0B1
:10049000F0BD002400940121F34A029400E00443DB
:1004A0006D1C2B780846203B98401042F7D12878E5
:1004B0002A280ED0022128780246303A092A15D877
:1004C000009A0A235A43303A80180C436D1C00905E
:1004D000F1E701CF0090002805DA01204003044332
:1004E000009840420090022004436D1C28782E287A
:1004F00015D10420044368786D1C2A280AD101CF45
:100500006D1C02900BE002990A22514330394018C9
:100510006D1C02902878014630390929F3D92878D2
:100520006C2810D006DC4C281AD068280ED06A2817
:1005300017D104E0742813D07A2812D110E00120DA
:10054000400504430CE00121090501E003210905F0
:100550000C436978814203D10120000524186D1CE9
:100560006D1C287803906E281ED00CDC632831D0D7
:1005700004DC00288AD0582811D1B2E064287BD04E
:1005800069280CD178E073282DD004DC6F2870D056
:10059000702804D1A7E075286CD078286BD0149A05
:1005A00013999047761C62E06002400F022807D042
:1005B00003280AD0042838680AD006603F1D56E098
:1005C0003868F11706604160F8E738680680F5E79B
:1005D0000670F3E73878694608740020487404A868
:1005E0000390012003E0386803900020C0433F1DC2
:1005F00061070FD5002101E00199491C029A019180
:10060000914213DA8142F7DB019A0399895C002950
:10061000F2D10BE0002101E00199491C01918142D6
:10062000FADB019A0399895C0029F5D101990098B8
:10063000139A401A00902146149B00F03BF901994F
:100640008019461807E0039803990078491C039124
:10065000149A139990470198401E0190401CF2D1C2
:100660002146149B139A009800F014F986196D1C0A
:1006700009E741E033E034E00A20002104900591CD
:100680006002410F022905D001CFC2179446032909
:1006900005D007E0FF1DFF08FF0003CF06E000B212
:1006A000C2179446042902D140B2C1178C460022D9
:1006B0006146944506DA0A460021404291418C4643
:1006C0002D2102E0210504D52B216A461176012156
:1006D00003E0E10701D02021F7E7019154E00A206F
:1006E0000BE0102009E010200490002104200443B6
:1006F00008200591029003E0082000210591049054
:100700006002410F022905D001CF0022944603293F
:1007100006D006E0FF1DFF08FF0003CF8C4603E074
:1007200080B2042900D1C0B20021019121072BD54C
:100730000399702906D0049A1021059B4A401A4358
:1007400005D00EE040216A461176012108E061469D
:10075000014306D030216A46117603995176022171
:100760000191049A0821059B4A401A430CD1614625
:10077000014301D1610707D530216A461176012175
:1007800001910299491E02910399582904D037A179
:1007900003910FA90F910DE039A1F9E76146059B7F
:1007A000049AFFF7A9FC039B8C469B5C0F9A521E90
:1007B0000F92137061460143F0D10F9807A9081AF0
:1007C00020300390600704D5012000048443029880
:1007D00001E0012002900399884201DD401A00E007
:1007E000002041180290019809180098401A0090C2
:1007F000E00306D42146149B139A009800F05AF89F
:1008000086190020049008E006A9085C149A139940
:1008100090470498401C761C049001998842F3DBB1
:10082000E0030CD52146149B139A009800F042F87F
:10083000861904E0149A302013999047761C029987
:10084000481E02900029F5DC08E00F980F99007807
:10085000491C0F91149A13999047761C0399481ECE
:1008600003900029F1DCFBE6092801003031323326
:1008700034353637383961626364656600000000DC
:1008800030313233343536373839414243444546C6
:1008900000000000F8B5044600251E4617468804EF
:1008A00004D405E039462020B0476D1C641EF9D5FC
:1008B0002846F8BDFFB50446002581B01E46C80392
:1008C00001D5302700E02027880404D505E038460C
:1008D0000399B0476D1C641EF9D5284605B0F0BDDC
:1008E0000146C868C006C00F7047416802229143A4
:1008F00041607047416802221143416070478A7924
:10090000CB799B001A430B7ADB001A4342604A7989
:100910000B791B011A43CB789B011A438B78DB01BF
:100920001A434B781B021A4302600A78026170472F
:1009300000210161016041604161704701468A68A0
:1009400090B27047F7B582B004460F46F80004999C
:10095000FFF7BCFB0546EE09F0012D1A681C4008A4
:10096000019066620648864202D10020A06202E041
:10097000AD1B0198A062E06AE06205B0F0BD000026
:10098000FFFF000001468869C006C00F704701469E
:1009900088698006C00F704770B504460D46002078
:1009A00020636064A06360606062A062E0622046D1
:1009B0002A69E968FFF7C6FF68784007C00FC001E1
:1009C000297849010843A97809010843E978C90051
:1009D000084369788907490F0843E062287AE97972
:1009E000C9000843606300E026682046FFF7CAFF9D
:1009F0000128F9D1761C0020A0632879400269798A
:100A000009020843A9790843206370BD70B588B016
:100A100004460D461646FFF7E5FCFFF7DDFC002E09
:100A200006D0012E0FD0022E18D0032E2CD120E09C
:100A3000D021684601714121017201AA30210020B4
:100A4000FFF794FC2BE0D02168460171412101722F
:100A500001AAC0210120FFF789FC20E0E0216846BF
:100A600001714121017201AA03210120FFF77EFCDF
:100A700015E0E021684601714121017201AA0C21B3
:100A80000320FFF773FC0AE0D02168460171412181
:100A9000017201AA30210020FFF768FC00BF00BFEF
:100AA00003216846017300214173012181730021F4
:100AB000C17301210174417481740021C174022148
:100AC00001750694079503A90248FFF765FF08B072
:100AD00070BD00000000014000E0401E0028FCD175
:100AE000704700B502467D21490151430846FFF792
:100AF000F3FF00BD00B50246024951430846FFF727
:100B0000EBFF00BD00093D0070B504460D460A2C00
:100B100002D10D20FFF756FC2046FFF753FC70BDB5
:100B200070B504460D4619A0FFF780FC27A0216888
:100B3000FFF77CFC28A06168FFF778FC29A0A1687A
:100B4000FFF774FC2AA0E168FFF770FC2BA0216975
:100B5000FFF76CFC2DA06169FFF768FC2EA0A1696E
:100B6000FFF764FC2FA0E169FFF760FC294631A084
:100B7000FFF75CFC34A0FFF759FC002042490860F5
:100B800000BF414800680028FBD070BD0A2A2A2A0D
:100B90002A2A2A2A2A2A54686520736176656420E5
:100BA0007265676973746572732066726F6D207405
:100BB000686520737461636B2A2A2A2A2A2A2A2AE2
:100BC0002A2A2A2A2A2A2A2A0A00000072302069A0
:100BD0007320307825780A007231206973203078CC
:100BE00025780A00723220697320307825780A004F
:100BF000723320697320307825780A0072313220F0
:100C0000697320307825780A000000006C72206932
:100C10007320307825780A0070632069732030785B
:100C200025780A0070737220697320307825780A5D
:100C30000000000063757272656E745F6C722069EB
:100C40007320307825780A002A2A2A2A2A2A2A2A72
:100C50002A2A2A2A2A2A2A2A2A2A2A2A2A2A2A2AF4
:100C60002A2A2A2A2A2A2A2A2A2A2A2A2A2A2A2AE4
:100C70002A2A2A2A2A2A2A2A2A2A2A2A2A2A2A2AD4
:100C80002A2A2A2A2A0A0000140000201CB5044639
:100C9000D0216846017041210171502141704021ED
:100CA00081704421C170FF21013188054161416299
:100CB0006A460E210120FFF759FB204600F016F985
:100CC0001CBD00001CB500200190042000900322F0
:100CD000E12149025448FFF799FE54A0FFF7A6FB13
:100CE0005CA0FFF7A3FB5BA0FFF7A0FB59A0FFF7F9
:100CF0009DFB0620FFF7CAFFFFF791FAFF20F530B2
:100D0000FFF7EFFEFFF764FA0220FFF7F3FE00257E
:100D100089E000BF5248FFF735FE0128FAD0FFF7FF
:100D200049FB87B2352F44D008DC312F20D0322F39
:100D300028D0332F2CD0342F73D134E0362F4ED01F
:100D4000392F02D0632F6CD168E010E045A128460E
:100D5000FFF7A0FAC4B2FF20F530FFF7C2FEFFF79D
:100D600037FAA01DA84201D1002500E06D1CEDE777
:100D700043A12846FFF78EFAC4B2214641A0FFF7EF
:100D800055FB4FE06D1C294640A0FFF74FFB49E0A3
:100D90003BA10198FFF77EFAC4B239A10098FFF792
:100DA00079FAC4B23EE03CA10320FFF773FAC4B263
:100DB00038E03020FFF703FA0646314638A0FFF747
:100DC00035FB002405E0315D3AA0FFF72FFB601CE6
:100DD000C4B2082CF7DB39A0FFF728FB22E0384E1D
:100DE000314638A0FFF722FB002410E02046E1172F
:100DF000490F0918C910C900611A02D12FA0FFF7C5
:100E000015FB315D2BA0FFF711FB601CC4B2202C39
:100E1000ECDB2AA0FFF70AFB04E002E0FFF7D8F9B9
:100E200000E000BF00BF74E700366E013D3D3D3E6F
:100E300020204D4158373231392074657374203D7C
:100E40003D3D3D3D3D3D3D3D3D3D3D3D3D3D3D0A05
:100E5000000000003D3D3D3E2020090A000000004A
:100E600000000140412D4348494E412053454D4922
:100E7000434F4E445543544F52204C74640000007D
:100E80007E0000006E203D2025640A00326C6F63F6
:100E90002025640A000000003132333400000000D5
:100EA000706F696E74657220616464723A202530D7
:100EB00038580A0078253032582000000A00000017
:100EC000200F0000307825303858200A000000003C
:100ED00070B504460D4600BF2046FFF758FD0128B7
:100EE000FAD029462046FFF79FFA70BD3EB5054669
:100EF0006C460A48FFF71CFD002060702570A0704A
:100F0000E0702071072060710020A071E071012065
:100F1000207221460148FFF7F2FC3EBD00800140EF
:100F20000000000000000000080808080000080099
:100F3000141414000000000014143E143E14140095
:100F4000103C50381478100030310204081323008C
:100F5000182428102A241A000C040800000000009D
:100F60001020404040201000100804040408100025
:100F70000000105438541000000010107C101000B5
:100F800000000000180810000000007E00000000B3
:100F900000000000303000000000040810200000B5
:100FA0003C42464A5262423C182848080808081C3D
:100FB0007E02027E4040407E7E02027E0202027E6F
:100FC00008182848FE0808087C40407C0404047C7B
:100FD0003C20203C24243C003E2204080808080849
:100FE0003C42427E42423C003E22223E0202023EFF
:100FF0000018180018180000001818001808100031
:1010000004081020100804000000007E007E00008C
:1010100020100804081020003844040810001000B4
:10102000384404345454380018244242427E424228
:101030003C22223E22223C003C4040404040403C7A
:101040007C42424242427C007C40407C4040407CAA
:101050007C40407C404040403C4040404044443C18
:101060004444447C444444447C1010101010107CD0
:101070003C0808080808483000242830203028247C
:10108000404040404040407C81C3A599818181819E
:10109000004262524A4642003C4242424242423C84
:1010A0003C2222223C2020201C2222222226221DF9
:1010B0003C2222223C2422211E20201C02023C0031
:1010C000003E080808080808424242424242423CA8
:1010D000424242424242241800494949492A1C00DE
:1010E000004122140814224141221408080808086B
:1010F000007F02040810207F382020202020203884
:1011000000402010080402001C0404040404041C11
:101110001824240000000000000000000000007EF1
:10112000100804000000000000001C021E221E0027
:101130004040407C4242427C000000384040403801
:10114000020202021E22221E00000030487840786F
:101150000C121038101010000C12120E0212121E77
:10116000202020203C242424000010001010101007
:101170000800080808082838404040485060504897
:101180001808080808081C000000006854544400AF
:1011900000000058644444000000001C2222221C6D
:1011A000000078447840400000001A261E02020029
:1011B0000000586440404000000038403804780087
:1011C0002020702020241800004444444C340400A3
:1011D00000004444442810000000444454542800B3
:1011E0000000442810284400000044443C04380017
:1011F0000000780810207800081010201010080057
:10120000101010101010100010080804080810002A
:10121000010100010101000138120000000000205E
:10122000200000004C0400005812000020000020A4
:10123000000800005C04000000366E0100000000A1
:10124000000000000000000000000000000000009E
:08125000000000000000000096
:04000005000000B542
:00000001FF
