:020000040000FA
:10000000400E0020B5000000BD0000009900000077
:1000100000000000000000000000000000000000E0
:10002000000000000000000000000000C10000000F
:100030000000000000000000C3000000C502000036
:10004000C7000000C7000000C7000000C700000094
:10005000C7000000C7000000C7000000C700000084
:10006000C7000000C7000000C7000000C700000074
:10007000C7000000C7000000C7000000C700000064
:10008000C70000000348854600F090F8004800478C
:10009000D5130000400E002004207146084202D013
:1000A000EFF3098001E0EFF308807146004A104742
:1000B000B511000000F00EF903480047FEE7FEE727
:1000C000FEE7FEE7FEE7FEE78500000030B50B46E1
:1000D000014600202022012409E00D46D5409D4222
:1000E00005D31D469540491B2546954040191546A8
:1000F000521E002DF1DC30BDD2B201E00270401C76
:10010000491EFBD270470022F6E710B513460A4697
:1001100004461946FFF7F0FF204610BD421C017847
:10012000401C0029FBD1801A7047F0B51FB4064669
:10013000002082B005464024019100901BE0019907
:1001400022460F46304600F043F8049A059B801A79
:10015000994110D310461946224600F016F8361A77
:100160008F410197224601200021009F00F00DF8E9
:1001700038184D4100902046641E0028DFDC019BAA
:1001800000982946324607B0F0BD10B5202A04DB9E
:100190000146203A9140002010BD914020239C1A36
:1001A0000346E3401943904010BD0000064C012572
:1001B000064E05E0E36807CC2B430C3C984710340F
:1001C000B442F7D3FFF762FF283F0000483F00002A
:1001D00010B5202A04DB0846203AD040002110BD8B
:1001E0000B46D340D0402024A21A91400843194620
:1001F00010BD0A46824001239B075A61704710B523
:10020000002A05D10B4683400124A407A36105E021
:10021000012A03D10B4683409407636110BD00009F
:1002200010B504460848846000F094FE00BF0648FC
:1002300000F086FE0028FAD1034800F086FE02484E
:1002400000F0ACFE10BD00000080014070B5034618
:10025000002000BF19E00C46C440E407E40F002C66
:1002600012D01479D5782C4395782C4355782C43AB
:100270005D01074EAD198600AC5514785D01044E42
:10028000AD198600AD196C70401C0828E3D370BD11
:100290000000044010B50446E1B2024801F0C4F980
:1002A000204610BD000001400121014881677047D0
:1002B00000000640012149020148816770470000A3
:1002C0000000064002480068401C01490860704771
:1002D00010000020FF202E30024908620248034926
:1002E000086070478000064000366E010000002064
:1002F00001607047FFB587B015461C46109E0798F1
:10030000049008980390012E00DA012621780798BE
:100310000818C02804DD61780898081840287DDC9A
:10032000002794E07F2D09DA284620386178484379
:10033000C01940006168085A059020E0BF2D09DD12
:100340002846603861784843C01940006168085AFF
:10035000059014E0A82D08D16078A0225043C01960
:1003600040006168085A059009E0B82D07D160780F
:10037000A1225043C01940006168085A059000202E
:10038000069058E00699059888400121C903084065
:10039000002820D00020019019E0002002900FE0FA
:1003A000019A0398801801B2029A0498801803B247
:1003B0001846119A00F098F90298401C00B2029079
:1003C0000298B042ECDB0198401C00B20190019809
:1003D000B042E2DB27E00020019021E00020029003
:1003E00015E01198002801D1012000E0002002460C
:1003F000019B0398C01801B2029B0498C01800B278
:10040000009000F071F90298401C00B2029002982E
:10041000B042E6DB0198401C00B200E01BE0019016
:100420000198B042DADB0498801900B20490069873
:10043000401C80B20690217806988142A2DC079881
:1004400004900398801900B20390781C87B26078FA
:10045000B84200DD66E70BB0F0BDFFB583B00746DC
:1004600014460C9D012D00DA01252046FFF756FEAB
:1004700086B248E02078C02836DB2078D02802D029
:10048000D12824D111E0641C2078812802D1A82031
:1004900002901CE02078902806DB2078BF2803DC3F
:1004A00020783030C0B2029011E0641C207891288E
:1004B00002D1B82002900AE02078802806DB20785C
:1004C0008F2803DC20787030C0B2029000BF00BFDC
:1004D000701E86B20D98009501903846069B029AD0
:1004E0000499FFF707FF08E00D9800950190227826
:1004F0003846069B0499FFF7FDFE0698007868438E
:10050000C01907B2641C3046711E8EB20028B1D1EA
:1005100007B0F0BD10B50446002201210820FFF706
:100520006EFE2146A42000F0F8F9012211460820B1
:10053000FFF765FE10BDFFB582B007461546E81D02
:10054000C117490F0918C91009B201910020009084
:1005500000262AE0002420E06007400F002804D095
:1005600000984006000E00900AE02046E117490F6F
:100570000918CA100199714352180B99895C0091AE
:10058000802100980840002805D0391908B20C9A3B
:10059000039900F0A9F8601C04B2AC42DCDB701CCB
:1005A00006B20398401C00B2039005988642D1DB46
:1005B00006B0F0BDFFB583B007460D46002201210D
:1005C0000820FFF71CFE00200290002F00DA00E058
:1005D0003846C0B20190002D01DA002104E028461F
:1005E000C117490F0918C910C9B20091002440E091
:1005F0002819002802DB2819402800DB36E0019882
:100600000107090F002000F088F9F022019810403E
:100610000111102000F081F90098421CD2B201466D
:10062000B020009200F079F900261BE0B8190028EC
:1006300002DBB819C02800DB12E02046E117490FA1
:100640000918C910059A5143891989B20291029972
:100650004A1C92B202920C9A505CFFF7E1FD00BF77
:10066000701CC6B205988642E0DB00BF2046083009
:10067000C4B206988442BBDB012211460820FFF772
:10068000BEFD07B0F0BD000010B507480478E017C4
:10069000400F0019C010054A127850430146044823
:1006A000FFF731FD10BD00001900002018000020E8
:1006B0003C00002010B5002000F06FF810BD10B510
:1006C0000446002201210820FFF799FD0021812026
:1006D00000F023F92146812000F01FF90122114684
:1006E0000820FFF78CFD10BD70B50346002B09DB19
:1006F0001E4C2478A34205DA002903DB1C4C247825
:10070000A14200DB70BD0C46CD176D0F2D19ED1009
:10071000164E36787543ED18A8B2002A04D0012A87
:100720000CD0022A1ED113E0124C245C4E07760F27
:100730000125B5402C430F4D2C5413E00D4C255C86
:100740004E07760F0124B440A5430A4C255409E016
:10075000084C245C4E07760F0125B5406C40054DD2
:100760002C5400BF00BF00BFCCE7000018000020E1
:10077000190000203C00002010B504460022012191
:100780000820FFF73CFD2146AE2000F0C6F801220C
:1007900011460820FFF733FD10BD70B50546002255
:1007A00001210820FFF72BFD03267602002404E038
:1007B0002846FFF735FD601C84B2B442F8DB012205
:1007C00011460820FFF71BFD70BD10B50C2000F08E
:1007D000E5FD00F0D1FC322000F0B9FC012210212F
:1007E0000820FFF70CFD012211460820FFF707FD46
:1007F00000F046F8002201210820FFF700FD0A2042
:1008000000F0A5FC0021272000F087F801218820B6
:1008100000F083F80121A02000F07FF80321E820F8
:1008200000F07BF806212F2000F077F8642000F01C
:100830008EFC0021812000F070F81E21812000F044
:100840006CF80121AE2000F068F80421C02000F00F
:1008500064F8012211460820FFF7D1FC10BD10B545
:100860000446002201210820FFF7C9FC2146A620EA
:1008700000F053F8012211460820FFF7C0FC10BD1C
:1008800010B5002220210820FFF7B9FC002220210A
:100890000820FFF7B4FCC82000F059FC01222021F9
:1008A0000820FFF7ACFC962000F051FC10BD10B5FD
:1008B0000446002201210820FFF7A1FC002C06D0ED
:1008C000022C06D0042C06D0062C08D105E000240A
:1008D00007E0022405E0042403E0062401E00424E8
:1008E00000BF00BF2146C02000F017F801221146CA
:1008F0000820FFF784FC10BD10B50446002201213A
:100900000820FFF77CFC2146402000F006F8012279
:1009100011460820FFF773FC10BD70B504460D4664
:10092000204628430646002210210820FFF767FCD6
:100930003046FFF775FC012210210820FFF75FFC0D
:1009400070BD0000F8B5002400250648067806486A
:10095000077806483B463246294600902046FFF776
:1009600029FEF8BD18000020190000203C000020DE
:100970000FB410B503A9044B044A029800F02CF8F8
:1009800010BC08BC04B018476111000034000020FE
:100990000FB410B504A9074B02AA039800F01CF885
:1009A000044602A9002000F051FA204610BC08BC01
:1009B00004B018474D0E000002E008C8121F08C11D
:1009C000002AFAD170477047002001E001C1121FD0
:1009D000002AFBD170470000FFB591B00F460546D5
:1009E000002606E025280AD0149A139990476D1C1A
:1009F000761C28780028F5D1304615B0F0BD0024CB
:100A000000940121F34A029400E004436D1C2B780A
:100A10000846203B98401042F7D128782A280ED06B
:100A2000022128780246303A092A15D8009A0A236A
:100A30005A43303A80180C436D1C0090F1E701CF07
:100A40000090002805DA012040030443009840424A
:100A50000090022004436D1C28782E2815D1042014
:100A6000044368786D1C2A280AD101CF6D1C0290BE
:100A70000BE002990A225143303940186D1C029054
:100A80002878014630390929F3D928786C2810D004
:100A900006DC4C281AD068280ED06A2817D104E04A
:100AA000742813D07A2812D110E0012040050443A5
:100AB0000CE00121090501E0032109050C436978D7
:100AC000814203D10120000524186D1C6D1C28787B
:100AD00003906E281ED00CDC632831D004DC002883
:100AE0008AD0582811D1B2E064287BD069280CD173
:100AF00078E073282DD004DC6F2870D0702804D1E2
:100B0000A7E075286CD078286BD0149A1399904779
:100B1000761C62E06002400F022807D003280AD04A
:100B2000042838680AD006603F1D56E03868F1177F
:100B300006604160F8E738680680F5E70670F3E77D
:100B40003878694608740020487404A8039001208E
:100B500003E0386803900020C0433F1D61070FD5B4
:100B6000002101E00199491C029A0191914213DA96
:100B70008142F7DB019A0399895C0029F2D10BE0ED
:100B8000002101E00199491C01918142FADB019A9F
:100B90000399895C0029F5D101990098139A401AAC
:100BA00000902146149B00F03BF9019980194618EA
:100BB00007E0039803990078491C0391149A13994C
:100BC00090470198401E0190401CF2D12146149B91
:100BD000139A009800F014F986196D1C09E741E09A
:100BE00033E034E00A200021049005916002410FB7
:100BF000022905D001CFC2179446032905D007E08A
:100C0000FF1DFF08FF0003CF06E000B2C2179446A5
:100C1000042902D140B2C1178C4600226146944596
:100C200006DA0A460021404291418C462D2102E01D
:100C3000210504D52B216A461176012103E0E10745
:100C400001D02021F7E7019154E00A200BE01020A9
:100C500009E010200490002104200443082005919D
:100C6000029003E008200021059104906002410FEA
:100C7000022905D001CF00229446032906D006E0C0
:100C8000FF1DFF08FF0003CF8C4603E080B204295C
:100C900000D1C0B20021019121072BD50399702901
:100CA00006D0049A1021059B4A401A4305D00EE055
:100CB00040216A461176012108E06146014306D0D1
:100CC00030216A4611760399517602210191049AE6
:100CD0000821059B4A401A430CD16146014301D1CA
:100CE000610707D530216A461176012101910299E9
:100CF000491E02910399582904D037A103910FA9E5
:100D00000F910DE039A1F9E76146059B049AFFF7C1
:100D10000CFA039B8C469B5C0F9A521E0F92137029
:100D200061460143F0D10F9807A9081A20300390BB
:100D3000600704D5012000048443029801E00120EB
:100D400002900399884201DD401A00E0002041181A
:100D50000290019809180098401A0090E00306D408
:100D60002146149B139A009800F05AF88619002027
:100D7000049008E006A9085C149A13999047049817
:100D8000401C761C049001998842F3DBE0030CD5EB
:100D90002146149B139A009800F042F8861904E04B
:100DA000149A302013999047761C0299481E02909D
:100DB0000029F5DC08E00F980F990078491C0F9185
:100DC000149A13999047761C0399481E03900029A2
:100DD000F1DCFBE609280100303132333435363797
:100DE0003839616263646566000000003031323377
:100DF0003435363738394142434445460000000017
:100E0000F8B5044600251E461746880404D405E0BC
:100E100039462020B0476D1C641EF9D52846F8BD20
:100E2000FFB50446002581B01E46C80301D5302712
:100E300000E02027880404D505E038460399B04730
:100E40006D1C641EF9D5284605B0F0BD0A68531C18
:100E50000B601070704700000146074A05E0C86942
:100E6000C007C00F002800D170471046521E00284E
:100E7000F5D1401EF8E700001027000070B50546C8
:100E80000C460026F6432846FFF7E6FF0646002EEE
:100E900002DA0020C04370BDE168A068884204D92E
:100EA000A068E168A160E06000BFA169E0698142DB
:100EB00004D9A069E269A261E06100BF2079C001A4
:100EC000E17889010843A178490108436178090163
:100ED000084321780843686020890004E1680843DA
:100EE000E860207DC001E17C89010843A17C4901C3
:100EF0000843617C09010843217C0843A860208BDA
:100F00000004E169084328612820005D002802D020
:100F1000284600F010F8284600F008F8208C8005DC
:100F20008009616A084368610020B4E70168012212
:100F3000114301607047816901221143816170474B
:100F40000146C868C006C00F70474168022291433D
:100F500041607047416802221143416070478A79BD
:100F6000CB799B001A430B7ADB001A4342604A7923
:100F70000B791B011A43CB789B011A438B78DB0159
:100F80001A434B781B021A4302600A7802617047C9
:100F900000210161016041604161704701468A683A
:100FA00090B27047F7B582B004460F46F800049936
:100FB000FFF78CF80546EE09F0012D1A681C400871
:100FC000019066620648864202D10020A06202E0DB
:100FD000AD1B0198A062E06AE06205B0F0BD0000C0
:100FE000FFFF0000014688690007C00F70470146F7
:100FF0008869C006C00F7047014688698006C00F27
:10100000704770B504460D46002020636064A063FD
:1010100060606062A062E06220462A69E968FFF7CA
:10102000C1FF68784007C00FC00129784901084313
:10103000A97809010843E978C90008436978890754
:10104000490F0843E062287AE979C90008436063E0
:1010500000E026682046FFF7CAFF0128F9D1761C78
:101060000020A06328794002697909020843A97920
:101070000843206370BD000070B588B004460D467B
:101080001646FFF717F9FFF70FF9002E06D0012ECD
:101090000FD0022E18D0032E2CD120E0D02168468C
:1010A00001714121017201AA30210020FFF7CEF821
:1010B0002BE0D021684601714121017201AAC021B3
:1010C0000120FFF7C3F820E0E021684601714121CB
:1010D000017201AA03210120FFF7B8F815E0E02111
:1010E000684601714121017201AA0C210320FFF71A
:1010F000ADF80AE0D021684601714121017201AAD0
:1011000030210020FFF7A2F800BF00BF032168468E
:10111000017300214173012181730021C1730121F9
:101120000174417481740021C17402210175069417
:10113000079503A90248FFF764FF08B070BD0000DF
:101140000000014000E0401E0028FCD1704700B5BF
:1011500002467D21490151430846FFF7F3FF00BDD8
:1011600070B504460D460A2C02D10D20FFF792F807
:101170002046FFF78FF870BD1CB5C021684601708E
:101180004121017150214170402181706A46302116
:101190000120FFF75BF80121090388044162411433
:1011A0004162811441614114416101210820FFF72E
:1011B00020F81CBD70B504460D4619A0FFF7D8FBFA
:1011C00027A02168FFF7D4FB28A06168FFF7D0FBB8
:1011D00029A0A168FFF7CCFB2AA0E168FFF7C8FBB4
:1011E0002BA02169FFF7C4FB2DA06169FFF7C0FBAD
:1011F0002EA0A169FFF7BCFB2FA0E169FFF7B8FBA8
:10120000294631A0FFF7B4FB34A0FFF7B1FB002063
:101210004249086000BF414800680028FBD070BD0B
:101220000A2A2A2A2A2A2A2A2A2A54686520736125
:10123000766564207265676973746572732066727F
:101240006F6D2074686520737461636B2A2A2A2A83
:101250002A2A2A2A2A2A2A2A2A2A2A2A0A0000008C
:10126000723020697320307825780A007231206945
:101270007320307825780A00723220697320307824
:1012800025780A00723320697320307825780A00A7
:1012900072313220697320307825780A000000000E
:1012A0006C7220697320307825780A007063206999
:1012B0007320307825780A007073722069732030AB
:1012C0007825780A0000000063757272656E745F9D
:1012D0006C7220697320307825780A002A2A2A2A1D
:1012E0002A2A2A2A2A2A2A2A2A2A2A2A2A2A2A2A5E
:1012F0002A2A2A2A2A2A2A2A2A2A2A2A2A2A2A2A4E
:101300002A2A2A2A2A2A2A2A2A2A2A2A2A2A2A2A3D
:101310002A2A2A2A2A2A2A2A2A0A00001400002015
:1013200010B58CB0002108A8017302200990104864
:101330000A907D2109010891002107910121684649
:10134000017501A80175C17481740021417401A95E
:101350000848FFF793FD0446002C03DA362106A067
:10136000FFF706FBF0210C48417020460CB010BD81
:10137000B80B000000B003405B25645D2043686546
:10138000636B20434D442053746174757320627500
:101390007379200A00000000380004401CB50446A0
:1013A000D0216846017041210171502141704021D6
:1013B00081704421C170FF21013188054162416182
:1013C0006A460E210120FEF741FF204600F03AF95F
:1013D0001CBD00001FB50322E12149027C48FFF734
:1013E0004BFEFFF7F2F97BA0FFF7C2FA79A0FFF7F7
:1013F000BFFA7AA0FFF7BCFA76A0FFF7B9FA75A09A
:10140000FFF7B6FA00BF7A48FFF7ECFD0128FAD0E3
:10141000FFF786FFDAE00020FFF7BFF9FFF74AF990
:10142000FFF732F9FFF78EFA7D20C000FFF78FFE3D
:101430000120FFF76FF87D20C000FFF788FE002035
:10144000FFF768F87D20C000FFF781FE5520FFF709
:10145000A4F97D20C000FFF77AFEFFF715F90022FE
:1014600005210846FFF740F9012206210846FFF74B
:101470003BF9022207210846FFF736F9FFF762FA27
:101480007D20C000FFF763FEFFF7FEF800205949FA
:101490001B2380220091019014211E20FFF74BF89E
:1014A000FFF750FA7D20C000FFF751FE002406E050
:1014B000E0B2FFF721FA6420FFF749FE641C402CDC
:1014C000F6DB402406E0E0B2FFF716FA6420FFF7EF
:1014D0003EFE641E002CF6DA6420FFF7F0F87D2053
:1014E000C000FFF734FE1E20FFF7E9F87D20C000A2
:1014F000FFF72DFE0120FFF7B2F97D20C000FFF7B6
:1015000026FE0020FFF7ABF97D20C000FFF71FFE8D
:101510000620FFF7CCF97D20C000FFF718FE02205F
:10152000FFF7C5F97D20C000FFF711FE0020FFF78F
:10153000BEF97D20C000FFF70AFE0420FFF7B7F9CF
:101540007D20C000FFF703FE0020FFF715F97D2086
:10155000C000FFF7FCFD0120FFF70EF97D20C00061
:10156000FFF7F5FDFFF7A6F8FFF78EF80020012141
:10157000214B22A2009101901E210420FEF76DFF55
:10158000FFF7E0F97D20C000FFF7E1FDFFF77CF8F1
:10159000002412E0224620A102A8FFF7F9F900205A
:1015A00001211F4B02AA0091019019214120FEF751
:1015B00054FFFFF7C7F9601C04B21A488442E9DB04
:1015C000FFF7C0F97D20C000FFF7C1FD23E7000051
:1015D00000366E013D3D3E200A0000003D3D3E20AC
:1015E00054455354204C43443139323634200A0098
:1015F00000000140783D00001C00002055433136BA
:10160000303943204C43442048656C6C6F2031399D
:101610003833203D290000002530346400000000EC
:101620002C000020E903000070B504460D4600BF01
:101630002046FFF7E1FC0128FAD029462046FEF7B4
:1016400057FE70BD3EB505466C460A48FFF7A0FC44
:10165000002060702570A070E0702071072060711C
:101660000020A071E0710120207221460148FFF79F
:1016700076FC3EBD0080014000000000000000003C
:1016800000000000000000000020002000200020DA
:10169000002000000020000000500050005000001A
:1016A00000000000000000000050005000F8005052
:1016B00000F80050005000000020007800A00070EA
:1016C000002800F00020000000C000C8001000202A
:1016D0000040009800180000004000A000A000405A
:1016E00000A800900068000000300030002000409A
:1016F000000000000000000000100020004000403A
:1017000000400020001000000040002000100010E9
:101710000010002000400000002000A8007000F829
:10172000007000A80020000000000020002000F849
:101730000020002000000000000000000000000069
:10174000003000300020000000000000000000F821
:101750000000000000000000000000000000000089
:1017600000000030003000000000000800100020E1
:10177000004000800000000000700088009800A871
:1017800000C80088007000000020006000200020D9
:101790000020002000700000007000880008007029
:1017A0000080008000F8000000F800080010003001
:1017B0000008008800700000001000300050009009
:1017C00000F800100010000000F8008000F0000891
:1017D000000800880070000000380040008000F021
:1017E000008800880070000000F800080008001061
:1017F0000020004000800000007000880088007019
:101800000088008800700000007000880088007860
:101810000008001000E000000000000000200000B0
:101820000020000000000000000000000020000078
:1018300000200020004000000008001000200040B0
:1018400000200010000800000000000000F8000068
:1018500000F8000000000000004000200010000818
:1018600000100020004000000070008800080030D8
:1018700000200000002000000070008800A800B8D0
:1018800000B0008000780000002000500088008830
:1018900000F800880088000000F00088008800F050
:1018A0000088008800F00000007000880080008040
:1018B000008000880070000000F000880088008828
:1018C0000088008800F0000000F80080008000F030
:1018D0000080008000F8000000F80080008000F028
:1018E0000080008000800000007800880080008078
:1018F000009800880078000000880088008800F8C0
:10190000008800880088000000700020002000206F
:1019100000200020007000000038001000100010AF
:1019200000100090006000000088009000A000C03F
:1019300000A00090008800000080008000800080EF
:101940000080008000F80000008800D800A800A8EF
:1019500000A80088008800000088008800C800A84F
:1019600000980088008800000070008800880088C7
:10197000008800880070000000F00088008800F0F7
:1019800000800080008000000070008800880088CF
:1019900000A800900068000000F00088008800F0B7
:1019A00000A0009000880000007000880080007097
:1019B000000800880070000000F800A80020002047
:1019C0000020002000200000008800880088008897
:1019D0000088008800700000008800880088008867
:1019E000008800500020000000880088008800A8BF
:1019F00000A800A8005000000088008800500020C7
:101A000000500088008800000088008800500020F6
:101A1000002000200020000000F8000800100070E6
:101A20000040008000F800000078004000400040C6
:101A300000400040007800000000008000400020CE
:101A400000100008000000000078000800080008EE
:101A50000008000800780000002000500088000006
:101A60000000000000000000000000000000000076
:101A70000000000000F8000000600060002000107E
:101A800000000000000000000000000000600010E6
:101A900000700090007800000080008000B000C856
:101AA000008800C800B0000000000000007000883E
:101AB000008000880070000000080008006800989E
:101AC0000088009800680000000000000070008896
:101AD00000F8008000700000001000280020007056
:101AE000002000200020000000000000007000988E
:101AF00000980068000800000080008000B000C866
:101B0000008800880088000000200000006000209D
:101B100000200020007000000010000000100010E5
:101B2000001000900060000000800080009000A085
:101B300000C000A0009000000060002000200020F5
:101B400000200020007000000000000000D000A86D
:101B500000A800A800A800000000000000B000C815
:101B600000880088008800000000000000700088E5
:101B700000880088007000000000000000B000C86D
:101B800000C800B00080000000000000006800985D
:101B900000980068000800000000000000B000C8C5
:101BA00000800080008000000000000000780080BD
:101BB0000070000800F000000020002000F8002065
:101BC00000200028001000000000000000880088AD
:101BD000008800980068000000000000008800886D
:101BE00000880050002000000000000000880088ED
:101BF00000A800A80050000000000000008800506D
:101C000000200050008800000000000000880088CC
:101C100000780008007000000000000000F80010CC
:101C20000020004000F800000010002000200040CC
:101C300000200020001000000020002000200000F4
:101C400000200020002000000040002000200010A4
:101C50000020002000400000004000A8001000000C
:101C60000000000000000000000000000000000074
:101C70000000000000000000000000000000000064
:101C80000000000000000000000000000000000054
:101C90000000000000000000000000000000000C38
:101CA000000C000C000C000C000C000C000C000CD4
:101CB000000C000C0000000C000C000000000000F4
:101CC0000000001B001B001B001B001B000000008D
:101CD0000000000000000000000000000000000004
:101CE0000000000000008019801980198019C07F51
:101CF000C07F80190033C07FC07F003300330033C2
:101D000000330000000000000000001E003F80754E
:101D100080650074003C001E0007800580658065BA
:101D20008075003F001E00040004000000000070E9
:101D300000D840D8C0D880D900730006000C801BA2
:101D4000C036C066C046C006800300000000000028
:101D50000000001E003F003300330033001E000C63
:101D6000C03CC066806380618063C03E801C000010
:101D7000000000000000000C000C000C000C000C27
:101D80000000000000000000000000000000000053
:101D900000000000000000008000000100030006B9
:101DA00000060004000C000C000C000C000C000CE1
:101DB000000400060006000300018000002000105F
:101DC0000018000C000C00040006000600060006C7
:101DD000000600060004000C000C00180010002093
:101DE0000000000C002D003F001E0033000000002A
:101DF00000000000000000000000000000000000E3
:101E000000000000000000000000000C000C000CAE
:101E1000000CC0FFC0FF000C000C000C000C000008
:101E200000000000000000000000000000000000B2
:101E300000000000000000000000000000000000A2
:101E40000000000C000C000400040008000000006A
:101E50000000000000000000000000000000001E64
:101E6000001E000000000000000000000000000054
:101E70000000000000000000000000000000000062
:101E800000000000000000000000000C000C00003A
:101E9000000000000000000300030003000600062D
:101EA00000060006000C000C000C000C00180018C6
:101EB00000180000000000000000001E003F00337A
:101EC000806180618061806D806D806180618061F2
:101ED0000033003F001E000000000000000000066C
:101EE000000E001E00360026000600060006000652
:101EF00000060006000600060006000000000000C4
:101F00000000001E003F807380618061800100033B
:101F10000006000C001800300060807F807F000009
:101F2000000000000000001C003E0063006300038E
:101F3000000E000E00038001800180618073003F6D
:101F4000001E00000000000000000006000E000E51
:101F5000001E001E0016003600360066807F807F5F
:101F60000006000600060000000000000000007FE0
:101F7000007F006000600060006E007F8063800171
:101F8000800180618073003F001E0000000000009F
:101F90000000001E003F803380610060006E007F03
:101FA00080738061806180618033003F001E00008B
:101FB000000000000000807F807F8001000300039C
:101FC00000060006000C000C000C000800180018A9
:101FD00000180000000000000000001E003F8063A9
:101FE000806180610021001E003F8061806180610E
:101FF0008061003F001E0000000000000000001E85
:10200000003F00738061806180618073803F801D2C
:10201000800180610073003F001E0000000000008E
:1020200000000000000000000000000C000C000098
:1020300000000000000000000000000C000C000088
:102040000000000000000000000000000000000090
:10205000000C000C00000000000000000000000C5C
:10206000000C000400040008000000000000000054
:1020700080008003000E003800600038000E8003EE
:1020800080000000000000000000000000000000D0
:10209000000000000000807F807F00000000807F43
:1020A000807F000000000000000000000000000031
:1020B000000000000000000000400070001C00074D
:1020C00080010007001C00700040000000000000BC
:1020D000000000000000001F803FC071C060C00011
:1020E000C00180030007000E000C000C0000000C73
:1020F000000C0000000000000000001E003F8031C6
:1021000080718063806F806D806D806F80670060FC
:102110000032003E001C0000000000000000000E25
:10212000000E001B001B001B001B80318031803F14
:10213000803F8031C060C060C060000000000000CF
:102140000000007C007E0063006300630063007E8B
:10215000007E0063806180618063007F007E0000FC
:10216000000000000000001E003F80318061006020
:102170000060006000600060006080618031003FAE
:10218000001E0000000000000000007C007F0063D3
:1021900080638061806180618061806180610063B3
:1021A0000063007E007C0000000000000000807FD3
:1021B000807F0060006000600060007F007F006042
:1021C000006000600060807F807F000000000000F1
:1021D0000000807F807F0060006000600060007F02
:1021E000007F006000600060006000600060000030
:1021F000000000000000001E003F80318061006090
:102200000060006080638063806180618031803F16
:10221000001E0000000000000000806180618061FD
:10222000806180618061807F807F8061806180616A
:102230008061806180610000000000000000003FBC
:10224000003F000C000C000C000C000C000C000CFB
:10225000000C000C000C003F003F000000000000DC
:1022600000008001800180018001800180018001E7
:1022700080018001806180618073003F001E00004A
:10228000000000000000C06080610063006600661E
:10229000006C0078007C00660066006380618061ED
:1022A000C0600000000000000000006000600060EE
:1022B000006000600060006000600060006000601E
:1022C0000060807F807F0000000000000000C0717F
:1022D000C071C07BC07AC06AC06AC06EC064C06092
:1022E000C060C060C060C060C0600000000000004E
:1022F000000080718071807980798079806D806D37
:10230000806D806580678067806780638063000080
:10231000000000000000001E003F0033806180616B
:102320008061806180618061806180610033003FF5
:10233000001E0000000000000000007E007F80639F
:102340008061806180618063007F007E006000604A
:102350000060006000600000000000000000001E3F
:10236000003F0033806180618061806180618061B5
:10237000806580670033803F401E00000000000041
:102380000000007E007F8063806180618063007F49
:10239000007E00660063006380618061C0600000B1
:1023A000000000000000000E001F8031803100306E
:1023B0000038001E00078003806180618031003F8B
:1023C000001E0000000000000000C0FFC0FF000C65
:1023D000000C000C000C000C000C000C000C000C9D
:1023E000000C000C000C00000000000000008061E8
:1023F00080618061806180618061806180618061D5
:10240000806180618073003F001E000000000000BA
:102410000000C060C060C060803180318031001B2E
:10242000001B001B001B000E000E000E000400002D
:10243000000000000000C0C0C0C0C0C0C0C0C0C01C
:10244000C0CC804C804C805E805280528073806112
:1024500080610000000000000000C0C0806080615A
:102460000033003B001E000C000C001E001F003B50
:1024700080718061C0C00000000000000000C0C08A
:102480008061806100330033001E001E000C000CD0
:10249000000C000C000C000C000C00000000000000
:1024A0000000803F803F8001000300030006000C15
:1024B000000C0018001800300060807F807F000052
:1024C00000000000000F000F000C000C000C000CBE
:1024D000000C000C000C000C000C000C000C000C9C
:1024E000000C000C000F000F00000018001800186E
:1024F000000C000C000C000C000600060006000694
:10250000000300030003000000000000001E001E86
:10251000000600060006000600060006000600068B
:10252000000600060006000600060006001E001E4B
:102530000000000C000C001E00120033003380610C
:1025400080610000000000000000000000000000AA
:10255000000000000000000000000000000000007B
:10256000000000000000000000000000000000006B
:1025700000000000E0FF0000000000380018000C20
:10258000000000000000000000000000000000004B
:10259000000000000000000000000000000000003B
:1025A000000000000000001F803F80618001801F4C
:1025B000803F80618063807FC038000000000000A1
:1025C00000000060006000600060006E007F8073AB
:1025D00080618061806180618073007F006E000097
:1025E0000000000000000000000000000000001ECD
:1025F000003F807380610060006080618073003FF5
:10260000001E000000000000000080018001800129
:102610008001801D803F8073806180618061806166
:102620008073803F801D000000000000000000005B
:10263000000000000000001E003F00738061807FEA
:10264000807F00608071003F001E000000000000DD
:102650000000C007C00F000C000C807F807F000CC2
:10266000000C000C000C000C000C000C000C000016
:10267000000000000000000000000000801D803FFE
:10268000807380618061806180618073803F801D84
:1026900080018063007F003E0000006000600060F9
:1026A0000060006F807F80718061806180618061E7
:1026B0008061806180610000000000000000000671
:1026C000000600000000003E003E00060006000676
:1026D00000060006000600060006000000000000DC
:1026E0000006000600000000003E003E0006000656
:1026F000000600060006000600060006000600466A
:10270000007E003C000000600060006000608061AE
:1027100000630066006C007C0076006300638061EB
:10272000C0600000000000000000003E003E000607
:102730000006000600060006000600060006000669
:102740000006000600060000000000000000000077
:1027500000000000000080DDC0FFC0CEC0CCC0CCB7
:10276000C0CCC0CCC0CCC0CCC0CC000000000000AD
:1027700000000000000000000000006F807F8071FA
:102780008061806180618061806180618061000022
:102790000000000000000000000000000000001E1B
:1027A000003F807380618061806180618073003F41
:1027B000001E0000000000000000000000000000FB
:1027C000006E007F807380618061806180618073B2
:1027D000007F006E0060006000600060000000008C
:1027E00000000000801D803F8073806180618061F7
:1027F00080618073803F801D8001800180018001A5
:10280000000000000000000000000067803F003969
:102810000030003000300030003000300030000068
:102820000000000000000000000000000000001E8A
:10283000803F80610060007F803F80018061007F79
:10284000001E00000000000000000000000800184A
:102850000018007F007F00180018001800180018EA
:102860000018801F800F0000000000000000000022
:1028700000000000000080618061806180618061F3
:10288000806180618063807F803D000000000000E7
:1028900000000000000000000000C06080318031B6
:1028A0008031001B001B001B000E000E0006000004
:1028B000000000000000000000000000000080DDBB
:1028C00080DD80DD0055005500550077007700223F
:1028D00000220000000000000000000000000000D6
:1028E0000000806100330033001E000C000C001E4D
:1028F0000033003380610000000000000000000091
:102900000000000080618061803100330033001BD3
:10291000001B001B000E000E000E001C007C00704F
:1029200000000000000000000000C07FC07F8001A8
:1029300000030006000C00180030C07FC07F0000BC
:102940000000000080038007000600060006000665
:102950000006000E001C001C000E0006000600060B
:102960000006000680078003000600060006000639
:102970000006000600060006000600060006000627
:102980000006000600060006000600060038003CAF
:10299000000C000C000C000C000C000E00070007DF
:1029A000000E000C000C000C000C000C003C003869
:1029B000000000000000000000000000000080385F
:1029C000807F0047000000000000000000000000C1
:1029D00000000000000000000000000000000000F7
:1029E00000000000000000000000000000000000E7
:1029F00000000000000000000000000000000000D7
:102A000000000000000000000000000000000000C6
:102A100000000000000000000000000000000000B6
:102A2000000000000000000000000000E003E003E0
:102A3000E003E003E003E003E003E003C003C003BE
:102A4000C001C001C001C001C001000000000000C1
:102A5000E003E003E00300000000000000000000CD
:102A60003C1E3C1E3C1E3C1E3C1E3C1E3C1E0000F0
:102A70000000000000000000000000000000000056
:102A80000000000000000000000000000000000046
:102A900000000000CE01CE03DE039E039C039C07D2
:102AA000FF3FFF7F3807380F780F780F780EFFFF52
:102AB000FFFFF01EF01CE01CE03CE03DE0390000B0
:102AC0000000000000000000FC03FE0FEE1FE01EEF
:102AD000E01EE01EE01EE01FE00FE007F003FC0137
:102AE000FE01FE01FE01FE01FE01FE01FE3DFC3F76
:102AF000F00FE001E001000000000000033E07F7D6
:102B00008FE78EE79EE3BCE3B8E7F8E7F0F7E03F36
:102B1000C001FF03FF07F307F30FF31EF33CF33885
:102B2000F3787FF03FE000000000000000000000AC
:102B3000E007F80F780F781F781F781F780FF00FD5
:102B4000E00F801FC37FC3FBE7F3F7F1F7F0FFF05F
:102B50007FF03EF87F7CFF3FEF1F00000000000089
:102B600000000000E003E003E003E003E003C00333
:102B7000C001000000000000000000000000000094
:102B80000000000000000000000000000000000045
:102B900000000000000000003F007C00F001E001A8
:102BA000C003C00780078007800F000F000F000FD1
:102BB000000F000F000F800F80078007C007C003C1
:102BC000E001F0017C003F000F000000007E001FCC
:102BD000C007C003E001F001F000F000F800780049
:102BE00078007800780078007800F800F000F000B5
:102BF000F001E001C003C007001F007E0078000064
:102C0000E003C003C001CE39FF3F7F3F20037003C4
:102C1000F807780F3C1F3806000000000000000095
:102C200000000000000000000000000000000000A4
:102C30000000000000000000000000000000000094
:102C4000C001C001C001C001C001C001C001FFFF3F
:102C5000FFFFC001C001C001C001C001C0010000F0
:102C60000000000000000000000000000000000064
:102C70000000000000000000000000000000000054
:102C800000000000000000000000E003E003E0039B
:102C9000E003E001E001E001C0018003000000006A
:102CA0000000000000000000000000000000000024
:102CB0000000FE3FFE3F000000000000000000009A
:102CC0000000000000000000000000000000000004
:102CD00000000000000000000000000000000000F4
:102CE00000000000000000000000000000000000E4
:102CF0000000E003E003E003E00300000000000048
:102D0000000000000F000F001E001E003C003C00F1
:102D100078007800F000F000E001E001C003C0039B
:102D200080078007000F000F001E001E003C003CC3
:102D30000078007800F00000F007F80F7C1F3E3E9E
:102D40001E3C1F7C1F7C0F780F780F780F780F7850
:102D50000F780F781F7C1F7C1E3C3E3E7C1FF80FB7
:102D6000F00700000000000000000000F000F00785
:102D7000F03FF03FF001F001F001F001F001F0014F
:102D8000F001F001F001F001F001F001F001F001BB
:102D9000F001FF3FFF3F00000000000000000000C6
:102DA000E00FF83F7C3C3C003E003E003E003C0013
:102DB0003C007C00F800F001E003C0078007000F32
:102DC000001E003E003CFE3FFE3F000000000000F1
:102DD00000000000F00FF81F7C1C3E003E003E008B
:102DE0003C003C00F800F00FF80F7C003E001E0095
:102DF0001E001E001E003E007C1CF81FE01F00008D
:102E000000000000000000007800F800F800F80161
:102E1000F803F807F807780F781E781E783C787862
:102E20007878FFFFFFFF780078007800780078005E
:102E3000780000000000000000000000FC1FFC1FE4
:102E4000FC1F001E001E001E001E001EE01FF81FBB
:102E5000FC007C003E003E001E003E003E003C00A8
:102E60007C1CF81FE01F00000000000000000000B4
:102E7000FC01FE078E0F001F001E003E003C003CC0
:102E8000F83DFC3F3E7F1F7E0F3C0F3C0F3C0F3C4C
:102E90000F3E1F1E3E1FFC0FF0030000000000004D
:102EA00000000000FF3FFF3FFF3F0F001E001E001D
:102EB0003C0038007800F000F000E001E001C003C1
:102EC000C0038007800F800F000F001F001F00004D
:102ED0000000000000000000F807FC0F3E1F1E1E4F
:102EE0001E3E1E3E1E1E3C1FF80FF007F80FFC1E74
:102EF0003E3E1F3C1F7C0F7C0F7C1F3C3E3FFC1F57
:102F0000F00700000000000000000000F007F80FCC
:102F10007C1E3E3C1E3C1F7C1F7C1F7C1F7C1F3C7C
:102F20003F3EFF1FEF071F001E001E003E003C003B
:102F3000F838F03FE01F0000000000000000000033
:102F4000000000000000000000000000E003E003BB
:102F5000E003E003000000000000000000000000AB
:102F60000000E003E003E003E003000000000000D5
:102F70000000000000000000000000000000000051
:102F8000E003E003E003E0030000000000000000B5
:102F9000000000000000E003E003E003E003E001C4
:102FA000E001E001C0038003000000000000000019
:102FB0000000000003000F003F00FC00F003C00F02
:102FC000003F00FE003FC00FF003FC003F000F0079
:102FD00003000000000000000000000000000000EE
:102FE00000000000000000000000000000000000E1
:102FF000FFFFFFFF000000000000FFFFFFFF0000D9
:1030000000000000000000000000000000000000C0
:1030100000000000000000000000000000E000F8D8
:10302000007E801FE007F8017E001F007E00F8018F
:10303000E007801F007E00F800E0000000000000B4
:1030400000000000F01FFC3F3E381F381F381E00F4
:103050001E003C007800F000E001C003C003C00780
:10306000C007000000000000C007C007C007000044
:103070000000000000000000F803FE0F1E1F0F3EBE
:103080007F3CFF78EF79C773C7F38FF38FF38FF32C
:103090009FF39FF3FF73FF7BF779003C1C1FFC0F2E
:1030A000F803000000000000000000000000000025
:1030B0000000E003E003F007F007F007780F780F57
:1030C0007C0E3C1E3C1E3E3CFE3FFF3F1F780F78AF
:1030D0000FF007F007F00000000000000000000003
:1030E000000000000000F83FFC3F3E3C1E3C1E3C40
:1030F0001E3C3E3C7C3CF03FF83F7E3C1F3C1F3C6E
:103100000F3C0F3C1F3CFE3FF83F0000000000005A
:1031100000000000000000000000FF01FF07871F03
:10312000003E003C007C0078007800780078007851
:10313000007C007C003E003F831FFF07FF01000072
:103140000000000000000000000000000000F07F10
:10315000FC7F7E781F781F780F780F780F780F78B4
:103160000F780F780F780F781F781E787E78F87FA9
:10317000E07F0000000000000000000000000000F0
:103180000000FF3FFF3F003E003E003E003E003E8D
:10319000003EFE3FFE3F003E003E003E003E003E41
:1031A000003EFF3FFF3F0000000000000000000065
:1031B000000000000000FF1FFF1F001E001E001E79
:1031C000001E001E001EFF1FFF1F001E001E001E0F
:1031D000001E001E001E001E001E00000000000059
:1031E00000000000000000000000FE03FF0F871F2A
:1031F000003E007C007C007800F800F87FF87FF843
:103200000F780F7C0F7C0F3E8F1FFF0FFE03000017
:1032100000000000000000000000000000001F7C13
:103220001F7C1F7C1F7C1F7C1F7C1F7C1F7CFF7FE3
:10323000FF7F1F7C1F7C1F7C1F7C1F7C1F7C1F7CD3
:103240001F7C0000000000000000000000000000E3
:103250000000FF3FFF3FE003E003E003E003E00383
:10326000E003E003E003E003E003E003E003E00346
:10327000E003FF3FFF3F00000000000000000000EF
:10328000000000000000FC1FFC1F7C007C007C0094
:103290007C007C007C007C007C007C007C007C004E
:1032A00078007800F838F03FC03F000000000000D0
:1032B000000000000000000000001F3C1E3C3C3CE1
:1032C000783CF03CE03DE03FC03F803FC03FE03F06
:1032D000F03DF03C783C7C3C3E3C1F3C0F3C000009
:1032E0000000000000000000000000000000003EA0
:1032F000003E003E003E003E003E003E003E003EDE
:10330000003E003E003E003E003E003E003EFF3FCD
:10331000FF3F00000000000000000000000000006F
:1033200000001FF81FFC1FFC3FFE3FFE3FFE7FFF1B
:1033300077FF77FFF7F7E7F7E7F3E7F3C7F307F070
:1033400007F007F007F00000000000000000000098
:103350000000000000000F7C0F7C0F7E0F7F0F7FAE
:103360008F7F8F7FCF7FEF7BEF79FF79FF78FF78BB
:103370007F783F783F781F781F78000000000000BA
:1033800000000000000000000000F007FC1F3E3EAF
:103390001F7C0F780F780FF80FF80FF80FF80FF861
:1033A0000FF80F780F781F7C3E3EFC1FF0070000DF
:1033B0000000000000000000000000000000FC3FD2
:1033C000FF3F1F3E0F3E0F3E0F3E0F3E1F3E3F3E54
:1033D000FC3FF03F003E003E003E003E003E003E0F
:1033E000003E00000000000000000000000000009F
:1033F0000000F007FC1F3E3E1F7C0F780F780FF88F
:103400000FF80FF80FF80FF80FF80F780F781F7CF0
:103410003E3EFC1FF8077C003F000F000300000049
:10342000000000000000F03FFC3F7E3C3E3C1E3CA4
:103430001E3C3E3C3C3CFC3CF03FE03FF03DF83C59
:103440007C3C3E3C1E3C1F3C0F3C0000000000004A
:1034500000000000000000000000FC07FE1F0E3E00
:10346000003C003C003C003EC01FF80FFE037F0004
:103470001F000F000F001F203E3CFC3FF01F00000C
:103480000000000000000000000000000000FFFF3E
:10349000FFFFE003E003E003E003E003E003E003F9
:1034A000E003E003E003E003E003E003E003E00304
:1034B000E003000000000000000000000000000029
:1034C00000000F7C0F7C0F7C0F7C0F7C0F7C0F7C2F
:1034D0000F7C0F7C0F7C0F7C0F7C0F7C1E3C1E3CF6
:1034E0003E3EFC1FF007000000000000000000004E
:1034F00000000000000007F007F007F80F780F7CCD
:103500001E3C1E3C1E3E3C1E3C1F781F780FF80FD1
:10351000F007F007F007E003E00300000000000000
:103520000000000000000000000003E003F003F0D2
:1035300007F0E7F3E7F3E7F3E773F77BF77FFF7F46
:103540007F7F7F7F7E7F7E3F3E3E3E3E3E3E000051
:10355000000000000000000000000000000007F86C
:103560000F7C1E3E3E3E3C1FF80FF007E007E003D5
:10357000E003F007F80F7C0F7C1E3E3C1F780F78AD
:103580000FF000000000000000000000000000003C
:10359000000007F807780F7C1E3C1E3E3C1F780F8A
:1035A000F80FF007E003E003E003E003E003E003CB
:1035B000E003E003E0030000000000000000000062
:1035C000000000000000FF7FFF7F0F001F003E0093
:1035D0007C00F800F000E001E003C007800F000F5E
:1035E000001E003E007CFF7FFF7F00000000000007
:1035F00000000000FF078007800780078007800722
:103600008007800780078007800780078007800782
:103610008007800780078007800780078007800772
:103620008007FF07FF07000000780078003C003C9F
:10363000001E001E000F000F80078007C003C0039C
:10364000E001E001F000F000780078003C003C0070
:103650001E001E000F000F0007000000F07FF000AA
:10366000F000F000F000F000F000F000F000F000DA
:10367000F000F000F000F000F000F000F000F000CA
:10368000F000F000F000F000F000F07FF07F0000AC
:10369000C000C001C001E003E003F007F0077807B5
:1036A000780F380F3C1E3C1E1E3C1E3C0F380F7816
:1036B000077800000000000000000000000000008B
:1036C00000000000000000000000000000000000FA
:1036D00000000000000000000000000000000000EA
:1036E0000000000000000000000000000000FFFFDC
:1036F000FFFF000000000000F000000000000000DC
:1037000000000000000000000000000000000000B9
:1037100000000000000000000000000000000000A9
:103720000000000000000000000000000000000099
:103730000000000000000000F80FFC3F7C3C3E0051
:103740003E003E00FE07FE1F3E3E3E7C3E783E7C35
:103750007E7CFF3FCF1F0000000000000000000043
:10376000003C003C003C003C003C003CF83DFE3F7F
:103770003E3F1F3E0F3C0F3C0F3C0F3C0F3C0F3CAD
:103780001F3C1E3C3E3FFC3FF03B000000000000A1
:103790000000000000000000000000000000000029
:1037A000FE03FF0F871F003E003E003C007C007CB4
:1037B000007C003C003E003E871FFF0FFE03000020
:1037C00000000000000000001F001F001F001F007D
:1037D0001F001F00FF07FF1F3F3E1F3C1F7C1F7C79
:1037E0001F7C1F781F781F7C1F7C3F3C7F3EFF1F84
:1037F000DF0F0000000000000000000000000000DB
:103800000000000000000000F803FC0F3E1F1E3EF9
:103810001F3C1F7CFF7FFF7F007C007C003C003E44
:10382000071FFF0FFE030000000000000000000063
:10383000FF01E103C003C007C007C007FF7FFF7F90
:10384000C007C007C007C007C007C007C007C00740
:10385000C007C007C007C007C00700000000000085
:103860000000000000000000000000000000000058
:10387000EF07FF1F7F3E1F3C1F7C1F7C1F781F78B8
:103880001F781F7C1F7C3F3C7F3EFF1FDF0F1E0009
:103890001E001E007C38F83F003C003C003C003C11
:1038A000003C003CFC3DFE3F9E3F1F3F1F3E1F3C37
:1038B0001F3C1F3C1F3C1F3C1F3C1F3C1F3C1F3C30
:1038C0001F3C00000000000000000000F001F001BB
:1038D0000000000000000000E07FE07FE001E00168
:1038E000E001E001E001E001E001E001E001E001D0
:1038F000E001E001E0010000000000000000000025
:10390000F800F8000000000000000000F83FF83F59
:10391000F800F800F800F800F800F800F800F800E7
:10392000F800F800F800F800F800F800F800F000DF
:10393000F071E07F003C003C003C003C003C003C5F
:103940001F3C3E3C7C3CF83CF03DE03DC03FC03F6E
:10395000E03FF03DF83C7C3C3E3C1F3C1F3C0000FF
:103960000000000000000000F07FF001F001F00115
:10397000F001F001F001F001F001F001F001F001BF
:10398000F001F001F001F001F001F001F001F001AF
:10399000F001000000000000000000000000000036
:1039A00000000000000000009EF7FFFFFFFFFFFF88
:1039B000E7FBE7F9C7F1C7F1C7F1C7F1C7F1C7F1F5
:1039C000C7F1C7F1C7F100000000000000000000CF
:1039D000000000000000000000000000FC3DFE3F71
:1039E0009E3F1F3F1F3E1F3C1F3C1F3C1F3C1F3C78
:1039F0001F3C1F3C1F3C1F3C1F3C00000000000000
:103A000000000000000000000000000000000000B6
:103A1000F007FC1F3E3E1F3C1F7C0F780F780F788D
:103A20000F780F781F7C1F3C3E3EFC1FF007000004
:103A30000000000000000000000000000000000086
:103A400000000000F83DFE3F3E3F1F3E0F3C0F3C94
:103A50000F3C0F3C0F3C0F3C1F3C1E3E3E3FFC3FCB
:103A6000F83F003C003C003C003C003C00000000F3
:103A70000000000000000000EE07FE1F7E3E1E3C1E
:103A80001E7C1E781E781E781E781E781E7C3E7C5A
:103A90007E3EFE1FDE0F1E001E001E001E001E00CA
:103AA0000000000000000000000000007F1FFF1F5A
:103AB000E71FC71F871F001F001F001F001F001FD9
:103AC000001F001F001F001F001F0000000000005B
:103AD00000000000000000000000000000000000E6
:103AE000FC07FE1F0E1E003E003E003FE01FFC07CD
:103AF000FE003E001E001E003E3CFC3FF01F00008A
:103B0000000000000000000000000000000080072E
:103B100080078007FF7FFF7F80078007800780077F
:103B2000800780078007800780078007C007FF03A2
:103B3000FF01000000000000000000000000000085
:103B400000000000000000001E3C1E3C1E3C1E3C0D
:103B50001E3C1E3C1E3C1E3C1E3C1E3C3E3C7E3C15
:103B6000FE3EFE1FDE0F000000000000000000000F
:103B700000000000000000000000000007F00F78C7
:103B80000F781E3C1E3C1E3E3C1E3C1E780F780FDC
:103B9000F00FF007F007E003E00300000000000072
:103BA0000000000000000000000000000000000015
:103BB00003F0E3F1E3F3E7F3F7F3F7F3F77F777F4E
:103BC0007F7F7F7F7F7F3E3E3E3E3E3E3E3E00000B
:103BD00000000000000000000000000000000000E5
:103BE000000000000F7C1E3E3C3E3C1FF80FF0071B
:103BF000F007E003F007F807F80F7C1E3E3E1F3C7D
:103C00001F7800000000000000000000000000001D
:103C1000000000000000000007F80F780F7C1E3C39
:103C20001E3C3C1E3C1E3C1F780FF80FF007F007AF
:103C3000E003E003C003C003C0038007800F007FE0
:103C4000000000000000000000000000FF3FFF3FF8
:103C50001F003E007C00F800F001E003C007800F69
:103C6000001F001E003CFF7FFF7F000000000000DF
:103C700000000000FE01E003C003C003C003C00356
:103C8000E001E001E001C001C003803F803FC003CC
:103C9000C001E001E001E001C003C003C003C003B4
:103CA000E003FE017E000000C001C001C001C001B0
:103CB000C001C001C001C001C001C001C001C001FC
:103CC000C001C001C001C001C001C001C001C001EC
:103CD000C001C001C001C001C0010000C03FE0033D
:103CE000E001E001E001E001C001C003C003C00148
:103CF000E001FE00FE00E001C001C003C003C001FE
:103D0000E001E001E001E001E003C03F003F00000E
:103D100000000000000000000000000000000000A3
:103D2000000000000000073FC77FE773FFF17EF04F
:103D30000000000000000000000000000000000083
:103D40000000000000000000000000000000000073
:103D50000000000000000000000000000000000063
:103D60000000000000000000000000000000000053
:103D700000000000000000000249240000000000D4
:103D800000000000000000000249240000000000C4
:103D900000000000000000000249240000000000B4
:103DA00000000000000000000FFFFF000000000006
:103DB00000000000000000001FFFFF80007C003EAC
:103DC00078000000000000005C1993E003FFF87E1B
:103DD000FC00000000000000FC1113E00FFFF83CA5
:103DE000E0000000000000001C1113003FFFFC3D3C
:103DF000C000000000000000FDE213E07F81FC3FF6
:103E0000C000000000000600FD0413E07F00FC3F3E
:103E1000C00000060000C6001D38E300FF00781F48
:103E2000E079B9FFBC5DF32EFF2903E0FF00003FFE
:103E3000F0DFFBAE6DFCE77EFC6A73E1FE00003C48
:103E4000F8DD99CE0CCCC7761C325301FF00003E42
:103E50007CCD98EE6CCCC776FC0473E1FF07FF7E47
:103E60007EF9DBEFFEEEF777FFF823E1FF0FFFBEF1
:103E70001E7199C734CC67771C032300FF0FFF0026
:103E80000000000000000000FC05A3E0FF81FC0032
:103E9000F70001E0E00000007C7C93E07FC1FC0CB7
:103EA00070021CEC032000001FC313007FF3F83ED8
:103EB000777F36ECE7600000FC0013E03FFFF87707
:103EC000733338F867C000005DFFD3A00FFFE077C1
:103ED00073331EFC63C000001FFFFF8007FFC03E5E
:103EE00077BBAEEFF18000000FFFFF00007E0018EF
:103EF000733338C0658000000249240000000000D0
:103F0000000000000700000002492400000000003B
:103F10000000000000000000024924000000000032
:103F20000000000000000000483F000000000020EA
:103F30003C000000B8090000843F00003C00002065
:103F4000040E0000C809000000366E0100000000E9
:103F50000000000000000000000000000000000061
:103F6000C040000006080000781600000B12000098
:103F7000781C0000101A0000F82900000000000062
:043F8000000000003D
:04000005000000B542
:00000001FF
