:020000040000FA
:1000000020080020B5000000BD000000990000009D
:1000100000000000000000000000000000000000E0
:10002000000000000000000000000000C10000000F
:100030000000000000000000C300000039020000C2
:10004000C7000000C7000000C7000000C700000094
:10005000C7000000C7000000C7000000C700000084
:10006000C7000000C7000000C7000000C700000074
:10007000C7000000C7000000C7000000C700000064
:10008000C70000000348854600F076F800480047A6
:10009000C50800002008002004207146084202D054
:1000A000EFF3098001E0EFF308807146004A104742
:1000B0005907000000F0C8F803480047FEE7FEE7D4
:1000C000FEE7FEE7FEE7FEE78500000030B50B46E1
:1000D000014600202022012409E00D46D5409D4222
:1000E00005D31D469540491B2546954040191546A8
:1000F000521E002DF1DC30BDF0B51FB406460020C5
:1001000082B005464024019100901BE001992246EF
:100110000F46304600F042F8049A059B801A994138
:1001200010D310461946224600F016F8361A8F41B1
:100130000197224601200021009F00F00DF8381899
:100140004D4100902046641E0028DFDC019B009892
:100150002946324607B0F0BD10B5202A04DB01461F
:10016000203A9140002010BD914020239C1A034664
:10017000E3401943904010BD064C0125064E05E0B2
:10018000E36807CC2B430C3C98471034B442F7D3B8
:10019000FFF77CFF6C0C00008C0C000010B5202ACF
:1001A00004DB0846203AD040002110BD0B46D34066
:1001B000D0402024A21A91400843194610BD0000E7
:1001C00070B50346002000BF19E00C46C440E407A8
:1001D000E40F002C12D01479D5782C4395782C4359
:1001E00055782C435D01074EAD198600AC55147847
:1001F0005D01044EAD198600AD196C70401C0828D5
:10020000E3D370BD0000044010B50446E1B20248DB
:1002100000F08EFB204610BD000001400121014886
:10022000816770470000064001214902014881674B
:10023000704700000000064002480068401C014969
:100240000860704710000020FF202E30024908622D
:1002500002480349086070478000064000366E017E
:1002600000000020016070470FB410B503A9044BD3
:10027000044A029800F018F810BC08BC04B01847F3
:10028000410700001800002002E008C8121F08C142
:10029000002AFAD170477047002001E001C1121F07
:1002A000002AFBD170470000FFB58FB00F4604460F
:1002B000002606E025280AD0129A11999047641C5E
:1002C000761C20780028F5D1304613B0F0BD00250B
:1002D0000121A14A009500E00543641C23780846EB
:1002E000203B98401042F7D120782E2815D10420C9
:1002F00005436078641C2A280AD101CF641C009051
:100300000BE000990A22514330394018641C0090D8
:100310002078014630390929F3D920786C280ED08D
:1003200004DC4C2813D06A2812D104E074280ED0C3
:100330007A280DD10BE001204005054307E001219B
:10034000090562780D43824201D16D18641C641C5A
:100350002078864669284AD008DC0028B4D058287E
:100360006DD0632810D0642808D140E070286BD08D
:10037000732812D0752860D0782860D0129A704601
:1003800011999047761CE5E038786946087200209C
:10039000487202A80190012003E038680190002013
:1003A000C0433F1D69070CD5002500E06D1C009976
:1003B0008D420FDA8542F9DB0199495D0029F5D1BB
:1003C00008E0002500E06D1C8542FCDB0199495DD9
:1003D0000029F8D1761907E0019801990078491CA5
:1003E0000191129A119990476D1EF5D2B2E00A2040
:1003F000029000216802400F039102280CD001CF27
:10040000C117844600290DDA62460846524200218F
:10041000814194462D2008E0FF1DFF08FF0003CF17
:100420008446EFE7280504D52B206A461074012086
:100430003CE0E8073AD02020F7E70A2000E010204F
:1004400000210391029007E0102002900021042077
:1004500005430820039100906802400F022810D045
:1004600001CF0021844600200D9028071FD570463B
:1004700070280CD0029A1020039B42401A430CD0E3
:1004800015E0FF1DFF08FF0003CF8446EBE7402087
:100490006A46107401200D900CE06046084306D0B7
:1004A00030206A4610747046507402200D907046D9
:1004B000582804D029A001900DA80E900DE02CA082
:1004C000F9E76046039B029AFFF716FE019B8446FC
:1004D0009B5C0E9A521E0E92137060460843F0D138
:1004E0000E9805A9081A20300190680701D50098D8
:1004F00001E0012000900199884203DD0146019846
:10050000081A00E000200025009006E004A8129AD6
:10051000405D119990476D1C761C0D988542F5DB66
:1005200004E0129A302011999047761C0099481ED9
:1005300000900029F5DC08E00E980E990078491C1F
:100540000E91129A11999047761C0199481E0190BC
:100550000029F1DC641CB4E6092801003031323393
:1005600034353637383961626364656600000000EF
:1005700030313233343536373839414243444546D9
:1005800000000000F7B582B004460F46F800049959
:10059000FFF79CFD0546EE09F0012D1A681C400886
:1005A000019066620648864202D10020A06202E005
:1005B000AD1B0198A062E06AE06205B0F0BD0000EA
:1005C000FFFF0000014688690007C00F7047014621
:1005D0008869C006C00F7047014688698006C00F51
:1005E000704770B504460D46002020636064A06328
:1005F00060606062A062E06220462A69E968FFF7F5
:10060000C1FF68784007C00FC0012978490108433D
:10061000A97809010843E978C9000843697889077E
:10062000490F0843E062287AE979C900084360630A
:1006300000E026682046FFF7CAFF0128F9D1761CA2
:100640000020A06328794002697909020843A9794A
:100650000843206370BD000070B588B004460D46A5
:100660001646FFF7E1FDFFF7D9FD002E06D0012E5B
:100670000FD0022E18D0032E2CD120E0D0216846B6
:1006800001714121017201AA30210020FFF798FD7C
:100690002BE0D021684601714121017201AAC021DD
:1006A0000120FFF78DFD20E0E02168460171412126
:1006B000017201AA03210120FFF782FD15E0E0216C
:1006C000684601714121017201AA0C210320FFF744
:1006D00077FD0AE0D021684601714121017201AA2B
:1006E00030210020FFF76CFD00BF00BF03216846EA
:1006F000017300214173012181730021C173012124
:100700000174417481740021C17402210175069441
:10071000079503A90248FFF764FF08B070BD000009
:100720000000014000E0401E0028FCD1704700B5E9
:1007300002467D21490151430846FFF7F3FF00BD02
:1007400070B504460D460A2C02D10D20FFF75CFD62
:100750002046FFF759FD70BD70B504460D4619A03F
:10076000FFF782FD27A02168FFF77EFD28A06168C2
:10077000FFF77AFD29A0A168FFF776FD2AA0E168BE
:10078000FFF772FD2BA02169FFF76EFD2DA06169B7
:10079000FFF76AFD2EA0A169FFF766FD2FA0E169B2
:1007A000FFF762FD294631A0FFF75EFD34A0FFF799
:1007B0005BFD00204249086000BF414800680028F6
:1007C000FBD070BD0A2A2A2A2A2A2A2A2A2A5468F1
:1007D00065207361766564207265676973746572FC
:1007E000732066726F6D2074686520737461636B2B
:1007F0002A2A2A2A2A2A2A2A2A2A2A2A2A2A2A2A59
:100800000A000000723020697320307825780A00D1
:10081000723120697320307825780A00723220699D
:100820007320307825780A0072332069732030787D
:1008300025780A0072313220697320307825780AD1
:10084000000000006C7220697320307825780A005F
:10085000706320697320307825780A0070737220E5
:10086000697320307825780A000000006375727281
:10087000656E745F6C7220697320307825780A0089
:100880002A2A2A2A2A2A2A2A2A2A2A2A2A2A2A2AC8
:100890002A2A2A2A2A2A2A2A2A2A2A2A2A2A2A2AB8
:1008A0002A2A2A2A2A2A2A2A2A2A2A2A2A2A2A2AA8
:1008B0002A2A2A2A2A2A2A2A2A2A2A2A2A0A00000C
:1008C000140000200322E12149020E48FFF7C4FE74
:1008D0000DA0FFF7C9FC0CA0FFF7C6FC0CA0FFF7AA
:1008E000C3FC09A0FFF7C0FC0EA0FFF7BDFC00BFD2
:1008F0000E48FFF767FE0128FAD001E000F026F865
:10090000FCE7000000366E013D3D3E200A0000007D
:100910003D3D3E2054455354204750494F204F55AC
:1009200054200A003D3D3E31200A000000000140F5
:1009300070B504460D4600BF2046FFF74DFE012866
:10094000FAD029462046FFF78DFC70BD1CB5A1A04A
:10095000FFF78AFC00BFA048FFF734FE0128FAD059
:100960009EA0FFF781FC9BA0FFF77EFCC02168469C
:1009700001704121017150214170402181706A460E
:10098000FF210020FFF71CFC6A46FF210120FFF732
:1009900017FC6A46FF210220FFF712FC6A460F216E
:1009A0000320FFF70DFC0021C943012080074162AD
:1009B0008EA0FFF759FC8FA0FFF756FC8BA0FFF726
:1009C00053FC00BF8448FFF7FDFD0128FAD0002149
:1009D000C94301208007416184A0FFF745FC8BA03B
:1009E000FFF742FC81A0FFF73FFC00BF7A48FFF70A
:1009F000E9FD0128FAD00021C94301208007816167
:100A00007AA0FFF731FC88A0FFF72EFC77A0FFF754
:100A10002BFC00BF7048FFF7D5FD0128FAD0002459
:100A200006E00120A040012189074861601C44B212
:100A30001C2CF6DB6DA0FFF717FC83A0FFF714FC5E
:100A40006AA0FFF711FC00BF6348FFF7BBFD012858
:100A5000FAD0002406E00120A04001218907886126
:100A6000601C44B21C2CF6DB0024B2E0002411E030
:100A70000120A04001218907C8617BA0FFF7F4FB9A
:100A80006420FFF754FE0021C943012080078161E3
:100A9000601C44B2082CEBDB102411E00120A040C4
:100AA00001218907C86170A0FFF7DEFB6420FFF712
:100AB0003EFE0021C943012080078161601C44B2D1
:100AC000182CEBDB0F2411E00120A0400121890745
:100AD000C86165A0FFF7C8FB6420FFF728FE00216E
:100AE000C943012080078161601E44B2072CEBDC02
:100AF0001C2411E00120A04001218907C8615AA0EF
:100B0000FFF7B2FB6420FFF712FE0021C94301206A
:100B100080078161601E44B2172CEBDC182411E0C1
:100B20000120A04001218907C8614FA0FFF79CFB6D
:100B30006420FFF7FCFD0021C9430120800781618B
:100B4000601C44B21D2CEBDB082411E00120A04006
:100B500001218907C86144A0FFF786FB6420FFF7E5
:100B6000E6FD0021C943012080078161601C44B279
:100B7000102CEBDB172411E00120A0400121890794
:100B8000C86139A0FFF770FB6420FFF7D0FD00219A
:100B9000C943012080078161601E44B20F2CEBDC49
:100BA000072411E00120A04001218907C8612EA07F
:100BB000FFF75AFB6420FFF7BAFD0021C94301206B
:100BC00080078161601E44B2002CEBDA01A0FFF7C0
:100BD0004BFB4BE70A000000000001405365742006
:100BE0004750494F204F5554200A00002F2F200A0C
:100BF000000000002F2F20536574204750494F20DC
:100C0000414C4C2048696768200A00002F2F205370
:100C10006574204750494F20414C4C204750494F64
:100C2000204C6F77200A00002F2F20536574204737
:100C300050494F2048696768204F6E6520427920EF
:100C40004F6E65200A0000002F2F20536574204747
:100C500050494F204C6F77204F6E65204279204FCE
:100C60006E65200A000000002E0000008C0C0000C1
:100C7000000000202000000088020000AC0C0000F2
:100C800020000020000800009802000000366E01DD
:100C90000000000000000000000000000000000054
:0C0CA00000000000000000000000000048
:04000005000000B542
:00000001FF
