:020000040000FA
:10000000200A0020B5000000BD000000990000009B
:1000100000000000000000000000000000000000E0
:10002000000000000000000000000000C10000000F
:100030000000000000000000C3000000B902000042
:10004000C7000000C7000000C7000000C700000094
:10005000C7000000C7000000C7000000C700000084
:10006000C7000000C7000000550B0000C7000000DB
:10007000C7000000C7000000C7000000C700000064
:10008000C70000000348854600F076F800480047A6
:10009000350A0000200A002004207146084202D0E0
:1000A000EFF3098001E0EFF308807146004A104742
:1000B000C908000000F008F903480047FEE7FEE722
:1000C000FEE7FEE7FEE7FEE78500000030B50B46E1
:1000D000014600202022012409E00D46D5409D4222
:1000E00005D31D469540491B2546954040191546A8
:1000F000521E002DF1DC30BDF0B51FB406460020C5
:1001000082B005464024019100901BE001992246EF
:100110000F46304600F042F8049A059B801A994138
:1001200010D310461946224600F016F8361A8F41B1
:100130000197224601200021009F00F00DF8381899
:100140004D4100902046641E0028DFDC019B009892
:100150002946324607B0F0BD10B5202A04DB01461F
:10016000203A9140002010BD914020239C1A034664
:10017000E3401943904010BD064C0125064E05E0B2
:10018000E36807CC2B430C3C98471034B442F7D3B8
:10019000FFF77CFFE00B0000000C000010B5202AE8
:1001A00004DB0846203AD040002110BD0B46D34066
:1001B000D0402024A21A91400843194610BD0000E7
:1001C00070B50346002000BF19E00C46C440E407A8
:1001D000E40F002C12D01479D5782C4395782C4359
:1001E00055782C435D01074EAD198600AC55147847
:1001F0005D01044EAD198600AD196C70401C0828D5
:10020000E3D370BD0000044010B50446E1B20248DB
:1002100000F0D8FC204610BD000001400149886371
:1002200070470000000006400149886470470000E4
:100230000000064001210148816770470000064028
:100240000121490201488167704700000000064013
:1002500001498865704700000000064001210148FF
:1002600081617047000006400121014841617047EB
:100270000000064001210904014881607047000028
:10028000A0000640012109040148416070470000B8
:10029000A0000640014908637047000000000640C6
:1002A00001490860704700004000064001490861AC
:1002B000704700004000064002480068401C0149A9
:1002C0000860704710000020FF202E3002490862AD
:1002D00002480349086070478000064000366E01FE
:1002E000000000208168022211438160704781680C
:1002F000490849008160704781680122114381608B
:1003000070478168402211438160704781681022E4
:10031000914381607047816810221143816070476A
:100320004160704710B50A4681680C240B46A34310
:10033000194693001943816010BD016070470000A9
:100340000FB410B503A9044B044A029800F018F842
:1003500010BC08BC04B01847B10800001800002009
:1003600002E008C8121F08C1002AFAD1704770477E
:10037000002001E001C1121F002AFBD170470000DC
:10038000FFB58FB00F460446002606E025280AD0A8
:10039000129A11999047641C761C20780028F5D198
:1003A000304613B0F0BD00250121A14A009500E0C0
:1003B0000543641C23780846203B98401042F7D13F
:1003C00020782E2815D1042005436078641C2A2843
:1003D0000AD101CF641C00900BE000990A2251431E
:1003E00030394018641C00902078014630390929C2
:1003F000F3D920786C280ED004DC4C2813D06A285E
:1004000012D104E074280ED07A280DD10BE001201F
:100410004005054307E00121090562780D4382424A
:1004200001D16D18641C641C2078864669284AD066
:1004300008DC0028B4D058286DD0632810D0642878
:1004400008D140E070286BD0732812D0752860D096
:10045000782860D0129A704611999047761CE5E092
:100460003878694608720020487202A8019001207D
:1004700003E0386801900020C0433F1D69070CD598
:10048000002500E06D1C00998D420FDA8542F9DBF2
:100490000199495D0029F5D108E0002500E06D1CB7
:1004A0008542FCDB0199495D0029F8D1761907E006
:1004B000019801990078491C0191129A119990476D
:1004C0006D1EF5D2B2E00A20029000216802400FB2
:1004D000039102280CD001CFC117844600290DDA00
:1004E0006246084652420021814194462D2008E090
:1004F000FF1DFF08FF0003CF8446EFE7280504D562
:100500002B206A46107401203CE0E8073AD02020F6
:10051000F7E70A2000E0102000210391029007E095
:100520001020029000210420054308200391009030
:100530006802400F022810D001CF0021844600201D
:100540000D9028071FD5704670280CD0029A1020F5
:10055000039B42401A430CD015E0FF1DFF08FF002B
:1005600003CF8446EBE740206A46107401200D90CB
:100570000CE06046084306D030206A46107470468E
:10058000507402200D907046582804D029A0019084
:100590000DA80E900DE02CA0F9E76046039B029A8F
:1005A000FFF7AAFD019B84469B5C0E9A521E0E9299
:1005B000137060460843F0D10E9805A9081A203040
:1005C0000190680701D5009801E001200090019991
:1005D000884203DD01460198081A00E0002000254A
:1005E000009006E004A8129A405D119990476D1C96
:1005F000761C0D988542F5DB04E0129A30201199A3
:100600009047761C0099481E00900029F5DC08E010
:100610000E980E990078491C0E91129A11999047E4
:10062000761C0199481E01900029F1DC641CB4E697
:1006300009280100303132333435363738396162B8
:10064000636465660000000030313233343536377C
:10065000383941424344454600000000F7B582B0B6
:1006600004460F46F8000499FFF730FD0546EE09F1
:10067000F0012D1A681C4008019066620648864207
:1006800002D10020A06202E0AD1B0198A062E06AE6
:10069000E06205B0F0BD0000FFFF00000146886980
:1006A0000007C00F704701468869C006C00F704739
:1006B000014688698006C00F704770B504460D4634
:1006C000002020636064A06360606062A062E062FA
:1006D00020462A69E968FFF7C1FF68784007C00F24
:1006E000C001297849010843A97809010843E9783C
:1006F000C900084369788907490F0843E062287AEE
:10070000E979C9000843606300E026682046FFF7E6
:10071000CAFF0128F9D1761C0020A0632879400285
:10072000697909020843A9790843206370BD000074
:1007300070B588B004460D461646FFF781FDFFF7F9
:1007400079FD002E06D0012E0FD0022E18D0032ED8
:100750002CD120E0D021684601714121017201AA0B
:1007600030210020FFF72CFD2BE0D02168460171DD
:100770004121017201AAC0210120FFF721FD20E0E3
:10078000E021684601714121017201AA0321012083
:10079000FFF716FD15E0E021684601714121017265
:1007A00001AA0C210320FFF70BFD0AE0D0216846C7
:1007B00001714121017201AA30210020FFF700FDE3
:1007C00000BF00BF0321684601730021417301216E
:1007D00081730021C173012101744174817400216E
:1007E000C174022101750694079503A90248FFF719
:1007F00064FF08B070BD000000000140012806D170
:100800000C4A126904239A430A4B1A6105E0094A0B
:10081000126904231A43074B1A61012901D130BF21
:1008200001E020BF20BF034A126904239A43014B11
:100830001A61704700ED00E010B513A0FFF780FDCE
:1008400000BF1848FFF72AFF0128FAD00020C04354
:10085000FFF720FD1448FFF723FD0020C043FFF7FA
:1008600025FDFFF701FD1148FFF73CFD0F48FFF79D
:1008700052FD0E48FFF740FDFFF704FD0121002067
:10088000FFF7BCFF10BD00003D3D3E2054696D6583
:10089000722057616B652055702074657374200A4F
:1008A0000000000000000140FFF7FFFF0090004043
:1008B00070B504460D460A2C02D10D20FFF7A4FCAA
:1008C0002046FFF7A1FC70BD70B504460D4619A087
:1008D000FFF736FD27A02168FFF732FD28A06168E9
:1008E000FFF72EFD29A0A168FFF72AFD2AA0E168E5
:1008F000FFF726FD2BA02169FFF722FD2DA06169DE
:10090000FFF71EFD2EA0A169FFF71AFD2FA0E169D8
:10091000FFF716FD294631A0FFF712FD34A0FFF7BF
:100920000FFD00204249086000BF414800680028D0
:10093000FBD070BD0A2A2A2A2A2A2A2A2A2A54687F
:10094000652073617665642072656769737465728A
:10095000732066726F6D2074686520737461636BB9
:100960002A2A2A2A2A2A2A2A2A2A2A2A2A2A2A2AE7
:100970000A000000723020697320307825780A0060
:10098000723120697320307825780A00723220692C
:100990007320307825780A0072332069732030780C
:1009A00025780A0072313220697320307825780A60
:1009B000000000006C7220697320307825780A00EE
:1009C000706320697320307825780A007073722074
:1009D000697320307825780A000000006375727210
:1009E000656E745F6C7220697320307825780A0018
:1009F0002A2A2A2A2A2A2A2A2A2A2A2A2A2A2A2A57
:100A00002A2A2A2A2A2A2A2A2A2A2A2A2A2A2A2A46
:100A10002A2A2A2A2A2A2A2A2A2A2A2A2A2A2A2A36
:100A20002A2A2A2A2A2A2A2A2A2A2A2A2A0A00009A
:100A3000140000201CB50024C0216846017041212B
:100A40000171402181706A46C7210020FFF7B8FB81
:100A50006A46FF210120FFF7B3FB6A46FF2102200F
:100A6000FFF7AEFB6A46FF210320FFF7A9FB032235
:100A7000E12149022348FFF75BFE62B60A20002805
:100A800005DBC206D20E012191401F4A116000BF52
:100A90000A20002809DB00BF00BFC206D20E0121D8
:100AA00091401A4A116000BF00BF00BF18491948A1
:100AB000FFF736FC00211748FFF734FC16A0FFF7BC
:100AC0003FFC15A0FFF73CFC15A0FFF739FC12A076
:100AD000FFF736FC10A0FFF733FC00BF1748FFF705
:100AE000DDFD0128FAD00CE02146641C14A0FFF7BC
:100AF00027FC00BF1148FFF7D1FD0128FAD0FFF70E
:100B00009BFEF1E700366E0180E200E000E100E0CC
:100B1000F0490200009000403D3D3E200A000000E8
:100B20003D3D3E205445535420534C4545502028CC
:100B30005F5F57464928293B29200A0000000140F1
:100B40000A206D6573736167652074696D65732034
:100B50002564000010B51148FFF7D8FB0F48FFF7D8
:100B6000C6FBFFF787FB0020C043FFF757FB0020C1
:100B7000C043FFF759FB0020C043FFF769FBFFF7B5
:100B80006DFB07A0FFF7DCFB00BF0D48FFF786FDFC
:100B90000128FAD00148FFF7B4FB10BD00900040D7
:100BA0006E31305F544D52305F49525148616E642E
:100BB0006C65722048617070656E6564210A000082
:100BC0000000014070B504460D4600BF2046FFF707
:100BD0006FFD0128FAD029462046FFF7AEFB70BD15
:100BE000000C000000000020200000006003000056
:100BF000200C000020000020000A0000700300000C
:100C000000366E010000000000000000000000003F
:100C100000000000000000000000000000000000D4
:04000005000000B542
:00000001FF
