:020000040000FA
:1000000020040020B5000000B900000099000000A5
:1000100000000000000000000000000000000000E0
:10002000000000000000000000000000BD00000013
:100030000000000000000000BF00000055030000A9
:10004000C3000000C3000000C3000000C3000000A4
:10005000C3000000C3000000C3000000C300000094
:10006000C3000000C30000001D0B0000C30000001F
:10007000C3000000C3000000C3000000C300000074
:10008000C30000000348854600F074F800480047AC
:10009000650A00002004002004207146084202D0B6
:1000A000EFF3098001E0EFF308807146004A104742
:1000B000F908000003480047FEE7FEE7FEE7FEE719
:1000C000FEE7FEE78500000030B50B460146002044
:1000D0002022012409E00D46D5409D4205D31D464E
:1000E0009540491B2546954040191546521E002D46
:1000F000F1DC30BDF0B51FB40646002082B00546E5
:100100004024019100901BE0019922460F463046A1
:1001100000F042F8049A059B801A994110D31046CA
:100120001946224600F016F8361A8F4101972246EA
:1001300001200021009F00F00DF838184D4100907B
:100140002046641E0028DFDC019B009829463246C9
:1001500007B0F0BD10B5202A04DB0146203A9140DB
:10016000002010BD914020239C1A0346E340194310
:10017000904010BD064C0125064E05E0E36807CC13
:100180002B430C3C98471034B442F7D3FFF77EFF63
:10019000600C0000800C000010B5202A04DB08462B
:1001A000203AD040002110BD0B46D340D04020243F
:1001B000A21A91400843194610BD00B54A791300B0
:1001C00000F004F90504101C283440000A6882403D
:1001D00001239B075A650A6882405A660A68824072
:1001E0009A672FE00A68824001239B075A650A68D4
:1001F00082409A660A6882405A6723E00A68824011
:1002000001239B079A650A6882405A660A68824001
:100210009A6717E00A68824001239B079A650A687B
:1002200082409A660A6882405A670BE00A688240F8
:1002300001239B079A650A6882405A660A688240D1
:100240005A6700BF00BF0A79002A02D0012A0CD1E8
:1002500005E00A68824001239B079A6205E00A686C
:10026000824001239B075A6200BF00BF00BD00000F
:1002700070B50346002000BF19E00C46C440E407F7
:10028000E40F002C12D01479D5782C4395782C43A8
:1002900055782C435D01074EAD198600AC55147896
:1002A0005D01044EAD198600AD196C70401C082824
:1002B000E3D370BD0000044010B50446E1B202482B
:1002C00000F06CFC204610BD00000140014988632D
:1002D0007047000000000640014988647047000034
:1002E0000000064001498866704700000000064093
:1002F000014988677047000000000640012101485D
:10030000816770470000064001214902014881676A
:1003100070470000000006400149886070470000F7
:1003200080000640014988657047000000000640D3
:100330000149086370470000000006400149086059
:100340007047000040000640014908617047000006
:100350004000064002480068401C014908607047A0
:100360000C0000208168022211438160704781687F
:1003700001221143816070478168402211438160EE
:100380007047816810221143816070474160704757
:1003900010B50A4681680C240B46A3431946930006
:1003A0001943816010BD0160704700000FB410B5A3
:1003B00003A9044B044A029800F026F810BC08BCBC
:1003C00004B01847E10800001400002030B474465F
:1003D000641E2578641CAB4204D3635D5B00E318A4
:1003E00030BC18471D46F8E702E008C8121F08C1D4
:1003F000002AFAD170477047002001E001C1121FA6
:10040000002AFBD170470000FFB58FB00F460446AD
:10041000002606E025280AD0129A11999047641CFC
:10042000761C20780028F5D1304613B0F0BD0025A9
:100430000121A14A009500E00543641C2378084689
:10044000203B98401042F7D120782E2815D1042067
:1004500005436078641C2A280AD101CF641C0090EF
:100460000BE000990A22514330394018641C009077
:100470002078014630390929F3D920786C280ED02C
:1004800004DC4C2813D06A2812D104E074280ED062
:100490007A280DD10BE001204005054307E001213A
:1004A000090562780D43824201D16D18641C641CF9
:1004B0002078864669284AD008DC0028B4D058281D
:1004C0006DD0632810D0642808D140E070286BD02C
:1004D000732812D0752860D0782860D0129A7046A0
:1004E00011999047761CE5E038786946087200203B
:1004F000487202A80190012003E0386801900020B2
:10050000C0433F1D69070CD5002500E06D1C009914
:100510008D420FDA8542F9DB0199495D0029F5D159
:1005200008E0002500E06D1C8542FCDB0199495D77
:100530000029F8D1761907E0019801990078491C43
:100540000191129A119990476D1EF5D2B2E00A20DE
:10055000029000216802400F039102280CD001CFC5
:10056000C117844600290DDA62460846524200212E
:10057000814194462D2008E0FF1DFF08FF0003CFB6
:100580008446EFE7280504D52B206A461074012025
:100590003CE0E8073AD02020F7E70A2000E01020EE
:1005A00000210391029007E0102002900021042016
:1005B00005430820039100906802400F022810D0E4
:1005C00001CF0021844600200D9028071FD57046DA
:1005D00070280CD0029A1020039B42401A430CD082
:1005E00015E0FF1DFF08FF0003CF8446EBE7402026
:1005F0006A46107401200D900CE06046084306D056
:1006000030206A4610747046507402200D90704677
:10061000582804D029A001900DA80E900DE02CA020
:10062000F9E76046039B029AFFF764FD019B84464D
:100630009B5C0E9A521E0E92137060460843F0D1D6
:100640000E9805A9081A20300190680701D5009876
:1006500001E0012000900199884203DD01460198E4
:10066000081A00E000200025009006E004A8129A75
:10067000405D119990476D1C761C0D988542F5DB05
:1006800004E0129A302011999047761C0099481E78
:1006900000900029F5DC08E00E980E990078491CBE
:1006A0000E91129A11999047761C0199481E01905B
:1006B0000029F1DC641CB4E6092801003031323332
:1006C000343536373839616263646566000000008E
:1006D0003031323334353637383941424344454678
:1006E00000000000F7B582B004460F46F8000499F8
:1006F000FFF7EAFC0546EE09F0012D1A681C4008D8
:10070000019066620648864202D10020A06202E0A3
:10071000AD1B0198A062E06AE06205B0F0BD000088
:10072000FFFF0000014688690007C00F70470146BF
:100730008869C006C00F7047014688698006C00FEF
:10074000704770B504460D46002020636064A063C6
:1007500060606062A062E06220462A69E968FFF793
:10076000C1FF68784007C00FC001297849010843DC
:10077000A97809010843E978C9000843697889071D
:10078000490F0843E062287AE979C90008436063A9
:1007900000E026682046FFF7CAFF0128F9D1761C41
:1007A0000020A06328794002697909020843A979E9
:1007B0000843206370BD000070B588B004460D4644
:1007C0001646FFF7A1FDFFF799FD002E06D0012E7A
:1007D00011D0022E1CD0032E34D126E0D021684641
:1007E0000171412101724021417101AA3021002093
:1007F000FFF73EFD33E0D0216846017141210172CF
:100800004021417101AAC0210120FFF731FD26E0FE
:10081000E02168460171412101724021417101AA24
:1008200003210120FFF724FD19E0E0216846017152
:10083000412101724021417101AA0C210320FFF7DF
:1008400017FD0CE0D0216846017141210172402161
:10085000417101AA30210020FFF70AFD00BF00BF4F
:100860000321684601730021417301218173002136
:10087000C17301210174417481740021C17402218A
:1008800001750694079503A90248FFF75AFF08B0BF
:1008900070BD000000000140002100E0491C8142C1
:1008A000FCD37047012806D10C4A126904239A43ED
:1008B0000A4B1A6105E0094A126904231A43074BDF
:1008C0001A61012901D130BF01E020BF20BF034AD6
:1008D000126904239A43014B1A61704700ED00E04E
:1008E00070B504460D460A2C02D10D20FFF7E4FC3A
:1008F0002046FFF7E1FC70BD70B504460D4619A017
:10090000FFF754FD27A02168FFF750FD28A061687C
:10091000FFF74CFD29A0A168FFF748FD2AA0E16878
:10092000FFF744FD2BA02169FFF740FD2DA0616971
:10093000FFF73CFD2EA0A169FFF738FD2FA0E1696C
:10094000FFF734FD294631A0FFF730FD34A0FFF753
:100950002DFD00204249086000BF41480068002882
:10096000FBD070BD0A2A2A2A2A2A2A2A2A2A54684F
:10097000652073617665642072656769737465725A
:10098000732066726F6D2074686520737461636B89
:100990002A2A2A2A2A2A2A2A2A2A2A2A2A2A2A2AB7
:1009A0000A000000723020697320307825780A0030
:1009B000723120697320307825780A0072322069FC
:1009C0007320307825780A007233206973203078DC
:1009D00025780A0072313220697320307825780A30
:1009E000000000006C7220697320307825780A00BE
:1009F000706320697320307825780A007073722044
:100A0000697320307825780A0000000063757272DF
:100A1000656E745F6C7220697320307825780A00E7
:100A20002A2A2A2A2A2A2A2A2A2A2A2A2A2A2A2A26
:100A30002A2A2A2A2A2A2A2A2A2A2A2A2A2A2A2A16
:100A40002A2A2A2A2A2A2A2A2A2A2A2A2A2A2A2A06
:100A50002A2A2A2A2A2A2A2A2A2A2A2A2A0A00006A
:100A6000100000201FB5C0216846017242210173A9
:100A70004021817202AAC6210020FFF7F9FB02AAD9
:100A8000FF210120FFF7F4FB02AAFF210220FFF75C
:100A9000EFFB02AAFF210320FFF7EAFB0022E1217E
:100AA00049021348FFF788FE0120009000216846A4
:100AB00001710321417169460020FFF77EFB0DA003
:100AC000FFF774FC0BA0FFF771FC0CA0FFF76EFCA6
:100AD00008A0FFF76BFC07A0FFF768FC00BF0E48FB
:100AE000FFF720FE0128FAD000F066F800BFFEE70D
:100AF00000366E013D3D3E200A0000003D3D3E2097
:100B00005445535420534C45455020285F5F574669
:100B10004928293B29200A000000014010B5002087
:100B2000C043FFF7D3FB0020C043FFF7D5FB0020F5
:100B3000C043FFF7F7FB0020C043FFF7D3FB0020C3
:100B4000C043FFF7D5FB0020C043FFF7E5FB084893
:100B5000FFF7A2FE07A0FFF729FC00BF0D48FFF733
:100B6000E1FD0128FAD00C48FFF706FC10BD00009B
:100B700050C300006E31305F544D52305F495251C6
:100B800048616E646C65722048617070656E656462
:100B9000210A0000000001400090004070B50446AA
:100BA0000D4600BF2046FFF7C7FD0128FAD02946B1
:100BB0002046FFF7F8FB70BD10B562B60A20012190
:100BC00081401A4A116000BF00BF01218140184ACC
:100BD000116000BF17A0FFF7E9FB00BF1C48FFF73B
:100BE000A1FD0128FAD01B48FFF7BCFB1A491948A0
:100BF000FFF7CCFB00211748FFF7CAFB1548FFF7AA
:100C0000C0FB1448FFF7B3FB0020C043FFF790FB85
:100C10001248FFF793FB0020C043FFF795FB01212B
:100C20000020FFF73FFE72B610BD000080E200E03A
:100C300000E100E03D3D3E2054696D657220576142
:100C40006B652055702074657374200A00000000E5
:100C50000000014000900040001C4E0EFFF7FFFF17
:100C6000800C0000000000201C000000E8030000D1
:100C70009C0C00001C00002004040000F80300008D
:100C80000000000000000000000000000000000064
:0C0C900000000000000000000000000058
:04000005000000B542
:00000001FF
