:020000040000FA
:1000000028080020B5000000BD0000009900000095
:1000100000000000000000000000000000000000E0
:10002000000000000000000000000000C10000000F
:100030000000000000000000C30000009508000060
:10004000C7000000C7000000C7000000C700000094
:10005000C7000000C7000000C7000000C700000084
:10006000C7000000C700000029170000C7000000FB
:10007000C7000000C7000000C7000000C700000064
:10008000C70000000348854600F02EFB00480047EB
:10009000911500002808002004207146084202D073
:1000A000EFF3098001E0EFF308807146004A104742
:1000B0002514000000F0F6FB03480047FEE7FEE7CA
:1000C000FEE7FEE7FEE7FEE78500000030B50B46E1
:1000D000014600202022012409E00D46D5409D4222
:1000E00005D31D469540491B2546954040191546A8
:1000F000521E002DF1DC30BDF0B5074608465840D1
:1001000087B0C00F049048000E46590040084908C7
:10011000BC1A884105D2384631461E4617460B4662
:1001200002465800400810434CD0300D0390400563
:100130005900400D490D0590401A0290402872DA8E
:1001400018030121000B090508430190049800924F
:10015000002805D001995242002088410092019068
:10016000029840210A1A0199009800F0C5F9054645
:100170000C466B4607CB00F0CFF9C0197141039ACA
:100180000E0D0023D71756401A467A40164344D026
:10019000049A002A2DD0029A012A039A15DC12052E
:1001A000C01A914101263605001C7141D20F059EEF
:1001B000D2070093019202962A46234600F00DFAD8
:1001C00007B0F0BD38463146FAE71605224A0F4619
:1001D000B218C01AB74101210905001C4F4100188F
:1001E0007F41114618187941E20F10436D1964419F
:1001F00013E0E2076D0815436408C2071443039A2D
:1002000001261205C01A91413605001C7141CE0726
:10021000400830434908C01851412A46234600F09F
:10022000CFF9CDE7FFE7049801224000C117121A69
:1002300000238B4104983146C417381AA141EEE7D8
:1002400030B40124E407634030BC55E730B40124E6
:10025000E407614030BC4FE70000E0FFF0B51FB499
:1002600088B00B990998002448400999C00F4900AB
:1002700049080991C0070B990090490049080B9162
:1002800009990898A64608431CD00B990A98084378
:1002900018D0099801244000420D4800410D0998EA
:1002A00024050003000B204309900B980003000B6A
:1002B00020430B9050181C4940180022019014460E
:1002C000104605E0002001460DB0F0BD032801DA1C
:1002D000034600E003239C46C11A0AAE0AE05F0011
:1002E00008ADED5B4F00F75B7D430027AA187C410A
:1002F000491C5B1E6145F2DD410004AB5A522104EA
:10030000120C0A43240C401C0828DFDB01980290E1
:100310000099704601910090059B049A07990698F0
:1003200000F05BF9D0E700000DFCFFFFF0B50C46D4
:100330005C4085B0E40FE40703944C000026640899
:1003400059009446490802460296224321D062464B
:100350000A431ED06200570D4A000E032303550DB9
:10036000012402462C492405781B1B0B360B401830
:1003700023432643614600901C46501AB44103D3E0
:100380000098401C009002E0921800985B41002801
:1003900003DA0020014605B0F0BD00200121090567
:1003A0000746864611E064461D46141BB54106D338
:1003B0006546521BB341744607430C43A646CD071E
:1003C00040084908284392185B4105460D43EAD18D
:1003D0001046184313D060461946504071400843F8
:1003E00006D06046101AB34106D20122002306E06F
:1003F00000220123DB0702E00122D24353100098C0
:1004000074460105381C6141029C039D0019694135
:1004100000F0D6F8BFE70000FD0300000EB5054967
:100420000291002100910A460B46019100F0D5F897
:1004300003B000BD33040000C20FD20740004008E3
:100440000BD0C10D0723DB01C91840020905400A82
:100450001143C2084007114370470020014670470E
:10046000CB0FDB07490010B5490802460A4307D005
:100470000A0D07240903E401090B121B002A01DC01
:10048000002010BDC900440F0C43C100E018D20584
:10049000801800F054F810BDF0B51FB406460020D7
:1004A00082B005464024019100901BE0019922464C
:1004B0000F46304600F02AF9049A059B801A9941AC
:1004C00010D310461946224600F016F8361A8F410E
:1004D0000197224601200021009F00F00DF83818F6
:1004E0004D4100902046641E0028DFDC019B0098EF
:1004F0002946324607B0F0BD10B5202A04DB01467C
:10050000203A9140002010BD914020239C1A0346C0
:10051000E3401943904010BD10B5202A06DBCB17ED
:100520000846203A1041C1170B4306E00B46134121
:10053000D0402024A21A91400843194610BD00293A
:1005400004DA401C490001D140084000704770B4F3
:100550000024050C05D11024000402D1002921D06B
:100560001124050E01D100020834050F01D100014C
:10057000241D850F01D18000A41C002801DB400050
:10058000641C002908D020252E1B0D46F540A140F3
:1005900000D001212943084301061B1B000ADB1D73
:1005A00002D5002070BC7047DB05181880180029A0
:1005B000F8DA401C4900F5D170BC40084000704793
:1005C00010B5002B08DA0024401C614192185B41F1
:1005D0001A4301D14008400010BDF0B51FB482B0ED
:1005E00005460C0003D0084600F082F902E000F056
:1005F0007FF920300246009021462846FFF77CFF15
:10060000049B059A04460F4618431143084314D02F
:10061000184610431BD0009840210A1A1846059925
:1006200000F074F805460E46009A05990498FFF705
:1006300063FF084305D0012004E02046394607B097
:10064000F0BD0020C11705430E432C4337430099EA
:100650000E986305401A7905E40A00220C43FD0A4E
:100660000A3002D500200146E9E701051019694169
:100670000C9C0D9D00196941FFF7A2FFDFE7000008
:100680004A0009030123090B1B0519430A4B10B546
:10069000520D9A4202DA0020014610BD064B343357
:1006A0009A4203DC9A1A00F031F810BD034BD218BD
:1006B000FFF722FF10BD0000FF030000CDFBFFFF8E
:1006C00010B5002904DB0124E40740428C41214697
:1006D000002B04DB1C460123DB075242A341994255
:1006E00000D1904210BD0000064C0125064E05E0E9
:1006F000E36807CC2B430C3C98471034B442F7D343
:10070000FFF7C4FCA0170000C017000010B5202A96
:1007100004DB0846203AD040002110BD0B46D340F0
:10072000D0402024A21A91400843194610BD0A4621
:10073000824001239B079A61704700B54A791300F4
:1007400000F0EDF80604101C2834404C0A68824082
:1007500001239B075A650A6882405A660A688240EC
:100760009A673BE00A68824001239B075A650A6842
:1007700082409A660A6882405A672FE00A6882407F
:1007800001239B079A650A6882405A660A6882407C
:100790009A6723E00A68824001239B079A650A68EA
:1007A00082409A660A6882405A6717E00A68824067
:1007B00001239B079A650A6882405A660A6882404C
:1007C0005A670BE00A68824001239B079A650A6812
:1007D00082409A660A6882409A6700BF00BF0A7921
:1007E000002A02D0012A0CD105E00A6882400123C8
:1007F0009B079A6205E00A68824001239B075A62C0
:1008000000BF00BF00BD0A46824001239B075A611A
:10081000704710B500F091F810BD000070B50346A8
:10082000002000BF19E00C46C440E407E40F002C90
:1008300012D01479D5782C4395782C4355782C43D5
:100840005D01074EAD198600AC5514785D01044E6C
:10085000AD198600AD196C70401C0828E3D370BD3B
:100860000000044010B50446E1B2024800F089FFE0
:10087000204610BD000001400121014881677047FA
:1008800000000640012149020148816770470000CD
:100890000000064002480068401C0149086070479B
:1008A00010000020FF202E30024908620248034950
:1008B000086070478000064000366E01000000208E
:1008C00081684022114381607047016070470000D9
:1008D0000FB410B503A9044B044A029800F016F9AE
:1008E00010BC08BC04B018470D1400001C00002008
:1008F0002021020C01D010211046020A01D010461E
:100900000839020901D01046091F820801D010469B
:10091000891E420801D0881E7047081A704730B4FB
:100920007446641E2578641CAB4204D3635D5B008F
:10093000E31830BC18471D46F8E71CB5C0216846CF
:1009400001704121017150214170402181706A463E
:1009500007210120FFF762FFFF2101318805416275
:10096000411541620115816201210820FFF74BFF0B
:1009700002210820FFF7DBFE1CBD02E008C8121FA1
:1009800008C1002AFAD170477047002001E001C178
:10099000121F002AFBD17047F0B51FB486B009982A
:1009A000089A030D0021024314D05148514A1818E7
:1009B000504305141198012810981AD0281A401C89
:1009C00000264D4F4D49009601910490002812DAFF
:1009D000444211E01198012449A3012801D1109843
:1009E000C1430698119A84600360C26041600BB0F5
:1009F000F0BD4042E4E70446210500203F4A001CC8
:100A000051410391029012E0E00707D032463B4685
:100A100001990098FFF722FC0191009032463B4675
:100A200010461946FFF71AFC06460F466410002CC4
:100A3000EAD10498039B0028029A0999089806DADB
:100A4000FFF70CFC019B009AFFF708FC05E0FFF79D
:100A50006DFC019B009AFFF769FC04460E460022DC
:100A6000284BFFF72DFE03D80020C043014607E0C6
:100A70000022254B20463146FFF73EFBFFF700FEE4
:100A8000102409E0002C0ADB0A220023FFF704FDF2
:100A9000079B30321A55641E02460A43F2D11122D6
:100AA000641C079B121B1C19119B012B03D00123F3
:100AB00008430ED10AE0084304D011201090002012
:100AC000119077E71098151A6D1E0BE0109882426E
:100AD00002DD00236D1C03E0824201DA00236D1E5B
:100AE000002BEED0069811998260C16030C07EE77D
:100AF00001FCFFFF104D0000000014400000F03F1B
:100B0000300000000000F0430000E03FFFB597B068
:100B10000646002518E2252877D100242746FD49FE
:100B2000049400E00443761C32780120203A90407F
:100B30000842F7D130782A280ED0022230780146B8
:100B40003039092916D804990A23594330394018F5
:100B50001443761C0490F1E7189802C80491189089
:100B6000002904DA01204003044348420490022093
:100B70000443761C30782E2814D104200443707866
:100B8000761C2A2809D11898761C80C8189009E08C
:100B90000A214F43303FC719761C3078014630395F
:100BA0000929F5D930786C2810D006DC4C281AD0E9
:100BB00068280ED06A2817D104E0742813D07A2848
:100BC00012D110E00120400504430CE00121090589
:100BD00001E0032109050C437178814203D1012012
:100BE00000052418761C761C3078119066280BD0EE
:100BF00013DC58287DD009DC00287BD04528F6D0AE
:100C00004628F4D047281AD1A5E118E0632835D04A
:100C1000642870D0652812D19DE170286CD008DC62
:100C20006728F1D069287BD06E280DD06F2806D1B7
:100C3000BAE073282ED0752871D0782859D01A9A26
:100C4000199990476D1C7EE16002400F022809D07F
:100C500003280DD00428189801680DD00D60001DE0
:100C6000189070E11898EA1701680D604A60F6E77D
:100C7000189801680D80F2E70D70F0E718986A4641
:100C800001781172001D18900020507202A8009087
:100C9000012005E0189802C8189000200091C04378
:100CA00061070DD5002101E00199491C0191B9426C
:100CB00012DA8142F8DB009A515C0029F4D10BE092
:100CC000002101E00199491C01918142FADB019A5E
:100CD0000099895C0029F5D1019904981A9B471A5B
:100CE00021463846199A00F097FA0199401945189B
:100CF0000BE04FE02CE113E04EE000980099007803
:100D0000491C00911A9A199990470198401E019028
:100D1000401CF2D1214638461A9B199A10E137E05F
:100D20000A200021009001916002410F022907D0A2
:100D3000189A01CA1892C2179446032908D00AE0EB
:100D40001898C01DC108C90005C91891944607E04C
:100D500000B2C2179446042902D140B2C1178C4692
:100D600000226146944506DA0A460021404291413C
:100D70008C462D2102E0210504D52B216A461173F2
:100D8000012103E0E10701D02021F7E7029155E0BE
:100D90000A200AE0102008E0102000900021042022
:100DA00004430191082703E00820002101910090ED
:100DB0006002410F022907D0189A01CA1892002236
:100DC0009446032908D008E01898C01DC108C9003E
:100DD00005C91891944603E080B2042900D1C0B23D
:100DE00000210291210729D51199702906D0009A76
:100DF0001021019B4A401A4305D00EE040216A466B
:100E00001173012108E06146014306D030216A4692
:100E100011731199517302210291009A0821019BCB
:100E20004A401A430AD16146014301D1610705D501
:100E300030216A46117301217F1E029111995829B0
:100E400004D035A10E910DA90D910DE037A1F9E760
:100E50006146019B009AFFF71FFB0E9B8C469B5C33
:100E60000D9A521E0D92137061460143F0D10D98F8
:100E700005A9081A20300190600703D5012000045D
:100E8000844300E001270198874201DD381A00E021
:100E90000020019900904118029809180498401AFE
:100EA0000490E00306D421461A9B199A049800F096
:100EB000B3F94519002706E003A81A9AC05D1999ED
:100EC00090476D1C7F1C02988742F5DBE0030CD530
:100ED00021461A9B199A049800F09EF9451904E0DE
:100EE0001A9A3020199990476D1C0099481E00905D
:100EF0000029F5DC08E00D980D990078491C0D914A
:100F00001A9A199990476D1C0199481E0190002961
:100F1000F1DC63E1092801003031323334353637F2
:100F20003839616263646566000000003031323335
:100F300034353637383941424344454600000000D5
:100F400000F05AF94519761C3078002800D0E2E507
:100F500028461BB0F0BD600700D406271898C01DB6
:100F6000C108C90048680A680831C30FDB07189137
:100F7000190001D09CA108E0210501D59BA104E046
:100F8000E10701D09AA100E09AA1430011985B0803
:100F9000109165280CD006DC452809D046281DD0C4
:100FA000472841D141E0662818D067283CD13CE071
:100FB0000021112F01DB112000E0781C019100902D
:100FC00008A911A8FFF7E8FC139905910021119ACF
:100FD00015927F1C12980197009150E00120C007E4
:100FE00003900120019008A9009711A8FFF7D4FCF5
:100FF000139A149905920022119B0092129815934E
:10100000059A0192002901D0104602E0791C40188F
:101010000190381A01D5019804E04042401E00902A
:10102000781C0190C01B029043E0012F00DA0127D9
:101030000021112F01DD112000E0384601910090C0
:1010400008A911A8FFF7A8FC13990591119A00218E
:10105000129815920091019721070CD40599B94275
:1010600001DB019900E00191012904DD159A491E77
:10107000515C302906D0B84201DA011D05DA0121A0
:10108000029115E00199491EEDE7002805DC009961
:10109000411800910199091A03E0019A411C9142FB
:1010A00000DD01910099401A401C02900120C00708
:1010B0000390200706D402990198814202DB0020A8
:1010C000C043029000206946C87707AF012103980A
:1010D0000337C907884224D0022011902B20129098
:1010E000039800280CDA404203902D20129007E06C
:1010F0000A210398FEF7EAFF30317F1E0390397012
:101100001199481E11900029F2DC03980028EFD1B4
:10111000791E129808703078202108404530BF1E93
:10112000387006A8C01BC01D0390109800780028D6
:1011300000D00120019941180298C017091803989E
:1011400009180498401A401E0490E00306D4214672
:101150001A9B199A049800F05FF8451910980078C6
:10116000002803D01A9A199990476D1CE00324D5E2
:1011700021461A9B199A049800F04EF845191CE074
:101180000098002807DB00990598884203DD159830
:10119000405C199901E0199930201A9A90470098FB
:1011A0006D1C401C00900298401E0290002804D143
:1011B0001A9A2E20199990476D1C0199481E01908A
:1011C0000029DDDC05E038781A9A7F1C19999047D0
:1011D0006D1C0399481E03900029F4DC21461A9BDC
:1011E000199A0498ACE600002D0000002B000000C6
:1011F0002000000000000000F8B5044600251E464F
:101200001746880404D405E039462020B0476D1CF9
:10121000641EF9D52846F8BDFFB50446002581B007
:101220001E46C80301D5302700E02027880404D5D6
:1012300005E038460399B0476D1C641EF9D5284671
:1012400005B0F0BDF7B582B004460F46F80004992A
:10125000FEF73CFF0546EE09F0012D1A681C400818
:10126000019066620648864202D10020A06202E038
:10127000AD1B0198A062E06AE06205B0F0BD00001D
:10128000FFFF0000014688690007C00F7047014654
:101290008869C006C00F7047014688698006C00F84
:1012A000704770B504460D46002020636064A0635B
:1012B00060606062A062E06220462A69E968FFF728
:1012C000C1FF68784007C00FC00129784901084371
:1012D000A97809010843E978C900084369788907B2
:1012E000490F0843E062287AE979C900084360633E
:1012F00000E026682046FFF7CAFF0128F9D1761CD6
:101300000020A06328794002697909020843A9797D
:101310000843206370BD000070B588B004460D46D8
:101320001646FFF7AFFAFFF7A7FA002E06D0012EF8
:101330000FD0022E18D0032E2CD120E0D0216846E9
:1013400001714121017201AA30210020FFF766FAE4
:101350002BE0D021684601714121017201AAC02110
:101360000120FFF75BFA20E0E0216846017141218E
:10137000017201AA03210120FFF750FA15E0E021D4
:10138000684601714121017201AA0C210320FFF777
:1013900045FA0AE0D021684601714121017201AA93
:1013A00030210020FFF73AFA00BF00BF0321684652
:1013B000017300214173012181730021C173012157
:1013C0000174417481740021C17402210175069475
:1013D000079503A90248FFF764FF08B070BD00003D
:1013E0000000014000E0401E0028FCD1704700B51D
:1013F00002467D21490151430846FFF7F3FF00BD36
:1014000000B502469000FFF7EDFF00BD70B5044641
:101410000D460A2C02D10D20FFF724FA2046FFF7D3
:1014200021FA70BD70B504460D4619A0FFF750FAB9
:1014300027A02168FFF74CFA28A06168FFF748FA57
:1014400029A0A168FFF744FA2AA0E168FFF740FA53
:101450002BA02169FFF73CFA2DA06169FFF738FA4C
:101460002EA0A169FFF734FA2FA0E169FFF730FA47
:10147000294631A0FFF72CFA34A0FFF729FA002003
:101480004249086000BF414800680028FBD070BD99
:101490000A2A2A2A2A2A2A2A2A2A546865207361B3
:1014A000766564207265676973746572732066720D
:1014B0006F6D2074686520737461636B2A2A2A2A11
:1014C0002A2A2A2A2A2A2A2A2A2A2A2A0A0000001A
:1014D000723020697320307825780A0072312069D3
:1014E0007320307825780A007232206973203078B2
:1014F00025780A00723320697320307825780A0035
:1015000072313220697320307825780A000000009B
:101510006C7220697320307825780A007063206926
:101520007320307825780A00707372206973203038
:101530007825780A0000000063757272656E745F2A
:101540006C7220697320307825780A002A2A2A2AAA
:101550002A2A2A2A2A2A2A2A2A2A2A2A2A2A2A2AEB
:101560002A2A2A2A2A2A2A2A2A2A2A2A2A2A2A2ADB
:101570002A2A2A2A2A2A2A2A2A2A2A2A2A2A2A2ACB
:101580002A2A2A2A2A2A2A2A2A0A000014000020A3
:101590001CB50322E12149021B48FFF7BDFE1BA039
:1015A000FFF796F919A0FFF793F91AA0FFF790F942
:1015B00016A0FFF78DF915A0FFF78AF900BF1E48A6
:1015C000FFF760FE0128FAD00120694608718120EA
:1015D00000900020FFF7B1F8FFF71BF9002412E09C
:1015E00000F036F807463846FEF726FF05462A463D
:1015F0000B46214611A0FFF76BF9601C04B2FF20D7
:10160000F530FFF7F4FEEBE700366E013D3D3E207E
:101610000A0000003D3D3E2054455354206D617842
:1016200036363735204B2D546865726D6F636F7594
:10163000706C650A00000000000001402564202D48
:10164000204B2076616C75653D252E32660A0000C0
:10165000F0B585B0002000F03AF80A20FFF7D0FE80
:1016600000F042F887B23806000C039000F03CF816
:1016700080B202900299039808430446012000F0CA
:1016800026F804202040002802D0084805B0F0BD0C
:10169000E4102046FEF7C2FE05460022044BFEF78A
:1016A000DDFD01910090FEF7DBFEEFE7000080BF5B
:1016B0000000D03F002804D10122520251058A6166
:1016C00004E0012802D1420281074A6170470028E4
:1016D00004D1FF22013291058A6104E0012802D180
:1016E000020281074A61704770B50025072416E0A1
:1016F0000020FFF7DFFF0A20FFF782FE0421082009
:1017000000F02EF8002803D00120A0402843C5B2E5
:101710000120FFF7CFFF0A20FFF772FE641E002CA6
:10172000E6DA284670BD000010B50B48FFF7C8F890
:101730000A480068401C0949086008460078C0074C
:10174000C00F002803D001218807416102E0012178
:101750008807816110BD0000009000401800002043
:1017600010B502460B4600211C4694402146012438
:10177000A40724680C408C4201D1012000E0002025
:1017800010BD70B504460D4600BF2046FFF784FD2E
:101790000128FAD029462046FFF797F870BD0000CF
:1017A000C017000000000020240000007A0900009B
:1017B000E417000024000020040800008A0900004B
:1017C00000366E0100000000000000000000000074
:1017D0000000000000000000000000000000000009
:0417E0000000000005
:04000005000000B542
:00000001FF
