:020000040000FA
:10000000280A0020B5000000BD0000009900000093
:1000100000000000000000000000000000000000E0
:10002000000000000000000000000000C10000000F
:100030000000000000000000C3000000A903000051
:10004000C7000000C7000000C7000000C700000094
:10005000C7000000C7000000C7000000C700000084
:10006000C7000000C7000000790B0000C7000000B7
:10007000C7000000C7000000C7000000C700000064
:10008000C70000000348854600F0C8F80048004754
:10009000E90A0000280A002004207146084202D024
:1000A000EFF3098001E0EFF308807146004A104742
:1000B0000109000000F080F903480047FEE7FEE771
:1000C000FEE7FEE7FEE7FEE78500000030B50B46E1
:1000D000014600202022012409E00D46D5409D4222
:1000E00005D31D469540491B2546954040191546A8
:1000F000521E002DF1DC30BD024670B54A40D30FD0
:10010000DB0740002DD04A002AD0010E140E000259
:1001100012020919400A520A8418E50104465443A0
:10012000000A120A2E045043A4194219200CC54398
:10013000AA18120C0125AD03521C521912047F3962
:10014000240400D0521C104301D44000491EC2B206
:100150000C06C0092018401C4008802A02D003E089
:10016000002070BD40084000002900DA002018433C
:1001700070BD410040020122400AD205090E8018DC
:100180007F2901DA00207047962903DC9622511A54
:10019000C8407047963988407047F0B51FB406468E
:1001A000002082B005464024019100901BE0019997
:1001B00022460F46304600F043F8049A059B801A09
:1001C000994110D310461946224600F016F8361A07
:1001D0008F410197224601200021009F00F00DF879
:1001E00038184D4100902046641E0028DFDC019B3A
:1001F00000982946324607B0F0BD10B5202A04DB2E
:100200000146203A9140002010BD914020239C1AC5
:100210000346E3401943904010BD0000064C012501
:10022000064E05E0E36807CC2B430C3C984710349E
:10023000B442F7D3FFF72AFF2C0C00004C0C00004F
:1002400010B5202A04DB0846203AD040002110BD1A
:100250000B46D340D0402024A21A914008431946AF
:1002600010BD00B54A79130000F0E8F80604101C30
:100270002834404C0A68824001239B075A650A686B
:1002800082405A660A6882409A673BE00A68824068
:1002900001239B075A650A6882409A660A68824071
:1002A0005A672FE00A68824001239B079A650A6813
:1002B00082405A660A6882409A6723E00A68824050
:1002C00001239B079A650A6882409A660A68824001
:1002D0005A6717E00A68824001239B079A650A68FB
:1002E00082405A660A6882405A670BE00A68824078
:1002F00001239B079A650A6882409A660A688240D1
:100300009A6700BF00BF0A79002A02D0012A0CD1E7
:1003100005E00A68824001239B079A6205E00A68AB
:10032000824001239B075A6200BF00BF00BD00004E
:1003300070B50346002000BF19E00C46C440E40736
:10034000E40F002C12D01479D5782C4395782C43E7
:1003500055782C435D01074EAD198600AC551478D5
:100360005D01044EAD198600AD196C70401C082863
:10037000E3D370BD0000044010B50446E1B202486A
:1003800000F016FC204610BD00000140012101488C
:1003900081677047000006400121490201488167DA
:1003A000704700000000064002480068401C0149F8
:1003B0000860704710000020FF202E3002490862BC
:1003C00002480349086070478000064000366E010D
:1003D000000000208168022211438160704781681B
:1003E000012211438160704781684022114381607E
:1003F00070478168102211438160704741607047E7
:1004000010B50A4681680C240B46A3431946930095
:100410001943816010BD0160704700000FB410B532
:1004200003A9044B044A029800F026F810BC08BC4B
:1004300004B01847E90800001C00002030B47446DE
:10044000641E2578641CAB4204D3635D5B00E31833
:1004500030BC18471D46F8E702E008C8121F08C163
:10046000002AFAD170477047002001E001C1121F35
:10047000002AFBD170470000FFB58FB00F4604463D
:10048000002606E025280AD0129A11999047641C8C
:10049000761C20780028F5D1304613B0F0BD002539
:1004A0000121A14A009500E00543641C2378084619
:1004B000203B98401042F7D120782E2815D10420F7
:1004C00005436078641C2A280AD101CF641C00907F
:1004D0000BE000990A22514330394018641C009007
:1004E0002078014630390929F3D920786C280ED0BC
:1004F00004DC4C2813D06A2812D104E074280ED0F2
:100500007A280DD10BE001204005054307E00121C9
:10051000090562780D43824201D16D18641C641C88
:100520002078864669284AD008DC0028B4D05828AC
:100530006DD0632810D0642808D140E070286BD0BB
:10054000732812D0752860D0782860D0129A70462F
:1005500011999047761CE5E03878694608720020CA
:10056000487202A80190012003E038680190002041
:10057000C0433F1D69070CD5002500E06D1C0099A4
:100580008D420FDA8542F9DB0199495D0029F5D1E9
:1005900008E0002500E06D1C8542FCDB0199495D07
:1005A0000029F8D1761907E0019801990078491CD3
:1005B0000191129A119990476D1EF5D2B2E00A206E
:1005C000029000216802400F039102280CD001CF55
:1005D000C117844600290DDA6246084652420021BE
:1005E000814194462D2008E0FF1DFF08FF0003CF46
:1005F0008446EFE7280504D52B206A4610740120B5
:100600003CE0E8073AD02020F7E70A2000E010207D
:1006100000210391029007E01020029000210420A5
:1006200005430820039100906802400F022810D073
:1006300001CF0021844600200D9028071FD5704669
:1006400070280CD0029A1020039B42401A430CD011
:1006500015E0FF1DFF08FF0003CF8446EBE74020B5
:100660006A46107401200D900CE06046084306D0E5
:1006700030206A4610747046507402200D90704607
:10068000582804D029A001900DA80E900DE02CA0B0
:10069000F9E76046039B029AFFF77FFD019B8446C2
:1006A0009B5C0E9A521E0E92137060460843F0D166
:1006B0000E9805A9081A20300190680701D5009806
:1006C00001E0012000900199884203DD0146019874
:1006D000081A00E000200025009006E004A8129A05
:1006E000405D119990476D1C761C0D988542F5DB95
:1006F00004E0129A302011999047761C0099481E08
:1007000000900029F5DC08E00E980E990078491C4D
:100710000E91129A11999047761C0199481E0190EA
:100720000029F1DC641CB4E60928010030313233C1
:10073000343536373839616263646566000000001D
:100740003031323334353637383941424344454607
:1007500000000000F7B582B004460F46F800049987
:10076000FFF7B4FC0546EE09F0012D1A681C40089D
:10077000019066620648864202D10020A06202E033
:10078000AD1B0198A062E06AE06205B0F0BD000018
:10079000FFFF000001468869C006C00F7047014690
:1007A00088698006C00F704770B504460D4600206A
:1007B00020636064A06360606062A062E0622046C3
:1007C0002A69E968FFF7C6FF68784007C00FC001D3
:1007D000297849010843A97809010843E978C90043
:1007E000084369788907490F0843E062287AE97964
:1007F000C9000843606300E026682046FFF7CAFF8F
:100800000128F9D1761C0020A0632879400269797B
:1008100009020843A9790843206370BD70B588B008
:1008200004460D461646FFF7B7FDFFF7AFFD002E55
:1008300006D0012E0FD0022E18D0032E2CD120E08E
:10084000D021684601714121017201AA30210020A6
:10085000FFF76EFD2BE0D021684601714121017246
:1008600001AAC0210120FFF763FD20E0E0216846D6
:1008700001714121017201AA03210120FFF758FDF6
:1008800015E0E021684601714121017201AA0C21A5
:100890000320FFF74DFD0AE0D02168460171412198
:1008A000017201AA30210020FFF742FD00BF00BF06
:1008B00003216846017300214173012181730021E6
:1008C000C17301210174417481740021C17402213A
:1008D00001750694079503A90248FFF765FF08B064
:1008E00070BD00000000014070B504460D460A2CA2
:1008F00002D10D20FFF740FD2046FFF73DFD70BD02
:1009000070B504460D4619A0FFF788FD27A02168A1
:10091000FFF784FD28A06168FFF780FD29A0A1688A
:10092000FFF77CFD2AA0E168FFF778FD2BA0216985
:10093000FFF774FD2DA06169FFF770FD2EA0A1697E
:10094000FFF76CFD2FA0E169FFF768FD294631A094
:10095000FFF764FD34A0FFF761FD00204249086005
:1009600000BF414800680028FBD070BD0A2A2A2A2F
:100970002A2A2A2A2A2A5468652073617665642007
:100980007265676973746572732066726F6D207427
:10099000686520737461636B2A2A2A2A2A2A2A2A04
:1009A0002A2A2A2A2A2A2A2A0A00000072302069C2
:1009B0007320307825780A007231206973203078EE
:1009C00025780A00723220697320307825780A0071
:1009D000723320697320307825780A007231322012
:1009E000697320307825780A000000006C72206955
:1009F0007320307825780A0070632069732030787E
:100A000025780A0070737220697320307825780A7F
:100A10000000000063757272656E745F6C7220690D
:100A20007320307825780A002A2A2A2A2A2A2A2A94
:100A30002A2A2A2A2A2A2A2A2A2A2A2A2A2A2A2A16
:100A40002A2A2A2A2A2A2A2A2A2A2A2A2A2A2A2A06
:100A50002A2A2A2A2A2A2A2A2A2A2A2A2A2A2A2AF6
:100A60002A2A2A2A2A0A00001400002070B5044607
:100A70000A20002805DBC206D20E01219140164A49
:100A8000116000BF0A20002809DB00BF00BFC206BA
:100A9000D20E01219140114A116000BF00BF00BF7A
:100AA00062B60F48FFF796FC0E492046FFF724FB7D
:100AB0000646FFF75EFB054629460948FFF79EFC00
:100AC00000210748FFF79CFC0548FFF792FC04480B
:100AD000FFF785FC70BD000080E200E000E100E06F
:100AE00000900040001BB74B1CB5154800F06EF895
:100AF00001206946087100900020FFF7B2FB032235
:100B0000E12149020E48FFF789FE0EA0FFF786FC9F
:100B100016A0FFF783FC15A0FFF780FC13A0FFF7DA
:100B20007DFC3F200006FFF7A1FF08E005A0FFF7CE
:100B300075FC0EA0FFF772FC0CA0FFF76FFCF5E749
:100B400000366E013D3D3D3E202054696D657220AA
:100B50004578616D706C65203D3D3D3D3D3D3D3DC1
:100B60003D3D3D3D3D3D3D3D0A0000003D3D3D3E9E
:100B70002020090A0000000010B50B48FFF734FCE4
:100B80000A480068401C0949086008460078C00708
:100B9000C00F002803D001218807416102E0012134
:100BA0008807816110BD00000090004018000020FF
:100BB00070B504460D4600BF2046FFF7F0FD012842
:100BC000FAD029462046FFF726FC70BD10B5044632
:100BD000104804607D21C9000068FFF777FA0E49CC
:100BE00008607D21C9000C480068FFF76FFA0B49C7
:100BF000086000200A4908600A480B494861002043
:100C000088610846006907210843074908610020F8
:100C100010BD00000C00002004000020080000208F
:100C200010000020FFFFFF0000E000E04C0C00007F
:100C3000000000202400000058040000700C000098
:100C400024000020040A00006804000000366E0141
:100C50000000000000000000000000000000000094
:100C60000000000000000000000000000000000084
:04000005000000B542
:00000001FF
