:020000040000FA
:10000000A80C0020B5000000BF000000990000000F
:1000100000000000000000000000000000000000E0
:10002000000000000000000000000000C30000000D
:100030000000000000000000C5000000690300008F
:10004000C9000000C9000000C9000000C90000008C
:10005000C9000000C9000000C9000000C90000007C
:10006000C9000000C9000000B10B0000CD0B00006A
:10007000C9000000C9000000C9000000C90000005C
:10008000C90000000348854600F0A0F8004800477A
:100090001D0B0000A80C002004207146084202D06D
:1000A000EFF3098001E0EFF308807146004A104742
:1000B000B1090000054A064B136006480047FEE7F9
:1000C000FEE7FEE7FEE7FEE7FEE70000A0000640D1
:1000D0002D0100008500000030B50B4601460020D0
:1000E0002022012409E00D46D5409D4205D31D463E
:1000F0009540491B2546954040191546521E002D36
:10010000F1DC30BD10B5202A04DB0146203A9140D5
:10011000002010BD914020239C1A0346E340194360
:10012000904010BD10B5202A04DB0846203AD0408C
:10013000002110BD0B46D340D0402024A21A91408C
:100140000843194610BDD2B201E00270401C491E9E
:10015000FBD270470022F6E710B513460A46044664
:100160001946FFF7F0FF204610BDF0B51FB4064654
:10017000002082B005464024019100901BE00199C7
:1001800022460F463046FFF7CDFF049A059B801AA2
:10019000994110D3104619462246FFF7B3FF361A8D
:1001A0008F410197224601200021009FFFF7AAFFFF
:1001B00038184D4100902046641E0028DFDC019B6A
:1001C00000982946324607B0F0BD0000064C0125D4
:1001D000064E05E0E36807CC2B430C3C98471034EF
:1001E000B442F7D3FFF752FF340E0000540E000064
:1001F000014A024B13607047A00006402D01000029
:1002000070B50346002000BF19E00C46C440E40767
:10021000E40F002C12D01479D5782C4395782C4318
:1002200055782C435D01074EAD198600AC55147806
:100230005D01044EAD198600AD196C70401C082894
:10024000E3D370BD00000440F0B5B5B0054600240E
:1002500037490020329133900026912631461020F4
:1002600000F094FB0121FF20413000F085FB00F0FD
:1002700019FA202000F078FB01902E49202000F090
:1002800085FB32A800F04CFA00BF2FE0702000F090
:100290006BFB1821614302AA5050802000F064FBE0
:1002A0001821614302AA89184860902000F05CFB85
:1002B0001821614302AA89188860A02000F054FB2D
:1002C0001821614302AA8918C860B02000F04CFBD5
:1002D0001821614302AA89180861C02000F044FB7C
:1002E0001821614302AA89184861641C082CCDD3E7
:1002F000002411E006212046FFF7EEFE801C1821A5
:10030000484302A9471806212046FFF7E5FE88006A
:10031000385828602D1D641C182CEBD332A800F02F
:10032000C7F92020019900F031FB35B0F0BD000085
:100330006464461610301D2D10B50446E1B2024823
:1003400000F0C6FC204610BD00000140012101481C
:10035000816770470000064001214902014881671A
:10036000704700000000064002480068401C014938
:10037000086070470C0000208168402211438160B2
:1003800070470160704700000FB410B503A9044B1B
:10039000044A029800F018F810BC08BC04B01847D2
:1003A000990900001C00002002E008C8121F08C1C3
:1003B000002AFAD170477047002001E001C1121FE6
:1003C000002AFBD170470000FFB58FB00F460446EE
:1003D000002606E025280AD0129A11999047641C3D
:1003E000761C20780028F5D1304613B0F0BD0025EA
:1003F0000121A14A009500E00543641C23780846CA
:10040000203B98401042F7D120782E2815D10420A7
:1004100005436078641C2A280AD101CF641C00902F
:100420000BE000990A22514330394018641C0090B7
:100430002078014630390929F3D920786C280ED06C
:1004400004DC4C2813D06A2812D104E074280ED0A2
:100450007A280DD10BE001204005054307E001217A
:10046000090562780D43824201D16D18641C641C39
:100470002078864669284AD008DC0028B4D058285D
:100480006DD0632810D0642808D140E070286BD06C
:10049000732812D0752860D0782860D0129A7046E0
:1004A00011999047761CE5E038786946087200207B
:1004B000487202A80190012003E0386801900020F2
:1004C000C0433F1D69070CD5002500E06D1C009955
:1004D0008D420FDA8542F9DB0199495D0029F5D19A
:1004E00008E0002500E06D1C8542FCDB0199495DB8
:1004F0000029F8D1761907E0019801990078491C84
:100500000191129A119990476D1EF5D2B2E00A201E
:10051000029000216802400F039102280CD001CF05
:10052000C117844600290DDA62460846524200216E
:10053000814194462D2008E0FF1DFF08FF0003CFF6
:100540008446EFE7280504D52B206A461074012065
:100550003CE0E8073AD02020F7E70A2000E010202E
:1005600000210391029007E0102002900021042056
:1005700005430820039100906802400F022810D024
:1005800001CF0021844600200D9028071FD570461A
:1005900070280CD0029A1020039B42401A430CD0C2
:1005A00015E0FF1DFF08FF0003CF8446EBE7402066
:1005B0006A46107401200D900CE06046084306D096
:1005C00030206A4610747046507402200D907046B8
:1005D000582804D029A001900DA80E900DE02CA061
:1005E000F9E76046039B029AFFF7BFFD019B844633
:1005F0009B5C0E9A521E0E92137060460843F0D117
:100600000E9805A9081A20300190680701D50098B6
:1006100001E0012000900199884203DD0146019824
:10062000081A00E000200025009006E004A8129AB5
:10063000405D119990476D1C761C0D988542F5DB45
:1006400004E0129A302011999047761C0099481EB8
:1006500000900029F5DC08E00E980E990078491CFE
:100660000E91129A11999047761C0199481E01909B
:100670000029F1DC641CB4E6092801003031323372
:1006800034353637383961626364656600000000CE
:1006900030313233343536373839414243444546B8
:1006A0000000000010B50121002000F065F910BD28
:1006B000D1B581B00020C043009000BF00BF00F062
:1006C00040F900900098002806DA71210AA0FFF78F
:1006D0005BFE0020C043DCBD502000F045F906461B
:1006E0000027602000F040F9044620463843019A74
:1006F000166050600020EEE75B25645D2064657342
:100700005F636865636B5F6F75747075745F726546
:100710006164792074696D65206F7574200A00002A
:1007200070B504460025ED4300F0F8F80546002DAD
:1007300006DA592107A0FFF727FE0020C04370BD4D
:100740003020216800F022F94020616800F01EF995
:100750000020F4E75B25645D206465735F63686572
:10076000636B5F696E7075745F7265616479207424
:10077000696D65206F7574200A000000F7B582B0BE
:1007800004460F46F8000499FFF7A6FC0546EE095B
:10079000F0012D1A681C40080190666206488642E6
:1007A00002D10020A06202E0AD1B0198A062E06AC5
:1007B000E06205B0F0BD0000FFFF0000014688695F
:1007C0000007C00F704701468869C006C00F704718
:1007D000014688698006C00F704770B504460D4613
:1007E000002020636064A06360606062A062E062D9
:1007F00020462A69E968FFF7C1FF68784007C00F03
:10080000C001297849010843A97809010843E9781A
:10081000C900084369788907490F0843E062287ACC
:10082000E979C9000843606300E026682046FFF7C5
:10083000CAFF0128F9D1761C0020A0632879400264
:10084000697909020843A9790843206370BD000053
:1008500070B588B004460D461646FFF77DFDFFF7DC
:1008600075FD002E06D0012E0FD0022E18D0032EBB
:100870002CD120E0D021684601714121017201AAEA
:1008800030210020FFF7BCFC2BE0D021684601712D
:100890004121017201AAC0210120FFF7B1FC20E033
:1008A000E021684601714121017201AA0321012062
:1008B000FFF7A6FC15E0E0216846017141210172B5
:1008C00001AA0C210320FFF79BFC0AE0D021684617
:1008D00001714121017201AA30210020FFF790FC33
:1008E00000BF00BF0321684601730021417301214D
:1008F00081730021C173012101744174817400214D
:10090000C174022101750694079503A90248FFF7F7
:1009100064FF08B070BD00000000014010B57D24E8
:10092000E40008E0202000F01FF810210840002813
:1009300001D0002010BD2046641E0028F2D1401EC8
:10094000F8E710B57D24E40008E0202000F00CF862
:10095000C007C00F002801D0002010BD2046641E33
:100960000028F2D1401EF8E7014602480818006846
:100970007047000000000940034A821812680A43C9
:10098000014BC3181A60704700000940014A8218E1
:10099000116070470000094070B504460D460A2CEE
:1009A00002D10D20FFF7C8FC2046FFF7C5FC70BD43
:1009B00070B504460D4619A0FFF7E6FC27A0216894
:1009C000FFF7E2FC28A06168FFF7DEFC29A0A16820
:1009D000FFF7DAFC2AA0E168FFF7D6FC2BA021691B
:1009E000FFF7D2FC2DA06169FFF7CEFC2EA0A16914
:1009F000FFF7CAFC2FA0E169FFF7C6FC294631A02A
:100A0000FFF7C2FC34A0FFF7BFFC0020424908609A
:100A100000BF414800680028FBD070BD0A2A2A2A7E
:100A20002A2A2A2A2A2A5468652073617665642056
:100A30007265676973746572732066726F6D207476
:100A4000686520737461636B2A2A2A2A2A2A2A2A53
:100A50002A2A2A2A2A2A2A2A0A0000007230206911
:100A60007320307825780A0072312069732030783D
:100A700025780A00723220697320307825780A00C0
:100A8000723320697320307825780A007231322061
:100A9000697320307825780A000000006C722069A4
:100AA0007320307825780A007063206973203078CD
:100AB00025780A0070737220697320307825780ACF
:100AC0000000000063757272656E745F6C7220695D
:100AD0007320307825780A002A2A2A2A2A2A2A2AE4
:100AE0002A2A2A2A2A2A2A2A2A2A2A2A2A2A2A2A66
:100AF0002A2A2A2A2A2A2A2A2A2A2A2A2A2A2A2A56
:100B00002A2A2A2A2A2A2A2A2A2A2A2A2A2A2A2A45
:100B10002A2A2A2A2A0A000010000020FFB0FFB06B
:100B200082B00121490280A8FFF714FB012149028C
:100B30006846FFF70FFB00BF124D2C4600202062D5
:100B400060620322E12149020F48FFF781FE0FA0F6
:100B5000FFF71AFC0DA0FFF717FC0EA0FFF714FC1F
:100B60000AA0FFF711FC09A0FFF70EFC00BF0F4819
:100B7000FFF724FE0128FAD000F0B8F800F034F8AE
:100B800000BFFEE72400002000366E013D3D3E2000
:100B90000A0000003D3D3E205055462044454D4F43
:100BA0002050524F4752414D0A00000000000140C2
:100BB00010B50448FFF7E0FB03480068401C0249F9
:100BC000086010BD009000401400002010B50448DB
:100BD000FFF7D2FB03480068401C0249086010BDC3
:100BE00000A000401800002010B50B48FFF7CCFB18
:100BF0000AA0FFF7C9FB1548FFF7C6FB14A0FFF7D3
:100C0000C3FB1AA0FFF7C0FB21A0FFF7BDFB29A083
:100C1000FFF7BAFB10BD0000840D00002323230959
:100C20000909090909090909090909090909090934
:100C30000909090909090909090909090909090924
:100C40000909090909090909090A0000DC0D000060
:100C5000095072657373206C20746F206C69737413
:100C60002066696C65287329200A000009507265A6
:100C70007373206520746F20656E637279707420C1
:100C800066696C652873292028505546290A00009A
:100C9000095072657373206420746F2064656372F9
:100CA0007970742066696C65287329202850554630
:100CB000290A0000095072657373207320746F2035
:100CC00073686F7720707566206B6579200A000065
:100CD00070B504460D4600BF2046FFF779FD012898
:100CE000FAD029462046FFF74CFB70BD10B598B0EE
:100CF0006846FFF7A9FA14A0FFF746FB16A0FFF716
:100D000043FB002408E01720001B80006A461158AE
:100D100012A0FFF739FB641C182CF4D311A0FFF7C5
:100D200033FB11A0FFF730FB002408E01720001B65
:100D300080006A46115812A0FFF726FB641C182C8D
:100D4000F4D318B010BD00000A20505546204B6562
:100D500079203A200000000030780000252E3878F5
:100D6000000000000A0000000A505546206B65791B
:100D700020696E20646563696D616C3A2000000033
:100D8000256400000A23232323232323232323234F
:100D90002323232323232323232323232323232323
:100DA0002323232323232323232323232323232313
:100DB0002323232323232323232323232323232303
:100DC00023232323232323232323232323232323F3
:100DD000232323232323232323230A00232323231F
:100DE00023232323232323232323232323232323D3
:100DF00023232323232323232323232323232323C3
:100E000023232323232323232323232323232323B2
:100E100023232323232323232323232323232323A2
:100E20002323232323232323232323232323232392
:100E3000230A0000540E00000000002024000000DF
:100E4000A8030000780E000024000020840C00009D
:100E5000B8030000000000000000000000000000D7
:100E60000000000000000000000000000000000082
:080E700000000000000000007A
:04000005000000B542
:00000001FF
